:020000040800F2
:10000000F06800203190010835DB0008813A0208D1
:1000100037DB000839DB00083BDB0008000000008C
:100020000000000000000000000000003DDB0008B0
:100030003FDB0008000000000B3A020865D800080A
:100040004B9001084B9001084B9001084B90010820
:100050004B9001084B9001084B9001084B90010810
:100060004B9001084B9001084B9001084B90010800
:100070004B9001084B9001084B9001084B900108F0
:100080004B9001084B9001084B9001084B900108E0
:100090004B9001084B9001084B9001084B900108D0
:1000A0004B9001084B9001084B9001084B900108C0
:1000B000A12601084B900108112801084B90010866
:1000C0004B9001084B9001084B9001084B900108A0
:1000D0004B900108BDDD0008F7DD000835DE0008A3
:1000E00069DB000841DB00084B9001084B900108D8
:1000F0004B9001084B9001084B9001084B90010870
:100100004B9001084B9001084B9001084B9001085F
:1001100073DE0008AFDE00084B9001084B90010829
:10012000DD2801084B9001084B9001084B90010815
:100130004B900108E55801084B9001084B900108CD
:100140004B9001084B9001084B9001084B9001081F
:100150004B9001084B9001084B900108EDDE000820
:100160004B9001084B9001084B9001084B900108FF
:100170004B9001084B9001084B9001084B900108EF
:100180004B900108DFF80CD03DF0A2FB004800477F
:10019000EB470008F06800202DE9FC4100240194A1
:1001A00000221146F1A024F045FDF44E002825DA86
:1001B000F3A024F017FCF3A1F4A024F0E4FC002346
:1001C000F2A2EFA1EFA0009424F052FB002817D078
:1001D00096F89000C0070DD0EDA020F08AF996F8AF
:1001E000910038B196F86E0020B1E9A03BF0F3FE23
:1001F0003BF048FF0A2022F096FEFBE724F048FD82
:10020000F0A024F0ACFE0546002D2ED10021EDA07B
:1002100024F06AFE002828D0D9A024F0E3FBD9A15D
:10022000DAA024F0B0FC0023D8A2D5A1D5A0009478
:1002300024F01EFBA8B196F89000C0070DD0D4A002
:1002400020F057F996F8910038B196F86E0020B179
:10025000CFA03BF0C0FE3BF015FF0A2022F063FE6A
:10026000FBE70021D7A024F03FFE284624F045FFFD
:10027000D6A024F074FE05463DB90021D3A024F099
:1002800033FE10B1D2A020F034F9284624F035FF17
:10029000D5A024F064FE05461DB90021D2A024F0AB
:1002A00023FE284624F029FFD1A024F058FE05465D
:1002B0001DB90021CEA024F017FE284624F01DFF12
:1002C000CDA024F04CFE05461DB90021CAA024F0A3
:1002D0000BFE284624F011FFC9A024F040FE05467D
:1002E0001DB90021C6A024F0FFFD284624F005FF1B
:1002F000C6A024F034FE05461DB90021C3A024F099
:10030000F3FD284624F0F9FEC1A024F028FE05469E
:100310001DB90021BEA024F0E7FD284624F0EDFE23
:1003200000220221BDA024F085FC002802DB24F07D
:10033000AFFC11E0002240F20111B8A024F07AFCD9
:100340000546B9483CF0D5FA0246B749284624F09C
:10035000E4FC284624F09CFC4FF400460022314681
:1003600082A024F067FC0546002D6FDB00221146B9
:10037000284624F0F7FC012201A9284624F0A8FC15
:100380004FF49677012816D0284624F081FC77A0F8
:1003900023F065FF0022114674A024F04BFC0028D6
:1003A00046DA78A179A024F0EEFB384622F0BBFDB6
:1003B00004F080FA3EE09DF804007B2834D0284603
:1003C00024F066FC69A023F04AFF0022114667A0D2
:1003D00024F030FC00281ADA69A024F003FB69A19C
:1003E0006AA024F0D0FB002368A265A165A0009458
:1003F00024F03EFA8D495DA01BF0A2FA00201CF00B
:10040000A4FA384622F08FFD04F054FA01E024F0FB
:100410003FFC864955A01BF093FA00201CF095FA8A
:1004200083A020F066F81BE0284624F031FC17E09A
:1004300024F02EFC7D494DA01BF082FA00201CF018
:1004400084FA8AA020F055F80AE0FFE7774947A030
:100450001BF076FA00201CF078FA93A020F049F8FF
:1004600000223146A0A024F0E5FB002802DB24F0A6
:100470000FFC05E09CA01AF022FEA0A020F039F8A5
:1004800000223146ACA024F0D5FB002802DB24F08A
:10049000FFFB06E0AE49A8A01AF07BFDAD4820F0B6
:1004A00028F800223146ACA024F0C4FB002802DB6F
:1004B00024F0EEFB06E0AE49A7A01AF0D5F9AD484E
:1004C00020F017F800223146ABA024F0B3FB00283F
:1004D00002DB24F0DDFB06E0AD49A7A01AF04CFAE0
:1004E000AC4820F006F800223146ABA024F0A2FB75
:1004F000002802DB24F0CCFB06E0AC49A6A01AF0F1
:1005000056FBABA01FF0F5FF00223146B7A024F048
:1005100091FB002802DB24F0BBFB06E0B749B3A047
:100520001AF0E4FFB6A01FF0E4FF00223146C2A09B
:1005300024F080FB002802DB24F0AAFB06E0C2497D
:10054000BDA01AF0A9FCC1A01FF0D3FF00223146C4
:10055000CDA024F06FFB002803DB24F099FBBDE85D
:10056000FC81CE49C8A01AF062FF99E12F636F6E3B
:100570006669672F7379732E63666700980300209E
:100580002F000000666C617368300000656C6D00C0
:10059000466C6173682046696C6520537973746595
:1005A0006D20696E697469616C7A6174696F6E201F
:1005B0006661696C656420616761696E2021212133
:1005C000200A00002F726F6D000000002F534400BE
:1005D0004D616B65202F5344206469722066616908
:1005E0006C6564200A0000002F636F6E6669670007
:1005F0002F736372697074002F6D6F64756C650082
:100600002F6D6F64756C652F6C6962002F667700C3
:100610002F646F776E6C6F61640000002F696E69E4
:10062000742E726300000000723C04086AF603082E
:1006300053797374656D20636F6E666967206669B0
:100640006C652069732072657061697265642077DA
:10065000697468207379735F6366675F696E697434
:100660005F6461746120212121200A005379737431
:10067000656D20636F6E6669672066696C652069C9
:100680007320726577726974652077697468207366
:1006900079735F6366675F696E69745F64617461D3
:1006A00020212121200A000053797374656D206395
:1006B0006F6E6669672066696C6520697320726574
:1006C00063726561746564207769746820737973F7
:1006D0005F6366675F696E69745F6461746120213E
:1006E0002121200A000000002F636F6E6669672FCA
:1006F0006D6F64652E636667000000006D6F646552
:1007000020636F6E6669672066696C652069732077
:100710007265637265617465642077697468206DC1
:100720006F64655F6366675F696E69745F64617457
:100730006120212121200A002F636F6E6669672FD7
:100740007472616E73706172656E742E6366670099
:10075000C4F503086C6104082F636F6E6669672F28
:1007600050524F5F554954442E63666700000000A5
:1007700068F40308E46004082F636F6E6669672FEE
:1007800050524F5F4354524C2E6366670000000086
:1007900080F40308286104082F636F6E6669672F71
:1007A000415030312E63666700000000D0F403082A
:1007B0004150303120636F6E6669672066696C65F1
:1007C000206973207265637265617465642077695E
:1007D000746820415030315F6366675F696E697489
:1007E0005F6461746120212121200A002F636F6EF4
:1007F0006669672F46412E6366670000D8F40308D8
:10080000464120636F6E6669672066696C65206982
:1008100073207265637265617465642077697468BA
:100820002046415F6366675F696E69745F646174E7
:100830006120212121200A002F636F6E6669672FD6
:100840006574682E6366670080F503086574682028
:10085000636F6E6669672066696C652069732072D4
:100860006563726561746564207769746820657476
:10087000685F6366675F696E69745F646174612055
:10088000212121200A0000002F636F6E6669672F07
:10089000574946492E636667000000002AF60308A0
:1008A000E9A01FF026FE5AE67FB505460022114654
:1008B000284624F0BFF90446002C08DA1FF024FB78
:1008C00002462946EFA01FF014FE04B070BD694631
:1008D000204624F0ABFA029818B1204624F0D8F94B
:1008E000F3E7204624F0D4F9284623F0B8FC294643
:1008F000EBA01FF0FEFDE8E710B5F2A023F0AFFC7F
:10090000F4A0FFF7D1FF002010BD10B5AFF2F42026
:1009100023F0A5FCAFF2AC3023F0A1FCAFF28810BD
:1009200023F09DFCF0A023F09AFCAFF2F40023F03A
:1009300096FCFFF731FC002010BD10B5EF4C0023F2
:10094000B2F5007F01D9581E10BD214402E0CC5CF5
:10095000C4545B1C9342FAD3002010BDF0B587B09D
:10096000002400250395049505950695062200218F
:10097000E348FFF7E2FFE24841790379C278CDE925
:1009800000230291837842780178DEA01FF0B1FD48
:10099000E74E0021316071600622D94930461FF0D0
:1009A00002FBE44B03CE40F618121B1A8A4103D215
:1009B000E1A01FF09EFD10E003AE0A2200233BF0F1
:1009C0009BFEC4F10C033032F25404F101040D2CEF
:1009D000F3DB03A9DFA01FF08CFDE14812F0C6F99C
:1009E000DF49491C881E12F0ACFADD4E0124D33ECB
:1009F00086F8884096F8D200022803D0042801D057
:100A000012F0A1FB96F8D400532801D186F870406B
:100A1000032733281CD0342822D0352825D0562847
:100A200028D02AF063FB3BF07AFB20F00BFC23F08C
:100A30004BF827F040FD24F0CCFF27F093FC15F095
:100A4000A4FC0EF0B6FB96F8D2000B2815D017E0E8
:100A50001FF0A1FDC3A00BF0C5F886F87070E2E7A7
:100A60001FF099FD86F87070DDE71FF094FD86F8A1
:100A70007070D8E72AF03AFBD5E7BCA013F0AAFEC5
:100A800096F8D400522836D00023AFF20052AFF2CD
:100A90001051AFF21050009523F0EAFE002843D029
:100AA000B4481FF026FDAFF22451AFF2205024F0DD
:100AB0006AF80023AFF22C52AFF23C51AFF23C5037
:100AC000009523F0D5FE002831D096F89000C0079D
:100AD0000DD0A9A01FF00DFD96F8910038B196F841
:100AE0006E0020B1A4A03BF076FA3BF0CBFA0A20CE
:100AF00022F019FAFBE7AFF27451AFF2705024F014
:100B000042F896F89000C0070DD0A8A01FF0F1FCA5
:100B100096F8910038B196F86E0020B1A3A03BF092
:100B20005AFA3BF0AFFAFEE7ACA01FF0E2FC0A2055
:100B300022F0F9F9B1A1B3A013F05DFC0023AFF2EC
:100B4000B452AFF27851AFA0009523F091FEAE4DB4
:100B500000283AD0ADA01FF0CCFC96F8D400542861
:100B600038D0FFF719FBFFF7C7FEB3480023B3A245
:100B7000AFF2B0510090184623F07AFE00283ED024
:100B8000AFA01FF0B6FC032017F0D7F8A0F5B441D2
:100B90005A390DD01BF0B1FC01201BF0A3FE96F8D2
:100BA000D30003282FD004282DD005282BD02CE0EB
:100BB00016F0D6FC0021032017F0B6F80121AAA0F8
:100BC00003F03EFF03F076FEFEE7ABA01FF091FCC2
:100BD0002C70C2E7FFF799FE96F89000C0070DD081
:100BE000AEA01FF086FC96F8910038B196F86E0022
:100BF00020B1AAA03BF0EFF93BF044FAFEE7B5A024
:100C00001FF077FCBFE71BF051FA96F8910000281F
:100C100016D0AFF2946003F08DFFB64988420FDD25
:100C20004F48413807463BF064FE304490F891004D
:100C30002F2806D096F89000C00703D039465BE114
:100C40007BE16EE167E100005749464920636F6E22
:100C50006669672066696C652069732072656372D6
:100C60006561746564207769746820574946495FF7
:100C70006366675F696E69745F64617461202121D6
:100C800021200A004F70656E2066696C652025730F
:100C9000206661696C6564203A202564200A0000A2
:100CA00046696C652025732073697A652069732015
:100CB0007A65726F2C2072656D6F7665206974207D
:100CC0002E0A00002F6669726D776172652E626967
:100CD0006E0000002F66772F6669726D776172650E
:100CE0002E62696E000000002F636F6E6669672FC9
:100CF000415030322E636667000000008878FF1F85
:100D000065000020554954445F49443A202530325B
:100D1000582025303258202530325820253032587E
:100D200020253032582025303258200A200000007B
:100D300078000020FF9F724E534E20746F6F206C1E
:100D400061726765202C206572726F7220212121EB
:100D50000A000000534E203A2025730A00000000CC
:100D60006B04002075617274310000007370693289
:100D700030000000B86104085350492046696C6592
:100D80002053797374656D20696E697469616C7A3A
:100D90006174696F6E206661696C6564206167616A
:100DA000696E20212121200A000000006D6B66730E
:100DB00020666C617368302066696E6973682C20E8
:100DC000506C656173652072657365742074686525
:100DD000206465766963652E0A000000535049203F
:100DE00046696C652053797374656D20696E69740A
:100DF00069616C697A6564210A0000007370693169
:100E0000310000007364300000000020534443614F
:100E100072642046696C652053797374656D20692E
:100E20006E697469616C697A6174696F6E2066615C
:100E3000696C6564210A000094540408726F6D00A7
:100E4000524F4D2046696C652053797374656D204F
:100E5000696E697469616C7A6174696F6E2066612C
:100E6000696C6564210A00002F66772F75706772C0
:100E70006164652E666C670053444361726420466A
:100E8000696C652053797374656D20696E69746946
:100E9000616C697A6564210A00000000496E69741A
:100EA00020636F6E66696775726174696F6E206624
:100EB000696E69736865642C20506C656173652088
:100EC000726573657420746865206465766963650E
:100ED0002E0A0000524F4D2046696C6520537973ED
:100EE00074656D20696E697469616C697A656421E5
:100EF0000A00000040420F00F7A01FF0FAFA96F82F
:100F0000910040B196F86E0028B13946F2A03BF04E
:100F100062F83BF0B7F80222AFF69C1138461FF09A
:100F200042F8F9A138463BF0B0FC38463AF001FFF0
:100F3000F8A03BF050F83BF06DF918F0E9F818F024
:100F40000EFB96F87000012801D0022819D196F8FE
:100F5000900040070DD5FBA01FF0CBFA96F891004A
:100F600038B196F86E0020B1F6A03BF034F83BF0B3
:100F700089F80721FB4808F02EFF287808B186F889
:100F8000744086F86E4007B0F0BD1CB5F64C02E028
:100F9000012021F0C8FF94F86E000028F8D0F34833
:100FA00014244FF480530078CDE900040022F04966
:100FB000F0A021F0FCFEF249086008B121F0AAFE81
:100FC000F0480022F0490078CDE900044FF40064B5
:100FD0002346EEA021F0EBFEEF49086008B121F0B6
:100FE00099FEEE491E2023460978CDE90010002223
:100FF000EB49ECA021F0DBFEEE490860002803D0AD
:10100000BDE81C4021F086BE1CBD2DE9FC4704460E
:10101000142520781E264FF400774FF480580028BE
:101020002DD0E548434600220078CDE90006E3498B
:10103000E3A021F0BCFEE649086008B121F06AFE99
:10104000E44964203B460978CDE900100022E249DA
:10105000E2A021F0ACFEE449086008B121F05AFE9C
:10106000E2483B4600220078CDE90005E049E1A0D6
:1010700021F09DFEE149086008B121F04BFEE078C7
:10108000F8B13AF0AFFA31F0F9FB0CF03FFC1AF08E
:101090005BFF14F0C7FEDAA01FF02BFAB249012063
:1010A00081F86F00DC48434600220078CDE9000655
:1010B000DA49DBA021F07BFEDD49086008B121F0B0
:1010C00029FEA07978B3DFF86C934FF40063002217
:1010D00099F80000CDE90005D749D8A021F067FEB6
:1010E000D949086008B121F015FE99F80000CDE952
:1010F00000053B460022D549D5A021F058FED6492F
:10110000086008B121F006FED4484346002200786A
:10111000CDE90006D249D3A021F049FED5490860A7
:1011200008B121F0F7FD607870B1D3484346002242
:101130000078CDE90005D149D1A021F038FED3498E
:10114000086008B121F0E6FDA07870B1D0484346B0
:1011500000220078CDE90005CE49CFA021F027FE7E
:10116000D049086008B121F0D5FD20794FF400592D
:10117000E8B1CD484B4600220078CDE90005CB49C7
:10118000CBA021F014FECD49086008B121F0C2FDCA
:10119000CB483B4600220078CDE90005C949CAA0EA
:1011A00021F005FECA49086008B121F0B3FD60795D
:1011B000E8B1C8484B4600220078CDE90006C64990
:1011C000C6A021F0F4FDC849086008B121F0A2FDD5
:1011D000C6483B4600220078CDE90006C449C5A0B8
:1011E00021F0E5FDC649086008B121F093FDE079E2
:1011F00070B1C448434600220078CDE90005C249D9
:10120000C2A021F0D4FDC449086008B121F082FDDC
:10121000207A78B1C1493C2043460978CDE90010D5
:101220000022BF49BFA021F0C2FDC149086008B13A
:1012300021F070FD0020BDE8FC8710B54A4C02E0AB
:10124000012021F070FE94F86E000028F8D0B94813
:1012500001220270427000218170C17002712178F8
:10126000012902D0022902D003E0427101E042715B
:101270008271BDE81040001DC7E610B53A4C02E08F
:10128000012021F050FE94F86E000028F8D0A94803
:101290000021417001780122012901D0B9B177E123
:1012A000817859B1C2712178012902D0022902D076
:1012B0006EE102726CE10272427269E1C17839B189
:1012C00082722178012904D0022903D060E138E13B
:1012D00058E131E132E100004C6F672066696C65CE
:1012E0002070617468206572726F72203A202573D5
:1012F000202C207573652064656661756C742070A0
:101300006174680A000000006C6F67732E74787453
:10131000000000000A0A0A4C6F672073746172743F
:10132000203D3D3D3D3D3D3D3D3D3D3D3D3D3D3D0A
:101330003D3D3D3D3D3D3D3D3D3D3D3D3D3D3D3DDD
:101340000A0A00000A2020456E74657220746573D5
:1013500074696E67206D6F646520212121200A0A5F
:1013600000000000780C002098030020DC01002021
:1013700051BD0008554954445F424C4500000000EF
:10138000E0010020DD010020D5BD0008554954448E
:101390005F424C455F727800E4010020DE010020CE
:1013A0002FBE0008554954445F424C455F72656347
:1013B00000000000E801002003000020D52E0008F6
:1013C000554954445F475052535F726563000000B3
:1013D00014000020E0050020CF0B010847534D5FAB
:1013E0004D47333031000000E4050020E1050020C6
:1013F0008D0B010847534D5F72780000E80500200F
:101400005443502F495020696E697469616C697A40
:101410006564210A000000001A000020DB4100087A
:10142000554954445F6574685F726563000000004D
:1014300040000020EC0500205F1E01085749464986
:101440005F4553503037000000060020FD1D0108A5
:10145000574946495F72780004060020EE010020DB
:101460000DC60008554954445F574946495F7265A7
:10147000630000000002002001000020DB290008BA
:10148000554954445F6D61696E0000000C000020F6
:1014900002000020EB2C0008554954445F325F6D78
:1014A00061696E00100000201800002061390008FA
:1014B000554954445F6574680000000038000020FE
:1014C0001B000020933D00086574685F727800007F
:1014D0004400002019000020213E000855495444D2
:1014E0005F6574685F3200003C0000201C00002033
:1014F0004F4100086574685F72785F320000000039
:1015000048000020EC01002009C10008554954445E
:101510005F57494649000000F8010020ED01002016
:101520005DC40008554954445F325F57494649003D
:10153000FC010020B5040020C27229E0C2720273CF
:1015400026E08178012902D1C378022B03D0C37829
:10155000012B0ED01CE0C27182722178012902D0C9
:10156000022903D014E00272C27211E00272027307
:101570000EE002290CD1C27182722178012902D0B9
:10158000022903D004E00272C27201E0C272427208
:10159000BDE81040001D38E570B5FE4C02E00120AA
:1015A00021F0C1FC94F86E000028F8D0FA4D01201B
:1015B0002978012901D051B39EE0697859B1287189
:1015C0002178012902D0022902D095E0687193E0C8
:1015D0006871A87190E0A97859B1E8712178012962
:1015E00002D0022902D087E0287285E02872687252
:1015F00082E0E978F9B1A8722178012902D00229A4
:1016000002D079E0E87277E0E872287374E06978D4
:10161000012902D1AA78022A03D0AA78012A0ED081
:101620000FE02871E8712178012902D0022903D046
:1016300062E0687128725FE0687168725CE002299C
:1016400002D0012A0ED010E02871E871217801291A
:1016500002D0022903D04FE0687128724CE0287252
:10166000A87149E0EB78022B03D0EB78012B0ED068
:101670000FE0E871A8722178012902D0022903D075
:101680003AE02872E87237E02872287334E0022AC0
:1016900002D001290ED00FE0E871A872217801294B
:1016A00002D0022903D027E02872E87224E0E87211
:1016B000687221E0022B02D0012B0ED01CE02871B1
:1016C000A8722178012902D0022903D014E06871A0
:1016D000E87211E0687128730EE002290CD12871BC
:1016E000A8722178012902D0022903D004E0687190
:1016F000E87201E0E872A871281DBDE8704084E43A
:101700007CB5A44C02E0022021F00DFC94F86E00A0
:101710000028F8D094F87000012824D01AF079FC41
:1017200094F8D40005220A214FF4806333284FD067
:1017300094F8D300012859D0022857D05B00032821
:1017400062D0042801D005286CD1CDE90012002216
:10175000AFF2BB1191A021F02AFB002862D0BDE8B6
:101760007C4021F0D7BA94F8D310002301208A4A94
:10177000012918D0022916D002268D4D032918D030
:10178000042901D00529CBD1137050709670D37005
:101790002670874887A120383BF0CDF885A12846E0
:1017A0003BF0C9F8BCE7107050709370D370207094
:1017B000B6E7137053709070D67026707C487DA188
:1017C00020383BF0B8F87BA128463BF0B4F8A7E7F7
:1017D000CDE900120022AFF64D0179A021F0E7FA21
:1017E00000281FD0BDE87C4021F094BACDE900125A
:1017F0000022AFF2B95176A021F0D9FA002811D019
:10180000BDE87C4021F086BACDE900120022AFF29B
:10181000955173A021F0CBFA002803D0BDE87C409D
:1018200021F078BA7CBD2DE9FC475A4D02E0022038
:1018300021F079FB95F86E000028F8D095F870003B
:101840004FF40076B3000A2404281BD095F8D20088
:10185000022841D06649DFF89C81674D674F032815
:101860004BD0042866D009287BD00A287AD00B28D0
:1018700079D00C2878D0002877D0BDE8FC4760A04C
:101880001EF037BE95F8D200032805D0092803D0F2
:101890000A2801D00B2869D16048002260490078ED
:1018A000CDE900045FA021F082FA5F49086008B129
:1018B00021F030FA5D48334600220078CDE900047B
:1018C0005B495CA021F073FA5C49086000284DD0A8
:1018D000BDE8FC4721F01EBA59480022594900785A
:1018E000CDE9000458A021F062FA594908600028A7
:1018F0003CD0BDE8FC4721F00DBA0878CDE90004E2
:101900000022544954A021F052FA286008B121F075
:1019100001FA98F80000CDE90004334600224F494F
:101920004FA021F044FA386000281FD0BDE8FC47E2
:1019300021F0F0B94C48334600220078CDE900048C
:101940004A494BA021F033FA4B49086008B121F015
:10195000E1F94A48334600220078CDE900044849BD
:1019600005E00FE0B0E0CEE0FCE02CE110E045A0A7
:1019700021F01DFA46490860002809D0BDE8FC475F
:1019800021F0C8B90878CDE900040022314981E08E
:1019900014E1000098030020B50400205549544488
:1019A0005F475052535F4554485F696E6974000049
:1019B000E2040020737A6A73746573740000000097
:1019C000554954445F424C455F696E69740000009C
:1019D000554954445F475052535F696E6974000023
:1019E000554954445F6574685F696E69740000000E
:1019F0004401002045010020480100204C01002046
:101A0000556E6B6E6F776E20626F617264207479B1
:101A1000706520212121200A000000000C02002016
:101A200021D1000854500000100200200D020020B7
:101A30008BD1000854505F7278000000140200201F
:101A400090000020F5A5000873656E736F720000AA
:101A5000B800002025B4000846410000BDB80008C9
:101A600046415F72780000005001002025BA00084E
:101A70006374726C5F696E00C80100205101002020
:101A8000B3BA00086374726C5F6F75740000000075
:101A9000CC010020AFF2400021F089F9286008B1A4
:101AA00021F038F998F80000CDE900046749334681
:101AB0000022AFF2540021F07AF9386000287DD07E
:101AC000BDE8FC4721F026B90878CDE9000460495B
:101AD0000022AFF27C0021F06AF9286008B121F001
:101AE00019F998F80000CDE900045849334600225E
:101AF000AFF2940021F05BF93860002869D0BDE8AE
:101B0000FC4721F007B90878CDE90004504999460F
:101B10000022AFF2BC0021F04AF9286008B121F0A0
:101B2000F9F898F80000CDE900044849334600224E
:101B3000AFF2D40021F03BF9386008B121F0EAF8A7
:101B400044484B4600220078CDE90004424943A0B6
:101B500021F02DF94449086000283AD0BDE8FC473F
:101B600021F0D8B80878CDE9000439490022AFF255
:101B7000181021F01CF9286008B121F0CBF898F872
:101B80000000CDE90004314933460022AFF23010A5
:101B900021F00DF9386008B121F0BCF833484FF45A
:101BA000805300220078CDE90004314931A021F0B2
:101BB000FEF83349086000280BD000E009E0BDE8DA
:101BC000FC4721F0A7B8AFF2C810BDE8FC471EF0F3
:101BD00090BCBDE8FC877CB505200A24CDE9004017
:101BE000C3020022274928A021F0E1F808B121F022
:101BF00091F827484FF400652B460078CDE90004A2
:101C00000022244924A021F0D2F82649086008B116
:101C100021F080F809264FF480730022AFF2F931E9
:101C2000CDE9006420A021F0C2F808B121F072F8DB
:101C30002B460022AFF23751CDE900641DA021F000
:101C4000B6F808B121F066F800207CBDBDB80008E8
:101C500025B4000838030020D9D5000850524F5F42
:101C60005549544400000000800300201802002061
:101C7000F5D2000850524F5F4354524C0000000010
:101C8000340300205D090008696E697400000000DB
:101C9000800000208DA500087379735F73746174F0
:101CA000757300008C0000204150505F696E6974AC
:101CB00000000000434F4D5F696E69740000000032
:101CC00010B5C2B004464FF4807102A83AF0D2FDBC
:101CD00001A80CF02FFD0121204602F0B1FE0022E8
:101CE0000121204622F0A6FFF94CC4F88400002808
:101CF00015DA94F89000C0070DD0F6A01EF0F9FB9D
:101D000094F8910038B194F86E0020B1F1A03AF047
:101D100062F93AF0B7F94FF0FF3042B010BD94F8D5
:101D2000D3000BF0A9FE0246F2A102A83CF0B0F8E5
:101D30000246002A12DA94F89000C00713D0F3A0EC
:101D40001EF0D7FB94F8910068B194F86E0050B182
:101D5000EEA03AF040F93AF095F904E002A9D4F87F
:101D6000840022F0DAFF94F8D2000BF09EFE0246C7
:101D7000ECA102A83CF08CF80246002A12DA94F892
:101D80009000C00713D0E1A01EF0B3FB94F89100BF
:101D900068B194F86E0050B1DCA03AF01CF93AF04A
:101DA00071F904E002A9D4F8840022F0B6FF01A87A
:101DB0003AF040FD0246E2A102A83CF069F8024672
:101DC000002A12DA94F89000C00713D0CFA01EF0BA
:101DD00090FB94F8910068B194F86E0050B1CBA0DC
:101DE0003AF0F9F83AF04EF904E002A9D4F8840088
:101DF00022F093FF94F8D300012808D0022806D0DF
:101E0000032828D004286BD0052869D0AAE094F8CC
:101E10007520CEA102A83CF03BF80246002A14DA55
:101E200094F89000C007F1D0B8A01EF062FB94F8BF
:101E300091000028EAD094F86E000028E6D0B3A004
:101E40003AF0C9F83AF01EF98CE002A9D4F88400FF
:101E500022F063FF86E094F87620BFA102A83CF050
:101E600017F80246002A12DA94F89000C00713D03F
:101E7000A6A01EF03EFB94F8910068B194F86E00A5
:101E800050B1A2A03AF0A7F83AF0FCF804E002A999
:101E9000D4F8840022F041FF94F87720B2A102A880
:101EA0003BF0F6FF0246002A14DA94F89000C007CF
:101EB00058D096A01EF01DFB94F89100002851D038
:101EC00094F86E0000284DD090A03AF084F83AF0D3
:101ED000D9F847E002A9D4F8840022F01EFF41E0BF
:101EE00094F8752099A102A83BF0D2FF0246002A7F
:101EF00012DA94F89000C00713D084A01EF0F9FA0B
:101F000094F8910068B194F86E0050B17FA03AF057
:101F100062F83AF0B7F804E002A9D4F8840022F09D
:101F2000FCFE94F876208CA102A83BF0B1FF02469B
:101F3000002A12DA94F89000C00713D073A01EF0A4
:101F4000D8FA94F8910068B194F86E0050B16FA07F
:101F50003AF041F83AF096F804E002A9D4F8840087
:101F600022F0DBFE94F8D200032802D0022866D0CB
:101F7000A7E094F878207FA102A83BF089FF0246F1
:101F8000002A12DA94F89000C00713D05FA01EF068
:101F9000B0FA94F8910068B194F86E0050B15BA06B
:101FA0003AF019F83AF06EF804E002A9D4F8840087
:101FB00022F0B3FE94F8792072A102A83BF068FFEA
:101FC0000246002A12DA94F89000C00713D04FA0FE
:101FD0001EF08FFA94F8910068B194F86E0050B139
:101FE0004AA039F0F8FF3AF04DF804E002A9D4F81D
:101FF000840022F092FE94F87A2066A102A83BF0B9
:1020000047FF0246002A14DA94F89000C00758D01F
:102010003EA01EF06EFA94F89100002851D094F87A
:102020006E0000284DD039A039F0D5FF3AF02AF8DB
:1020300047E002A9D4F8840022F06FFE41E094F852
:102040007C2058A102A83BF023FF0246002A12DAA6
:1020500094F89000C00713D02CA01EF04AFA94F810
:10206000910068B194F86E0050B128A039F0B3FF28
:102070003AF008F804E002A9D4F8840022F04DFEFA
:1020800094F87D204DA102A83BF002FF0246002AF1
:1020900012DA94F89000C00713D01CA01EF029FAA1
:1020A00094F8910068B194F86E0050B117A039F01F
:1020B00092FF39F0E7FF04E002A9D4F8840022F08F
:1020C0002CFED4F8840022F0E3FD002025E6000079
:1020D00098030020437265617465207465737469A8
:1020E0006E672066696C65206661696C6564202195
:1020F000200A00004D6F746865725F626F617264E0
:102100005F74797065203A2025730A004C6F672050
:10211000737072696E7466206661696C65642021F3
:10212000200A00004465766963655F626F617264CE
:102130005F74797065203A2025730A0A0000000058
:1021400054696D65203A2025730A0A0047534D20D3
:102150003A2025640A00000065746865726E657433
:10216000203A2025640A000057494649203A202594
:10217000640A00005253323332203A092025640A9F
:10218000000000005253343835203A092025640AF3
:1021900000000000696E707574203A092025640AF9
:1021A0000000000073656E736F725F345F32306DD4
:1021B00041203A092025640A0000000073656E730F
:1021C0006F725F3556203A092025640A000000002E
:1021D0002DE9F047F94F022607F1750097F8D3C0B3
:1021E00090F800804179C2780379C479057A90F833
:1021F0005D00BCF1010F0FD0BCF1020F0CD0B9464D
:10220000BCF1030F99F876903ED0BCF1040F7AD060
:10221000BCF1050F76D0E6E0B8F1000FFBD0032843
:1022200002D0022819D0DEE00029F4D0002AF2D032
:10223000002BF0D0E2A0FFF743FDE5A01EF059F916
:10224000DFA022F01AF800201AF07FFB0B21E548EE
:1022500007F0C1FD87F87060C5E0002CDBD0002DD1
:10226000D9D0D7A0FFF72CFDD9A01EF042F9D4A0F9
:1022700022F003F800201AF068FB0B21D94807F080
:10228000AAFD87F87060AEE0B9F1000FC3D097F8EF
:1022900077C0BCF1000FBED0032802D0022819D0AD
:1022A000A1E00029B7D0002AB5D0002BB3D0C4A03C
:1022B000FFF706FDC6A01EF01CF9C1A021F0DDFF4E
:1022C00000201AF042FB0B21C64807F084FD87F876
:1022D000706088E0002C9ED0002D9CD0B8A0FFF745
:1022E000EFFCBBA01EF005F9B5A021F0C6FF002051
:1022F0001AF02BFB0B21BB4807F06DFD87F87060CF
:1023000071E000E03AE0B8F1000F6CD0B9F1000FD5
:1023100069D0032802D0022819D064E0002962D0D5
:10232000002A60D0002B5ED0A5A0FFF7C9FCA8A0B2
:102330001EF0DFF8A2A021F0A0FF00201AF005FB9C
:102340000B21A84807F047FD87F870604BE0002C90
:1023500049D0002D47D09AA0FFF7B2FC9CA01EF0F8
:10236000C8F897A021F089FF00201AF0EEFA0B219F
:102370009C4807F030FD87F8706034E0B8F1000F3A
:1023800031D0B9F1000F2ED00B2802D00C2816D076
:1023900029E041B33AB333B389A0FFF791FC8CA095
:1023A0001EF0A7F886A021F068FF00201AF0CDFAF1
:1023B0000B218C4807F00FFD87F8706013E094B193
:1023C0008DB17FA0FFF77CFC81A01EF092F87CA06D
:1023D00021F053FF00201AF0B8FA0B21814807F0D2
:1023E000FAFC87F87060D7F880004EF660218842CA
:1023F0006FD373A0FFF764FC7BA01EF07AF870A087
:1024000021F03BFF97F8D300012808D0022806D01E
:1024100003283ED004287FD0052877D01CE197F808
:10242000D200032802D002281BD015E197F87500CE
:1024300020B10A216B4807F0CEFC0DE197F87A0035
:1024400050B197F8780038B197F8790020B1092198
:10245000644807F0C0FCFFE00821624807F0BBFCBD
:10246000FAE097F8750020B10A215E4807F0B3FC46
:10247000F2E097F87C0038B197F87D0020B109218F
:10248000584807F0A8FCE7E00821564807F0A3FCED
:10249000E2E097F8D200032802D002281FD0DBE048
:1024A00097F8760038B197F8770020B10A214D48A7
:1024B00007F091FCD0E097F87A0058B197F87800CF
:1024C00040B197F8790028B10921464807F083FC0C
:1024D000C2E0C3E00821434807F07DFCBCE097F868
:1024E000760038B197F8770020B10A213D4807F00F
:1024F00072FCB1E097F87C0048B197F87D0030B1EC
:102500000921384807F067FCA6E005E044E008210F
:10251000344807F060FC9FE097F8D200032802D00F
:1025200002281ED098E097F8750038B197F8760029
:1025300020B10A212B4807F04EFC8DE097F87A0075
:1025400050B197F8780038B197F8790020B1092197
:10255000244807F040FC7FE00821224807F03BFCBC
:102560007AE097F8750038B197F8760020B10A2123
:102570001C4807F030FC6FE097F87C0038B197F802
:102580007D0020B10921174807F025FC64E00821EF
:10259000144807F020FC5FE097F8D2000B2802D027
:1025A0000C283FD058E097F8750038B397F87600BC
:1025B00020B30A210B4807F00EFC4DE098030020E1
:1025C0002F746573745F6C6F672E747874000000ED
:1025D0000A54657374696E67207061737365642053
:1025E0000A0A0000780C00200A54657374696E674B
:1025F0002074696D656F7574200A0A00FFE797F80B
:102600007A0050B197F8780038B197F8790020B186
:102610000921134807F0DFFB1EE00821104807F0EE
:10262000DAFB19E097F8750038B197F8760020B119
:102630000A210B4807F0CFFB0EE097F87C0038B179
:1026400097F87D0020B10921054807F0C4FB03E09D
:102650000821034807F0BFFB87F87060BDE8F087EA
:10266000780C002030B50021FE4A01241268002AAF
:1026700003D05060137803B91470FB4B53F821203A
:102680002AB1906053F82120157805B91470491CBF
:102690000529F3DBF549096819B188600A7802B9A0
:1026A0000C70F349096819B148600A7802B90C70D6
:1026B000F049096819B14860087800B90C70002029
:1026C00030BD30B50021E74A01241268002A03D04A
:1026D0009060137803B91470E34B53F821202AB1AA
:1026E000D06053F82120157805B91470491C0529CC
:1026F000F3DBDE49096819B1C8600A7802B90C70C9
:10270000DB49096819B188600A7802B90C70D949A7
:10271000096819B18860087800B90C70002030BDD4
:102720000EF0BCB92DE9F0438FB00446DDE91696F2
:102730000D4617469846342102A83AF09BF81CB182
:1027400001208DF8080002E003208DF80800ADF8A4
:1027500038504B464246394602A800960EF0E0F942
:102760000FB0BDE8F08370477047704770472DE9A0
:10277000FF4F93B023AF209E97E880078B46154606
:102780001C46342106A83AF075F8BBF1000F01D0C1
:10279000002000E002208DF818008DF819509DB13E
:1027A00021460DF126003AF0C6F8ADF846602798AC
:1027B0008DE880070490DDE9212306A913980EF027
:1027C00075F917B0BDE8F08F20788DF81A006078A1
:1027D0008DF81B00A0788DF81C00E0788DF81D00A6
:1027E000ADF81E60E3E710B50168A3480068C0F8C3
:1027F000D419012180F8D019FFF734FF9F4C94F8C9
:10280000900040070DD59EA01DF073FE94F8910036
:1028100038B194F86E0020B199A039F0DCFB39F0A2
:1028200031FC002010BD70B5044608460EF06FF96B
:10283000924D95F89000400711D596A0D4F8D41980
:102840001DF057FE95F8910048B195F86E0030B133
:1028500090A0D4F8D41939F0BEFB39F013FC002055
:1028600070BD70B5044694F8D009002816D0834D89
:1028700095F89000C00711D08DA0D4F8D4191DF0A0
:1028800038FE95F8910048B195F86E0030B188A0F7
:10289000D4F8D41939F09FFB39F0F4FB002084F808
:1028A000D00970BD70B50C4615461E464FF4FA713E
:1028B00087481CF0D9FA3246294620460EF0EEF839
:1028C000044683481CF0B2FB204670BD70B5164626
:1028D0000446B2B204F6482027F003FF0546B5428D
:1028E0001AD0664E96F89000C00713D02A4679A0F9
:1028F000D4F8D4191DF0FDFD96F8910050B196F86A
:102900006E0038B12A4673A0D4F8D41939F063FBAD
:1029100039F0B8FB6FF0060070BD3EB5044604F612
:102920002E2408782070487860708878A070C87865
:10293000E070A280A4F62E24504D95F89000400738
:102940002AD594F8310A94F8301ACDE901020091A1
:1029500094F82F3A94F82E2A66A0D4F8D4191DF0D2
:10296000C8FD95F89100002816D095F86E00002853
:1029700012D004F61224E07F218CA27FCDE9002042
:102980000291637F227F54F83E1C5AA039F023FB4A
:10299000BDE83E4039F076BB3EBD10B50168364813
:1029A0004068C0F8D419012180F8D019FFF789FEDA
:1029B000324C94F8900040070DD558A01DF099FDB9
:1029C00094F8910038B194F86E0020B153A039F01A
:1029D00002FB39F057FB002010BD88B000231A46D7
:1029E00053A157481CF07BF8554800231A4655A1BF
:1029F0002C381CF074F8214E02E0022020F093FAEB
:102A000096F888000028F8D0AFF2F1000025CDE953
:102A1000065004950595AFF24B10AFF2B911CDE910
:102A20000015AFF2FD13AFF24122AFF2BD21CDE9A7
:102A30000205AFF28F1002F033FB0F4C206078B12B
:102A400042F6082196F836200A540322414902F042
:102A500012FB4FF0010886F8D68001213E487DE048
:102A60008EE0000010080020E40C00200802002086
:102A700020080020280800200400002098030020DF
:102A8000535A4A5320636F6E6E65637465642120E8
:102A90000A000000554954445F47505253202564B2
:102AA00020646973636F6E6E6563742E200A000084
:102AB000554954445F47505253202564206469733C
:102AC000636F6E6E656374656420212121200A00A6
:102AD000E416002072696E676275662025642077AF
:102AE00072697465206572726F72203A20256420C5
:102AF00000000000554954445F475052532025645C
:102B000020495020706F7274203A2025642E25646D
:102B10002E25642E25643A2564200A0058465A441E
:102B200020636F6E6E656374656421200A00000087
:102B3000554954445F6D61696E5F74780000000010
:102B40005C0B0020554954445F6D61696E5F72787B
:102B500000000000B80B00208C1600201CF03BF891
:102B600000287FF47AAFB078FE4FF8B1B08ECDE98F
:102B700000050122F31C1146206802F077FB1EE0DD
:102B800096F89000C0070DD0F7A01DF0B2FC96F8A3
:102B9000910038B196F86E0020B1F3A039F01BFA1D
:102BA00039F070FA052020F0BEF9FBE7B08ECDE9D0
:102BB00000053B4600220121206802F057FB002857
:102BC00016DA96F89000B046C00718D0EDA01DF0B8
:102BD00090FC98F8910090B198F86E0078B1E9A057
:102BE00039F0F9F939F04EFA09E0052020F09BF9A7
:102BF000206890F8D0090028F7D086F8898096F8E8
:102C00007000012801D0022862D10A2020F08BF93F
:102C1000FBE790F8D019A1BB0421E04807F0DBF8EE
:102C2000B07848B1B08ECDE900050122F31C114601
:102C3000206802F01BFB08E0B08ECDE900053B46A2
:102C400000220121206802F011FB00281DDA96F80D
:102C50009000C0070DD0D2A01DF04BFC96F891005B
:102C600038B196F86E0020B1CDA039F0B4F939F042
:102C700009FA40F6B83020F056F9206880F8D059AB
:102C800026E008E0052020F04EF9206890F8D009F1
:102C90000028F7D00CE030B190F8D019012902D10A
:102CA0000178022918D006F0F1FB206806F0A2F89E
:102CB000C248007848B10521B84807F08CF84FF4B5
:102CC000FA7020F030F901F0F5FD012020F02BF929
:102CD00020680028DFD09CE70321B04807F07BF88C
:102CE0002168022081F8D009E2E788B09D4E233E9A
:102CF00002E0022020F017F996F888000028F8D0AA
:102D0000AFF2E9300025CDE9065004950595AFF204
:102D10004340AFF2B141CDE90015AFF2F543AFF258
:102D20008532AFF2B551CDE90205AFF2874002F02E
:102D3000B7F9A34C606090B996F890003746C00789
:102D40000DD0A0A01DF0D5FB97F8910038B197F8F1
:102D50006E0020B19BA039F03EF939F093F960681C
:102D600042F6082196F86C200A5403229C4902F08E
:102D700082F9012086F8D8000A2020F0D4F896F8CD
:102D8000890018B996F88B000028F5D0DFF8D481B7
:102D900096F83800A8F1230808F1390708F1590816
:102DA00050B1B6F86A00CDE9000501223B46114654
:102DB000606802F05BFA09E0B6F86A00CDE9000548
:102DC000434600220121606802F050FA002816DA1A
:102DD00096F89000B146C00716D06AA01DF089FB96
:102DE00099F8910080B199F86E0068B165A039F04A
:102DF000F2F839F047F907E0052020F094F8606810
:102E000090F8D0090028F7D096F87000012801D07A
:102E1000022852D10A2020F086F8FBE790F8D0195A
:102E200000293AD196F8381049B1B6F86A10CDE9C0
:102E3000001501223B46114602F018FA08E0B6F8E8
:102E40006A10CDE9001543460022012102F00EFA76
:102E500000281CDA96F8900040070DD561A01DF0FF
:102E600048FB96F8910038B196F86E0020B15DA04D
:102E700039F0B1F839F006F940F6B83020F053F8DF
:102E8000606880F8D05918E0052020F04CF86068A0
:102E900090F8D0090028F7D00CE030B190F8D019A4
:102EA000012902D1017802290BD006F0EFFA6068FF
:102EB00005F0A0FF012020F036F860680028ECD073
:102EC000ACE70321354806F086FF6168022081F8EF
:102ED000D009EFE7234C233C02E0052020F023F843
:102EE00094F8D6000028F8D0354C206806F085FE0E
:102EF000606806F082FE012020F015F8F5E7304802
:102F0000006806F09BBA10B5164C233C94F890006C
:102F100040070DD53DA01DF0ECFA94F8910038B1B2
:102F200094F86E0020B139A039F055F839F0AAF8BC
:102F3000002010BD10B50B4C233C94F890004007C6
:102F40000DD538A01DF0D5FA94F8910038B194F859
:102F50006E0020B133A039F03EF839F093F800202C
:102F600010BD0000BB030020554954445F535A4A2A
:102F70005320696E6974206661696C656420210A5A
:102F8000000000005549544420636F6E6E65637401
:102F9000206661696C656420210A0000780C0020BD
:102FA000554954445F535A4A5320636F6E6E6563AC
:102FB00074206661696C656420210A0002050020A6
:102FC00004000020554954445F58465A4420696E15
:102FD0006974206661696C656420210A0000000044
:102FE000B80B0020554954445F58465A4420636F3B
:102FF0006E6E656374206661696C65642021207261
:1030000065747279202E2E2E0A00000046696C65C8
:1030100020646F776E6C6F61642073756363657392
:10302000732E0A0046696C6520646F776E6C6F6161
:1030300064206661696C65642E0A000008B5AFF211
:103040000B11AFF23D130246FC48009142F284712D
:103050000068014406F0AFF908BD3EB5044601A87A
:1030600002F0EFFB01A9F548009101222346114629
:10307000006803F00CFB3EBD0146F048006803F019
:103080009EB92DE9FF47ED4CED4D0526216804273B
:1030900095F890004FF003094FF0020800297DD009
:1030A00040070DD5E7A01DF024FA95F8910038B13E
:1030B00095F86E0020B1E3A038F08DFF38F0E2FF04
:1030C00095F8900040071DD5CDE90269CDE900874C
:1030D0002068012300220178E1481DF00AFA95F8E2
:1030E000910078B195F86E0060B1CDE90269CDE943
:1030F00000872068012300220178D94838F06BFF4F
:1031000038F0C0FF95F89000400713D5206890F87C
:10311000051AD4A01DF0EDF995F8910050B195F87D
:103120006E0038B1206890F8051ACEA038F053FF31
:1031300038F0A8FF95F8900040071DD5206800F6EC
:103140002620C1780091837842780178CAA01DF0CA
:10315000D0F995F8910078B195F86E0060B12068CB
:1031600000F62620C1780091837842780178C2A0C9
:1031700038F031FF38F086FF95F89000400715D5FC
:103180002168C2A001F606211DF0B3F995F891005F
:1031900060B195F86E0048B1216800E039E101F6B0
:1031A0000621BAA038F017FF38F06CFF95F89000B0
:1031B000400713D52068B0F82A1AB9A01DF099F974
:1031C00095F8910050B195F86E0038B12068B0F8CC
:1031D0002A1AB3A038F0FFFE38F054FF95F890009B
:1031E00040071DD5206800F62E20C1780091837815
:1031F00042780178ADA01DF07CF995F8910078B186
:1032000095F86E0060B1206800F62E20C17800911C
:10321000837842780178A5A038F0DDFE38F032FFDF
:1032200095F89000400713D52068B0F8321AA5A091
:103230001DF05FF995F8910050B195F86E0038B126
:103240002068B0F8321A9FA038F0C5FE38F01AFF97
:10325000606800287ED095F8900040070DD59DA0AD
:103260001DF047F995F8910038B195F86E0020B13E
:1032700098A038F0B0FE38F005FF95F890004007B0
:103280001DD5CDE90269CDE90087606801230022E0
:10329000017873481DF02DF995F8910078B195F8F3
:1032A0006E0060B1CDE90269CDE900876068012355
:1032B000002201786A4838F08EFE38F0E3FE95F877
:1032C0009000400713D5606890F8051A65A01DF0BE
:1032D00010F995F8910050B195F86E0038B160681A
:1032E00090F8051A5FA038F076FE38F0CBFE95F81E
:1032F000900040071DD5606800F62620C178009137
:103300008378427801785CA01DF0F3F895F891007D
:1033100078B195F86E0060B1606800F62620C1783B
:10332000009183784278017853A038F054FE38F049
:10333000A9FE95F89000400715D5616853A001F6E5
:1033400006211DF0D6F895F8910060B195F86E0051
:1033500048B100E0DAE061684CA001F6062138F0DF
:103360003AFE38F08FFE95F89000400713D560685C
:10337000B0F82A1A4AA01DF0BCF895F8910050B197
:1033800095F86E0038B16068B0F82A1A44A038F099
:1033900022FE38F077FE95F8900040071DD5606852
:1033A00000F62E20C17800918378427801783FA002
:1033B0001DF09FF895F8910078B195F86E0060B116
:1033C000606800F62E20C1780091837842780178F9
:1033D00036A038F000FE38F055FE95F89000400712
:1033E00013D56068B0F8321A36A01DF082F895F84F
:1033F000910050B195F86E0038B16068B0F8321A9B
:1034000030A038F0E8FD38F03DFE04B00020BDE803
:10341000F08740077FF51CAF35A01DF06AF895F8DE
:10342000910000283FF414AF95F86E000028F9D001
:103430002FA038F0D0FD38F025FE09E70400002069
:10344000980300200A205549544420535A4A5320D7
:1034500073657276657220696E666F3A200A0000A5
:10346000FC61040869665F7573655F6E616D653A3E
:103470002025640A0000000049503A2025642E25CA
:10348000642E25642E25640A0000000073657276A0
:1034900065725F6E616D653A2025730A0000000059
:1034A000706F72743A2025640A0000006C6F6361CB
:1034B0006C5F49503A2025642E25642E25642E2504
:1034C000640A00006C6F63616C5F706F72743A2005
:1034D00025640A000A20554954442058465A44207D
:1034E00073657276657220696E666F3A200A000015
:1034F0000A205549544420535A4A53206973206E78
:103500006F742075736564200A00000095F89000C0
:1035100040077FF57AAF09A01CF0EBFF95F891000A
:1035200000283FF472AF95F86E000028F9D003A090
:1035300038F051FD38F0A6FD67E700000A20554934
:1035400054442058465A44206973206E6F74207585
:10355000736564200A0000002DE9F04786B00D462F
:1035600004464FF0FF394E466978DFF8108400F6C4
:10357000262A002928D005F10E002DF0F5F948B1D2
:1035800000690422016850461CF00DFDE88DA4F886
:103590002A0A19E098F89000C0070DD0F8A01CF096
:1035A000A8FF98F8910038B198F86E0020B1F4A007
:1035B00038F011FD38F066FD0422A91C50461CF0BD
:1035C000F2FCE88DA4F82A0AD4F8007A57B1B4F8CE
:1035D0002A0A0090F648B4F8322A53460168204679
:1035E000091DB847287800BB0221002208462EF0AA
:1035F000CEF8064630001CD40020029003900490C0
:10360000059002208DF80900B4F82C0A2FF022FC56
:10361000ADF80A0000202FF023FC0390102202A92D
:1036200030462DF02CFDC4F8D469304606B0BDE814
:10363000F08798F89000C0070DD0DEA01CF059FF6D
:1036400098F8910038B198F86E0020B1D9A038F000
:10365000C2FC38F017FD4846E8E710B5002801DB4A
:103660002DF0C5FD002010BDF0B587B004460D4615
:1036700016461F46002003900490059006900220F5
:103680008DF80D00B4F82A0A2FF0E4FBADF80E0017
:10369000D4F8260A04904FF4FA71CC481BF0E4FBEE
:1036A000102003A9CDE9001000233A4631462846F0
:1036B0002DF0B2FF0446C5481BF0B8FC07B0204609
:1036C000F0BD2DE9FF4F93B023AF209E97E8800710
:1036D0008B4615461C46342106A839F0CBF8BBF1C1
:1036E000000F01D0002000E002208DF818008DF8B6
:1036F00019509DB121460DF1260039F01CF9ADF8A5
:10370000466027988DE880070490DDE9212306A90B
:103710001398FFF721FF17B0BDE8F08F20788DF8E0
:103720001A0060788DF81B00A0788DF81C00E078F6
:103730008DF81D00ADF81E60E3E770B505688F4C8D
:1037400094F8900040070FD52946A1A01CF0D1FEA7
:1037500094F8910040B194F86E0028B129469CA0DD
:1037600038F039FC38F08EFCA3480068C0F8D45912
:10377000012180F8D019FEF775FF94F890004007FA
:103780000DD59EA01CF0B5FE94F8910038B194F8C8
:103790006E0020B199A038F01EFC38F073FC0020B8
:1037A00070BD2DE9F04107460E463C46734D95F835
:1037B000900040070FD5314696A01CF09AFE95F870
:1037C000910040B195F86E0028B1314691A038F0D3
:1037D00002FC38F057FC3046FFF73FFFD4F8E439DD
:1037E0001BB132460021384698470020BDE8F081E1
:1037F00070B50446164694F8D009002814D05F4DE1
:1038000095F89000C0070FD0314689A01CF071FEDA
:1038100095F8910040B195F86E0028B1314684A02A
:1038200038F0D9FB38F02EFC002084F8D00970BDA8
:1038300070B516460446B2B204F6482026F051FF91
:103840000546B5421AD04D4E96F89000C00713D0E9
:103850002A467FA0D4F8D4191CF04BFE96F89100AC
:1038600050B196F86E0038B12A4679A0D4F8D41930
:1038700038F0B1FB38F006FC6FF0060070BD3EB5C5
:10388000044604F62E240878207048786070887802
:10389000A070C878E070A280A4F62E24374D95F869
:1038A0009000400726D594F8310A94F8301ACDE9F3
:1038B0000102009194F82F3A94F82E2A6CA0D4F8C3
:1038C000D4191CF016FE95F8910098B195F86E0089
:1038D00080B104F61224E07F218CA27FCDE9002084
:1038E0000291637F227F54F83E1C61A038F073FB85
:1038F00038F0C8FB00203EBD70B505681F4C94F839
:10390000900040070FD5294665A01CF0F2FD94F801
:10391000910040B194F86E0028B1294660A038F0BB
:103920005AFB38F0AFFB34484068C0F8D459012145
:1039300080F8D019FEF7C5FE94F8900040070DD529
:1039400061A01CF0D6FD94F8910038B194F86E0097
:1039500020B15DA038F03FFB38F094FB002070BD33
:103960008AB000270997DFF8148002E002201FF0D8
:10397000DAFA98F86E000028F8D0B4E09803002036
:1039800047657420686F7374206279206E616D657D
:10399000206661696C656420210A20557365207476
:1039A000686520495020616464726573730A000081
:1039B000540A0020437265617420736F636B6574F1
:1039C000206661696C656420210A0000880B002074
:1039D000554954445F6574685F535A4A5320636F76
:1039E0006E6E6563746564202C20736F636B657401
:1039F000203A2025640A0000200000206574685FDA
:103A0000535A4A5320636F6E6E6563746564212058
:103A10000A000000554954445F65746820256420FD
:103A2000646973636F6E6E6563742E200A00000014
:103A3000554954445F657468202564206469736344
:103A40006F6E6E656374656420212121200A000079
:103A500072696E6762756620256420777269746585
:103A6000206572726F72203A2025642000000000E9
:103A7000554954445F65746820736F636B657420A7
:103A8000256420495020706F7274203A2025642EDE
:103A900025642E25642E25643A2564200A00000042
:103AA000554954445F6574685F58465A4420636FB3
:103AB0006E6E6563746564202C20736F636B657430
:103AC000203A2025640A00006574685F58465A440D
:103AD00020636F6E6E656374656421200A000000C8
:103AE00002201FF020FA98F86F000028F8D0FE4D51
:103AF00002E001201FF017FA286890F82D00C00698
:103B0000F7D540F2DC501CF0D8FEF84CA060E0B3D2
:103B1000AFF29520CDE9067004970597AFF2EF203C
:103B2000AFF23331CDE90017AFF28933AFF2F5329E
:103B3000AFF27141CDE90207AFF2D34001F0B0FA24
:103B40002060E0B342F6082198F836200A544EF679
:103B50008701A0F8321A0122E54901F08CFA01260A
:103B600088F8D660286890F82D00C0077ED098F8B5
:103B70000200DFF8809300283BD02068B8F83410AA
:103B800008F10303B0F8322A00E007E0CDE90012A3
:103B90000122114601F06AFB099037E098F8900085
:103BA000C0070FD0D4A01CF0A4FC98F8910048B135
:103BB00098F86E0030B1D0A038F00DFA00E002E0C5
:103BC00038F060FAFEE798F89000C0070DD0D1A059
:103BD0001CF08FFC98F8910038B198F86E0020B175
:103BE000CCA038F0F8F938F04DFA05201FF09BF919
:103BF000FBE72068B8F834204B46B0F8321ACDE91C
:103C000000210022012101F031FB099009980028D0
:103C100016DA98F89000C246C0070DD0C5A01CF077
:103C200068FC9AF8910038B19AF86E0020B1C1A0F2
:103C300038F0D1F938F026FA64201FF074F910E05A
:103C40002068D0F8DC1909A8884798F87000012886
:103C500010D002280ED00321BC4806F0BCF888F82A
:103C60008B6098F8700001280DD000E007E0022872
:103C700009D081E00721B54806F0ADF8EFE7012053
:103C80001FF051F96EE788F876600A201FF04BF9B3
:103C9000FBE790F8D01989BB0421AC4806F09BF8EB
:103CA000286890F82D00C10756D0C00654D598F862
:103CB000020070B12068B8F8342008F10303B0F8AE
:103CC000321ACDE900210122114601F0CFFA099004
:103CD0000CE02068B8F834204B46B0F8321ACDE931
:103CE00000210022012101F0C1FA09900998002861
:103CF0001ADA98F89000C0070FD000E021E094A0F5
:103D00001CF0F7FB98F8910038B198F86E0020B1DC
:103D10008FA038F060F938F0B5F964201FF003F98E
:103D2000206880F8D07927E0206880F8D06902E028
:103D300005201FF0F8F8206890F8D0090028F7D087
:103D40000AE030B190F8D019012902D10178022996
:103D500016D0002104F048FE8448007848B10521BF
:103D60007A4806F038F84FF4FA701FF0DCF800F0EB
:103D7000A1FD01201FF0D7F820680028E1D088E7D6
:103D80000321724806F027F82168022081F8D00943
:103D9000E2E788B000240494059406940794039401
:103DA000544D233D02E001201FF0BDF895F88B0033
:103DB0000028F8D0049405940694079402208DF806
:103DC00011004A4C2068B0F82C0A2FF043F8ADF8E7
:103DD00012002068D0F8260A059010200390206871
:103DE000D0B190F8D019B9B1D0F8D409002813DBBC
:103DF00003A904AACDE90021082340F2DB52A168FF
:103E00002DF0A1FA2061002806DD2368024618463D
:103E1000D3F8EC59A168A84701201FF084F8DEE729
:103E20008AB000270997334C233C02E002201FF0A0
:103E30007AF894F86E000028F8D002E002201FF013
:103E400072F894F86F000028F8D0274E02E00120A5
:103E50001FF069F8306890F82D00C006F7D540F2E1
:103E6000DC501CF02AFD214DE860D8B3AFF2F150D0
:103E7000CDE9067004970597AFF24B60AFF28F6102
:103E8000CDE90017AFF2E563AFF29352AFF2CD7117
:103E9000CDE90207AFF62F0001F002F968600028B3
:103EA00021D042F6082194F86C200A544EF688017D
:103EB000A0F8321A01220E4901F0DDF84FF0010896
:103EC00084F8D880306890F82D00C00775D0DFF8EE
:103ED00024A094F83800AAF1230A0AF139090AF15A
:103EE000590A45E054E069E0540A0020200000200F
:103EF000B80B0020BB0300204D616C6C6F63206524
:103F0000746820627566206661696C656420210AA8
:103F100000000000554954445F6574685F535A4A75
:103F20005320696E6974206661696C656420210A9A
:103F3000000000005549544420636F6E6E65637441
:103F4000206661696C656420210A0000780C0020FD
:103F5000554954445F535A4A5320636F6E6E6563EC
:103F600074206661696C656420210A0002050020E6
:103F7000002839D06868B4F86A104B46B0F8322A85
:103F8000CDE900120122114601F070F9099038E0E4
:103F900094F89000C0070FD0AFF2A4001CF0A9FA6B
:103FA00094F8910040B194F86E0028B1AFF2B800D7
:103FB00038F011F838F066F8FEE74AE094F890001F
:103FC000C0070DD0FDA01CF094FA94F8910038B110
:103FD00094F86E0020B1F9A037F0FDFF38F052F8E8
:103FE00005201EF0A0FFFBE76868B4F86A2053467E
:103FF000B0F8321ACDE900210022012101F036F992
:1040000009900998002818DA94F89000A346C00790
:104010000FD0AFF2E0001CF06CFA9BF8910040B1B9
:104020009BF86E0028B1AFF2F40037F0D4FF38F0FF
:1040300029F864201EF077FF04E06868D0F8DC19E6
:1040400009A8884794F87000012806D0022804D0F7
:1040500075E001201EF067FF34E70A201EF063FFC1
:10406000FBE790F8D019E1BB316891F82D10CA0731
:1040700055D0C90653D594F8381061B1B0F8321A4A
:10408000B4F86A20CDE9002101224B46114601F027
:10409000EDF809900BE0B0F8321AB4F86A20CDE9D7
:1040A000002153460022012101F0E0F8099009980F
:1040B00000281ADA94F89000C0070DD0C7A01CF0B1
:1040C00018FA94F8910038B194F86E0020B1C3A0AA
:1040D00037F081FF37F0D6FF64201EF024FF6868B8
:1040E00000E00FE080F8D07929E0686880F8D08996
:1040F00002E005201EF017FF686890F8D00900283C
:10410000F7D00CE030B190F8D019012902D1017834
:10411000022918D005F0BAF9686804F06BFEB648B9
:10412000007848B10521B54805F055FE4FF4FA7006
:104130001EF0F9FE00F0BEFB01201EF0F4FE6868E0
:104140000028DFD08DE7022180F8D019E7E788B09A
:10415000002404940594069407940394A84D02E067
:1041600001201EF0E0FE95F88B000028F8D00494A2
:1041700005940694079402208DF81100A14C606804
:10418000B0F82C0A2EF066FEADF812006068D0F888
:10419000260A0590102003906068D0B190F8D019DD
:1041A000B9B1D0F8D409002813DB03A904AACDE9DA
:1041B0000021082340F2DB52E1682DF0C4F8606171
:1041C000002806DD636802461846D3F8EC59E1681A
:1041D000A84701201EF0A7FEDEE700228AA18D4835
:1041E0001AF0B8FD864C02E005201EF09CFE94F803
:1041F000D6000028F8D0834C206805F0FEFC6068EB
:1042000005F0FBFC01201EF08EFEF5E72DE9FF47CF
:104210007C4C7B4D05262168042795F890004FF0D3
:1042200003094FF0020800297DD040070DD57A48D8
:104230001CF05FF995F8910038B195F86E0020B147
:10424000754837F0C8FE37F01DFF95F8900040071D
:104250001DD5CDE90269CDE9008720680123002240
:1042600001786E481CF045F995F8910078B195F801
:104270006E0060B1CDE90269CDE9008720680123B5
:1042800000220178654837F0A6FE37F0FBFE95F86E
:104290009000400713D5206890F8051A60A01CF024
:1042A00028F995F8910050B195F86E0038B1206862
:1042B00090F8051A5AA037F08EFE37F0E3FE95F815
:1042C000900040071DD5206800F62620C178009197
:1042D00083784278017857A01CF00BF995F891008B
:1042E00078B195F86E0060B1206800F62620C1789C
:1042F00000918378427801784EA037F06CFE37F059
:10430000C1FE95F89000400715D521684EA001F632
:1043100006211CF0EEF895F8910060B195F86E005A
:1043200048B1216800E0D7E101F6062146A037F048
:1043300052FE37F0A7FE95F89000400713D520688D
:10434000B0F82A1A45A01CF0D4F895F8910050B1A5
:1043500095F86E0038B12068B0F82A1A3FA037F0FF
:104360003AFE37F08FFE95F8900040071DD5206883
:1043700000F62E20C17800918378427801783AA027
:104380001CF0B7F895F8910078B195F86E0060B11F
:10439000206800F62E20C178009183784278017859
:1043A00031A037F018FE37F06DFE95F89000400709
:1043B00077D52068B0F8321A62E072E0554954446B
:1043C0005F6574685F58465A4420696E6974206658
:1043D00061696C656420210A00000000554954445D
:1043E0005F58465A4420636F6E6E65637420666141
:1043F000696C656420210A0002050020780C002009
:1044000098030020200000206574685F73656E6467
:1044100000000000880B002098620408FC6104087A
:1044200069665F7573655F6E616D653A2025640A24
:104430000000000049503A2025642E25642E256492
:104440002E25640A000000007365727665725F6E47
:10445000616D653A2025730A00000000706F727468
:104460003A2025640A0000006C6F63616C5F49505C
:104470003A2025642E25642E25642E25640A00002A
:10448000AAA01CF036F895F8910050B195F86E008E
:1044900038B12068B0F8321AA4A037F09CFD37F08C
:1044A000F1FD95F89000400713D52068B0F82C1A5C
:1044B000A2A01CF01EF895F8910050B195F86E007E
:1044C00038B12068B0F82C1A9CA037F084FD37F082
:1044D000D9FD606800287DD095F8900040070DD583
:1044E0009B481CF006F895F8910038B195F86E00DD
:1044F00020B1974837F06FFD37F0C4FD95F8900074
:1045000040071DD5CDE90269CDE900876068012328
:10451000002201788F481BF0ECFF95F8910078B1EC
:1045200095F86E0060B1CDE90269CDE90087606859
:10453000012300220178874837F04DFD37F0A2FDB6
:1045400095F89000400715D5606890F8051AAFF20D
:1045500030101BF0CEFF95F8910058B195F86E0021
:1045600040B1606890F8051AAFF24C1037F033FD97
:1045700037F088FD95F8900040071FD5606800F679
:104580002620C1780091837842780178AFF25C10E0
:104590001BF0AFFF95F8910080B195F86E0068B1FF
:1045A000606800F62620C17800918378427801780F
:1045B000AFF2801037F00FFD37F064FD95F89000F2
:1045C000400717D5616801F60621AFF284101BF091
:1045D00090FF00E095E095F8910058B195F86E00D5
:1045E00040B1616801F60621AFF2A41037F0F3FC88
:1045F00037F048FD95F89000400715D56068B0F891
:104600002A1AAFF2A8101BF074FF95F8910058B168
:1046100095F86E0040B16068B0F82A1AAFF2C41085
:1046200037F0D9FC37F02EFD95F8900040071FD5E4
:10463000606800F62E20C178009183784278017876
:10464000AFF2DC101BF055FF95F8910080B195F8A2
:104650006E0068B1606800F62E20C1780091837802
:1046600042780178AFF2002037F0B5FC37F00AFD50
:1046700095F89000400713D56068B0F8321A2BA067
:104680001BF037FF95F8910050B195F86E0038B1E6
:104690006068B0F8321A25A037F09DFC37F0F2FCC4
:1046A00095F89000400713D56068B0F82C1A23A045
:1046B0001BF01FFF95F8910050B195F86E0038B1CE
:1046C0006068B0F82C1A1DA037F085FC37F0DAFCD2
:1046D00004B00020BDE8F08740077FF5FAAE1EA0C9
:1046E0001BF007FF95F8910000283FF4F2AE95F813
:1046F0006E000028F9D018A037F06DFC37F0C2FC2E
:10470000E7E695F890004007E2D51BA01BF0F1FE0C
:1047100095F891000028DBD095F86E000028D7D0DE
:1047200015A037F058FC37F0ADFCD1E76C6F636132
:104730006C5F706F72743A2025640A006C69737440
:10474000656E5F706F72743A2025640A0000000085
:1047500054620408FC6104080A2055495444206549
:10476000746820535A4A53206973206E6F74207501
:10477000736564200A0000000A20554954442065EE
:1047800074682058465A44206973206E6F742075EF
:10479000736564200A00000005460C4616A01BF055
:1047A000A8FE29461EA01BF0A4FE214621A01BF056
:1047B000A0FEFEE710B509F095F91BF0BEFE19F05A
:1047C000CFFE1DF0ECFE1EF008FE1F491F481CF036
:1047D0002CF81EF0B5F8FDF7FEF91EF009FE1AF0F0
:1047E000F8F8BDE810401EF0C1B810B51FF0F6F89B
:1047F000FFF7E0FF002010BD0A0D2057726F6E67B3
:1048000020706172616D657465722076616C75658A
:10481000206465746563746564206F6E0D0A000022
:104820002020202020202066696C65202025730D23
:104830000A000000202020202020206C696E6520C6
:104840002025640D0A00000000000220F06800200E
:1048500070B50D46164600240146F2A01BF049FE35
:1048600004E0295DF0A01BF044FE641CB442F8D3C0
:10487000BDE87040EEA01BF03CBE0A460146EDA02C
:104880001BF037BE002101E0414040080028FBD169
:1048900001F001007047012080F31388BFF34F8FB0
:1048A000F1480168F14A01F4E06111430160BFF38E
:1048B0004F8FFEE7FFF7EFFFFEE700B5002801D0BE
:1048C000FFF7F8FF00BD00B5002801D1FFF7F2FFA8
:1048D00000BD2DE9F04395B007460D4616469846B3
:1048E0000024B8F1000F05D0B8F1100F04D94FF033
:1048F000100801E04FF01008002239460DA81FF003
:104900008FFA002806DA3946D9A01BF0F2FD15B05F
:10491000BDE8F0834DB129460DA81FF08BFBA842DE
:1049200003D0D7A01BF0E5FD32E0E94622E00025E8
:1049300009E019F80510DAA01BF0DBFD641C0EB1CC
:10494000B44225D26D1CBD42F3D3B9A01BF0D1FDFA
:104950001EE0002509E019F80510D1A01BF0C9FDE3
:10496000641C0EB1B44213D26D1CBD42F3D3B0A08F
:104970001BF0BFFD3322002168461BF0F1FA4246CE
:1049800069460DA81FF0D3FA07464745E1D2CEE7A6
:104990000DA81FF0A6FABAE72DE9F04705460F4625
:1049A00092461C460026284637F0A3FFB0F5807FCC
:1049B00002DDF01EBDE8F08709222946BAA037F0D3
:1049C000ADFF10B16FF00100F4E71CB1102C02D95B
:1049D000102400E01024BAFBF4F915E006FB047182
:1049E000B4A01BF086FD002506FB04F806E078194C
:1049F00018F800108CA01BF07CFD6D1CA542F6D3AE
:104A00008BA01BF076FD761C4E45E7DBBAFBF4F07D
:104A100004FB10A090B106FB0471A6A01BF069FD79
:104A20000025664305E07819315C7FA01BF061FD2D
:104A30006D1CA542F7D37EA01BF05BFD0020B9E7FB
:104A40001FB50446002902D020461FF008FC0022B2
:104A50004FF48171204620F0EDF80446002C08DA6E
:104A60001BF052FA014696A01BF043FD204604B00D
:104A700010BD6946204620F0D9F9029818B197A0D8
:104A800002991BF036FD204620F002F90020EEE7E7
:104A900070B50E46002242F2010120F0CBF8044628
:104AA000002C06DA214694A01BF023FD4FF0FF30C6
:104AB00070BD304637F01DFF05462A463146204678
:104AC00020F02BF90146A94208D091A01BF011FD5E
:104AD000204620F0DDF86FF0010070BD204620F088
:104AE000D7F8002070BD012192A0FFF7A9FF642034
:104AF0001EF019FAFFF7DEFE10B5642148431EF0E0
:104B000012FA002010BD10B537F097FBBDE8104039
:104B10008C481FF0A4BB70B504468A4D923D95F8B1
:104B20009010CB0703D0224687A01BF0E2FC85F84B
:104B3000904070BD0EB50028FFD1694620F014F8F2
:104B400030B18CA01BF0D5FC0020014603B000BDA5
:104B50000299009848430021F8E71FB50C46002849
:104B600008D069461FF07FFA38B187A01BF0C1FC5E
:104B700000207CE74FF0FF3079E7029820600020AA
:104B800075E7F0B5ADF5017D06460F460024002E11
:104B900018D000224FF40041304620F04BF8054673
:104BA000280012D56748923890F89000C00704D0CA
:104BB0002A4631467AA01BF09CFC6FF001000DF5EF
:104BC000017DF0BD4FF0FF30F9E74FF4007632463B
:104BD00001A9284620F07CF80246B24205D101A97D
:104BE000204618F0DBFD84B2F1E701A9204618F059
:104BF000D5FD3880284620F04BF80020DFE710B5BF
:104C00006EA137F07DFE10B14FF0FF3010BD6D4941
:104C100001200870002010BD37F06BBE38F002B8DC
:104C200037F03FBE25733A0020253032580000008F
:104C30000A00000044454255473A2057726F6E679C
:104C400020706172616D65746572732076616C7538
:104C5000653A2066696C65202573206F6E206C694B
:104C60006E652025640D0A000CED00E00400FA05D5
:104C70004F70656E202573206661696C65640A005B
:104C8000537461727420706F736974696F6E2069F8
:104C900073206F766572666C6F7721200A000000C2
:104CA0002530325820000000535A4A53574C57576A
:104CB00047000000307825303858203A09000000BD
:104CC0004372656174652066696C65206661696C14
:104CD0006564203A202564200A00000046696C655E
:104CE000206973206578697374202C2073697A6554
:104CF000203A2025640A000046696C65206F7065C3
:104D00006E206661696C6564203A2025640A0000A3
:104D100046696C6520616464206572726F722C2034
:104D20007772697465642025642062797465730AFA
:104D3000000000002F66772F757067726164652E22
:104D4000666C67002A04002053797374656D206CCB
:104D50006F67206C6576656C203A200A206F6C6462
:104D60003A202564202C206E6577203A2025642087
:104D70000A0000006466735F737461746673206672
:104D800061696C65642E0A004765742066696C650C
:104D90002073746174206661696C65642E0A00007A
:104DA0004F70656E2066696C6520257320666169A9
:104DB0006C6564203A2025642E0A0000737A6A73B9
:104DC000000000004C00002070B50D46164600247F
:104DD0000146F9A01BF08DFB04E0295DF7A01BF054
:104DE00088FB641CB442F8D3BDE87040F5A01BF00A
:104DF00080BB70B51546F44C94F8900040070FD571
:104E00002946F2A01BF075FB94F8910040B194F88C
:104E10006E0028B12946EDA037F0DDF837F032F901
:104E2000002070BD70B50D46E74C94F89000400727
:104E30000FD52946F0A01BF05CFB94F8910040B11F
:104E400094F86E0028B12946EBA037F0C4F837F08B
:104E500019F9002070BD704740F2444200211BF058
:104E60007FB810B504460022114620461FF0E2FE2E
:104E7000002809DB1FF00CFF2046BDE8104000228F
:104E800041F201011FF0D6BE2046BDE810400022CD
:104E900040F201111FF0CEBE1FF0FABE70B50546FC
:104EA0000C460422002120461BF05AF8AD1E0B2DA3
:104EB00024D2DFE805F0060B102323232315231A41
:104EC0001F00207840F00100207017E0207840F0AB
:104ED0000200207012E0207840F0040020700DE005
:104EE000207840F00800207008E0207840F01000A2
:104EF000207003E0207840F020002070002070BD7A
:104F00002DE9F0470446002500276760A760E760A9
:104F10002068002807D1207C4FF4717148431BF0B2
:104F2000CCFC206030B14FF00C0840F2B63A4FF0A4
:104F300004092AE0A44C94F89000C0070DD0B8A052
:104F40001BF0D7FA94F8910038B194F86E0020B1B4
:104F5000B3A037F040F837F095F84FF0FF30BDE8D8
:104F6000F087C5EB0511C1EB0526206808EB86012B
:104F70000844524600211AF0F3FF206800F826701A
:104F8000206809EB860147506D1C207CA842E8DCB4
:104F90000020E4E72DE9F0410F46054611460024C4
:104FA00040F2B630834202D9A01EBDE8F081287CD1
:104FB00008E0C4EB04162A68C6EB042612F8262083
:104FC0002AB1641CA042F4DC4FF0FF30EDE7C4EBE3
:104FD0000412C2EB04260422286802EB86028750E2
:104FE0000822286802EB860283500C22286802EB14
:104FF000860210441A461AF0D6FF2968012001F8EB
:1050000026002046D1E72DE9F0410F46054611461E
:10501000002440F2B630834201D9A01EC5E7287CA7
:1050200008E0C4EB04162A68C6EB042612F8262012
:105030002AB1641CA042F4DC4FF0FF30B5E7C4EBAA
:105040000412C2EB04260422286802EB8602875071
:105050000822286802EB860283500C22286802EBA3
:10506000860210441A461AF09EFF2968012001F8B2
:105070002600204699E710B50A7400220A6000F560
:10508000005393F8080A002803D0C3F88027501E65
:1050900010BDC3F880170846FFF732FF002010BD8F
:1050A0002DE9F05F0646DDE90AAB0F4690469946CA
:1050B00042F60C2528461BF000FC044620005CD07C
:1050C0002A4600211AF04CFF4FF4046204F65421E2
:1050D00004F6482025F0E1FA002584F8D059681E2E
:1050E000C4F8D409C4F8A865C4F8D879C4F8DC8930
:1050F000C4F8E099C4F8E4A9C4F8E8B90C98C4F875
:10510000EC090D98C4F8F0090E98C4F8F4090F984A
:10511000C4F8F8091098C4F8FC091198C4F8000AFA
:10512000A4F8425A0622454904F635201AF03BFFFE
:105130000622002104F63B201AF012FF84F8345AAC
:10514000012084F8440A142084F8450AAFF2ED21C6
:1051500004F5005000F6B800016039494160AFF233
:10516000C7218160184842F6CC01214490F8D20052
:10517000FFF794FE2046BDE8F09F0020FBE710B546
:105180001BF060FC002010BDFEB500F6E41080F8B6
:105190002010A0F8482005698468C369CDE900455E
:1051A0000293D0E9057614460D460368324621463F
:1051B0002846B847FEBD000025733A00202530324E
:1051C000580000000A0000009803002043422061BC
:1051D000636B206465616C202D2D20736F6D6B6592
:1051E00020616C61726D2C2069665F616666697210
:1051F0006D203A2025640A0043422073656E6420C6
:105200006661696C202D2D20736F6D6B6520616C5C
:1052100061726D2C206E6F6465203A2025640A004F
:1052200046696C65207472616E73206D616C6C6F81
:1052300063206661696C6564210A000065000020D6
:105240001B4D02080021002201EBC10300EBC30348
:105250001A72491C1429F7DB0020704700B50021A1
:1052600001704160FFF7EEFF002000BD2DE9F04323
:1052700089B00446DDE910590F4616469846204687
:10528000FFF7ECFF84F8047A84F8056AA4F82C9AF6
:10529000002E1CD0404637F02CFB202840D3FE4C7B
:1052A00094F89000C0070DD0FCA01BF022F994F8F0
:1052B000910038B194F86E0020B1F8A036F08BFE62
:1052C00036F0E0FE4FF0FF3009B0BDE8F08304F6A1
:1052D0002921481E821ECDE90001431E1646FAA16F
:1052E000404637F06DFB04F6D814A4F85250D4E9C8
:1052F0000631A26A6069CDE9053107920490D4E9CC
:1053000003026168CDE90210CDE90052256894F8E6
:105310002D2094F82C10A4F6D8103346A847D3E7D4
:1053200004F606204146064637F005FB04F6D8147D
:10533000A4F85250D4E90523A06AE169CDE906102A
:10534000CDE90423D4E903026168CDE90210CDE977
:105350000052256894F82D2094F82C10A4F6D8104B
:105360003346A847B0E7D0F8E029002A02D0D0F8A9
:10537000D419104770470021002201EBC10300EB54
:10538000C3031A72491C1429F7DB00207047014639
:10539000002000EBC00201EBC202127A002A04D006
:1053A000401C1428F5DB4FF0FF30704710B5034662
:1053B000002000EBC00203EBC202147A012C06D1DC
:1053C000148B8C4203D192F83A20012A04D0401C5D
:1053D0001428EEDB4FF0FF3010BD142902DB4FF034
:1053E000FF30704701EBC10100EBC10000220272E7
:1053F000002070472DE9F84F0C460026009600F675
:10540000482B4FF0010A4FF0230940F21A474FF0A2
:105410000208A51C6946584625F0B9FAF8B160782B
:1054200008B3012829D0022830D00328F2D19DF8F2
:10543000000023283DD004F64404206800F80590BD
:105440002068401C20609DF8001041552068401CD9
:105450002060A4F64404B84251D96670DAE74FF0F0
:10546000FF30BDE8F88F9DF800004028D2D184F8C5
:1054700001A0C4F844682670CCE79DF800004028DD
:1054800001D06670C6E784F80180C3E79DF800008C
:1054900023280BD0D4F844184855D4F84408401CAD
:1054A000C4F84408B842B5D96670B3E70320607009
:1054B000B0E7D4F844081A2801D26670AAE721465A
:1054C0000A8BA0F11A018A4214D000F80590D4F892
:1054D0004408401CC4F8440800F80590D4F8440877
:1054E000401CC4F84408B84201D9667092E784F8B9
:1054F00001808FE784F800A066700020B1E784F88F
:10550000018087E72DE9FE4F0D46DDF83090824699
:105510001146984600270026B8F11A0F02D2012042
:10552000BDE8FE8F40F21A40804501D90220F7E71E
:1055300042F264300AEB0004424620461AF033FD82
:10554000E08AB0F5806F01D90320E9E71A304045C1
:1055500001D00420E4E71922214628461AF023FD51
:10556000E28A42F27D30824405F11908022A0AD308
:10557000514640461AF017FD687E85F81A04A87E49
:1055800085F81B0404E0002085F81A0485F81B0444
:10559000E98A11F80A2085F819242846C35D1E44BB
:1055A0007F1C192FFAD3002003E02B185B7E1E44CA
:1055B000401C8142F9DCF0B2824201D00520AFE705
:1055C000C5F82894344E96F8900000070FD521882E
:1055D00040A01AF08EFF96F8910040B196F86E0048
:1055E00028B121883BA036F0F6FC36F04BFD96F84A
:1055F000900000070FD5A1783AA01AF07AFF96F82C
:10560000910040B196F86E0028B1A17835A036F02F
:10561000E2FC36F037FD96F8900000070FD5E178F0
:1056200034A01AF066FF96F8910040B196F86E002B
:1056300028B1E1782FA036F0CEFC36F023FD96F8A5
:105640009000000723D561792079A279CDE9002166
:105650000290617AE379227A01F5FA6129A01AF0C1
:1056600048FF96F8910090B196F86E0078B1607995
:105670002179A279CDE900200291617AE379227A39
:1056800001F5FA611FA036F0A6FC36F0FBFC96F897
:105690009000000766D545E09803002053657276B8
:1056A0006572206E616D6520697320746F6F206C68
:1056B0006F6E67202120636F6E6E65637420666174
:1056C000696C6564200A000025642E25642E25641B
:1056D0002E256400534E2020202020203A202564CF
:1056E000200A00005665725F6D61696E3A2025647C
:1056F000200A00005665725F757365723A20256452
:10570000200A000054696D655374616D703A20255C
:10571000642D25642D25642025643A25643A25648A
:10572000200A0000E17AA07A227BCDE900210290D4
:10573000637BA27BE17BF8A01AF0DBFE96F8910078
:1057400080B196F86E0068B1E17AA07A227BCDE94B
:1057500000210290637BA27BE17BEFA036F03BFC53
:1057600036F090FC96F8900000071FD5617C207CF5
:10577000A27CCDE900210290E37C227D617DEEA038
:105780001AF0B7FE96F8910080B196F86E0068B1F5
:10579000607C217CA27CCDE900200291E37C227D0B
:1057A000617DE5A036F017FC36F06CFC96F89000B1
:1057B00000070FD5217EE8A01AF09BFE96F8910015
:1057C00040B196F86E0028B1217EE3A036F003FCCC
:1057D00036F058FC96F89000000713D595F8191488
:1057E000E0A00A461AF085FE96F8910050B196F8AE
:1057F0006E0038B195F81914DAA00A4636F0EBFBC2
:1058000036F040FC96F8900000070FD5E18ADBA047
:105810001AF06FFE96F8910040B196F86E0028B12C
:10582000E18AD6A036F0D7FB36F02CFC96F8900033
:10583000000704D5EA8A4146D4A0FFF709F8002002
:105840006EE638B50446684608F074FF684637F0DF
:10585000D7FB017D64396171017C491C2171017B99
:10586000E170017AA17001796170007820700020E8
:1058700038BD13B5044601A837F0C2FB017D643979
:105880006171017C491C2171017BE170017AA17079
:10589000017961700078207000201CBD10B58AB0BD
:1058A0000446002009902421684636F0E3FF607921
:1058B00000F5FA6005902079401E0490E07803908E
:1058C000A07802906078019020780090684636F0C9
:1058D0005DFF099009A808F083FF0AB0002010BD01
:1058E0002DE9F0410C4690460121A1701421E17090
:1058F0000188218000F10A0104F10A058E1DAF1D07
:10590000002B09D0062228461AF04DFB062231460C
:1059100038461AF048FB08E0062238461AF043FBE6
:105920000622314628461AF03EFBA4F81680201DB8
:10593000FFF787FF0020BDE8F0812DE9F05F054605
:105940000E4690461C464FF000090027B8F1000FA4
:1059500007D0D8F80400801CB0F5806F01D9381F3B
:1059600009E42846FFF713FD82465FEA0A0002D5E4
:105970004FF0FF30F4E74FF0000B24B30AEBCA00FE
:10598000012105EBC00030304172317E017005F617
:105990004225288830802888401C2880A878B0704C
:1059A000E878A5F64225F070062205F6352106F1C5
:1059B0000A001AF0F8FA062205F63B2106F110005B
:1059C0001AF0F1FA09E00AEBCA0005EBC00080F812
:1059D00039B096F82C1480F83010B8F1000F0CD0C4
:1059E0000AEBCA00D8F8042005EBC001921C18315C
:1059F00023463046FFF774FF09E00AEBCA0005EBC7
:105A0000C0011831234600223046FFF769FF0AEB38
:105A1000CA0005EBC00404F1180010F809100F4487
:105A200009F10109B9F1190FF7D3DFF86C9199F871
:105A3000900000070FD5394658A01AF05AFD99F882
:105A4000910040B199F86E0028B1394653A036F064
:105A5000C2FA36F017FBB8F1000F3FD0D8F80400B7
:105A6000801C1AF02AFF6063E0B1012241461AF05F
:105A70009AFA606B0122401C08F101011AF093FAB6
:105A8000D8E90121606B801C1AF08DFA99F890001A
:105A9000000704D5E28D47A0616BFEF7D9FE002018
:105AA000E18D18E099F89000C0070DD045A01AF0DC
:105AB00020FD99F8910038B199F86E0020B141A00D
:105AC00036F089FA36F0DEFA6FF0010048E7626BD3
:105AD000125C1744401C8142F9DC01E0C4F834B088
