:020000040802F0
:1000000040690020F58D03082DD90208793B0408CA
:100010002FD9020831D9020833D9020800000000A4
:1000200000000000000000000000000035D90208B8
:1000300037D9020800000000033B040841D602083B
:100040000F8E03080F8E03080F8E03080F8E030810
:100050000F8E03080F8E03080F8E03080F8E030800
:100060000F8E03080F8E03080F8E03080F8E0308F0
:100070000F8E03080F8E03080F8E03080F8E0308E0
:100080000F8E03080F8E03080F8E03080F8E0308D0
:100090000F8E03080F8E03080F8E03080F8E0308C0
:1000A0000F8E03080F8E03080F8E03080F8E0308B0
:1000B000652403080F8E0308D52503080F8E030857
:1000C0000F8E03080F8E03080F8E03080F8E030890
:1000D0000F8E030879DB0208B3DB0208F1DB0208AC
:1000E00061D9020839D902080F8E03080F8E030860
:1000F0000F8E03080F8E03080F8E03080F8E030860
:100100000F8E03080F8E03080F8E03080F8E03084F
:100110002FDC02086BDC02080F8E03080F8E030829
:10012000A12603080F8E03080F8E03080F8E030805
:100130000F8E0308A95603080F8E03080F8E0308BD
:100140000F8E03080F8E03080F8E03080F8E03080F
:100150000F8E03080F8E03080F8E0308A9DC020818
:100160000F8E03080F8E03080F8E03080F8E0308EF
:100170000F8E03080F8E03080F8E03080F8E0308DF
:100180000F8E0308DFF80CD03DF01EFC004800473E
:100190001B480208406900202DE9FC41002401941D
:1001A00000221146F1A024F0C1FDF44E002825DA0A
:1001B000F3A024F093FCF3A1F4A024F060FD00234D
:1001C000F2A2EFA1EFA0009424F0CEFB002817D0FC
:1001D00096F89000C0070DD0EDA020F006FA96F832
:1001E000910038B196F86E0020B1E9A03BF06FFFA6
:1001F0003BF0C4FF0A2022F012FFFBE724F0C4FD0D
:10020000F0A024F028FF0546002D2ED10021EDA0FE
:1002100024F0E6FE002828D0D9A024F05FFCD9A164
:10022000DAA024F02CFD0023D8A2D5A1D5A00094FB
:1002300024F09AFBA8B196F89000C0070DD0D4A086
:1002400020F0D3F996F8910038B196F86E0020B1FD
:10025000CFA03BF03CFF3BF091FF0A2022F0DFFEF5
:10026000FBE70021D7A024F0BBFE284624F0C1FF05
:10027000D6A024F0F0FE05463DB90021D3A024F01D
:10028000AFFE10B1D2A020F0B0F9284624F0B1FFA3
:10029000D5A024F0E0FE05461DB90021D2A024F02F
:1002A0009FFE284624F0A5FFD1A024F0D4FE0546E9
:1002B0001DB90021CEA024F093FE284624F099FF1A
:1002C000CDA024F0C8FE05461DB90021CAA024F027
:1002D00087FE284624F08DFFC9A024F0BCFE054609
:1002E0001DB90021C6A024F07BFE284624F081FF22
:1002F000C6A024F0B0FE05461DB90021C3A024F01D
:100300006FFE284624F075FFC1A024F0A4FE054628
:100310001DB90021BEA024F063FE284624F069FF29
:1003200000220221BDA024F001FD002802DB24F000
:100330002BFD11E0002240F20111B8A024F0F6FCE0
:100340000546B9483CF051FB0246B749284624F01F
:1003500060FD284624F018FD4FF400460022314687
:1003600082A024F0E3FC0546002D6FDB002211463D
:10037000284624F073FD012201A9284624F024FD1B
:100380004FF49677012816D0284624F0FDFC77A07C
:1003900023F0E1FF0022114674A024F0C7FC0028DE
:1003A00046DA78A179A024F06AFC384622F037FEBC
:1003B00004F096FA3EE09DF804007B2834D02846ED
:1003C00024F0E2FC69A023F0C6FF0022114667A0DA
:1003D00024F0ACFC00281ADA69A024F07FFB69A1A4
:1003E0006AA024F04CFC002368A265A165A00094DB
:1003F00024F0BAFA8D495DA01BF0F4F900201CF03E
:10040000E8FA384622F00BFE04F06AFA01E024F024
:10041000BBFC864955A01BF0E5F900201CF0D9FA79
:1004200083A020F0E2F81BE0284624F0ADFC17E0A2
:1004300024F0AAFC7D494DA01BF0D4F900201CF04B
:10044000C8FA8AA020F0D1F80AE0FFE7774947A070
:100450001BF0C8F900201CF0BCFA93A020F0C5F8EE
:1004600000223146A0A024F061FC002802DB24F029
:100470008BFC05E09CA01AF004FDA0A020F0B5F8CC
:1004800000223146ACA024F051FC002802DB24F00D
:100490007BFC06E0AE49A8A01AF05DFCAD4820F058
:1004A000A4F800223146ACA024F040FC002802DB76
:1004B00024F06AFC06E0AE49A7A01AF0B7F8AD48F0
:1004C00020F093F800223146ABA024F02FFC002846
:1004D00002DB24F059FC06E0AD49A7A01AF02EF982
:1004E000AC4820F082F800223146ABA024F01EFC7C
:1004F000002802DB24F048FC06E0AC49A6A01AF074
:1005000038FAABA020F071F800223146B7A024F0F1
:100510000DFC002802DB24F037FC06E0B749B3A04D
:100520001AF0C6FEB6A020F060F800223146C2A044
:1005300024F0FCFB002802DB24F026FC06E0C24984
:10054000BDA01AF08BFBC1A020F04FF8002231466D
:10055000CDA024F0EBFB002803DB24F015FCBDE864
:10056000FC81CE49C8A01AF044FE99E12F636F6E5A
:100570006669672F7379732E63666700A80300208E
:100580002F000000666C617368300000656C6D00C0
:10059000466C6173682046696C6520537973746595
:1005A0006D20696E697469616C7A6174696F6E201F
:1005B0006661696C656420616761696E2021212133
:1005C000200A00002F726F6D000000002F534400BE
:1005D0004D616B65202F5344206469722066616908
:1005E0006C6564200A0000002F636F6E6669670007
:1005F0002F736372697074002F6D6F64756C650082
:100600002F6D6F64756C652F6C6962002F667700C3
:100610002F646F776E6C6F61640000002F696E69E4
:10062000742E7263000000006A3B060862F705083A
:1006300053797374656D20636F6E666967206669B0
:100640006C652069732072657061697265642077DA
:10065000697468207379735F6366675F696E697434
:100660005F6461746120212121200A005379737431
:10067000656D20636F6E6669672066696C652069C9
:100680007320726577726974652077697468207366
:1006900079735F6366675F696E69745F64617461D3
:1006A00020212121200A000053797374656D206395
:1006B0006F6E6669672066696C6520697320726574
:1006C00063726561746564207769746820737973F7
:1006D0005F6366675F696E69745F6461746120213E
:1006E0002121200A000000002F636F6E6669672FCA
:1006F0006D6F64652E636667000000006D6F646552
:1007000020636F6E6669672066696C652069732077
:100710007265637265617465642077697468206DC1
:100720006F64655F6366675F696E69745F64617457
:100730006120212121200A002F636F6E6669672FD7
:100740007472616E73706172656E742E6366670099
:10075000BCF60508646006082F636F6E6669672F34
:1007600050524F5F554954442E63666700000000A5
:1007700060F50508DC5F06082F636F6E6669672FFA
:1007800050524F5F4354524C2E6366670000000086
:1007900078F50508206006082F636F6E6669672F7D
:1007A000415030312E63666700000000C8F505082F
:1007B0004150303120636F6E6669672066696C65F1
:1007C000206973207265637265617465642077695E
:1007D000746820415030315F6366675F696E697489
:1007E0005F6461746120212121200A002F636F6EF4
:1007F0006669672F46412E6366670000D0F50508DD
:10080000464120636F6E6669672066696C65206982
:1008100073207265637265617465642077697468BA
:100820002046415F6366675F696E69745F646174E7
:100830006120212121200A002F636F6E6669672FD6
:100840006574682E6366670078F60508657468202D
:10085000636F6E6669672066696C652069732072D4
:100860006563726561746564207769746820657476
:10087000685F6366675F696E69745F646174612055
:10088000212121200A0000002F636F6E6669672F07
:10089000574946492E6366670000000022F70508A5
:1008A000E9A01FF0A2FE5AE67FB5054600221146D8
:1008B000284624F03BFA0446002C08DA1FF0A0FB7F
:1008C00002462946EFA01FF090FE04B070BD6946B5
:1008D000204624F027FB029818B1204624F054FA51
:1008E000F3E7204624F050FA284623F034FD294649
:1008F000EBA01FF07AFEE8E710B5F2A023F02BFD85
:10090000F4A0FFF7D1FF002010BD10B5AFF2F42026
:1009100023F021FDAFF2AC3023F01DFDAFF28810C3
:1009200023F019FDF0A023F016FDAFF2F40023F040
:1009300012FDFFF731FC002010BD10B5EF4C002375
:10094000B2F5007F01D9581E10BD214402E0CC5CF5
:10095000C4545B1C9342FAD3002010BDF0B587B09D
:10096000002400250395049505950695062200218F
:10097000E348FFF7E2FFE24841790379C278CDE925
:1009800000230291837842780178DEA01FF02DFECB
:10099000E74E0021316071600622D94930461FF0D0
:1009A0007EFBE44B03CE40F618121B1A8A4103D299
:1009B000E1A01FF01AFE10E003AE0A2200233BF074
:1009C00017FFC4F10C033032F25404F101040D2C72
:1009D000F3DB03A9DFA01FF008FEE14812F0A8F83E
:1009E000DF49491C881E12F08EF9DD4E0124D33EEA
:1009F00086F8884096F8D200022803D0042801D057
:100A000012F083FA96F8D400532801D186F870408A
:100A1000032733281CD0342822D0352825D0562847
:100A200028D02AF0DFFB3BF0F6FB20F087FC23F018
:100A3000C7F827F0BCFD25F048F827F00FFD15F0AA
:100A400086FB0EF098FA96F8D2000B2815D017E026
:100A50001FF01DFEC3A00AF0B1FF86F87070E2E738
:100A60001FF015FE86F87070DDE71FF010FE86F8A7
:100A70007070D8E72AF0B6FBD5E7BCA013F08CFD68
:100A800096F8D400522836D00023AFF20052AFF2CD
:100A90001051AFF21050009523F066FF002843D0AC
:100AA000B4481FF0A2FDAFF22451AFF2205024F061
:100AB000E6F80023AFF22C52AFF23C51AFF23C50BB
:100AC000009523F051FF002831D096F89000C00720
:100AD0000DD0A9A01FF089FD96F8910038B196F8C5
:100AE0006E0020B1A4A03BF0F2FA3BF047FB0A20D5
:100AF00022F095FAFBE7AFF27451AFF2705024F098
:100B0000BEF896F89000C0070DD0A8A01FF06DFDAC
:100B100096F8910038B196F86E0020B1A3A03BF092
:100B2000D6FA3BF02BFBFEE7ACA01FF05EFD0A20DF
:100B300022F075FAB1A1B3A013F03FFB0023AFF28E
:100B4000B452AFF27851AFA0009523F00DFFAE4D37
:100B500000283AD0ADA01FF048FD96F8D4005428E4
:100B600038D0FFF719FBFFF7C7FEB3480023B3A245
:100B7000AFF2B0510090184623F0F6FE00283ED0A8
:100B8000AFA01FF032FD032016F0B9FFA0F5B4416D
:100B90005A390DD01BF0BEFC01201BF0E7FE96F881
:100BA000D30003282FD004282DD005282BD02CE0EB
:100BB00016F0B8FB0021032016F098FF0121AAA02F
:100BC00003F054FF03F08CFEFEE7ABA01FF00DFD19
:100BD0002C70C2E7FFF799FE96F89000C0070DD081
:100BE000AEA01FF002FD96F8910038B196F86E00A5
:100BF00020B1AAA03BF06BFA3BF0C0FAFEE7B5A02B
:100C00001FF0F3FCBFE71BF0C4F996F89100002831
:100C100016D0AFF2946003F0A3FFB64988420FDD0F
:100C20004F48413807463BF0E0FE304490F89100D1
:100C30002F2806D096F89000C00703D039465BE114
:100C40007BE16EE167E100005749464920636F6E22
:100C50006669672066696C652069732072656372D6
:100C60006561746564207769746820574946495FF7
:100C70006366675F696E69745F64617461202121D6
:100C800021200A004F70656E2066696C652025730F
:100C9000206661696C6564203A202564200A0000A2
:100CA00046696C652025732073697A652069732015
:100CB0007A65726F2C2072656D6F7665206974207D
:100CC0002E0A00002F6669726D776172652E626967
:100CD0006E0000002F66772F6669726D776172650E
:100CE0002E62696E000000002F636F6E6669672FC9
:100CF000415030322E636667000000008878FF1F85
:100D00006D000020554954445F49443A2025303253
:100D1000582025303258202530325820253032587E
:100D200020253032582025303258200A200000007B
:100D300080000020FF9F724E534E20746F6F206C16
:100D400061726765202C206572726F7220212121EB
:100D50000A000000534E203A2025730A00000000CC
:100D60007B04002075617274310000007370693279
:100D700030000000B06006085350492046696C6599
:100D80002053797374656D20696E697469616C7A3A
:100D90006174696F6E206661696C6564206167616A
:100DA000696E20212121200A000000006D6B66730E
:100DB00020666C617368302066696E6973682C20E8
:100DC000506C656173652072657365742074686525
:100DD000206465766963652E0A000000535049203F
:100DE00046696C652053797374656D20696E69740A
:100DF00069616C697A6564210A0000007370693169
:100E0000310000007364300000000020534443614F
:100E100072642046696C652053797374656D20692E
:100E20006E697469616C697A6174696F6E2066615C
:100E3000696C6564210A00008C530608726F6D00AE
:100E4000524F4D2046696C652053797374656D204F
:100E5000696E697469616C7A6174696F6E2066612C
:100E6000696C6564210A00002F66772F75706772C0
:100E70006164652E666C670053444361726420466A
:100E8000696C652053797374656D20696E69746946
:100E9000616C697A6564210A00000000496E69741A
:100EA00020636F6E66696775726174696F6E206624
:100EB000696E69736865642C20506C656173652088
:100EC000726573657420746865206465766963650E
:100ED0002E0A0000524F4D2046696C6520537973ED
:100EE00074656D20696E697469616C697A656421E5
:100EF0000A00000040420F00F7A01FF076FB96F8B2
:100F0000910040B196F86E0028B13946F2A03BF04E
:100F1000DEF83BF033F90222AFF69C1138461FF0A1
:100F2000BEF8F9A138463BF02CFD38463AF07DFF7B
:100F3000F8A03BF0CCF83BF0E9F917F0CBFF18F044
:100F4000F0F996F87000012801D0022819D196F81E
:100F5000900040070DD5FBA01FF047FB96F89100CD
:100F600038B196F86E0020B1F6A03BF0B0F83BF037
:100F700005F90721FB4808F002FE287808B186F839
:100F8000744086F86E4007B0F0BD1CB5F64C02E028
:100F9000012022F044F894F86E000028F8D0F348BD
:100FA00014244FF480530078CDE900040022F04966
:100FB000F0A021F078FFF249086008B121F026FF87
:100FC000F0480022F0490078CDE900044FF40064B5
:100FD0002346EEA021F067FFEF49086008B121F039
:100FE00015FFEE491E2023460978CDE900100022A6
:100FF000EB49ECA021F057FFEE490860002803D030
:10100000BDE81C4021F002BF1CBD2DE9FC47044691
:10101000142520781E264FF400774FF480580028BE
:101020002DD0E548434600220078CDE90006E3498B
:10103000E3A021F038FFE649086008B121F0E6FEA0
:10104000E44964203B460978CDE900100022E249DA
:10105000E2A021F028FFE449086008B121F0D6FEA3
:10106000E2483B4600220078CDE90005E049E1A0D6
:1010700021F019FFE149086008B121F0C7FEE078CE
:10108000F8B13AF02BFB31F075FC0CF035FB1AF09F
:10109000CEFE14F0A9FDDAA01FF0A7FAB249012094
:1010A00081F86F00DC48434600220078CDE9000655
:1010B000DA49DBA021F0F7FEDD49086008B121F034
:1010C000A5FEA07978B3DFF86C934FF4006300229B
:1010D00099F80000CDE90005D749D8A021F0E3FE3A
:1010E000D949086008B121F091FE99F80000CDE9D6
:1010F00000053B460022D549D5A021F0D4FED649B3
:10110000086008B121F082FED448434600220078EE
:10111000CDE90006D249D3A021F0C5FED54908602B
:1011200008B121F073FE607870B1D34843460022C5
:101130000078CDE90005D149D1A021F0B4FED34912
:10114000086008B121F062FEA07870B1D048434633
:1011500000220078CDE90005CE49CFA021F0A3FE02
:10116000D049086008B121F051FE20794FF40059B0
:10117000E8B1CD484B4600220078CDE90005CB49C7
:10118000CBA021F090FECD49086008B121F03EFED1
:10119000CB483B4600220078CDE90005C949CAA0EA
:1011A00021F081FECA49086008B121F02FFE607964
:1011B000E8B1C8484B4600220078CDE90006C64990
:1011C000C6A021F070FEC849086008B121F01EFEDB
:1011D000C6483B4600220078CDE90006C449C5A0B8
:1011E00021F061FEC649086008B121F00FFEE079E8
:1011F00070B1C448434600220078CDE90005C249D9
:10120000C2A021F050FEC449086008B121F0FEFDE3
:10121000207A78B1C1493C2043460978CDE90010D5
:101220000022BF49BFA021F03EFEC149086008B1BD
:1012300021F0ECFD0020BDE8FC8710B54A4C02E02F
:10124000012021F0ECFE94F86E000028F8D0B94897
:1012500001220270427000218170C17002712178F8
:10126000012902D0022902D003E0427101E042715B
:101270008271BDE81040001DC7E610B53A4C02E08F
:10128000012021F0CCFE94F86E000028F8D0A94887
:101290000021417001780122012901D0B9B177E123
:1012A000817859B1C2712178012902D0022902D076
:1012B0006EE102726CE10272427269E1C17839B189
:1012C00082722178012904D0022903D060E138E13B
:1012D00058E131E132E100004C6F672066696C65CE
:1012E0002070617468206572726F72203A202573D5
:1012F000202C207573652064656661756C742070A0
:101300006174680A000000006C6F67732E74787453
:10131000000000000A0A0A4C6F672073746172743F
:10132000203D3D3D3D3D3D3D3D3D3D3D3D3D3D3D0A
:101330003D3D3D3D3D3D3D3D3D3D3D3D3D3D3D3DDD
:101340000A0A00000A2020456E74657220746573D5
:1013500074696E67206D6F646520212121200A0A5F
:1013600000000000B80C0020A8030020E8010020C5
:1013700029BB0208554954445F424C450000000017
:10138000EC010020E9010020ADBB0208554954449E
:101390005F424C455F727800F0010020EA010020B6
:1013A00007BC0208554954445F424C455F7265636F
:1013B00000000000F40100200A000020012F0208B4
:1013C000554954445F475052535F726563000000B3
:1013D0001C000020F00500209309030847534D5FCF
:1013E0004D47333031000000F4050020F1050020A6
:1013F0005109030847534D5F72780000F80500203B
:101400005443502F495020696E697469616C697A40
:101410006564210A00000000220000200B4202083F
:10142000554954445F6574685F726563000000004D
:1014300048000020FC050020231C030857494649AA
:101440005F4553503037000010060020C11B0308D1
:10145000574946495F72780014060020FA010020BF
:10146000E5C30208554954445F574946495F7265D0
:10147000630000000C02002008000020072A020878
:10148000554954445F6D61696E00000014000020EE
:1014900009000020172D0208554954445F325F6D42
:1014A00061696E0018000020200000208D390208BC
:1014B000554954445F6574680000000040000020F6
:1014C00023000020C33D02086574685F7278000045
:1014D0004C00002021000020513E02085549544490
:1014E0005F6574685F320000440000202400002023
:1014F0007F4102086574685F72785F320000000007
:1015000050000020F8010020E1BE02085549544473
:101510005F5749464900000004020020F9010020FD
:1015200035C20208554954445F325F574946490065
:1015300008020020C5040020C27229E0C2720273B2
:1015400026E08178012902D1C378022B03D0C37829
:10155000012B0ED01CE0C27182722178012902D0C9
:10156000022903D014E00272C27211E00272027307
:101570000EE002290CD1C27182722178012902D0B9
:10158000022903D004E00272C27201E0C272427208
:10159000BDE81040001D38E570B5FD4C02E00120AB
:1015A00021F03DFD94F86E000028F8D0F94D01209F
:1015B0002978012901D051B39EE0697859B1287189
:1015C0002178012902D0022902D095E0687193E0C8
:1015D0006871A87190E0A97859B1E8712178012962
:1015E00002D0022902D087E0287285E02872687252
:1015F00082E0E978F9B1A8722178012902D00229A4
:1016000002D079E0E87277E0E872287374E06978D4
:10161000012902D1AA78022A03D0AA78012A0ED081
:101620000FE02871E8712178012902D0022903D046
:1016300062E0687128725FE0687168725CE002299C
:1016400002D0012A0ED010E02871E871217801291A
:1016500002D0022903D04FE0687128724CE0287252
:10166000A87149E0EB78022B03D0EB78012B0ED068
:101670000FE0E871A8722178012902D0022903D075
:101680003AE02872E87237E02872287334E0022AC0
:1016900002D001290ED00FE0E871A872217801294B
:1016A00002D0022903D027E02872E87224E0E87211
:1016B000687221E0022B02D0012B0ED01CE02871B1
:1016C000A8722178012902D0022903D014E06871A0
:1016D000E87211E0687128730EE002290CD12871BC
:1016E000A8722178012902D0022903D004E0687190
:1016F000E87201E0E872A871281DBDE8704084E43A
:101700007CB5A34C02E0022021F089FC94F86E0025
:101710000028F8D094F87000012824D01AF0ECFBCF
:1017200094F8D40005220A214FF4806333284FD067
:1017300094F8D300012859D0022857D05B00032821
:1017400062D0042801D005286CD1CDE90012002216
:10175000AFF2BB1190A021F0A6FB002862D0BDE83B
:101760007C4021F053BB94F8D31000230120894A18
:10177000012918D0022916D002268C4D032918D031
:10178000042901D00529CBD1137050709670D37005
:101790002670864886A120383BF049F984A1284666
:1017A0003BF045F9BCE7107050709370D370207017
:1017B000B6E7137053709070D67026707B487CA18A
:1017C00020383BF034F97AA128463BF030F9A7E7FE
:1017D000CDE900120022AFF64D0178A021F063FBA5
:1017E00000281FD0BDE87C4021F010BBCDE90012DD
:1017F0000022AFF2B95175A021F055FB002811D09D
:10180000BDE87C4021F002BBCDE900120022AFF21E
:10181000955172A021F047FB002803D0BDE87C4021
:1018200021F0F4BA7CBD2DE9FC47594D02E00220BD
:1018300021F0F5FB95F86E000028F8D03C20092136
:10184000CDE900104FF4805843460022674968A054
:1018500021F029FB6849486008B121F0D7FA95F8D2
:1018600070004FF40077BB000A2404281BD095F8C1
:10187000D200022841D06149DFF88491614D624E67
:1018800003284BD0042866D009287BD00A287AD0B8
:101890000B2879D00C2878D0002877D0BDE8FC47F9
:1018A0005AA01EF0A2BE95F8D200032805D0092840
:1018B00003D00A2801D00B2869D15B4800225B497C
:1018C0000078CDE900045AA021F0EDFA59490860EA
:1018D00008B121F09BFA58483B4600220078CDE938
:1018E0000004564956A021F0DEFA57490860002846
:1018F0004DD0BDE8FC4721F089BA54480022544934
:101900000078CDE9000453A021F0CDFA53490860D6
:1019100000283CD0BDE8FC4721F078BA0878CDE932
:10192000000400224E494FA021F0BDFA286008B102
:1019300021F06CFA99F80000CDE900043B46002242
:1019400049494AA021F0AFFA306000281FD0BDE815
:10195000FC4721F05BBA47483B4600220078CDE9BE
:101960000004454945A021F09EFA4649086008B1A7
:1019700021F04CFA44483B4600220078CDE90004AF
:10198000424985E08FE0ADE0CBE0F9E028E105E1F8
:10199000A8030020C5040020554954445F47505215
:1019A000535F4554485F696E69740000F20400207B
:1019B000737A6A7374657374000000005549544467
:1019C0005F424C455F696E6974000000554954449C
:1019D0005F475052535F696E697400005549544423
:1019E0005F6574685F696E6974000000B7C20308C0
:1019F000454C45430000000000000020500100203D
:101A0000510100205401002058010020556E6B6EDA
:101A10006F776E20626F6172642074797065202127
:101A20002121200A0000000018020020F9CE02083F
:101A3000545000001C0200201902002063CF02084D
:101A400054505F72780000002002002098000020AF
:101A50009DA3020873656E736F720000C0000020C2
:101A6000DBB102084641000081B6020846415F72C0
:101A7000780000005C010020FDB702086374726CFE
:101A80005F696E00D40100205D0100208BB8020860
:101A900075A021F008FA7749086000287ED0BDE8DB
:101AA000FC4721F0B3B90878CDE90004724900225F
:101AB000AFF2500021F0F7F9286008B121F0A6F943
:101AC00099F80000CDE900046C493B460022AFF2D2
:101AD000640021F0E8F9306000285FD0BDE8FC47E1
:101AE00021F094B90878CDE9000463490022AFF2EF
:101AF0008C0021F0D8F9286008B121F087F999F815
:101B00000000CDE900045D493B460022AFF2A4008D
:101B100021F0C9F93060002868D0BDE8FC4721F009
:101B200075B90878CDE90004534998460022AFF210
:101B3000CC0021F0B8F9286008B121F067F999F8D4
:101B40000000CDE900044D493B460022AFF2E4001D
:101B500021F0A9F9306008B121F058F9484843460E
:101B600000220078CDE90004464947A021F09BF906
:101B700048490860002839D0BDE8FC4721F046B943
:101B80000878CDE900043C490022AFF2281021F08A
:101B90008AF9286008B121F039F900E026E099F8C7
:101BA0000000CDE9000435493B460022AFF2441065
:101BB00021F079F9306008B121F028F93648434620
:101BC00000220078CDE90004344935A021F06BF9FA
:101BD00036490860002809D0BDE8FC4721F016B955
:101BE000AFF2D810BDE8FC471EF0FFBCBDE8FC8793
:101BF0007CB505200A24CDE90040C30200222C490F
:101C00002CA021F050F908B121F000F92B484FF435
:101C100000652B460078CDE900040022284929A060
:101C200021F041F92A49086008B121F0EFF80926AE
:101C30004FF480730022AFF21141CDE9006425A07A
:101C400021F031F908B121F0E1F82B460022AFF282
:101C50004F51CDE9006422A021F025F908B121F00F
:101C6000D5F800207CBD00006374726C5F6F7574E2
:101C700000000000D8010020DBB1020881B6020894
:101C800044030020B1D3020850524F5F55495444D9
:101C9000000000008C03002024020020CDD00208A8
:101CA00050524F5F4354524C00000000400300204C
:101CB0005D090208696E6974000000008800002058
:101CC00035A302087379735F7374617475730000D0
:101CD000940000204150505F696E6974000000005C
:101CE000434F4D5F696E69740000000010B5C2B0CB
:101CF00004464FF4807102A83AF038FE01A80CF0B7
:101D0000FBFB0121204602F0B1FE0022012120460A
:101D100023F00CF8F94CC4F88400002815DA94F884
:101D20009000C0070DD0F6A01EF05FFC94F8910063
:101D300038B194F86E0020B1F1A03AF0C8F93AF049
:101D40001DFA4FF0FF3042B010BD94F8D3000BF0F5
:101D500089FD0246F2A102A83CF016F90246002ACB
:101D600012DA94F89000C00713D0F3A01EF03DFCE7
:101D700094F8910068B194F86E0050B1EEA03AF07A
:101D8000A6F93AF0FBF904E002A9D4F8840023F0A4
:101D900040F894F8D2000BF07EFD0246ECA102A8B8
:101DA0003CF0F2F80246002A12DA94F89000C007DC
:101DB00013D0E1A01EF019FC94F8910068B194F8DA
:101DC0006E0050B1DCA03AF082F93AF0D7F904E0A5
:101DD00002A9D4F8840023F01CF801A83AF0A6FD6B
:101DE0000246E2A102A83CF0CFF80246002A12DA2D
:101DF00094F89000C00713D0CFA01EF0F6FB94F823
:101E0000910068B194F86E0050B1CBA03AF05FF940
:101E10003AF0B4F904E002A9D4F8840022F0F9FF02
:101E200094F8D300012808D0022806D0032828D02F
:101E300004286BD0052869D0AAE094F87520CEA1BB
:101E400002A83CF0A1F80246002A14DA94F89000A7
:101E5000C007F1D0B8A01EF0C8FB94F8910000288C
:101E6000EAD094F86E000028E6D0B3A03AF02FF93B
:101E70003AF084F98CE002A9D4F8840022F0C9FF7A
:101E800086E094F87620BFA102A83CF07DF80246D7
:101E9000002A12DA94F89000C00713D0A6A01EF012
:101EA000A4FB94F8910068B194F86E0050B1A2A020
:101EB0003AF00DF93AF062F904E002A9D4F884008E
:101EC00022F0A7FF94F87720B2A102A83CF05CF8BA
:101ED0000246002A14DA94F89000C00758D096A061
:101EE0001EF083FB94F89100002851D094F86E0006
:101EF00000284DD090A03AF0EAF83AF03FF947E0D8
:101F000002A9D4F8840022F084FF41E094F87520FF
:101F100099A102A83CF038F80246002A12DA94F897
:101F20009000C00713D084A01EF05FFB94F89100CE
:101F300068B194F86E0050B17FA03AF0C8F83AF05A
:101F40001DF904E002A9D4F8840022F062FF94F89D
:101F500076208CA102A83CF017F80246002A12DA7B
:101F600094F89000C00713D073A01EF03EFB94F8C5
:101F7000910068B194F86E0050B16FA03AF0A7F8E4
:101F80003AF0FCF804E002A9D4F8840022F041FF02
:101F900094F8D200032802D0022866D0A7E094F873
:101FA00078207FA102A83BF0EFFF0246002A12DA58
:101FB00094F89000C00713D05FA01EF016FB94F8B1
:101FC000910068B194F86E0050B15BA03AF07FF8D0
:101FD0003AF0D4F804E002A9D4F8840022F019FF02
:101FE00094F8792072A102A83BF0CEFF0246002AA5
:101FF00012DA94F89000C00713D04FA01EF0F5FA43
:1020000094F8910068B194F86E0050B14AA03AF08B
:102010005EF83AF0B3F804E002A9D4F8840022F0A4
:10202000F8FE94F87A2066A102A83BF0ADFF0246C4
:10203000002A14DA94F89000C00758D03EA01EF091
:10204000D4FA94F89100002851D094F86E0000283A
:102050004DD039A03AF03BF83AF090F847E002A9A9
:10206000D4F8840022F0D5FE41E094F87C2058A1F9
:1020700002A83BF089FF0246002A12DA94F8900089
:10208000C00713D02CA01EF0B0FA94F8910068B1EC
:1020900094F86E0050B128A03AF019F83AF06EF8B2
:1020A00004E002A9D4F8840022F0B3FE94F87D2065
:1020B0004DA102A83BF068FF0246002A12DA94F80C
:1020C0009000C00713D01CA01EF08FFA94F8910066
:1020D00068B194F86E0050B117A039F0F8FF3AF0EB
:1020E0004DF804E002A9D4F8840022F092FED4F85E
:1020F000840022F049FE002025E60000A80300200D
:102100004372656174652074657374696E672066D7
:10211000696C65206661696C65642021200A000095
:102120004D6F746865725F626F6172645F7479701D
:1021300065203A2025730A004C6F6720737072691E
:102140006E7466206661696C65642021200A000057
:102150004465766963655F626F6172645F7479700C
:1021600065203A2025730A0A0000000054696D6555
:10217000203A2025730A0A0047534D203A2025644F
:102180000A00000065746865726E6574203A202547
:10219000640A000057494649203A2025640A000095
:1021A0005253323332203A092025640A00000000DD
:1021B0005253343835203A092025640A00000000C3
:1021C000696E707574203A092025640A00000000C9
:1021D00073656E736F725F345F32306D41203A0900
:1021E0002025640A0000000073656E736F725F350E
:1021F00056203A092025640A000000002DE9F04726
:10220000F94F022607F1750097F8D3C090F80080C7
:102210004179C2780379C479057A90F85D00BCF100
:10222000010F0FD0BCF1020F0CD0B946BCF1030F67
:1022300099F876903ED0BCF1040F7AD0BCF1050F2E
:1022400076D0E6E0B8F1000FFBD0032802D00228D8
:1022500019D0DEE00029F4D0002AF2D0002BF0D013
:10226000E2A0FFF743FDE5A01EF0BFF9DFA022F0DA
:1022700080F800201AF0ADFB0B21E54807F07FFC49
:1022800087F87060C5E0002CDBD0002DD9D0D7A036
:10229000FFF72CFDD9A01EF0A8F9D4A022F069F810
:1022A00000201AF096FB0B21D94807F068FC87F84C
:1022B0007060AEE0B9F1000FC3D097F877C0BCF101
:1022C000000FBED0032802D0022819D0A1E00029B7
:1022D000B7D0002AB5D0002BB3D0C4A0FFF706FDBD
:1022E000C6A01EF082F9C1A022F043F800201AF027
:1022F00070FB0B21C64807F042FC87F8706088E04D
:10230000002C9ED0002D9CD0B8A0FFF7EFFCBBA006
:102310001EF06BF9B5A022F02CF800201AF059FB42
:102320000B21BB4807F02BFC87F8706071E000E0E0
:102330003AE0B8F1000F6CD0B9F1000F69D0032872
:1023400002D0022819D064E0002962D0002A60D0AF
:10235000002B5ED0A5A0FFF7C9FCA8A01EF045F990
:10236000A2A022F006F800201AF033FB0B21A848A7
:1023700007F005FC87F870604BE0002C49D0002D79
:1023800047D09AA0FFF7B2FC9CA01EF02EF997A0B0
:1023900021F0EFFF00201AF01CFB0B219C4807F0F6
:1023A000EEFB87F8706034E0B8F1000F31D0B9F17E
:1023B000000F2ED00B2802D00C2816D029E041B3F4
:1023C0003AB333B389A0FFF791FC8CA01EF00DF94E
:1023D00086A021F0CEFF00201AF0FBFA0B218C48DA
:1023E00007F0CDFB87F8706013E094B18DB17FA04A
:1023F000FFF77CFC81A01EF0F8F87CA021F0B9FF6B
:1024000000201AF0E6FA0B21814807F0B8FB87F8A4
:102410007060D7F880004EF6602188426FD373A0B9
:10242000FFF764FC7BA01EF0E0F870A021F0A1FF94
:1024300097F8D300012808D0022806D003283ED000
:1024400004287FD0052877D01CE197F8D200032814
:1024500002D002281BD015E197F8750020B10A219F
:102460006B4807F08CFB0DE197F87A0050B197F8B4
:10247000780038B197F8790020B10921644807F055
:102480007EFBFFE00821624807F079FBFAE097F84D
:10249000750020B10A215E4807F071FBF2E097F861
:1024A0007C0038B197F87D0020B10921584807F029
:1024B00066FBE7E00821564807F061FBE2E097F889
:1024C000D200032802D002281FD0DBE097F8760064
:1024D00038B197F8770020B10A214D4807F04FFB3B
:1024E000D0E097F87A0058B197F8780040B197F8A3
:1024F000790028B10921464807F041FBC2E0C3E05A
:102500000821434807F03BFBBCE097F8760038B160
:1025100097F8770020B10A213D4807F030FBB1E081
:1025200097F87C0048B197F87D0030B10921384810
:1025300007F025FBA6E005E044E00821344807F059
:102540001EFB9FE097F8D200032802D002281ED07D
:1025500098E097F8750038B197F8760020B10A2115
:102560002B4807F00CFB8DE097F87A0050B197F8F4
:10257000780038B197F8790020B10921244807F094
:10258000FEFA7FE00821224807F0F9FA7AE097F88E
:10259000750038B197F8760020B10A211C4807F081
:1025A000EEFA6FE097F87C0038B197F87D0020B123
:1025B0000921174807F0E3FA64E00821144807F0FE
:1025C000DEFA5FE097F8D2000B2802D00C283FD04B
:1025D00058E097F8750038B397F8760020B30A21D1
:1025E0000B4807F0CCFA4DE0A80300202F74657368
:1025F000745F6C6F672E7478740000000A54657302
:1026000074696E6720706173736564200A0A000044
:10261000B80C00200A54657374696E672074696D84
:10262000656F7574200A0A00FFE797F87A0050B1C9
:1026300097F8780038B197F8790020B1092113484C
:1026400007F09DFA1EE00821104807F098FA19E0FB
:1026500097F8750038B197F8760020B10A210B4839
:1026600007F08DFA0EE097F87C0038B197F87D00FE
:1026700020B10921054807F082FA03E00821034848
:1026800007F07DFA87F87060BDE8F087B80C00208D
:1026900030B50021FE4A01241268002A03D05060A0
:1026A000137803B91470FB4B53F821202AB19060C2
:1026B00053F82120157805B91470491C0529F3DB5E
:1026C000F549096819B188600A7802B90C70F349B4
:1026D000096819B148600A7802B90C70F0490968B4
:1026E00019B14860087800B90C70002030BD30B5D1
:1026F0000021E74A01241268002A03D09060137871
:1027000003B91470E34B53F821202AB1D06053F879
:102710002120157805B91470491C0529F3DBDE4921
:10272000096819B1C8600A7802B90C70DB490968F8
:1027300019B188600A7802B90C70D949096819B1D1
:102740008860087800B90C70002030BD0EF088B8A1
:102750002DE9F0438FB00446DDE916960D46174685
:102760009846342102A83AF001F91CB101208DF8F5
:10277000080002E003208DF80800ADF838504B4601
:102780004246394602A800960EF0ACF80FB0BDE8FC
:10279000F08370477047704770472DE9FF4F93B043
:1027A00023AF209E97E880078B4615461C463421B0
:1027B00006A83AF0DBF8BBF1000F01D0002000E0E2
:1027C00002208DF818008DF819509DB121460DF1A9
:1027D00026003AF02CF9ADF8466027988DE880077E
:1027E0000490DDE9212306A913980EF041F817B0F3
:1027F000BDE8F08F20788DF81A0060788DF81B0006
:10280000A0788DF81C00E0788DF81D00ADF81E60F2
:10281000E3E710B50168A3480068C0F8D4190121A6
:1028200080F8D019FFF734FF9F4C94F890004007D0
:102830000DD59EA01DF0D9FE94F8910038B194F802
:102840006E0020B199A039F042FC39F097FC0020CD
:1028500010BD70B5044608460EF03BF8924D95F851
:102860009000400711D596A0D4F8D4191DF0BDFEF4
:1028700095F8910048B195F86E0030B190A0D4F869
:10288000D41939F024FC39F079FC002070BD70B502
:10289000044694F8D009002816D0834D95F890008E
:1028A000C00711D08DA0D4F8D4191DF09EFE95F864
:1028B000910048B195F86E0030B188A0D4F8D419D1
:1028C00039F005FC39F05AFC002084F8D00970BDBD
:1028D00070B50C4615461E464FF4FA7187481CF039
:1028E0003FFB3246294620460DF0BAFF0446834896
:1028F0001CF018FC204670BD70B516460446B2B2F6
:1029000004F6482027F069FF0546B5421AD0664E06
:1029100096F89000C00713D02A4679A0D4F8D419AD
:102920001DF063FE96F8910050B196F86E0038B134
:102930002A4673A0D4F8D41939F0C9FB39F01EFC2B
:102940006FF0060070BD3EB5044604F62E240878EC
:102950002070487860708878A070C878E070A28095
:10296000A4F62E24504D95F8900040072AD594F8EF
:10297000310A94F8301ACDE90102009194F82F3A07
:1029800094F82E2A66A0D4F8D4191DF02EFE95F8DE
:102990009100002816D095F86E00002812D004F699
:1029A0001224E07F218CA27FCDE900200291637F79
:1029B000227F54F83E1C5AA039F089FBBDE83E4006
:1029C00039F0DCBB3EBD10B5016836484068C0F840
:1029D000D419012180F8D019FFF789FE324C94F800
:1029E000900040070DD558A01DF0FFFD94F8910010
:1029F00038B194F86E0020B153A039F068FB39F07B
:102A0000BDFB002010BD88B000231A4653A15748D3
:102A10001CF0E1F8554800231A4655A12C381CF04B
:102A2000DAF8214E02E0022020F0F9FA96F8880048
:102A30000028F8D0AFF2F1000025CDE9065004954A
:102A40000595AFF24B10AFF2B911CDE90015AFF219
:102A5000FD13AFF24122AFF2BD21CDE90205AFF285
:102A60008F1002F033FB0F4C206078B142F6082142
:102A700096F836200A540322414902F012FB4FF027
:102A8000010886F8D68001213E487DE08EE00000F6
:102A900020080020240D002014020020300800200F
:102AA000380800200C000020A8030020535A4A5385
:102AB00020636F6E6E656374656421200A000000F8
:102AC000554954445F47505253202564206469732C
:102AD000636F6E6E6563742E200A0000554954447E
:102AE0005F4750525320256420646973636F6E6E94
:102AF000656374656420212121200A0024170020C9
:102B000072696E67627566202564207772697465E4
:102B1000206572726F72203A202564200000000048
:102B2000554954445F475052532025642049502052
:102B3000706F7274203A2025642E25642E25642E31
:102B400025643A2564200A0058465A4420636F6E73
:102B50006E656374656421200A0000005549544481
:102B60005F6D61696E5F7478000000006C0B00207F
:102B7000554954445F6D61696E5F727800000000D2
:102B8000C80B0020CC1600201CF0A1F800287FF410
:102B90007AAFB078FE4FF8B1B08ECDE900050122D2
:102BA000F31C1146206802F077FB1EE096F89000B7
:102BB000C0070DD0F7A01DF018FD96F8910038B1B0
:102BC00096F86E0020B1F3A039F081FA39F0D6FA08
:102BD000052020F024FAFBE7B08ECDE900053B4646
:102BE00000220121206802F057FB002816DA96F82F
:102BF0009000B046C00718D0EDA01DF0F6FC98F884
:102C0000910090B198F86E0078B1E9A039F05FFAC0
:102C100039F0B4FA09E0052020F001FA206890F8B4
:102C2000D0090028F7D086F8898096F8700001282E
:102C300001D0022862D10A2020F0F1F9FBE790F8D8
:102C4000D019A1BB0421E04806F099FFB07848B143
:102C5000B08ECDE900050122F31C1146206802F078
:102C60001BFB08E0B08ECDE900053B4600220121A8
:102C7000206802F011FB00281DDA96F89000C007CA
:102C80000DD0D2A01DF0B1FC96F8910038B196F8A5
:102C90006E0020B1CDA039F01AFA39F06FFA40F683
:102CA000B83020F0BCF9206880F8D05926E008E060
:102CB000052020F0B4F9206890F8D0090028F7D05A
:102CC0000CE030B190F8D019012902D10178022925
:102CD00018D006F006FA206805F01EFFC2480078FA
:102CE00048B10521B84806F04AFF4FF4FA7020F0C9
:102CF00096F901F0F5FD012020F091F920680028F7
:102D0000DFD09CE70321B04806F039FF216802209C
:102D100081F8D009E2E788B09D4E233E02E0022010
:102D200020F07DF996F888000028F8D0AFF2E9305D
:102D30000025CDE9065004950595AFF24340AFF26A
:102D4000B141CDE90015AFF2F543AFF28532AFF2F4
:102D5000B551CDE90205AFF2874002F0B7F9A34CB7
:102D6000606090B996F890003746C0070DD0A0A0DB
:102D70001DF03BFC97F8910038B197F86E0020B138
:102D80009BA039F0A4F939F0F9F9606842F60821FE
:102D900096F86C200A5403229C4902F082F9012023
:102DA00086F8D8000A2020F03AF996F8890018B978
:102DB00096F88B000028F5D0DFF8D48196F838001B
:102DC000A8F1230808F1390708F1590850B1B6F8FD
:102DD0006A00CDE9000501223B461146606802F019
:102DE0005BFA09E0B6F86A00CDE900054346002227
:102DF0000121606802F050FA002816DA96F8900077
:102E0000B146C00716D06AA01DF0EFFB99F89100FB
:102E100080B199F86E0068B165A039F058F939F0C1
:102E2000ADF907E0052020F0FAF8606890F8D009C5
:102E30000028F7D096F87000012801D0022852D15E
:102E40000A2020F0ECF8FBE790F8D01900293AD1DD
:102E500096F8381049B1B6F86A10CDE9001501228C
:102E60003B46114602F018FA08E0B6F86A10CDE9C0
:102E7000001543460022012102F00EFA00281CDA58
:102E800096F8900040070DD561A01DF0AEFB96F8B6
:102E9000910038B196F86E0020B15DA039F017F9B5
:102EA00039F06CF940F6B83020F0B9F8606880F875
:102EB000D05918E0052020F0B2F8606890F8D009E9
:102EC0000028F7D00CE030B190F8D019012902D1D8
:102ED000017802290BD006F004F9606805F01CFEA9
:102EE000012020F09CF860680028ECD0ACE70321BA
:102EF000354806F044FE6168022081F8D009EFE70A
:102F0000234C233C02E0052020F089F894F8D600F9
:102F10000028F8D0354C206806F080FD606806F087
:102F20007DFD012020F07BF8F5E73048006806F0D1
:102F3000B0B810B5164C233C94F8900040070DD55E
:102F40003DA01DF052FB94F8910038B194F86E004A
:102F500020B139A039F0BBF839F010F9002010BDCC
:102F600010B50B4C233C94F8900040070DD538A0C9
:102F70001DF03BFB94F8910038B194F86E0020B13D
:102F800033A039F0A4F839F0F9F8002010BD0000A2
:102F9000CB030020554954445F535A4A5320696E6D
:102FA0006974206661696C656420210A0000000074
:102FB0005549544420636F6E6E6563742066616981
:102FC0006C656420210A0000B80C00205549544467
:102FD0005F535A4A5320636F6E6E65637420666157
:102FE000696C656420210A00120500200C00002095
:102FF000554954445F58465A4420696E69742066A6
:1030000061696C656420210A00000000C80B002083
:10301000554954445F58465A4420636F6E6E656349
:1030200074206661696C6564202120726574727910
:10303000202E2E2E0A00000046696C6520646F77F2
:103040006E6C6F616420737563636573732E0A0021
:1030500046696C6520646F776E6C6F616420666191
:10306000696C65642E0A000008B5AFF20B11AFF26F
:103070003D130246FC48009142F28471006801440D
:1030800005F0C4FF08BD3EB5044601A802F0EFFB01
:1030900001A9F5480091012223461146006803F07A
:1030A0000CFB3EBD0146F048006803F09EB92DE9D7
:1030B000FF47ED4CED4D05262168042795F890005B
:1030C0004FF003094FF0020800297DD040070DD5CD
:1030D000E7A01DF08AFA95F8910038B195F86E00D6
:1030E00020B1E3A038F0F3FF39F048F895F89000EC
:1030F00040071DD5CDE90269CDE90087206801238D
:1031000000220178E1481DF070FA95F8910078B13D
:1031100095F86E0060B1CDE90269CDE900872068BD
:10312000012300220178D94838F0D1FF39F026F880
:1031300095F89000400713D5206890F8051AD4A0A0
:103140001DF053FA95F8910050B195F86E0038B122
:10315000206890F8051ACEA038F0B9FF39F00EF8C3
:1031600095F8900040071DD5206800F62620C1780C
:103170000091837842780178CAA01DF036FA95F85C
:10318000910078B195F86E0060B1206800F62620B5
:10319000C1780091837842780178C2A038F097FF17
:1031A00038F0ECFF95F89000400715D52168C2A0D3
:1031B00001F606211DF019FA95F8910060B195F815
:1031C0006E0048B1216800E039E101F60621BAA09D
:1031D00038F07DFF38F0D2FF95F89000400713D506
:1031E0002068B0F82A1AB9A01DF0FFF995F89100EF
:1031F00050B195F86E0038B12068B0F82A1AB3A023
:1032000038F065FF38F0BAFF95F8900040071DD5FB
:10321000206800F62E20C1780091837842780178EA
:10322000ADA01DF0E2F995F8910078B195F86E0027
:1032300060B1206800F62E20C17800918378427832
:103240000178A5A038F043FF38F098FF95F890007A
:10325000400713D52068B0F8321AA5A01DF0C5F9B3
:1032600095F8910050B195F86E0038B12068B0F82B
:10327000321A9FA038F02BFF38F080FF60680028DA
:103280007ED095F8900040070DD59DA01DF0ADF9BA
:1032900095F8910038B195F86E0020B198A038F0FB
:1032A00016FF38F06BFF95F8900040071DD5CDE96B
:1032B0000269CDE900876068012300220178734824
:1032C0001DF093F995F8910078B195F86E0060B112
:1032D000CDE90269CDE90087606801230022017809
:1032E0006A4838F0F4FE38F049FF95F8900040073E
:1032F00013D5606890F8051A65A01DF076F995F869
:10330000910050B195F86E0038B1606890F8051AD8
:103310005FA038F0DCFE38F031FF95F890004007F0
:103320001DD5606800F62620C17800918378427828
:1033300001785CA01DF059F995F8910078B195F8E5
:103340006E0060B1606800F62620C1780091837835
:103350004278017853A038F0BAFE38F00FFF95F8A4
:103360009000400715D5616853A001F606211DF0B5
:103370003CF995F8910060B195F86E0048B100E015
:10338000DAE061684CA001F6062138F0A0FE38F0C2
:10339000F5FE95F89000400713D56068B0F82A1A3A
:1033A0004AA01DF022F995F8910050B195F86E00F1
:1033B00038B16068B0F82A1A44A038F088FE38F0B6
:1033C000DDFE95F8900040071DD5606800F62E20C0
:1033D000C17800918378427801783FA01DF005F90B
:1033E00095F8910078B195F86E0060B1606800F6CC
:1033F0002E20C178009183784278017836A038F089
:1034000066FE38F0BBFE95F89000400713D5606863
:10341000B0F8321A36A01DF0E8F895F8910050B1D6
:1034200095F86E0038B16068B0F8321A30A038F004
:103430004EFE38F0A3FE04B00020BDE8F087400740
:103440007FF51CAF35A01DF0D0F895F8910000284D
:103450003FF414AF95F86E000028F9D02FA038F093
:1034600036FE38F08BFE09E70C000020A803002090
:103470000A205549544420535A4A532073657276A2
:10348000657220696E666F3A200A0000F4600608D3
:1034900069665F7573655F6E616D653A2025640AC4
:1034A0000000000049503A2025642E25642E256432
:1034B0002E25640A000000007365727665725F6EE7
:1034C000616D653A2025730A00000000706F727408
:1034D0003A2025640A0000006C6F63616C5F4950FC
:1034E0003A2025642E25642E25642E25640A0000CA
:1034F0006C6F63616C5F706F72743A2025640A00B0
:103500000A20554954442058465A4420736572761F
:10351000657220696E666F3A200A00000A205549DC
:10352000544420535A4A53206973206E6F74207597
:10353000736564200A00000095F8900040077FF54D
:103540007AAF09A01DF051F895F8910000283FF4DA
:1035500072AF95F86E000028F9D003A038F0B7FDDF
:1035600038F00CFE67E700000A2055495444205803
:10357000465A44206973206E6F7420757365642009
:103580000A0000002DE9F04786B00D4604464FF0D2
:10359000FF394E466978DFF8108400F6262A0029A4
:1035A00028D005F10E002DF05BFA48B10069042225
:1035B000016850461CF073FDE88DA4F82A0A19E052
:1035C00098F89000C0070DD0F8A01DF00EF898F8FC
:1035D000910038B198F86E0020B1F4A038F077FD72
:1035E00038F0CCFD0422A91C50461CF058FDE88D93
:1035F000A4F82A0AD4F8007A57B1B4F82A0A00903D
:10360000F648B4F8322A534601682046091DB847E7
:10361000287800BB0221002208462EF034F9064625
:1036200030001CD4002002900390049005900220EA
:103630008DF80900B4F82C0A2FF088FCADF80A00C8
:1036400000202FF089FC0390102202A930462DF0B3
:1036500092FDC4F8D469304606B0BDE8F08798F80A
:103660009000C0070DD0DEA01CF0BFFF98F89100BD
:1036700038B198F86E0020B1D9A038F028FD38F0A4
:103680007DFD4846E8E710B5002801DB2DF02BFE54
:10369000002010BDF0B587B004460D4616461F4603
:1036A0000020039004900590069002208DF80D00F4
:1036B000B4F82A0A2FF04AFCADF80E00D4F8260A16
:1036C00004904FF4FA71CC481BF04AFC102003A977
:1036D000CDE9001000233A46314628462EF018F86E
:1036E0000446C5481BF01EFD07B02046F0BD2DE97D
:1036F000FF4F93B023AF209E97E880078B46154677
:103700001C46342106A839F031F9BBF1000F01D075
:10371000002000E002208DF818008DF819509DB1AE
:1037200021460DF1260039F082F9ADF84660279860
:103730008DE880070490DDE9212306A91398FFF79F
:1037400021FF17B0BDE8F08F20788DF81A0060785F
:103750008DF81B00A0788DF81C00E0788DF81D0016
:10376000ADF81E60E3E770B505688F4C94F89000E3
:1037700040070FD52946A1A01CF037FF94F891000F
:1037800040B194F86E0028B129469CA038F09FFC07
:1037900038F0F4FCA3480068C0F8D459012180F83F
:1037A000D019FEF775FF94F8900040070DD59EA044
:1037B0001CF01BFF94F8910038B194F86E0020B112
:1037C00099A038F084FC38F0D9FC002070BD2DE9B8
:1037D000F04107460E463C46734D95F89000400771
:1037E0000FD5314696A01CF000FF95F8910040B12E
:1037F00095F86E0028B1314691A038F068FC38F099
:10380000BDFC3046FFF73FFFD4F8E4391BB1324628
:103810000021384698470020BDE8F08170B5044685
:10382000164694F8D009002814D05F4D95F8900002
:10383000C0070FD0314689A01CF0D7FE95F8910043
:1038400040B195F86E0028B1314684A038F03FFCB5
:1038500038F094FC002084F8D00970BD70B516468D
:103860000446B2B204F6482026F0B7FF0546B5423A
:103870001AD04D4E96F89000C00713D02A467FA06C
:10388000D4F8D4191CF0B1FE96F8910050B196F816
:103890006E0038B12A4679A0D4F8D41938F017FC54
:1038A00038F06CFC6FF0060070BD3EB5044604F6BF
:1038B0002E2408782070487860708878A070C878C6
:1038C000E070A280A4F62E24374D95F890004007B2
:1038D00026D594F8310A94F8301ACDE90102009106
:1038E00094F82F3A94F82E2A6CA0D4F8D4191CF02E
:1038F0007CFE95F8910098B195F86E0080B104F6C1
:103900001224E07F218CA27FCDE900200291637F09
:10391000227F54F83E1C61A038F0D9FB38F02EFC11
:1039200000203EBD70B505681F4C94F8900040071C
:103930000FD5294665A01CF058FE94F8910040B1BF
:1039400094F86E0028B1294660A038F0C0FB38F02A
:1039500015FC34484068C0F8D459012180F8D019CA
:10396000FEF7C5FE94F8900040070DD561A01CF04D
:103970003CFE94F8910038B194F86E0020B15DA03F
:1039800038F0A5FB38F0FAFB002070BD8AB00027A4
:103990000997DFF8148002E002201FF040FB98F83E
:1039A0006E000028F8D0B4E0A8030020476574201A
:1039B000686F7374206279206E616D65206661693D
:1039C0006C656420210A2055736520746865204960
:1039D0005020616464726573730A0000640A0020F9
:1039E000437265617420736F636B657420666169EF
:1039F0006C656420210A0000980B0020554954444E
:103A00005F6574685F535A4A5320636F6E6E6563D7
:103A1000746564202C20736F636B6574203A2025D5
:103A2000640A0000280000206574685F535A4A53F6
:103A300020636F6E6E656374656421200A00000068
:103A4000554954445F657468202564206469736334
:103A50006F6E6E6563742E200A0000005549544451
:103A60005F65746820256420646973636F6E6E659A
:103A70006374656420212121200A000072696E6749
:103A8000627566202564207772697465206572729C
:103A90006F72203A202564200000000055495444EC
:103AA0005F65746820736F636B65742025642049BB
:103AB0005020706F7274203A2025642E25642E25C4
:103AC000642E25643A2564200A00000055495444B8
:103AD0005F6574685F58465A4420636F6E6E656315
:103AE000746564202C20736F636B6574203A202505
:103AF000640A00006574685F58465A4420636F6E1C
:103B00006E656374656421200A00000002201FF0C6
:103B100086FA98F86F000028F8D0FE4D02E00120E8
:103B20001FF07DFA286890F82D00C006F7D540F206
:103B3000DC501CF03EFFF84CA060E0B3AFF29520E3
:103B4000CDE9067004970597AFF2EF20AFF233315D
:103B5000CDE90017AFF28933AFF2F532AFF2714120
:103B6000CDE90207AFF2D34001F0B0FA2060E0B334
:103B700042F6082198F836200A544EF68701A0F83C
:103B8000321A0122E54901F08CFA012688F8D66044
:103B9000286890F82D00C0077ED098F80200DFF862
:103BA000809300283BD02068B8F8341008F1030354
:103BB000B0F8322A00E007E0CDE9001201221146F8
:103BC00001F06AFB099037E098F89000C0070FD029
:103BD000D4A01CF00AFD98F8910048B198F86E0046
:103BE00030B1D0A038F073FA00E002E038F0C6FA45
:103BF000FEE798F89000C0070DD0D1A01CF0F5FCAE
:103C000098F8910038B198F86E0020B1CCA038F047
:103C10005EFA38F0B3FA05201FF001FAFBE72068DE
:103C2000B8F834204B46B0F8321ACDE90021002212
:103C3000012101F031FB09900998002816DA98F863
:103C40009000C246C0070DD0C5A01CF0CEFC9AF86B
:103C5000910038B19AF86E0020B1C1A038F037FA5F
:103C600038F08CFA64201FF0DAF910E02068D0F800
:103C7000DC1909A8884798F87000012810D002289C
:103C80000ED00321BC4805F07AFF88F88B6098F8C5
:103C9000700001280DD000E007E0022809D083E081
:103CA0000721B54805F06BFFEFE701201FF0B7F9DA
:103CB0006EE788F876600A201FF0B1F9FBE790F80C
:103CC000D01989BB0421AC4805F059FF286890F849
:103CD0002D00C10758D0C00656D598F8020070B123
:103CE0002068B8F8342008F10303B0F8321ACDE99F
:103CF00000210122114601F0CFFA09900CE0206862
:103D0000B8F834204B46B0F8321ACDE90021002231
:103D1000012101F0C1FA0990099800281ADA98F8EF
:103D20009000C0070FD000E021E094A01CF05DFCE3
:103D300098F8910038B198F86E0020B18FA038F053
:103D4000C6F938F01BFA64201FF069F9206880F882
:103D5000D07929E0206880F8D06902E005201FF0C2
:103D60005EF9206890F8D0090028F7D00CE030B157
:103D700090F8D019012902D10178022918D005F054
:103D8000B0F9206804F0C8FE8348007848B10521E6
:103D9000794805F0F4FE4FF4FA701FF040F900F096
:103DA0009FFD01201FF03BF920680028DFD086E747
:103DB0000321714805F0E3FE2168022081F8D00953
:103DC000E2E788B0002404940594069407940394D1
:103DD000534D233D02E001201FF021F995F88B009F
:103DE0000028F8D0049405940694079402208DF8D6
:103DF0001100494C2068B0F82C0A2FF0A7F8ADF854
:103E000012002068D0F8260A059010200390206840
:103E1000D0B190F8D019B9B1D0F8D409002813DB8B
:103E200003A904AACDE90021082340F2DB52A168CE
:103E30002DF005FB2061002806DD236802461846A8
:103E4000D3F8EC59A168A84701201FF0E8F8DEE795
:103E50008AB000270997324C233C02E002201FF071
:103E6000DEF894F86E000028F8D002E002201FF07F
:103E7000D6F894F86F000028F8D0264E02E0012012
:103E80001FF0CDF8306890F82D00C006F7D540F24D
:103E9000DC501CF08EFD204DE860C8B3AFF2F55049
:103EA000CDE9067004970597AFF24F60AFF29361CA
:103EB000CDE90017AFF2E963AFF29752AFF2D171DB
:103EC000CDE90207AFF6330001F000F96860002881
:103ED0001FD042F6082194F86C200A544EF688014F
:103EE000A0F8321A01220D4901F0DBF84FF0010869
:103EF00084F8D880306890F82D00C00775D0DFF8BE
:103F000020A094F83800AAF1230A0AF1390945E003
:103F100056E06BE0640A002028000020C80B002057
:103F2000CB0300204D616C6C6F6320657468206268
:103F30007566206661696C656420210A00000000D6
:103F4000554954445F6574685F535A4A5320696EFB
:103F50006974206661696C656420210A00000000B4
:103F60005549544420636F6E6E65637420666169C1
:103F70006C656420210A0000B80C002055495444A7
:103F80005F535A4A5320636F6E6E65637420666197
:103F9000696C656420210A00120500200AF1590AA3
:103FA000002839D06868B4F86A104B46B0F8322A55
:103FB000CDE900120122114601F06EF9099038E0B6
:103FC00094F89000C0070FD0AFF2A8001CF00DFBD2
:103FD00094F8910040B194F86E0028B1AFF2BC00A3
:103FE00038F075F838F0CAF8FEE74AE094F8900027
:103FF000C0070DD0FDA01CF0F8FA94F8910038B17C
:1040000094F86E0020B1F9A038F061F838F0B6F8F5
:1040100005201FF004F8FBE76868B4F86A205346EF
:10402000B0F8321ACDE900210022012101F034F963
:1040300009900998002818DA94F89000A346C00760
:104040000FD0AFF2E4001CF0D0FA9BF8910040B121
:104050009BF86E0028B1AFF2F80038F038F838F06D
:104060008DF864201EF0DBFF04E06868D0F8DC19EE
:1040700009A8884794F87000012806D0022804D0C7
:1040800075E001201EF0CBFF34E70A201EF0C7FFC9
:10409000FBE790F8D019E1BB316891F82D10CA0701
:1040A00055D0C90653D594F8381061B1B0F8321A1A
:1040B000B4F86A20CDE9002101224B46114601F0F7
:1040C000EBF809900BE0B0F8321AB4F86A20CDE9A9
:1040D000002153460022012101F0DEF809900998E1
:1040E00000281ADA94F89000C0070DD0C7A01CF081
:1040F0007CFA94F8910038B194F86E0020B1C3A016
:1041000037F0E5FF38F03AF864201EF088FF686861
:1041100000E00FE080F8D07929E0686880F8D08965
:1041200002E005201EF07BFF686890F8D0090028A7
:10413000F7D00CE030B190F8D019012902D1017804
:10414000022918D004F0CDFF686804F0E5FCB648F9
:10415000007848B10521B54805F011FD4FF4FA701B
:104160001EF05DFF00F0BCFB01201EF058FF6868E8
:104170000028DFD08DE7022180F8D019E7E788B06A
:10418000002404940594069407940394A84D02E037
:1041900001201EF044FF95F88B000028F8D004940D
:1041A00005940694079402208DF81100A14C6068D4
:1041B000B0F82C0A2EF0CAFEADF812006068D0F8F4
:1041C000260A0590102003906068D0B190F8D019AD
:1041D000B9B1D0F8D409002813DB03A904AACDE9AA
:1041E0000021082340F2DB52E1682DF028F96061DC
:1041F000002806DD636802461846D3F8EC59E168EA
:10420000A84701201EF00BFFDEE700228AA18D489F
:104210001AF01CFE864C02E005201EF000FF94F808
:10422000D6000028F8D0834C206805F0F7FB6068C2
:1042300005F0F4FB01201EF0F2FEF5E72DE9FF4743
:104240007C4C7B4D05262168042795F890004FF0A3
:1042500003094FF0020800297DD040070DD57A48A8
:104260001CF0C3F995F8910038B195F86E0020B1B3
:10427000754837F02CFF37F081FF95F89000400724
:104280001DD5CDE90269CDE9008720680123002210
:1042900001786E481CF0A9F995F8910078B195F86D
:1042A0006E0060B1CDE90269CDE900872068012385
:1042B00000220178654837F00AFF37F05FFF95F874
:1042C0009000400713D5206890F8051A60A01CF0F4
:1042D0008CF995F8910050B195F86E0038B12068CE
:1042E00090F8051A5AA037F0F2FE37F047FF95F81C
:1042F000900040071DD5206800F62620C178009167
:1043000083784278017857A01CF06FF995F89100F6
:1043100078B195F86E0060B1206800F62620C1786B
:1043200000918378427801784EA037F0D0FE37F0C4
:1043300025FF95F89000400715D521684EA001F69D
:1043400006211CF052F995F8910060B195F86E00C5
:1043500048B1216800E0D7E101F6062146A037F018
:10436000B6FE37F00BFF95F89000400713D5206894
:10437000B0F82A1A45A01CF038F995F8910050B110
:1043800095F86E0038B12068B0F82A1A3FA037F0CF
:104390009EFE37F0F3FE95F8900040071DD520688B
:1043A00000F62E20C17800918378427801783AA0F7
:1043B0001CF01BF995F8910078B195F86E0060B18A
:1043C000206800F62E20C178009183784278017829
:1043D00031A037F07CFE37F0D1FE95F89000400711
:1043E00077D52068B0F8321A62E072E0554954443B
:1043F0005F6574685F58465A4420696E6974206628
:1044000061696C656420210A00000000554954442C
:104410005F58465A4420636F6E6E65637420666110
:10442000696C656420210A0012050020B80C002088
:10443000A8030020280000206574685F73656E641F
:1044400000000000980B002090610608F460060848
:1044500069665F7573655F6E616D653A2025640AF4
:104460000000000049503A2025642E25642E256462
:104470002E25640A000000007365727665725F6E17
:10448000616D653A2025730A00000000706F727438
:104490003A2025640A0000006C6F63616C5F49502C
:1044A0003A2025642E25642E25642E25640A0000FA
:1044B000AAA01CF09AF895F8910050B195F86E00FA
:1044C00038B12068B0F8321AA4A037F000FE37F0F7
:1044D00055FE95F89000400713D52068B0F82C1AC7
:1044E000A2A01CF082F895F8910050B195F86E00EA
:1044F00038B12068B0F82C1A9CA037F0E8FD37F0EE
:104500003DFE606800287DD095F8900040070DD5ED
:104510009B481CF06AF895F8910038B195F86E0048
:1045200020B1974837F0D3FD37F028FE95F890007A
:1045300040071DD5CDE90269CDE9008760680123F8
:10454000002201788F481CF050F895F8910078B15E
:1045500095F86E0060B1CDE90269CDE90087606829
:10456000012300220178874837F0B1FD37F006FEBD
:1045700095F89000400715D5606890F8051AAFF2DD
:1045800030101CF032F895F8910058B195F86E0093
:1045900040B1606890F8051AAFF24C1037F097FD03
:1045A00037F0ECFD95F8900040071FD5606800F6E5
:1045B0002620C1780091837842780178AFF25C10B0
:1045C0001CF013F895F8910080B195F86E0068B171
:1045D000606800F62620C1780091837842780178DF
:1045E000AFF2801037F073FD37F0C8FD95F89000FA
:1045F000400717D5616801F60621AFF284101BF061
:10460000F4FF00E095E095F8910058B195F86E0040
:1046100040B1616801F60621AFF2A41037F057FDF2
:1046200037F0ACFD95F89000400715D56068B0F8FC
:104630002A1AAFF2A8101BF0D8FF95F8910058B1D4
:1046400095F86E0040B16068B0F82A1AAFF2C41055
:1046500037F03DFD37F092FD95F8900040071FD5EB
:10466000606800F62E20C178009183784278017846
:10467000AFF2DC101BF0B9FF95F8910080B195F80E
:104680006E0068B1606800F62E20C17800918378D2
:1046900042780178AFF2002037F019FD37F06EFD57
:1046A00095F89000400713D56068B0F8321A2BA037
:1046B0001BF09BFF95F8910050B195F86E0038B152
:1046C0006068B0F8321A25A037F001FD37F056FDCA
:1046D00095F89000400713D56068B0F82C1A23A015
:1046E0001BF083FF95F8910050B195F86E0038B13A
:1046F0006068B0F82C1A1DA037F0E9FC37F03EFDD9
:1047000004B00020BDE8F08740077FF5FAAE1EA098
:104710001BF06BFF95F8910000283FF4F2AE95F87E
:104720006E000028F9D018A037F0D1FC37F026FD34
:10473000E7E695F890004007E2D51BA01BF055FF77
:1047400095F891000028DBD095F86E000028D7D0AE
:1047500015A037F0BCFC37F011FDD1E76C6F636139
:104760006C5F706F72743A2025640A006C69737410
:10477000656E5F706F72743A2025640A0000000055
:104780004C610608F46006080A2055495444206527
:10479000746820535A4A53206973206E6F742075D1
:1047A000736564200A0000000A20554954442065BE
:1047B00074682058465A44206973206E6F742075BF
:1047C000736564200A00000005460C4616A01BF025
:1047D0000CFF29461EA01BF008FF214621A01BF05C
:1047E00004FFFEE710B509F073F81BF022FF19F083
:1047F00033FF1DF050FF1EF06CFE1F491F481CF0D8
:1048000090F81EF019F9FDF7F3F91EF06DFE1AF09D
:104810005CF9BDE810401EF025B910B51FF05AF93B
:10482000FFF7E0FF002010BD0A0D2057726F6E6782
:1048300020706172616D657465722076616C75655A
:10484000206465746563746564206F6E0D0A0000F2
:104850002020202020202066696C65202025730DF3
:104860000A000000202020202020206C696E652096
:104870002025640D0A00000000000220406900208D
:1048800070B50D46164600240146F1A01BF0ADFEA2
:1048900004E0295DEFA01BF0A8FE641CB442F8D32D
:1048A000BDE87040EDA01BF0A0BE0A460146ECA09A
:1048B0001BF09BBE002101E0414040080028FBD1D5
:1048C00001F001007047012080F31388F14801686E
:1048D000F14A01F4E06111430160BFF34F8FFEE73D
:1048E000FFF7F1FFFEE700B5002801D0FFF7F8FF62
:1048F00000BD00B5002801D1FFF7F2FF00BD2DE992
:10490000F04395B007460D46164698460024B8F188
:10491000000F05D0B8F1100F04D94FF0100801E0D6
:104920004FF01008002239460DA81FF0F5FA0028B4
:1049300006DA3946D9A01BF058FE15B0BDE8F08361
:104940004DB129460DA81FF0F1FBA84203D0D7A016
:104950001BF04BFE32E0E94622E0002509E019F8A1
:104960000510DAA01BF041FE641C0EB1B44225D242
:104970006D1CBD42F3D3B9A01BF037FE1EE000252D
:1049800009E019F80510D1A01BF02FFE641C0EB130
:10499000B44213D26D1CBD42F3D3B0A01BF025FE70
:1049A0003322002168461BF057FB424669460DA89A
:1049B0001FF039FB07464745E1D2CEE70DA81FF0AF
:1049C0000CFBBAE72DE9F04705460F4692461C4618
:1049D0000026284638F009F8B0F5807F02DDF01E89
:1049E000BDE8F08709222946BAA038F013F810B1C3
:1049F0006FF00100F4E71CB1102C02D9102400E084
:104A00001024BAFBF4F915E006FB0471B4A01BF006
:104A1000ECFD002506FB04F806E0781918F80010F4
:104A20008CA01BF0E2FD6D1CA542F6D38BA01BF001
:104A3000DCFD761C4E45E7DBBAFBF4F004FB10A06E
:104A400090B106FB0471A6A01BF0CFFD00256643C4
:104A500005E07819315C7FA01BF0C7FD6D1CA542F5
:104A6000F7D37EA01BF0C1FD0020B9E71FB50446B7
:104A7000002902D020461FF06EFC00224FF4817105
:104A8000204620F053F90446002C08DA1BF0B8FA4F
:104A9000014696A01BF0A9FD204604B010BD694652
:104AA000204620F03FFA029818B197A002991BF017
:104AB0009CFD204620F068F90020EEE770B50E4618
:104AC000002242F2010120F031F90446002C06DAFE
:104AD000214694A01BF089FD4FF0FF3070BD304699
:104AE00037F083FF05462A463146204620F091F9EB
:104AF0000146A94208D091A01BF077FD204620F086
:104B000043F96FF0010070BD204620F03DF9002010
:104B100070BD012192A0FFF7A9FF64201EF07FFA6B
:104B2000FFF7DEFE10B5642148431EF078FA00203E
:104B300010BD10B537F0FDFBBDE810408C481FF0EC
:104B40000ABC70B504468A4D923D95F89010CB078B
:104B500003D0224687A01BF048FD85F8904070BD29
:104B60000EB50028FFD1694620F07AF830B18CA04C
:104B70001BF03BFD0020014603B000BD02990098E8
:104B800048430021F8E71FB50C46002808D06946C5
:104B90001FF0E5FA38B187A01BF027FD00207CE765
:104BA0004FF0FF3079E702982060002075E7F0B5FC
:104BB000ADF5017D06460F460024002E18D00022D8
:104BC0004FF40041304620F0B1F80546280012D5D8
:104BD0006748923890F89000C00704D02A463146C2
:104BE0007AA01BF002FD6FF001000DF5017DF0BD14
:104BF0004FF0FF30F9E74FF40076324601A928461E
:104C000020F0E2F80246B24205D101A9204618F090
:104C100041FE84B2F1E701A9204618F03BFE38803E
:104C2000284620F0B1F80020DFE710B56EA137F07C
:104C3000E3FE10B14FF0FF3010BD6D490120087048
:104C4000002010BD37F0D1BE38F068B837F0A5BEEF
:104C500025733A0020253032580000000A00000079
:104C600044454255473A2057726F6E672070617213
:104C7000616D65746572732076616C75653A206646
:104C8000696C65202573206F6E206C696E65202528
:104C9000640D0A000CED00E00400FA054F70656E2B
:104CA000202573206661696C65640A005374617223
:104CB0007420706F736974696F6E206973206F76EA
:104CC0006572666C6F7721200A000000253032582B
:104CD00020000000535A4A53574C575747000000D2
:104CE000307825303858203A090000004372656159
:104CF00074652066696C65206661696C6564203A3C
:104D0000202564200A00000046696C652069732034
:104D10006578697374202C2073697A65203A2025A0
:104D2000640A000046696C65206F70656E206661DC
:104D3000696C6564203A2025640A000046696C6548
:104D400020616464206572726F722C2077726974BE
:104D500065642025642062797465730A0000000090
:104D60002F66772F757067726164652E666C6700B9
:104D70003A04002053797374656D206C6F67206C62
:104D80006576656C203A200A206F6C643A202564B1
:104D9000202C206E6577203A202564200A00000030
:104DA0006466735F737461746673206661696C65B1
:104DB000642E0A004765742066696C65207374610F
:104DC00074206661696C65642E0A00004F70656E20
:104DD0002066696C65202573206661696C656420B6
:104DE0003A2025642E0A0000737A6A7300000000DE
:104DF0005400002070B50D46164600240146F9A067
:104E00001BF0F3FB04E0295DF7A01BF0EEFB641C34
:104E1000B442F8D3BDE87040F5A01BF0E6BB70B516
:104E20001546F44C94F8900040070FD52946F2A09F
:104E30001BF0DBFB94F8910040B194F86E0028B1B0
:104E40002946EDA037F043F937F098F9002070BDFE
:104E500070B50D46E74C94F8900040070FD52946F1
:104E6000F0A01BF0C2FB94F8910040B194F86E00E2
:104E700028B12946EBA037F02AF937F07FF9002056
:104E800070BD704740F2444200211BF0E5B810B5F8
:104E900004460022114620461FF048FF002809DB87
:104EA0001FF072FF2046BDE81040002241F20101D0
:104EB0001FF03CBF2046BDE81040002240F2011127
:104EC0001FF034BF1FF060BF70B505460C460422CA
:104ED000002120461BF0C0F8AD1E0B2D24D2DFE8C8
:104EE00005F0060B102323232315231A1F00207817
:104EF00040F00100207017E0207840F002002070A0
:104F000012E0207840F0040020700DE0207840F09E
:104F10000800207008E0207840F01000207003E0C6
:104F2000207840F020002070002070BD2DE9F0476F
:104F30000446002500276760A760E7602068002816
:104F400007D1207C4FF4717148431BF032FD206083
:104F500030B14FF00C0840F2B63A4FF004092AE0A5
:104F6000A44C94F89000C0070DD0B8A01BF03DFBF6
:104F700094F8910038B194F86E0020B1B3A037F0E6
:104F8000A6F837F0FBF84FF0FF30BDE8F087C5EB2F
:104F90000511C1EB0526206808EB8601084452463E
:104FA00000211BF059F8206800F82670206809EBF2
:104FB000860147506D1C207CA842E8DC0020E4E715
:104FC0002DE9F0410F4605461146002440F2B63067
:104FD000834202D9A01EBDE8F081287C08E0C4EB22
:104FE00004162A68C6EB042612F826202AB1641C8F
:104FF000A042F4DC4FF0FF30EDE7C4EB0412C2EB4B
:1050000004260422286802EB8602875008222868BA
:1050100002EB860283500C22286802EB86021044C1
:105020001A461BF03CF82968012001F826002046AA
:10503000D1E72DE9F0410F4605461146002440F224
:10504000B630834201D9A01EC5E7287C08E0C4EB36
:1050500004162A68C6EB042612F826202AB1641C1E
:10506000A042F4DC4FF0FF30B5E7C4EB0412C2EB12
:1050700004260422286802EB86028750082228684A
:1050800002EB860283500C22286802EB8602104451
:105090001A461BF004F82968012001F82600204672
:1050A00099E710B50A7400220A6000F5005393F8DE
:1050B000080A002803D0C3F88027501E10BDC3F88B
:1050C00080170846FFF732FF002010BD2DE9F05F82
:1050D0000646DDE90AAB0F469046994642F60C2596
:1050E00028461BF066FC044620005CD02A460021BE
:1050F0001AF0B2FF4FF4046204F6542104F648207B
:1051000025F047FB002584F8D059681EC4F8D4095F
:10511000C4F8A865C4F8D879C4F8DC89C4F8E09963
:10512000C4F8E4A9C4F8E8B90C98C4F8EC090D98DF
:10513000C4F8F0090E98C4F8F4090F98C4F8F809F7
:105140001098C4F8FC091198C4F8000AA4F8425A4F
:105150000622454904F635201AF0A1FF0622002157
:1051600004F63B201AF078FF84F8345A012084F8C2
:10517000440A142084F8450AAFF2ED2104F50050EA
:1051800000F6B800016039494160AFF2C721816083
:10519000184842F6CC01214490F8D200FFF794FE63
:1051A0002046BDE8F09F0020FBE710B51BF0C6FCD1
:1051B000002010BDFEB500F6E41080F82010A0F825
:1051C000482005698468C369CDE900450293D0E9A8
:1051D000057614460D460368324621462846B847F0
:1051E000FEBD000025733A00202530325800000033
:1051F0000A000000A803002043422061636B206482
:1052000065616C202D2D20736F6D6B6520616C6165
:10521000726D2C2069665F61666669726D203A2046
:1052200025640A0043422073656E64206661696CE0
:10523000202D2D20736F6D6B6520616C61726D2C5C
:10524000206E6F6465203A2025640A0046696C650B
:10525000207472616E73206D616C6C6F6320666187
:10526000696C6564210A00006D000020134E04087B
:105270000021002201EBC10300EBC3031A72491C99
:105280001429F7DB0020704700B500210170416050
:10529000FFF7EEFF002000BD2DE9F04389B0044682
:1052A000DDE910590F46164698462046FFF7ECFFF9
:1052B00084F8047A84F8056AA4F82C9A002E1CD08D
:1052C000404637F092FB202840D3FE4C94F89000E3
:1052D000C0070DD0FCA01BF088F994F8910038B1FC
:1052E00094F86E0020B1F8A036F0F1FE36F046FFDB
:1052F0004FF0FF3009B0BDE8F08304F62921481EC5
:10530000821ECDE90001431E1646FAA1404637F041
:10531000D3FB04F6D814A4F85250D4E90631A26A9B
:105320006069CDE9053107920490D4E90302616810
:10533000CDE90210CDE90052256894F82D2094F8AB
:105340002C10A4F6D8103346A847D3E704F606205D
:105350004146064637F06BFB04F6D814A4F85250C9
:10536000D4E90523A06AE169CDE90610CDE904235B
:10537000D4E903026168CDE90210CDE90052256845
:1053800094F82D2094F82C10A4F6D8103346A84792
:10539000B0E7D0F8E029002A02D0D0F8D41910479D
:1053A00070470021002201EBC10300EBC3031A7216
:1053B000491C1429F7DB002070470146002000EB50
:1053C000C00201EBC202127A002A04D0401C142849
:1053D000F5DB4FF0FF30704710B50346002000EBBF
:1053E000C00203EBC202147A012C06D1148B8C424A
:1053F00003D192F83A20012A04D0401C1428EEDB95
:105400004FF0FF3010BD142902DB4FF0FF30704722
:1054100001EBC10100EBC1000022027200207047C5
:105420002DE9F84F0C460026009600F6482B4FF069
:10543000010A4FF0230940F21A474FF00208A51C59
:105440006946584625F01FFBF8B1607808B301287B
:1054500029D0022830D00328F2D19DF8000023285B
:105460003DD004F64404206800F805902068401CF4
:1054700020609DF8001041552068401C2060A4F673
:105480004404B84251D96670DAE74FF0FF30BDE806
:10549000F88F9DF800004028D2D184F801A0C4F80C
:1054A00044682670CCE79DF80000402801D0667063
:1054B000C6E784F80180C3E79DF8000023280BD0DD
:1054C000D4F844184855D4F84408401CC4F844089B
:1054D000B842B5D96670B3E703206070B0E7D4F87E
:1054E00044081A2801D26670AAE721460A8BA0F167
:1054F0001A018A4214D000F80590D4F84408401CE0
:10550000C4F8440800F80590D4F84408401CC4F8D6
:105510004408B84201D9667092E784F801808FE7A9
:1055200084F800A066700020B1E784F8018087E766
:105530002DE9FE4F0D46DDF8309082461146984623
:1055400000270026B8F11A0F02D20120BDE8FE8F15
:1055500040F21A40804501D90220F7E742F2643058
:105560000AEB0004424620461AF099FDE08AB0F5A5
:10557000806F01D90320E9E71A30404501D00420AB
:10558000E4E71922214628461AF089FDE28A42F210
:105590007D30824405F11908022A0AD3514640465B
:1055A0001AF07DFD687E85F81A04A87E85F81B0434
:1055B00004E0002085F81A0485F81B04E98A11F834
:1055C0000A2085F819242846C35D1E447F1C192F24
:1055D000FAD3002003E02B185B7E1E44401C81425E
:1055E000F9DCF0B2824201D00520AFE7C5F828947B
:1055F000344E96F8900000070FD5218840A01AF08D
:10560000F4FF96F8910040B196F86E0028B1218819
:105610003BA036F05CFD36F0B1FD96F89000000737
:105620000FD5A1783AA01AF0E0FF96F8910040B1AA
:1056300096F86E0028B1A17835A036F048FD36F016
:105640009DFD96F8900000070FD5E17834A01AF080
:10565000CCFF96F8910040B196F86E0028B1E17841
:105660002FA036F034FD36F089FD96F89000000743
:1056700023D561792079A279CDE900210290617A60
:10568000E379227A01F5FA6129A01AF0AEFF96F8C3
:10569000910090B196F86E0078B160792179A27985
:1056A000CDE900200291617AE379227A01F5FA616D
:1056B0001FA036F00CFD36F061FD96F89000000753
:1056C00066D545E0A8030020536572766572206EAA
:1056D000616D6520697320746F6F206C6F6E672039
:1056E0002120636F6E6E656374206661696C65640A
:1056F000200A000025642E25642E25642E256400D2
:10570000534E2020202020203A202564200A00002B
:105710005665725F6D61696E3A202564200A00004B
:105720005665725F757365723A202564200A000021
:1057300054696D655374616D703A2025642D25643C
:105740002D25642025643A25643A2564200A00004A
:10575000E17AA07A227BCDE900210290637BA27BD3
:10576000E17BF8A01AF041FF96F8910080B196F81D
:105770006E0068B1E17AA07A227BCDE90021029027
:10578000637BA27BE17BEFA036F0A1FC36F0F6FC58
:1057900096F8900000071FD5617C207CA27CCDE9A3
:1057A00000210290E37C227D617DEEA01AF01DFFB6
:1057B00096F8910080B196F86E0068B1607C217C0B
:1057C000A27CCDE900200291E37C227D617DE5A0F1
:1057D00036F07DFC36F0D2FC96F8900000070FD52D
:1057E000217EE8A01AF001FF96F8910040B196F8EA
:1057F0006E0028B1217EE3A036F069FC36F0BEFCD5
:1058000096F89000000713D595F81914E0A00A4601
:105810001AF0EBFE96F8910050B196F86E0038B190
:1058200095F81914DAA00A4636F051FC36F0A6FCB9
:1058300096F8900000070FD5E18ADBA01AF0D5FE9C
:1058400096F8910040B196F86E0028B1E18AD6A092
:1058500036F03DFC36F092FC96F89000000704D537
:10586000EA8A4146D4A0FFF70BF800206EE638B56F
:105870000446684608F040FE684637F03DFC017D6E
:1058800064396171017C491C2171017BE170017AED
:10589000A1700179617000782070002038BD13B5C7
:1058A000044601A837F028FC017D64396171017C50
:1058B000491C2171017BE170017AA170017961704D
:1058C0000078207000201CBD10B58AB0044600206E
:1058D00009902421684637F049F8607900F5FA60AC
:1058E00005902079401E0490E0780390A078029003
:1058F0006078019020780090684636F0C3FF0990E8
:1059000009A808F04FFE0AB0002010BD2DE9F041B3
:105910000C4690460121A1701421E170018821807C
:1059200000F10A0104F10A058E1DAF1D002B09D0FC
:10593000062228461AF0B3FB0622314638461AF0F2
:10594000AEFB08E0062238461AF0A9FB06223146D3
:1059500028461AF0A4FBA4F81680201DFFF787FF45
:105960000020BDE8F0812DE9F05F05460E46904627
:105970001C464FF000090027B8F1000F07D0D8F8F7
:105980000400801CB0F5806F01D9381F09E4284657
:10599000FFF713FD82465FEA0A0002D54FF0FF30A1
:1059A000F4E74FF0000B24B30AEBCA00012105EB2A
:1059B000C00030304172317E017005F642252888E2
:1059C00030802888401C2880A878B070E878A5F638
:1059D0004225F070062205F6352106F10A001AF07C
:1059E0005EFB062205F63B2106F110001AF057FB7C
:1059F00009E00AEBCA0005EBC00080F839B096F860
:105A00002C1480F83010B8F1000F0CD00AEBCA004B
:105A1000D8F8042005EBC001921C1831234630460B
:105A2000FFF774FF09E00AEBCA0005EBC00118316B
:105A3000234600223046FFF769FF0AEBCA0005EB58
:105A4000C00404F1180010F809100F4409F101090D
:105A5000B9F1190FF7D3DFF86C9199F890000007AE
:105A60000FD5394658A01AF0C0FD99F8910040B101
:105A700099F86E0028B1394653A036F028FB36F06D
:105A80007DFBB8F1000F3FD0D8F80400801C1AF05D
:105A900090FF6063E0B1012241461AF000FB606BA9
:105AA0000122401C08F101011AF0F9FAD8E901219C
:105AB000606B801C1AF0F3FA99F89000000704D587
:105AC000E28D47A0616BFEF7DBFE0020E18D18E060
:105AD00099F89000C0070DD045A01AF086FD99F8FE
