:020000040800F2
:10000000F0680020ED8C010801D800083D37020897
:1000100003D8000805D8000807D800080000000031
:1000200000000000000000000000000009D80008E7
:100030000BD8000800000000C736020831D50008C0
:10004000078D0108078D0108078D0108078D01083C
:10005000078D0108078D0108078D0108078D01082C
:10006000078D0108078D0108078D0108078D01081C
:10007000078D0108078D0108078D0108078D01080C
:10008000078D0108078D0108078D0108078D0108FC
:10009000078D0108078D0108078D0108078D0108EC
:1000A000078D0108078D0108078D0108078D0108DC
:1000B0005D230108078D0108CD240108078D010883
:1000C000078D0108078D0108078D0108078D0108BC
:1000D000078D010871DA0008ABDA0008E9DA0008D8
:1000E00035D800080DD80008078D0108078D0108D4
:1000F000078D0108078D0108078D0108078D01088C
:10010000078D0108078D0108078D0108078D01087B
:1001100027DB000863DB0008078D0108078D010855
:1001200099250108078D0108078D0108078D010831
:10013000078D0108A1550108078D0108078D0108E9
:10014000078D0108078D0108078D0108078D01083B
:10015000078D0108078D0108078D0108A1DB000844
:10016000078D0108078D0108078D0108078D01081B
:10017000078D0108078D0108078D0108078D01080B
:10018000078D0108DFF80CD03DF000FA0048004769
:10019000EF470008F06800202DE9FC41002401949D
:1001A00000221146F1A024F0A3FBF44E002825DA2A
:1001B000F3A024F075FAF3A1F4A024F042FB00238D
:1001C000F2A2EFA1EFA0009424F0B0F9002817D01C
:1001D00096F89000C0070DD0EDA01FF0E8FF96F84C
:1001E000910038B196F86E0020B1E9A03BF051FDC6
:1001F0003BF0A6FD0A2022F0F4FCFBE724F0A6FB6E
:10020000F0A024F00AFD0546002D2ED10021EDA01E
:1002100024F0C8FC002828D0D9A024F041FAD9A1A4
:10022000DAA024F00EFB0023D8A2D5A1D5A000941B
:1002300024F07CF9A8B196F89000C0070DD0D4A0A6
:100240001FF0B5FF96F8910038B196F86E0020B116
:10025000CFA03BF01EFD3BF073FD0A2022F0C1FC55
:10026000FBE70021D7A024F09DFC284624F0A3FD45
:10027000D6A024F0D2FC05463DB90021D3A024F03D
:1002800091FC10B1D2A01FF092FF284624F093FDFC
:10029000D5A024F0C2FC05461DB90021D2A024F04F
:1002A00081FC284624F087FDD1A024F0B6FC054649
:1002B0001DB90021CEA024F075FC284624F07BFD5A
:1002C000CDA024F0AAFC05461DB90021CAA024F047
:1002D00069FC284624F06FFDC9A024F09EFC054669
:1002E0001DB90021C6A024F05DFC284624F063FD62
:1002F000C6A024F092FC05461DB90021C3A024F03D
:1003000051FC284624F057FDC1A024F086FC054688
:100310001DB90021BEA024F045FC284624F04BFD69
:1003200000220221BDA024F0E3FA002802DB24F021
:100330000DFB11E0002240F20111B8A024F0D8FA20
:100340000546B9483CF033F90246B749284624F03F
:1003500042FB284624F0FAFA4FF4004600223146C8
:1003600082A024F0C5FA0546002D6FDB002211465D
:10037000284624F055FB012201A9284624F006FB5B
:100380004FF49677012816D0284624F0DFFA77A09C
:1003900023F0C3FD0022114674A024F0A9FA00281E
:1003A00046DA78A179A024F04CFA384622F019FCFC
:1003B00004F080FA3EE09DF804007B2834D0284603
:1003C00024F0C4FA69A023F0A8FD0022114667A01A
:1003D00024F08EFA00281ADA69A024F061F969A1E4
:1003E0006AA024F02EFA002368A265A165A00094FB
:1003F00024F09CF88D495DA01BF000F900201CF052
:1004000002F9384622F0EDFB04F054FA01E024F042
:100410009DFA864955A01BF0F1F800201CF0F3F876
:1004200083A01FF0C4FE1BE0284624F08FFA17E0DB
:1004300024F08CFA7D494DA01BF0E0F800201CF060
:10044000E2F88AA01FF0B3FE0AE0FFE7774947A071
:100450001BF0D4F800201CF0D6F893A01FF0A7FEE4
:1004600000223146A0A024F043FA002802DB24F049
:100470006DFA05E09CA01AF080FCA0A01FF097FE8A
:1004800000223146ACA024F033FA002802DB24F02D
:100490005DFA06E0AE49A8A01AF0D9FBAD481FF0FE
:1004A00086FE00223146ACA024F022FA002802DBAE
:1004B00024F04CFA06E0AE49A7A01AF033F8AD4894
:1004C0001FF075FE00223146ABA024F011FA00287F
:1004D00002DB24F03BFA06E0AD49A7A01AF0AAF827
:1004E000AC481FF064FE00223146ABA024F000FAB5
:1004F000002802DB24F02AFA06E0AC49A6A01AF094
:10050000B4F9ABA01FF053FE00223146B7A024F08F
:10051000EFF9002802DB24F019FA06E0B749B3A08E
:100520001AF042FEB6A01FF042FE00223146C2A0E1
:1005300024F0DEF9002802DB24F008FA06E0C249C4
:10054000BDA01AF007FBC1A01FF031FE002231460A
:10055000CDA024F0CDF9002803DB24F0F7F9BDE8A5
:10056000FC81CE49C8A01AF0C0FD99E12F636F6EDF
:100570006669672F7379732E63666700980300209E
:100580002F000000666C617368300000656C6D00C0
:10059000466C6173682046696C6520537973746595
:1005A0006D20696E697469616C7A6174696F6E201F
:1005B0006661696C656420616761696E2021212133
:1005C000200A00002F726F6D000000002F534400BE
:1005D0004D616B65202F5344206469722066616908
:1005E0006C6564200A0000002F636F6E6669670007
:1005F0002F736372697074002F6D6F64756C650082
:100600002F6D6F64756C652F6C6962002F667700C3
:100610002F646F776E6C6F61640000002F696E69E4
:10062000742E7263000000002E37040826F30308BE
:1006300053797374656D20636F6E666967206669B0
:100640006C652069732072657061697265642077DA
:10065000697468207379735F6366675F696E697434
:100660005F6461746120212121200A005379737431
:10067000656D20636F6E6669672066696C652069C9
:100680007320726577726974652077697468207366
:1006900079735F6366675F696E69745F64617461D3
:1006A00020212121200A000053797374656D206395
:1006B0006F6E6669672066696C6520697320726574
:1006C00063726561746564207769746820737973F7
:1006D0005F6366675F696E69745F6461746120213E
:1006E0002121200A000000002F636F6E6669672FCA
:1006F0006D6F64652E636667000000006D6F646552
:1007000020636F6E6669672066696C652069732077
:100710007265637265617465642077697468206DC1
:100720006F64655F6366675F696E69745F64617457
:100730006120212121200A002F636F6E6669672FD7
:100740007472616E73706172656E742E6366670099
:1007500080F20308245C04082F636F6E6669672FBC
:1007600050524F5F554954442E63666700000000A5
:1007700024F103089C5B04082F636F6E6669672F82
:1007800050524F5F4354524C2E6366670000000086
:100790003CF10308E05B04082F636F6E6669672F06
:1007A000415030312E636667000000008CF1030871
:1007B0004150303120636F6E6669672066696C65F1
:1007C000206973207265637265617465642077695E
:1007D000746820415030315F6366675F696E697489
:1007E0005F6461746120212121200A002F636F6EF4
:1007F0006669672F46412E636667000094F103081F
:10080000464120636F6E6669672066696C65206982
:1008100073207265637265617465642077697468BA
:100820002046415F6366675F696E69745F646174E7
:100830006120212121200A002F636F6E6669672FD6
:100840006574682E636667003CF20308657468206F
:10085000636F6E6669672066696C652069732072D4
:100860006563726561746564207769746820657476
:10087000685F6366675F696E69745F646174612055
:10088000212121200A0000002F636F6E6669672F07
:10089000574946492E63666700000000E6F20308E8
:1008A000E9A01FF084FC5AE67FB5054600221146F8
:1008B000284624F01DF80446002C08DA1FF082F9BF
:1008C00002462946EFA01FF072FC04B070BD6946D5
:1008D000204624F009F9029818B1204624F036F891
:1008E000F3E7204624F032F8284623F016FB294689
:1008F000EBA01FF05CFCE8E710B5F2A023F00DFBC5
:10090000F4A0FFF7D1FF002010BD10B5AFF2F42026
:1009100023F003FBAFF2AC3023F0FFFAAFF2881004
:1009200023F0FBFAF0A023F0F8FAAFF2F40023F082
:10093000F4FAFFF731FC002010BD10B5EF4C002396
:10094000B2F5007F01D9581E10BD214402E0CC5CF5
:10095000C4545B1C9342FAD3002010BDF0B587B09D
:10096000002400250395049505950695062200218F
:10097000E348FFF7E2FFE24841790379C278CDE925
:1009800000230291837842780178DEA01FF00FFCEB
:10099000E74E0021316071600622D94930461FF0D0
:1009A00060F9E44B03CE40F618121B1A8A4103D2B9
:1009B000E1A01FF0FCFB10E003AE0A2200233BF095
:1009C000F9FCC4F10C033032F25404F101040D2C93
:1009D000F3DB03A9DFA01FF0EAFBE14812F024F8E3
:1009E000DF49491C881E12F00AF9DD4E0124D33E6E
:1009F00086F8884096F8D200022803D0042801D057
:100A000012F0FFF996F8D400532801D186F870400F
:100A1000032733281CD0342822D0352825D0562847
:100A200028D02AF0C1F93BF0D8F920F069FA22F079
:100A3000A9FE27F09EFB24F02AFE27F0F1FA15F01C
:100A400002FB0EF014FA96F8D2000B2815D017E02E
:100A50001FF0FFFBC3A00AF029FF86F87070E2E7E1
:100A60001FF0F7FB86F87070DDE71FF0F2FB86F8E9
:100A70007070D8E72AF098F9D5E7BCA013F008FD0C
:100A800096F8D400522836D00023AFF20052AFF2CD
:100A90001051AFF21050009523F048FD002843D0CC
:100AA000B4481FF084FBAFF22451AFF2205023F082
:100AB000C8FE0023AFF22C52AFF23C51AFF23C50D3
:100AC000009523F033FD002831D096F89000C00740
:100AD0000DD0A9A01FF06BFB96F8910038B196F8E5
:100AE0006E0020B1A4A03BF0D4F83BF029F90A2015
:100AF00022F077F8FBE7AFF27451AFF2705023F0B9
:100B0000A0FE96F89000C0070DD0A8A01FF04FFBE4
:100B100096F8910038B196F86E0020B1A3A03BF092
:100B2000B8F83BF00DF9FEE7ACA01FF040FB0A203F
:100B300022F057F8B1A1B3A013F0BBFA0023AFF233
:100B4000B452AFF27851AFA0009523F0EFFCAE4D58
:100B500000283AD0ADA01FF02AFB96F8D400542804
:100B600038D0FFF719FBFFF7C7FEB3480023B3A245
:100B7000AFF2B0510090184623F0D8FC00283ED0C8
:100B8000AFA01FF014FB032016F035FFA0F5B44111
:100B90005A390DD01BF00FFB01201BF001FD96F818
:100BA000D30003282FD004282DD005282BD02CE0EB
:100BB00016F034FB0021032016F014FF0121AAA037
:100BC00003F03EFF03F076FEFEE7ABA01FF0EFFA66
:100BD0002C70C2E7FFF799FE96F89000C0070DD081
:100BE000AEA01FF0E4FA96F8910038B196F86E00C6
:100BF00020B1AAA03BF04DF83BF0A2F8FEE7B5A06B
:100C00001FF0D5FABFE71BF0AFF896F89100002867
:100C100016D0AFF2946003F08DFFB64988420FDD25
:100C20004F48413807463BF0C2FC304490F89100F1
:100C30002F2806D096F89000C00703D039465BE114
:100C40007BE16EE167E100005749464920636F6E22
:100C50006669672066696C652069732072656372D6
:100C60006561746564207769746820574946495FF7
:100C70006366675F696E69745F64617461202121D6
:100C800021200A004F70656E2066696C652025730F
:100C9000206661696C6564203A202564200A0000A2
:100CA00046696C652025732073697A652069732015
:100CB0007A65726F2C2072656D6F7665206974207D
:100CC0002E0A00002F6669726D776172652E626967
:100CD0006E0000002F66772F6669726D776172650E
:100CE0002E62696E000000002F636F6E6669672FC9
:100CF000415030322E636667000000008878FF1F85
:100D000065000020554954445F49443A202530325B
:100D1000582025303258202530325820253032587E
:100D200020253032582025303258200A200000007B
:100D300078000020FF9F724E534E20746F6F206C1E
:100D400061726765202C206572726F7220212121EB
:100D50000A000000534E203A2025730A00000000CC
:100D60006B04002075617274310000007370693289
:100D700030000000705C04085350492046696C65DF
:100D80002053797374656D20696E697469616C7A3A
:100D90006174696F6E206661696C6564206167616A
:100DA000696E20212121200A000000006D6B66730E
:100DB00020666C617368302066696E6973682C20E8
:100DC000506C656173652072657365742074686525
:100DD000206465766963652E0A000000535049203F
:100DE00046696C652053797374656D20696E69740A
:100DF00069616C697A6564210A0000007370693169
:100E0000310000007364300000000020534443614F
:100E100072642046696C652053797374656D20692E
:100E20006E697469616C697A6174696F6E2066615C
:100E3000696C6564210A0000504F0408726F6D00F0
:100E4000524F4D2046696C652053797374656D204F
:100E5000696E697469616C7A6174696F6E2066612C
:100E6000696C6564210A00002F66772F75706772C0
:100E70006164652E666C670053444361726420466A
:100E8000696C652053797374656D20696E69746946
:100E9000616C697A6564210A00000000496E69741A
:100EA00020636F6E66696775726174696F6E206624
:100EB000696E69736865642C20506C656173652088
:100EC000726573657420746865206465766963650E
:100ED0002E0A0000524F4D2046696C6520537973ED
:100EE00074656D20696E697469616C697A656421E5
:100EF0000A00000040420F00F7A01FF058F996F8D2
:100F0000910040B196F86E0028B13946F2A03AF04F
:100F1000C0FE3AF015FF0222AFF69C1138461EF0D3
:100F2000A0FEF9A138463BF00EFB38463AF05FFDD3
:100F3000F8A03AF0AEFE3AF0CBFF17F047FF18F0FA
:100F40006CF996F87000012801D0022819D196F8A2
:100F5000900040070DD5FBA01FF029F996F89100ED
:100F600038B196F86E0020B1F6A03AF092FE3AF051
:100F7000E7FE0721FB4808F092FD287808B186F8C3
:100F8000744086F86E4007B0F0BD1CB5F64C02E028
:100F9000012021F026FE94F86E000028F8D0F348D6
:100FA00014244FF480530078CDE900040022F04966
:100FB000F0A021F05AFDF249086008B121F008FDC7
:100FC000F0480022F0490078CDE900044FF40064B5
:100FD0002346EEA021F049FDEF49086008B121F059
:100FE000F7FCEE491E2023460978CDE900100022C7
:100FF000EB49ECA021F039FDEE490860002803D050
:10100000BDE81C4021F0E4BC1CBD2DE9FC470446B2
:10101000142520781E264FF400774FF480580028BE
:101020002DD0E548434600220078CDE90006E3498B
:10103000E3A021F01AFDE649086008B121F0C8FCE0
:10104000E44964203B460978CDE900100022E249DA
:10105000E2A021F00AFDE449086008B121F0B8FCE3
:10106000E2483B4600220078CDE90005E049E1A0D6
:1010700021F0FBFCE149086008B121F0A9FCE0780F
:10108000F8B13AF00DF931F057FA0CF0A5FA1AF070
:10109000B9FD14F025FDDAA01FF089F8B24901204E
:1010A00081F86F00DC48434600220078CDE9000655
:1010B000DA49DBA021F0D9FCDD49086008B121F054
:1010C00087FCA07978B3DFF86C934FF400630022BB
:1010D00099F80000CDE90005D749D8A021F0C5FC5A
:1010E000D949086008B121F073FC99F80000CDE9F6
:1010F00000053B460022D549D5A021F0B6FCD649D3
:10110000086008B121F064FCD4484346002200780E
:10111000CDE90006D249D3A021F0A7FCD54908604B
:1011200008B121F055FC607870B1D34843460022E5
:101130000078CDE90005D149D1A021F096FCD34932
:10114000086008B121F044FCA07870B1D048434653
:1011500000220078CDE90005CE49CFA021F085FC22
:10116000D049086008B121F033FC20794FF40059D0
:10117000E8B1CD484B4600220078CDE90005CB49C7
:10118000CBA021F072FCCD49086008B121F020FC11
:10119000CB483B4600220078CDE90005C949CAA0EA
:1011A00021F063FCCA49086008B121F011FC6079A4
:1011B000E8B1C8484B4600220078CDE90006C64990
:1011C000C6A021F052FCC849086008B121F000FC1B
:1011D000C6483B4600220078CDE90006C449C5A0B8
:1011E00021F043FCC649086008B121F0F1FBE07929
:1011F00070B1C448434600220078CDE90005C249D9
:10120000C2A021F032FCC449086008B121F0E0FB23
:10121000207A78B1C1493C2043460978CDE90010D5
:101220000022BF49BFA021F020FCC149086008B1DD
:1012300021F0CEFB0020BDE8FC8710B54A4C02E04F
:10124000012021F0CEFC94F86E000028F8D0B948B7
:1012500001220270427000218170C17002712178F8
:10126000012902D0022902D003E0427101E042715B
:101270008271BDE81040001DC7E610B53A4C02E08F
:10128000012021F0AEFC94F86E000028F8D0A948A7
:101290000021417001780122012901D0B9B177E123
:1012A000817859B1C2712178012902D0022902D076
:1012B0006EE102726CE10272427269E1C17839B189
:1012C00082722178012904D0022903D060E138E13B
:1012D00058E131E132E100004C6F672066696C65CE
:1012E0002070617468206572726F72203A202573D5
:1012F000202C207573652064656661756C742070A0
:101300006174680A000000006C6F67732E74787453
:10131000000000000A0A0A4C6F672073746172743F
:10132000203D3D3D3D3D3D3D3D3D3D3D3D3D3D3D0A
:101330003D3D3D3D3D3D3D3D3D3D3D3D3D3D3D3DDD
:101340000A0A00000A2020456E74657220746573D5
:1013500074696E67206D6F646520212121200A0A5F
:1013600000000000780C002098030020DC01002021
:1013700019BA0008554954445F424C45000000002A
:10138000E0010020DD0100209DBA000855495444C9
:101390005F424C455F727800E4010020DE010020CE
:1013A000F7BA0008554954445F424C455F72656383
:1013B00000000000E801002003000020D52E0008F6
:1013C000554954445F475052535F726563000000B3
:1013D00014000020E00500208B08010847534D5FF2
:1013E0004D47333031000000E4050020E1050020C6
:1013F0004908010847534D5F72780000E805002056
:101400005443502F495020696E697469616C697A40
:101410006564210A000000001A000020DF41000876
:10142000554954445F6574685F726563000000004D
:1014300040000020EC0500201B1B010857494649CD
:101440005F4553503037000000060020B91A0108EC
:10145000574946495F72780004060020EE010020DB
:10146000D5C20008554954445F574946495F7265E3
:10147000630000000002002001000020DB290008BA
:10148000554954445F6D61696E0000000C000020F6
:1014900002000020EB2C0008554954445F325F6D78
:1014A00061696E00100000201800002061390008FA
:1014B000554954445F6574680000000038000020FE
:1014C0001B000020973D00086574685F727800007B
:1014D0004400002019000020253E000855495444CE
:1014E0005F6574685F3200003C0000201C00002033
:1014F000534100086574685F72785F320000000035
:1015000048000020EC010020D1BD0008554954449A
:101510005F57494649000000F8010020ED01002016
:1015200025C10008554954445F325F574946490078
:10153000FC010020B5040020C27229E0C2720273CF
:1015400026E08178012902D1C378022B03D0C37829
:10155000012B0ED01CE0C27182722178012902D0C9
:10156000022903D014E00272C27211E00272027307
:101570000EE002290CD1C27182722178012902D0B9
:10158000022903D004E00272C27201E0C272427208
:10159000BDE81040001D38E570B5FE4C02E00120AA
:1015A00021F01FFB94F86E000028F8D0FA4D0120BE
:1015B0002978012901D051B39EE0697859B1287189
:1015C0002178012902D0022902D095E0687193E0C8
:1015D0006871A87190E0A97859B1E8712178012962
:1015E00002D0022902D087E0287285E02872687252
:1015F00082E0E978F9B1A8722178012902D00229A4
:1016000002D079E0E87277E0E872287374E06978D4
:10161000012902D1AA78022A03D0AA78012A0ED081
:101620000FE02871E8712178012902D0022903D046
:1016300062E0687128725FE0687168725CE002299C
:1016400002D0012A0ED010E02871E871217801291A
:1016500002D0022903D04FE0687128724CE0287252
:10166000A87149E0EB78022B03D0EB78012B0ED068
:101670000FE0E871A8722178012902D0022903D075
:101680003AE02872E87237E02872287334E0022AC0
:1016900002D001290ED00FE0E871A872217801294B
:1016A00002D0022903D027E02872E87224E0E87211
:1016B000687221E0022B02D0012B0ED01CE02871B1
:1016C000A8722178012902D0022903D014E06871A0
:1016D000E87211E0687128730EE002290CD12871BC
:1016E000A8722178012902D0022903D004E0687190
:1016F000E87201E0E872A871281DBDE8704084E43A
:101700007CB5A44C02E0022021F06BFA94F86E0044
:101710000028F8D094F87000012824D01AF0D7FAE5
:1017200094F8D40005220A214FF4806333284FD067
:1017300094F8D300012859D0022857D05B00032821
:1017400062D0042801D005286CD1CDE90012002216
:10175000AFF2BB1191A021F088F9002862D0BDE85A
:101760007C4021F035B994F8D310002301208A4A37
:10177000012918D0022916D002268D4D032918D030
:10178000042901D00529CBD1137050709670D37005
:101790002670874887A120383AF02BFF85A128467C
:1017A0003AF027FFBCE7107050709370D370207030
:1017B000B6E7137053709070D67026707C487DA188
:1017C00020383AF016FF7BA128463AF012FFA7E72F
:1017D000CDE900120022AFF64D0179A021F045F9C4
:1017E00000281FD0BDE87C4021F0F2B8CDE90012FE
:1017F0000022AFF2B95176A021F037F9002811D0BC
:10180000BDE87C4021F0E4B8CDE900120022AFF23F
:10181000955173A021F029F9002803D0BDE87C4040
:1018200021F0D6B87CBD2DE9FC475A4D02E00220DC
:1018300021F0D7F995F86E000028F8D095F87000DF
:101840004FF40076B3000A2404281BD095F8D20088
:10185000022841D06649DFF89C81674D674F032815
:101860004BD0042866D009287BD00A287AD00B28D0
:1018700079D00C2878D0002877D0BDE8FC4760A04C
:101880001EF095BC95F8D200032805D0092803D096
:101890000A2801D00B2869D16048002260490078ED
:1018A000CDE900045FA021F0E0F85F49086008B1CD
:1018B00021F08EF85D48334600220078CDE900041F
:1018C0005B495CA021F0D1F85C49086000284DD04C
:1018D000BDE8FC4721F07CB85948002259490078FE
:1018E000CDE9000458A021F0C0F85949086000284B
:1018F0003CD0BDE8FC4721F06BB80878CDE9000486
:101900000022544954A021F0B0F8286008B121F019
:101910005FF898F80000CDE90004334600224F49F3
:101920004FA021F0A2F8386000281FD0BDE8FC4786
:1019300021F04EB84C48334600220078CDE900042F
:101940004A494BA021F091F84B49086008B121F0B9
:101950003FF84A48334600220078CDE90004484960
:1019600005E00FE0B0E0CEE0FCE02CE110E045A0A7
:1019700021F07BF846490860002809D0BDE8FC4703
:1019800021F026B80878CDE900040022314981E031
:1019900014E1000098030020B50400205549544488
:1019A0005F475052535F4554485F696E6974000049
:1019B000E2040020737A6A73746573740000000097
:1019C000554954445F424C455F696E69740000009C
:1019D000554954445F475052535F696E6974000023
:1019E000554954445F6574685F696E69740000000E
:1019F0004401002045010020480100204C01002046
:101A0000556E6B6E6F776E20626F617264207479B1
:101A1000706520212121200A000000000C02002016
:101A2000E9CD000854500000100200200D020020F3
:101A300053CE000854505F7278000000140200205A
:101A400090000020BDA2000873656E736F720000E5
:101A5000B8000020EDB000084641000085B5000840
:101A600046415F727800000050010020EDB600088A
:101A70006374726C5F696E00C80100205101002020
:101A80007BB700086374726C5F6F757400000000B0
:101A9000CC010020AFF2400020F0E7FF286008B141
:101AA00020F096FF98F80000CDE90004674933461E
:101AB0000022AFF2540020F0D8FF386000287DD01B
:101AC000BDE8FC4720F084BF0878CDE900046049F8
:101AD0000022AFF27C0020F0C8FF286008B120F09F
:101AE00077FF98F80000CDE90004584933460022FA
:101AF000AFF2940020F0B9FF3860002869D0BDE84B
:101B0000FC4720F065BF0878CDE9000450499946AC
:101B10000022AFF2BC0020F0A8FF286008B120F03E
:101B200057FF98F80000CDE90004484933460022E9
:101B3000AFF2D40020F099FF386008B120F048FFE0
:101B400044484B4600220078CDE90004424943A0B6
:101B500020F08BFF4449086000283AD0BDE8FC47DC
:101B600020F036BF0878CDE9000439490022AFF2F1
:101B7000181020F07AFF286008B120F029FF98F8AB
:101B80000000CDE90004314933460022AFF23010A5
:101B900020F06BFF386008B120F01AFF33484FF493
:101BA000805300220078CDE90004314931A020F0B3
:101BB0005CFF3349086000280BD000E009E0BDE875
:101BC000FC4720F005BFAFF2C810BDE8FC471EF08F
:101BD000EEBABDE8FC877CB505200A24CDE90040BB
:101BE000C3020022274928A020F03FFF08B120F0BF
:101BF000EFFE27484FF400652B460078CDE900043E
:101C00000022244924A020F030FF2649086008B1B2
:101C100020F0DEFE09264FF480730022AFF2F93186
:101C2000CDE9006420A020F020FF08B120F0D0FE14
:101C30002B460022AFF23751CDE900641DA020F001
:101C400014FF08B120F0C4FE00207CBD85B500085B
:101C5000EDB0000838030020A1D2000850524F5FB9
:101C60005549544400000000800300201802002061
:101C7000BDCF000850524F5F4354524C000000004B
:101C8000340300205D090008696E697400000000DB
:101C90008000002055A200087379735F737461742B
:101CA000757300008C0000204150505F696E6974AC
:101CB00000000000434F4D5F696E69740000000032
:101CC00010B5C2B004464FF4807102A83AF030FC5F
:101CD00001A80CF08DFB0121204602F0B1FE00228C
:101CE0000121204622F004FEF94CC4F884000028AB
:101CF00015DA94F89000C0070DD0F6A01EF057FA40
:101D000094F8910038B194F86E0020B1F1A039F048
:101D1000C0FF3AF015F84FF0FF3042B010BD94F814
:101D2000D3000BF00FFD0246F2A102A83BF00EFF1C
:101D30000246002A12DA94F89000C00713D0F3A0EC
:101D40001EF035FA94F8910068B194F86E0050B125
:101D5000EEA039F09EFF39F0F3FF04E002A9D4F8B9
:101D6000840022F038FE94F8D2000BF004FD024605
:101D7000ECA102A83BF0EAFE0246002A12DA94F82F
:101D80009000C00713D0E1A01EF011FA94F8910062
:101D900068B194F86E0050B1DCA039F07AFF39F0E8
:101DA000CFFF04E002A9D4F8840022F014FE01A8B9
:101DB0003AF09EFB0246E2A102A83BF0C7FE0246B3
:101DC000002A12DA94F89000C00713D0CFA01EF0BA
:101DD000EEF994F8910068B194F86E0050B1CBA080
:101DE00039F057FF39F0ACFF04E002A9D4F88400C1
:101DF00022F0F1FD94F8D300012808D0022806D083
:101E0000032828D004286BD0052869D0AAE094F8CC
:101E10007520CEA102A83BF099FE0246002A14DAF2
:101E200094F89000C007F1D0B8A01EF0C0F994F863
:101E300091000028EAD094F86E000028E6D0B3A004
:101E400039F027FF39F07CFF8CE002A9D4F8840038
:101E500022F0C1FD86E094F87620BFA102A83BF0F5
:101E600075FE0246002A12DA94F89000C00713D0DB
:101E7000A6A01EF09CF994F8910068B194F86E0049
:101E800050B1A2A039F005FF39F05AFF04E002A9D1
:101E9000D4F8840022F09FFD94F87720B2A102A824
:101EA0003BF054FE0246002A14DA94F89000C00772
:101EB00058D096A01EF07BF994F89100002851D0DC
:101EC00094F86E0000284DD090A039F0E2FE39F071
:101ED00037FF47E002A9D4F8840022F07CFD41E0FE
:101EE00094F8752099A102A83BF030FE0246002A22
:101EF00012DA94F89000C00713D084A01EF057F9AE
:101F000094F8910068B194F86E0050B17FA039F058
:101F1000C0FE39F015FF04E002A9D4F8840022F0D5
:101F20005AFD94F876208CA102A83BF00FFE0246E1
:101F3000002A12DA94F89000C00713D073A01EF0A4
:101F400036F994F8910068B194F86E0050B16FA022
:101F500039F09FFE39F0F4FE04E002A9D4F88400C1
:101F600022F039FD94F8D200032802D0022866D06E
:101F7000A7E094F878207FA102A83BF0E7FD024695
:101F8000002A12DA94F89000C00713D05FA01EF068
:101F90000EF994F8910068B194F86E0050B15BA00E
:101FA00039F077FE39F0CCFE04E002A9D4F88400C1
:101FB00022F011FD94F8792072A102A83BF0C6FD31
:101FC0000246002A12DA94F89000C00713D04FA0FE
:101FD0001EF0EDF894F8910068B194F86E0050B1DD
:101FE0004AA039F056FE39F0ABFE04E002A9D4F85D
:101FF000840022F0F0FC94F87A2066A102A83BF05D
:10200000A5FD0246002A14DA94F89000C00758D0C3
:102010003EA01EF0CCF894F89100002851D094F81E
:102020006E0000284DD039A039F033FE39F088FE1B
:1020300047E002A9D4F8840022F0CDFC41E094F8F6
:102040007C2058A102A83BF081FD0246002A12DA4A
:1020500094F89000C00713D02CA01EF0A8F894F8B4
:10206000910068B194F86E0050B128A039F011FECB
:1020700039F066FE04E002A9D4F8840022F0ABFC3B
:1020800094F87D204DA102A83BF060FD0246002A95
:1020900012DA94F89000C00713D01CA01EF087F845
:1020A00094F8910068B194F86E0050B117A039F01F
:1020B000F0FD39F045FE04E002A9D4F8840022F0D6
:1020C0008AFCD4F8840022F041FC002025E60000C0
:1020D00098030020437265617465207465737469A8
:1020E0006E672066696C65206661696C6564202195
:1020F000200A00004D6F746865725F626F617264E0
:102100005F74797065203A2025730A004C6F672050
:10211000737072696E7466206661696C65642021F3
:10212000200A00004465766963655F626F617264CE
:102130005F74797065203A2025730A0A0000000058
:1021400054696D65203A2025730A0A0047534D20D3
:102150003A2025640A00000065746865726E657433
:10216000203A2025640A000057494649203A202594
:10217000640A00005253323332203A092025640A9F
:10218000000000005253343835203A092025640AF3
:1021900000000000696E707574203A092025640AF9
:1021A0000000000073656E736F725F345F32306DD4
:1021B00041203A092025640A0000000073656E730F
:1021C0006F725F3556203A092025640A000000002E
:1021D0002DE9F047F94F022607F1750097F8D3C0B3
:1021E00090F800804179C2780379C479057A90F833
:1021F0005D00BCF1010F0FD0BCF1020F0CD0B9464D
:10220000BCF1030F99F876903ED0BCF1040F7AD060
:10221000BCF1050F76D0E6E0B8F1000FFBD0032843
:1022200002D0022819D0DEE00029F4D0002AF2D032
:10223000002BF0D0E2A0FFF743FDE5A01DF0B7FFB3
:10224000DFA021F078FE00201AF0DDF90B21E5482F
:1022500007F025FC87F87060C5E0002CDBD0002D6E
:10226000D9D0D7A0FFF72CFDD9A01DF0A0FFD4A096
:1022700021F061FE00201AF0C6F90B21D94807F0C1
:102280000EFC87F87060AEE0B9F1000FC3D097F88C
:1022900077C0BCF1000FBED0032802D0022819D0AD
:1022A000A1E00029B7D0002AB5D0002BB3D0C4A03C
:1022B000FFF706FDC6A01DF07AFFC1A021F03BFE8E
:1022C00000201AF0A0F90B21C64807F0E8FB87F8B8
:1022D000706088E0002C9ED0002D9CD0B8A0FFF745
:1022E000EFFCBBA01DF063FFB5A021F024FE002091
:1022F0001AF089F90B21BB4807F0D1FB87F8706011
:1023000071E000E03AE0B8F1000F6CD0B9F1000FD5
:1023100069D0032802D0022819D064E0002962D0D5
:10232000002A60D0002B5ED0A5A0FFF7C9FCA8A0B2
:102330001DF03DFFA2A021F0FEFD00201AF063F980
:102340000B21A84807F0ABFB87F870604BE0002C2E
:1023500049D0002D47D09AA0FFF7B2FC9CA01DF0F9
:1023600026FF97A021F0E7FD00201AF04CF90B2181
:102370009C4807F094FB87F8706034E0B8F1000FD8
:1023800031D0B9F1000F2ED00B2802D00C2816D076
:1023900029E041B33AB333B389A0FFF791FC8CA095
:1023A0001DF005FF86A021F0C6FD00201AF02BF9D4
:1023B0000B218C4807F073FB87F8706013E094B131
:1023C0008DB17FA0FFF77CFC81A01DF0F0FE7CA00A
:1023D00021F0B1FD00201AF016F90B21814807F019
:1023E0005EFB87F87060D7F880004EF66021884267
:1023F0006FD373A0FFF764FC7BA01DF0D8FE70A024
:1024000021F099FD97F8D300012808D0022806D0C2
:1024100003283ED004287FD0052877D01CE197F808
:10242000D200032802D002281BD015E197F87500CE
:1024300020B10A216B4807F032FB0DE197F87A00D2
:1024400050B197F8780038B197F8790020B1092198
:10245000644807F024FBFFE00821624807F01FFBF7
:10246000FAE097F8750020B10A215E4807F017FBE3
:10247000F2E097F87C0038B197F87D0020B109218F
:10248000584807F00CFBE7E00821564807F007FB27
:10249000E2E097F8D200032802D002281FD0DBE048
:1024A00097F8760038B197F8770020B10A214D48A7
:1024B00007F0F5FAD0E097F87A0058B197F878006D
:1024C00040B197F8790028B10921464807F0E7FAAA
:1024D000C2E0C3E00821434807F0E1FABCE097F806
:1024E000760038B197F8770020B10A213D4807F00F
:1024F000D6FAB1E097F87C0048B197F87D0030B18A
:102500000921384807F0CBFAA6E005E044E00821AD
:10251000344807F0C4FA9FE097F8D200032802D0AD
:1025200002281ED098E097F8750038B197F8760029
:1025300020B10A212B4807F0B2FA8DE097F87A0013
:1025400050B197F8780038B197F8790020B1092197
:10255000244807F0A4FA7FE00821224807F09FFAF8
:102560007AE097F8750038B197F8760020B10A2123
:102570001C4807F094FA6FE097F87C0038B197F8A0
:102580007D0020B10921174807F089FA64E008218D
:10259000144807F084FA5FE097F8D2000B2802D0C5
:1025A0000C283FD058E097F8750038B397F87600BC
:1025B00020B30A210B4807F072FA4DE0980300207F
:1025C0002F746573745F6C6F672E747874000000ED
:1025D0000A54657374696E67207061737365642053
:1025E0000A0A0000780C00200A54657374696E674B
:1025F0002074696D656F7574200A0A00FFE797F80B
:102600007A0050B197F8780038B197F8790020B186
:102610000921134807F043FA1EE00821104807F08B
:102620003EFA19E097F8750038B197F8760020B1B6
:102630000A210B4807F033FA0EE097F87C0038B116
:1026400097F87D0020B10921054807F028FA03E03A
:102650000821034807F023FA87F87060BDE8F08787
:10266000780C002030B50021FE4A01241268002AAF
:1026700003D05060137803B91470FB4B53F821203A
:102680002AB1906053F82120157805B91470491CBF
:102690000529F3DBF549096819B188600A7802B9A0
:1026A0000C70F349096819B148600A7802B90C70D6
:1026B000F049096819B14860087800B90C70002029
:1026C00030BD30B50021E74A01241268002A03D04A
:1026D0009060137803B91470E34B53F821202AB1AA
:1026E000D06053F82120157805B91470491C0529CC
:1026F000F3DBDE49096819B1C8600A7802B90C70C9
:10270000DB49096819B188600A7802B90C70D949A7
:10271000096819B18860087800B90C70002030BDD4
:102720000EF01AB82DE9F0438FB00446DDE9169695
:102730000D4617469846342102A839F0F9FE1CB11F
:1027400001208DF8080002E003208DF80800ADF8A4
:1027500038504B464246394602A800960EF03EF8E5
:102760000FB0BDE8F08370477047704770472DE9A0
:10277000FF4F93B023AF209E97E880078B46154606
:102780001C46342106A839F0D3FEBBF1000F01D05E
:10279000002000E002208DF818008DF819509DB13E
:1027A00021460DF1260039F024FFADF84660279848
:1027B0008DE880070490DDE9212306A913980DF028
:1027C000D3FF17B0BDE8F08F20788DF81A0060783D
:1027D0008DF81B00A0788DF81C00E0788DF81D00A6
:1027E000ADF81E60E3E710B50168A3480068C0F8C3
:1027F000D419012180F8D019FFF734FF9F4C94F8C9
:10280000900040070DD59EA01DF0D1FC94F89100DA
:1028100038B194F86E0020B199A039F03AFA39F045
:102820008FFA002010BD70B5044608460DF0CDFFAC
:10283000924D95F89000400711D596A0D4F8D41980
:102840001DF0B5FC95F8910048B195F86E0030B1D7
:1028500090A0D4F8D41939F01CFA39F071FA00209C
:1028600070BD70B5044694F8D009002816D0834D89
:1028700095F89000C00711D08DA0D4F8D4191DF0A0
:1028800096FC95F8910048B195F86E0030B188A09B
:10289000D4F8D41939F0FDF939F052FA002084F84F
:1028A000D00970BD70B50C4615461E464FF4FA713E
:1028B00087481CF037F93246294620460DF04CFF78
:1028C000044683481CF010FA204670BD70B51646C9
:1028D0000446B2B204F6482027F061FD0546B54231
:1028E0001AD0664E96F89000C00713D02A4679A0F9
:1028F000D4F8D4191DF05BFC96F8910050B196F80D
:102900006E0038B12A4673A0D4F8D41939F0C1F951
:1029100039F016FA6FF0060070BD3EB5044604F6B5
:102920002E2408782070487860708878A070C87865
:10293000E070A280A4F62E24504D95F89000400738
:102940002AD594F8310A94F8301ACDE901020091A1
:1029500094F82F3A94F82E2A66A0D4F8D4191DF0D2
:1029600026FC95F89100002816D095F86E000028F6
:1029700012D004F61224E07F218CA27FCDE9002042
:102980000291637F227F54F83E1C5AA039F081F9EE
:10299000BDE83E4039F0D4B93EBD10B501683648B7
:1029A0004068C0F8D419012180F8D019FFF789FEDA
:1029B000324C94F8900040070DD558A01DF0F7FB5D
:1029C00094F8910038B194F86E0020B153A039F01A
:1029D00060F939F0B5F9002010BD88B000231A461F
:1029E00053A157481BF0D9FE554800231A4655A15C
:1029F0002C381BF0D2FE214E02E0022020F0F1F82C
:102A000096F888000028F8D0AFF2F1000025CDE953
:102A1000065004950595AFF24B10AFF2B911CDE910
:102A20000015AFF2FD13AFF24122AFF2BD21CDE9A7
:102A30000205AFF28F1002F033FB0F4C206078B12B
:102A400042F6082196F836200A540322414902F042
:102A500012FB4FF0010886F8D68001213E487DE048
:102A60008EE0000010080020E40C00200802002086
:102A700020080020280800200400002098030020DF
:102A8000535A4A5320636F6E6E65637465642120E8
:102A90000A000000554954445F47505253202564B2
:102AA00020646973636F6E6E6563742E200A000084
:102AB000554954445F47505253202564206469733C
:102AC000636F6E6E656374656420212121200A00A6
:102AD000E416002072696E676275662025642077AF
:102AE00072697465206572726F72203A20256420C5
:102AF00000000000554954445F475052532025645C
:102B000020495020706F7274203A2025642E25646D
:102B10002E25642E25643A2564200A0058465A441E
:102B200020636F6E6E656374656421200A00000087
:102B3000554954445F6D61696E5F74780000000010
:102B40005C0B0020554954445F6D61696E5F72787B
:102B500000000000B80B00208C1600201BF099FE2E
:102B600000287FF47AAFB078FE4FF8B1B08ECDE98F
:102B700000050122F31C1146206802F077FB1EE0DD
:102B800096F89000C0070DD0F7A01DF010FB96F846
:102B9000910038B196F86E0020B1F3A039F079F8C1
:102BA00039F0CEF8052020F01CF8FBE7B08ECDE917
:102BB00000053B4600220121206802F057FB002857
:102BC00016DA96F89000B046C00718D0EDA01DF0B8
:102BD000EEFA98F8910090B198F86E0078B1E9A0FB
:102BE00039F057F839F0ACF809E005201FF0F9FF8B
:102BF000206890F8D0090028F7D086F8898096F8E8
:102C00007000012801D0022862D10A201FF0E9FFDC
:102C1000FBE790F8D019A1BB0421E04806F03FFF84
:102C2000B07848B1B08ECDE900050122F31C114601
:102C3000206802F01BFB08E0B08ECDE900053B46A2
:102C400000220121206802F011FB00281DDA96F80D
:102C50009000C0070DD0D2A01DF0A9FA96F89100FF
:102C600038B196F86E0020B1CDA039F012F839F0E5
:102C700067F840F6B8301FF0B4FF206880F8D059EC
:102C800026E008E005201FF0ACFF206890F8D0098E
:102C90000028F7D00CE030B190F8D019012902D10A
:102CA0000178022918D006F020FA206805F0EAFE23
:102CB000C248007848B10521B84806F0F0FE4FF44C
:102CC000FA701FF08EFF01F0F5FD01201FF089FF63
:102CD00020680028DFD09CE70321B04806F0DFFE23
:102CE0002168022081F8D009E2E788B09D4E233E9A
:102CF00002E002201FF075FF96F888000028F8D047
:102D0000AFF2E9300025CDE9065004950595AFF204
:102D10004340AFF2B141CDE90015AFF2F543AFF258
:102D20008532AFF2B551CDE90205AFF2874002F02E
:102D3000B7F9A34C606090B996F890003746C00789
:102D40000DD0A0A01DF033FA97F8910038B197F894
:102D50006E0020B19BA038F09CFF38F0F1FF606856
:102D600042F6082196F86C200A5403229C4902F08E
:102D700082F9012086F8D8000A201FF032FF96F869
:102D8000890018B996F88B000028F5D0DFF8D481B7
:102D900096F83800A8F1230808F1390708F1590816
:102DA00050B1B6F86A00CDE9000501223B46114654
:102DB000606802F05BFA09E0B6F86A00CDE9000548
:102DC000434600220121606802F050FA002816DA1A
:102DD00096F89000B146C00716D06AA01DF0E7F93A
:102DE00099F8910080B199F86E0068B165A038F04B
:102DF00050FF38F0A5FF07E005201FF0F2FE6068E5
:102E000090F8D0090028F7D096F87000012801D07A
:102E1000022852D10A201FF0E4FEFBE790F8D019F7
:102E200000293AD196F8381049B1B6F86A10CDE9C0
:102E3000001501223B46114602F018FA08E0B6F8E8
:102E40006A10CDE9001543460022012102F00EFA76
:102E500000281CDA96F8900040070DD561A01DF0FF
:102E6000A6F996F8910038B196F86E0020B15DA0F1
:102E700038F00FFF38F064FF40F6B8301FF0B1FEB5
:102E8000606880F8D05918E005201FF0AAFE60683D
:102E900090F8D0090028F7D00CE030B190F8D019A4
:102EA000012902D1017802290BD006F01EF96068D1
:102EB00005F0E8FD01201FF094FE60680028ECD0CA
:102EC000ACE70321354806F0EAFD6168022081F88D
:102ED000D009EFE7234C233C02E005201FF081FEE0
:102EE00094F8D6000028F8D0354C206806F042FD52
:102EF000606806F03FFD01201FF073FEF5E73048E3
:102F0000006806F0CAB810B5164C233C94F890003F
:102F100040070DD53DA01DF04AF994F8910038B155
:102F200094F86E0020B139A038F0B3FE38F008FFF5
:102F3000002010BD10B50B4C233C94F890004007C6
:102F40000DD538A01DF033F994F8910038B194F8FC
:102F50006E0020B133A038F09CFE38F0F1FE002066
:102F600010BD0000BB030020554954445F535A4A2A
:102F70005320696E6974206661696C656420210A5A
:102F8000000000005549544420636F6E6E65637401
:102F9000206661696C656420210A0000780C0020BD
:102FA000554954445F535A4A5320636F6E6E6563AC
:102FB00074206661696C656420210A0002050020A6
:102FC00004000020554954445F58465A4420696E15
:102FD0006974206661696C656420210A0000000044
:102FE000B80B0020554954445F58465A4420636F3B
:102FF0006E6E656374206661696C65642021207261
:1030000065747279202E2E2E0A00000046696C65C8
:1030100020646F776E6C6F61642073756363657392
:10302000732E0A0046696C6520646F776E6C6F6161
:1030300064206661696C65642E0A000008B5AFF211
:103040000B11AFF23D130246FC48009142F284712D
:103050000068014405F0DEFF08BD3EB5044601A846
:1030600002F0EFFB01A9F548009101222346114629
:10307000006803F00CFB3EBD0146F048006803F019
:103080009EB92DE9FF47ED4CED4D0526216804273B
:1030900095F890004FF003094FF0020800297DD009
:1030A00040070DD5E7A01DF082F895F8910038B1E2
:1030B00095F86E0020B1E3A038F0EBFD38F040FE4B
:1030C00095F8900040071DD5CDE90269CDE900874C
:1030D0002068012300220178E1481DF068F895F886
:1030E000910078B195F86E0060B1CDE90269CDE943
:1030F00000872068012300220178D94838F0C9FDF3
:1031000038F01EFE95F89000400713D5206890F81F
:10311000051AD4A01DF04BF895F8910050B195F820
:103120006E0038B1206890F8051ACEA038F0B1FDD5
:1031300038F006FE95F8900040071DD5206800F68F
:103140002620C1780091837842780178CAA01DF0CA
:103150002EF895F8910078B195F86E0060B120686E
:1031600000F62620C1780091837842780178C2A0C9
:1031700038F08FFD38F0E4FD95F89000400715D544
:103180002168C2A001F606211DF011F895F8910002
:1031900060B195F86E0048B1216800E039E101F6B0
:1031A0000621BAA038F075FD38F0CAFD95F89000F8
:1031B000400713D52068B0F82A1AB9A01CF0F7FF11
:1031C00095F8910050B195F86E0038B12068B0F8CC
:1031D0002A1AB3A038F05DFD38F0B2FD95F89000E2
:1031E00040071DD5206800F62E20C1780091837815
:1031F00042780178ADA01CF0DAFF95F8910078B123
:1032000095F86E0060B1206800F62E20C17800911C
:10321000837842780178A5A038F03BFD38F090FD26
:1032200095F89000400713D52068B0F8321AA5A091
:103230001CF0BDFF95F8910050B195F86E0038B1C3
:103240002068B0F8321A9FA038F023FD38F078FDDE
:10325000606800287ED095F8900040070DD59DA0AD
:103260001CF0A5FF95F8910038B195F86E0020B1DB
:1032700098A038F00EFD38F063FD95F890004007F7
:103280001DD5CDE90269CDE90087606801230022E0
:10329000017873481CF08BFF95F8910078B195F890
:1032A0006E0060B1CDE90269CDE900876068012355
:1032B000002201786A4838F0ECFC38F041FD95F8BE
:1032C0009000400713D5606890F8051A65A01CF0BF
:1032D0006EFF95F8910050B195F86E0038B16068B6
:1032E00090F8051A5FA038F0D4FC38F029FD95F865
:1032F000900040071DD5606800F62620C178009137
:103300008378427801785CA01CF051FF95F8910019
:1033100078B195F86E0060B1606800F62620C1783B
:10332000009183784278017853A038F0B2FC38F0ED
:1033300007FD95F89000400715D5616853A001F688
:1033400006211CF034FF95F8910060B195F86E00ED
:1033500048B100E0DAE061684CA001F6062138F0DF
:1033600098FC38F0EDFC95F89000400713D56068A4
:10337000B0F82A1A4AA01CF01AFF95F8910050B133
:1033800095F86E0038B16068B0F82A1A44A038F099
:1033900080FC38F0D5FC95F8900040071DD560689A
:1033A00000F62E20C17800918378427801783FA002
:1033B0001CF0FDFE95F8910078B195F86E0060B1B3
:1033C000606800F62E20C1780091837842780178F9
:1033D00036A038F05EFC38F0B3FC95F8900040075A
:1033E00013D56068B0F8321A36A01CF0E0FE95F8EC
:1033F000910050B195F86E0038B16068B0F8321A9B
:1034000030A038F046FC38F09BFC04B00020BDE84A
:10341000F08740077FF51CAF35A01CF0C8FE95F87B
:10342000910000283FF414AF95F86E000028F9D001
:103430002FA038F02EFC38F083FC09E704000020B0
:10344000980300200A205549544420535A4A5320D7
:1034500073657276657220696E666F3A200A0000A5
:10346000B45C040869665F7573655F6E616D653A8B
:103470002025640A0000000049503A2025642E25CA
:10348000642E25642E25640A0000000073657276A0
:1034900065725F6E616D653A2025730A0000000059
:1034A000706F72743A2025640A0000006C6F6361CB
:1034B0006C5F49503A2025642E25642E25642E2504
:1034C000640A00006C6F63616C5F706F72743A2005
:1034D00025640A000A20554954442058465A44207D
:1034E00073657276657220696E666F3A200A000015
:1034F0000A205549544420535A4A53206973206E78
:103500006F742075736564200A00000095F89000C0
:1035100040077FF57AAF09A01CF049FE95F89100AD
:1035200000283FF472AF95F86E000028F9D003A090
:1035300038F0AFFB38F004FC67E700000A2055497B
:1035400054442058465A44206973206E6F74207585
:10355000736564200A0000002DE9F04786B00D462F
:1035600004464FF0FF394E466978DFF8108400F6C4
:10357000262A002928D005F10E002DF053F848B175
:1035800000690422016850461CF06BFBE88DA4F82A
:103590002A0A19E098F89000C0070DD0F8A01CF096
:1035A00006FE98F8910038B198F86E0020B1F4A0AA
:1035B00038F06FFB38F0C4FB0422A91C50461CF005
:1035C00050FBE88DA4F82A0AD4F8007A57B1B4F871
:1035D0002A0A0090F648B4F8322A53460168204679
:1035E000091DB847287800BB0221002208462DF0AB
:1035F0002CFF064630001CD400200290039004905B
:10360000059002208DF80900B4F82C0A2FF080FAFA
:10361000ADF80A0000202FF081FA0390102202A9D1
:1036200030462DF08AFBC4F8D469304606B0BDE8B8
:10363000F08798F89000C0070DD0DEA01CF0B7FD11
:1036400098F8910038B198F86E0020B1D9A038F000
:1036500020FB38F075FB4846E8E710B5002801DB91
:103660002DF023FC002010BDF0B587B004460D46B8
:1036700016461F46002003900490059006900220F5
:103680008DF80D00B4F82A0A2FF042FAADF80E00BA
:10369000D4F8260A04904FF4FA71CC481BF042FA91
:1036A000102003A9CDE9001000233A4631462846F0
:1036B0002DF010FE0446C5481BF016FB07B020464F
:1036C000F0BD2DE9FF4F93B023AF209E97E8800710
:1036D0008B4615461C46342106A838F029FFBBF15D
:1036E000000F01D0002000E002208DF818008DF8B6
:1036F00019509DB121460DF1260038F07AFFADF842
:10370000466027988DE880070490DDE9212306A90B
:103710001398FFF721FF17B0BDE8F08F20788DF8E0
:103720001A0060788DF81B00A0788DF81C00E078F6
:103730008DF81D00ADF81E60E3E770B505688F4C8D
:1037400094F8900040070FD52946A1A01CF02FFD4A
:1037500094F8910040B194F86E0028B129469CA0DD
:1037600038F097FA38F0ECFAA3480068C0F8D4595A
:10377000012180F8D019FEF775FF94F890004007FA
:103780000DD59EA01CF013FD94F8910038B194F86B
:103790006E0020B199A038F07CFA38F0D1FA002000
:1037A00070BD2DE9F04107460E463C46734D95F835
:1037B000900040070FD5314696A01CF0F8FC95F814
:1037C000910040B195F86E0028B1314691A038F0D3
:1037D00060FA38F0B5FA3046FFF73FFFD4F8E43925
:1037E0001BB132460021384698470020BDE8F081E1
:1037F00070B50446164694F8D009002814D05F4DE1
:1038000095F89000C0070FD0314689A01CF0CFFC7E
:1038100095F8910040B195F86E0028B1314684A02A
:1038200038F037FA38F08CFA002084F8D00970BDEF
:1038300070B516460446B2B204F6482026F0AFFD35
:103840000546B5421AD04D4E96F89000C00713D0E9
:103850002A467FA0D4F8D4191CF0A9FC96F8910050
:1038600050B196F86E0038B12A4679A0D4F8D41930
:1038700038F00FFA38F064FA6FF0060070BD3EB50C
:10388000044604F62E240878207048786070887802
:10389000A070C878E070A280A4F62E24374D95F869
:1038A0009000400726D594F8310A94F8301ACDE9F3
:1038B0000102009194F82F3A94F82E2A6CA0D4F8C3
:1038C000D4191CF074FC95F8910098B195F86E002D
:1038D00080B104F61224E07F218CA27FCDE9002084
:1038E0000291637F227F54F83E1C61A038F0D1F929
:1038F00038F026FA00203EBD70B505681F4C94F8DC
:10390000900040070FD5294665A01CF050FC94F8A4
:10391000910040B194F86E0028B1294660A038F0BB
:10392000B8F938F00DFA34484068C0F8D45901218C
:1039300080F8D019FEF7C5FE94F8900040070DD529
:1039400061A01CF034FC94F8910038B194F86E003A
:1039500020B15DA038F09DF938F0F2F9002070BD7B
:103960008AB000270997DFF8148002E002201FF0D8
:1039700038F998F86E000028F8D0B4E098030020D9
:1039800047657420686F7374206279206E616D657D
:10399000206661696C656420210A20557365207476
:1039A000686520495020616464726573730A000081
:1039B000540A0020437265617420736F636B6574F1
:1039C000206661696C656420210A0000880B002074
:1039D000554954445F6574685F535A4A5320636F76
:1039E0006E6E6563746564202C20736F636B657401
:1039F000203A2025640A0000200000206574685FDA
:103A0000535A4A5320636F6E6E6563746564212058
:103A10000A000000554954445F65746820256420FD
:103A2000646973636F6E6E6563742E200A00000014
:103A3000554954445F657468202564206469736344
:103A40006F6E6E656374656420212121200A000079
:103A500072696E6762756620256420777269746585
:103A6000206572726F72203A2025642000000000E9
:103A7000554954445F65746820736F636B657420A7
:103A8000256420495020706F7274203A2025642EDE
:103A900025642E25642E25643A2564200A00000042
:103AA000554954445F6574685F58465A4420636FB3
:103AB0006E6E6563746564202C20736F636B657430
:103AC000203A2025640A00006574685F58465A440D
:103AD00020636F6E6E656374656421200A000000C8
:103AE00002201FF07EF898F86F000028F8D0FE4DF5
:103AF00002E001201FF075F8286890F82D00C0063C
:103B0000F7D540F2DC501CF036FDF84CA060E0B375
:103B1000AFF29520CDE9067004970597AFF2EF203C
:103B2000AFF23331CDE90017AFF28933AFF2F5329E
:103B3000AFF27141CDE90207AFF2D34001F0B0FA24
:103B40002060E0B342F6082198F836200A544EF679
:103B50008701A0F8321A0122E54901F08CFA01260A
:103B600088F8D660286890F82D00C0077ED098F8B5
:103B70000200DFF8809300283BD02068B8F83410AA
:103B800008F10303B0F8322A00E007E0CDE90012A3
:103B90000122114601F06AFB099037E098F8900085
:103BA000C0070FD0D4A01CF002FB98F8910048B1D8
:103BB00098F86E0030B1D0A038F06BF800E002E069
:103BC00038F0BEF8FEE798F89000C0070DD0D1A0FD
:103BD0001CF0EDFA98F8910038B198F86E0020B119
:103BE000CCA038F056F838F0ABF805201EF0F9FFFD
:103BF000FBE72068B8F834204B46B0F8321ACDE91C
:103C000000210022012101F031FB099009980028D0
:103C100016DA98F89000C246C0070DD0C5A01CF077
:103C2000C6FA9AF8910038B19AF86E0020B1C1A096
:103C300038F02FF838F084F864201EF0D2FF10E03E
:103C40002068D0F8DC1909A8884798F87000012886
:103C500010D002280ED00321BC4805F020FF88F8C0
:103C60008B6098F8700001280DD000E007E0022872
:103C700009D083E00721B54805F011FFEFE70120E7
:103C80001EF0AFFF6EE788F876600A201EF0A9FFED
:103C9000FBE790F8D01989BB0421AC4805F0FFFE82
:103CA000286890F82D00C10758D0C00656D598F85E
:103CB000020070B12068B8F8342008F10303B0F8AE
:103CC000321ACDE900210122114601F0CFFA099004
:103CD0000CE02068B8F834204B46B0F8321ACDE931
:103CE00000210022012101F0C1FA09900998002861
:103CF0001ADA98F89000C0070FD000E021E094A0F5
:103D00001CF055FA98F8910038B198F86E0020B17F
:103D10008FA037F0BEFF38F013F864201EF061FF6B
:103D2000206880F8D07929E0206880F8D06902E026
:103D300005201EF056FF206890F8D0090028F7D023
:103D40000CE030B190F8D019012902D10178022994
:103D500018D005F0CAF9206804F094FE8348007872
:103D600048B10521794805F09AFE4FF4FA701EF02B
:103D700038FF00F09FFD01201EF033FF206800286F
:103D8000DFD086E70321714805F089FE2168022013
:103D900081F8D009E2E788B00024049405940694E1
:103DA00007940394534D233D02E001201EF019FFB8
:103DB00095F88B000028F8D0049405940694079495
:103DC00002208DF81100494C2068B0F82C0A2EF022
:103DD0009FFEADF812002068D0F8260A059010204A
:103DE00003902068D0B190F8D019B9B1D0F8D409B7
:103DF000002813DB03A904AACDE90021082340F21F
:103E0000DB52A1682DF0FDF82061002806DD236853
:103E100002461846D3F8EC59A168A84701201EF0C5
:103E2000E0FEDEE78AB000270997324C233C02E02F
:103E300002201EF0D6FE94F86E000028F8D002E0B2
:103E400002201EF0CEFE94F86F000028F8D0264E17
:103E500002E001201EF0C5FE306890F82D00C0067B
:103E6000F7D540F2DC501CF086FB204DE860C8B36B
:103E7000AFF2F550CDE9067004970597AFF24F60A9
:103E8000AFF29361CDE90017AFF2E963AFF2975259
:103E9000AFF2D171CDE90207AFF6330001F000F9BE
:103EA000686000281FD042F6082194F86C200A545C
:103EB0004EF68801A0F8321A01220D4901F0DBF814
:103EC0004FF0010884F8D880306890F82D00C007C2
:103ED00075D0DFF820A094F83800AAF1230A0AF17F
:103EE000390945E056E06BE0540A0020200000202C
:103EF000B80B0020BB0300204D616C6C6F63206524
:103F0000746820627566206661696C656420210AA8
:103F100000000000554954445F6574685F535A4A75
:103F20005320696E6974206661696C656420210A9A
:103F3000000000005549544420636F6E6E65637441
:103F4000206661696C656420210A0000780C0020FD
:103F5000554954445F535A4A5320636F6E6E6563EC
:103F600074206661696C656420210A0002050020E6
:103F70000AF1590A002839D06868B4F86A104B462B
:103F8000B0F8322ACDE900120122114601F06EF993
:103F9000099038E094F89000C0070FD0AFF2A80065
:103FA0001CF005F994F8910040B194F86E0028B126
:103FB000AFF2BC0037F06DFE37F0C2FEFEE74AE01C
:103FC00094F89000C0070DD0FDA01CF0F0F894F814
:103FD000910038B194F86E0020B1F9A037F059FE85
:103FE00037F0AEFE05201EF0FCFDFBE76868B4F874
:103FF0006A205346B0F8321ACDE90021002201218F
:1040000001F034F909900998002818DA94F8900022
:10401000A346C0070FD0AFF2E4001CF0C8F89BF82D
:10402000910040B19BF86E0028B1AFF2F80037F074
:1040300030FE37F085FE64201EF0D3FD04E0686892
:10404000D0F8DC1909A8884794F87000012806D038
:10405000022804D075E001201EF0C3FD34E70A20D9
:104060001EF0BFFDFBE790F8D019E1BB316891F875
:104070002D10CA0755D0C90653D594F8381061B130
:10408000B0F8321AB4F86A20CDE9002101224B467B
:10409000114601F0EBF809900BE0B0F8321AB4F8D1
:1040A0006A20CDE9002153460022012101F0DEF80B
:1040B0000990099800281ADA94F89000C0070DD0EA
:1040C000C7A01CF074F894F8910038B194F86E0011
:1040D00020B1C3A037F0DDFD37F032FE64201EF0C2
:1040E00080FD686800E00FE080F8D07929E068681A
:1040F00080F8D08902E005201EF073FD686890F812
:10410000D0090028F7D00CE030B190F8D01901297F
:1041100002D10178022918D004F0E7FF686804F0A2
:10412000B1FCB648007848B10521B54805F0B7FCA8
:104130004FF4FA701EF055FD00F0BCFB01201EF09C
:1041400050FD68680028DFD08DE7022180F8D01983
:10415000E7E788B000240494059406940794039438
:10416000A84D02E001201EF03CFD95F88B000028D0
:10417000F8D0049405940694079402208DF8110059
:10418000A14C6068B0F82C0A2EF0C2FCADF8120009
:104190006068D0F8260A0590102003906068D0B1BE
:1041A00090F8D019B9B1D0F8D409002813DB03A9CD
:1041B00004AACDE90021082340F2DB52E1682CF08B
:1041C00020FF6061002806DD636802461846D3F8C8
:1041D000EC59E168A84701201EF003FDDEE700224C
:1041E0008AA18D481AF014FC864C02E005201EF0CE
:1041F000F8FC94F8D6000028F8D0834C206805F02D
:10420000B9FB606805F0B6FB01201EF0EAFCF5E79B
:104210002DE9FF477C4C7B4D05262168042795F846
:1042200090004FF003094FF0020800297DD04007AD
:104230000DD57A481BF0BBFF95F8910038B195F881
:104240006E0020B1754837F024FD37F079FD95F800
:10425000900040071DD5CDE90269CDE900872068AF
:104260000123002201786E481BF0A1FF95F8910010
:1042700078B195F86E0060B1CDE90269CDE90087AB
:104280002068012300220178654837F002FD37F0ED
:1042900057FD95F89000400713D5206890F8051A4F
:1042A00060A01BF084FF95F8910050B195F86E0066
:1042B00038B1206890F8051A5AA037F0EAFC37F0B8
:1042C0003FFD95F8900040071DD5206800F6262098
:1042D000C178009183784278017857A01BF067FF7E
:1042E00095F8910078B195F86E0060B1206800F6FD
:1042F0002620C17800918378427801784EA037F06B
:10430000C8FC37F01DFD95F89000400715D52168D1
:104310004EA001F606211BF04AFF95F8910060B10E
:1043200095F86E0048B1216800E0D7E101F606215A
:1043300046A037F0AEFC37F003FD95F8900040073B
:1043400013D52068B0F82A1A45A01BF030FF95F865
:10435000910050B195F86E0038B12068B0F82A1A73
:104360003FA037F096FC37F0EBFC95F89000400743
:104370001DD5206800F62E20C17800918378427800
:1043800001783AA01BF013FF95F8910078B195F8E9
:104390006E0060B1206800F62E20C178009183780D
:1043A0004278017831A037F074FC37F0C9FC95F8F9
:1043B0009000400777D52068B0F8321A62E072E0CA
:1043C000554954445F6574685F58465A4420696E85
:1043D0006974206661696C656420210A0000000030
:1043E000554954445F58465A4420636F6E6E656366
:1043F00074206661696C656420210A000205002052
:10440000780C002098030020200000206574685F6D
:1044100073656E6400000000880B0020505D040886
:10442000B45C040869665F7573655F6E616D653ABB
:104430002025640A0000000049503A2025642E25FA
:10444000642E25642E25640A0000000073657276D0
:1044500065725F6E616D653A2025730A0000000089
:10446000706F72743A2025640A0000006C6F6361FB
:104470006C5F49503A2025642E25642E25642E2534
:10448000640A0000AAA01BF092FE95F8910050B1BA
:1044900095F86E0038B12068B0F8321AA4A037F051
:1044A000F8FB37F04DFC95F89000400713D52068D5
:1044B000B0F82C1AA2A01BF07AFE95F8910050B12A
:1044C00095F86E0038B12068B0F82C1A9CA037F02F
:1044D000E0FB37F035FC606800287DD095F890004F
:1044E00040070DD59B481BF062FE95F8910038B14E
:1044F00095F86E0020B1974837F0CBFB37F020FCE1
:1045000095F8900040071DD5CDE90269CDE90087F7
:1045100060680123002201788F481BF048FE95F85F
:10452000910078B195F86E0060B1CDE90269CDE9EE
:1045300000876068012300220178874837F0A9FBD3
:1045400037F0FEFB95F89000400715D5606890F8AD
:10455000051AAFF230101BF02AFE95F8910058B101
:1045600095F86E0040B1606890F8051AAFF24C10F3
:1045700037F08FFB37F0E4FB95F8900040071FD52C
:10458000606800F62620C17800918378427801782F
:10459000AFF25C101BF00BFE95F8910080B195F81E
:1045A0006E0068B1606800F62620C17800918378BB
:1045B00042780178AFF2801037F06BFB37F0C0FB28
:1045C00095F89000400717D5616801F60621AFF213
:1045D00084101BF0ECFD00E095E095F8910058B1D7
:1045E00095F86E0040B1616801F60621AFF2A410A3
:1045F00037F04FFB37F0A4FB95F89000400715D536
:104600006068B0F82A1AAFF2A8101BF0D0FD95F838
:10461000910058B195F86E0040B16068B0F82A1A60
:10462000AFF2C41037F035FB37F08AFB95F89000F5
:1046300040071FD5606800F62E20C178009183786E
:1046400042780178AFF2DC101BF0B1FD95F89100D3
:1046500080B195F86E0068B1606800F62E20C178D0
:104660000091837842780178AFF2002037F011FB97
:1046700037F066FB95F89000400713D56068B0F8F6
:10468000321A2BA01BF093FD95F8910050B195F8CC
:104690006E0038B16068B0F8321A25A037F0F9FA28
:1046A00037F04EFB95F89000400713D56068B0F8DE
:1046B0002C1A23A01BF07BFD95F8910050B195F8C2
:1046C0006E0038B16068B0F82C1A1DA037F0E1FA1E
:1046D00037F036FB04B00020BDE8F08740077FF5D7
:1046E000FAAE1EA01BF063FD95F8910000283FF480
:1046F000F2AE95F86E000028F9D018A037F0C9FA8C
:1047000037F01EFBE7E695F890004007E2D51BA0C6
:104710001BF04DFD95F891000028DBD095F86E0058
:104720000028D7D015A037F0B4FA37F009FBD1E74D
:104730006C6F63616C5F706F72743A2025640A005D
:104740006C697374656E5F706F72743A2025640AC9
:10475000000000000C5D0408B45C04080A20554900
:1047600054442065746820535A4A53206973206E5C
:104770006F742075736564200A0000000A20554993
:104780005444206574682058465A44206973206E4A
:104790006F742075736564200A00000005460C469E
:1047A00016A01BF004FD29461EA01BF000FD2146AB
:1047B00021A01BF0FCFCFEE710B508F0F9FF1BF090
:1047C0001AFD19F02BFD1DF048FD1EF064FC1F4979
:1047D0001F481BF088FE1DF011FFFDF7FCF91EF0CD
:1047E00065FC19F054FFBDE810401DF01DBF10B569
:1047F0001EF052FFFFF7E0FF002010BD0A0D20570A
:10480000726F6E6720706172616D6574657220767B
:10481000616C7565206465746563746564206F6E92
:104820000D0A00002020202020202066696C6520D1
:104830002025730D0A000000202020202020206C5D
:10484000696E65202025640D0A000000000002202A
:10485000F068002070B50D46164600240146F1A010
:104860001BF0A5FC04E0295DEFA01BF0A0FC641C7C
:10487000B442F8D3BDE87040EDA01BF098BC0A46E6
:104880000146ECA01BF093BC002101E04140400830
:104890000028FBD101F001007047012080F313884C
:1048A000F1480168F14A01F4E06111430160BFF38E
:1048B0004F8FFEE7FFF7F1FFFEE700B5002801D0BC
:1048C000FFF7F8FF00BD00B5002801D1FFF7F2FFA8
:1048D00000BD2DE9F04395B007460D4616469846B3
:1048E0000024B8F1000F05D0B8F1100F04D94FF033
:1048F000100801E04FF01008002239460DA81FF003
:10490000EDF8002806DA3946D9A01BF050FC15B0A6
:10491000BDE8F0834DB129460DA81FF0E9F9A84282
:1049200003D0D7A01BF043FC32E0E94622E000258B
:1049300009E019F80510DAA01BF039FC641C0EB16F
:10494000B44225D26D1CBD42F3D3B9A01BF02FFC9D
:104950001EE0002509E019F80510D1A01BF027FC86
:10496000641C0EB1B44213D26D1CBD42F3D3B0A08F
:104970001BF01DFC3322002168461BF04FF9424614
:1049800069460DA81FF031F907464745E1D2CEE749
:104990000DA81FF004F9BAE72DE9F04705460F46C8
:1049A00092461C460026284637F001FEB0F5807F6F
:1049B00002DDF01EBDE8F08709222946BAA037F0D3
:1049C0000BFE10B16FF00100F4E71CB1102C02D9FE
:1049D000102400E01024BAFBF4F915E006FB047182
:1049E000B4A01BF0E4FB002506FB04F806E07819F0
:1049F00018F800108CA01BF0DAFB6D1CA542F6D352
:104A00008BA01BF0D4FB761C4E45E7DBBAFBF4F021
:104A100004FB10A090B106FB0471A6A01BF0C7FB1D
:104A20000025664305E07819315C7FA01BF0BFFBD1
:104A30006D1CA542F7D37EA01BF0B9FB0020B9E79F
:104A40001FB50446002902D020461FF066FA002256
:104A50004FF4817120461FF04BFF0446002C08DA0A
:104A60001BF0B0F8014696A01BF0A1FB204604B055
:104A700010BD6946204620F037F8029818B197A07B
:104A800002991BF094FB20461FF060FF0020EEE728
:104A900070B50E46002242F201011FF029FF0446C4
:104AA000002C06DA214694A01BF081FB4FF0FF306A
:104AB00070BD304637F07BFD05462A46314620461C
:104AC0001FF089FF0146A94208D091A01BF06FFB9F
:104AD00020461FF03BFF6FF0010070BD20461FF025
:104AE00035FF002070BD012192A0FFF7A9FF6420CF
:104AF0001EF077F8FFF7DEFE10B5642148431EF084
:104B000070F8002010BD10B537F0F5F9BDE8104081
:104B10008C481FF002BA70B504468A4D923D95F854
:104B20009010CB0703D0224687A01BF040FB85F8EE
:104B3000904070BD0EB50028FFD169461FF072FE8F
:104B400030B18CA01BF033FB0020014603B000BD48
:104B50000299009848430021F8E71FB50C46002849
:104B600008D069461FF0DDF838B187A01BF01FFBA5
:104B700000207CE74FF0FF3079E7029820600020AA
:104B800075E7F0B5ADF5017D06460F460024002E11
:104B900018D000224FF4004130461FF0A9FE054610
:104BA000280012D56748923890F89000C00704D0CA
:104BB0002A4631467AA01BF0FAFA6FF001000DF593
:104BC000017DF0BD4FF0FF30F9E74FF4007632463B
:104BD00001A928461FF0DAFE0246B24205D101A91A
:104BE000204618F039FC84B2F1E701A9204618F0FC
:104BF00033FC388028461FF0A9FE0020DFE710B5FF
:104C00006EA137F0DBFC10B14FF0FF3010BD6D49E5
:104C100001200870002010BD37F0C9BC37F060BE1D
:104C200037F09DBC25733A00202530325800000033
:104C30000A00000044454255473A2057726F6E679C
:104C400020706172616D65746572732076616C7538
:104C5000653A2066696C65202573206F6E206C694B
:104C60006E652025640D0A000CED00E00400FA05D5
:104C70004F70656E202573206661696C65640A005B
:104C8000537461727420706F736974696F6E2069F8
:104C900073206F766572666C6F7721200A000000C2
:104CA0002530325820000000535A4A53574C57576A
:104CB00047000000307825303858203A09000000BD
:104CC0004372656174652066696C65206661696C14
:104CD0006564203A202564200A00000046696C655E
:104CE000206973206578697374202C2073697A6554
:104CF000203A2025640A000046696C65206F7065C3
:104D00006E206661696C6564203A2025640A0000A3
:104D100046696C6520616464206572726F722C2034
:104D20007772697465642025642062797465730AFA
:104D3000000000002F66772F757067726164652E22
:104D4000666C67002A04002053797374656D206CCB
:104D50006F67206C6576656C203A200A206F6C6462
:104D60003A202564202C206E6577203A2025642087
:104D70000A0000006466735F737461746673206672
:104D800061696C65642E0A004765742066696C650C
:104D90002073746174206661696C65642E0A00007A
:104DA0004F70656E2066696C6520257320666169A9
:104DB0006C6564203A2025642E0A0000737A6A73B9
:104DC000000000004C00002070B50D46164600247F
:104DD0000146F9A01BF0EBF904E0295DF7A01BF0F8
:104DE000E6F9641CB442F8D3BDE87040F5A01BF0AE
:104DF000DEB970B51546F44C94F8900040070FD515
:104E00002946F2A01BF0D3F994F8910040B194F830
:104E10006E0028B12946EDA036F03BFF36F090FF3A
:104E2000002070BD70B50D46E74C94F89000400727
:104E30000FD52946F0A01BF0BAF994F8910040B1C3
:104E400094F86E0028B12946EBA036F022FF36F028
:104E500077FF002070BD704740F2444200211AF0F5
:104E6000DDBE10B504460022114620461FF040FD6D
:104E7000002809DB1FF06AFD2046BDE81040002233
:104E800041F201011FF034BD2046BDE81040002270
:104E900040F201111FF02CBD1FF058BD70B5054642
:104EA0000C460422002120461AF0B8FEAD1E0B2D40
:104EB00024D2DFE805F0060B102323232315231A41
:104EC0001F00207840F00100207017E0207840F0AB
:104ED0000200207012E0207840F0040020700DE005
:104EE000207840F00800207008E0207840F01000A2
:104EF000207003E0207840F020002070002070BD7A
:104F00002DE9F0470446002500276760A760E760A9
:104F10002068002807D1207C4FF4717148431BF0B2
:104F20002AFB206030B14FF00C0840F2B63A4FF047
:104F300004092AE0A44C94F89000C0070DD0B8A052
:104F40001BF035F994F8910038B194F86E0020B157
:104F5000B3A036F09EFE36F0F3FE4FF0FF30BDE812
:104F6000F087C5EB0511C1EB0526206808EB86012B
:104F70000844524600211AF051FE206800F82670BD
:104F8000206809EB860147506D1C207CA842E8DCB4
:104F90000020E4E72DE9F0410F46054611460024C4
:104FA00040F2B630834202D9A01EBDE8F081287CD1
:104FB00008E0C4EB04162A68C6EB042612F8262083
:104FC0002AB1641CA042F4DC4FF0FF30EDE7C4EBE3
:104FD0000412C2EB04260422286802EB86028750E2
:104FE0000822286802EB860283500C22286802EB14
:104FF000860210441A461AF034FE2968012001F88E
:1050000026002046D1E72DE9F0410F46054611461E
:10501000002440F2B630834201D9A01EC5E7287CA7
:1050200008E0C4EB04162A68C6EB042612F8262012
:105030002AB1641CA042F4DC4FF0FF30B5E7C4EBAA
:105040000412C2EB04260422286802EB8602875071
:105050000822286802EB860283500C22286802EBA3
:10506000860210441A461AF0FCFD2968012001F856
:105070002600204699E710B50A7400220A6000F560
:10508000005393F8080A002803D0C3F88027501E65
:1050900010BDC3F880170846FFF732FF002010BD8F
:1050A0002DE9F05F0646DDE90AAB0F4690469946CA
:1050B00042F60C2528461BF05EFA044620005CD020
:1050C0002A4600211AF0AAFD4FF4046204F6542186
:1050D00004F6482025F03FF9002584F8D059681ED1
:1050E000C4F8D409C4F8A865C4F8D879C4F8DC8930
:1050F000C4F8E099C4F8E4A9C4F8E8B90C98C4F875
:10510000EC090D98C4F8F0090E98C4F8F4090F984A
:10511000C4F8F8091098C4F8FC091198C4F8000AFA
:10512000A4F8425A0622454904F635201AF099FDA2
:105130000622002104F63B201AF070FD84F8345A50
:10514000012084F8440A142084F8450AAFF2ED21C6
:1051500004F5005000F6B800016039494160AFF233
:10516000C7218160184842F6CC01214490F8D20052
:10517000FFF794FE2046BDE8F09F0020FBE710B546
:105180001BF0BEFA002010BDFEB500F6E41080F85A
:105190002010A0F8482005698468C369CDE900455E
:1051A0000293D0E9057614460D460368324621463F
:1051B0002846B847FEBD000025733A00202530324E
:1051C000580000000A0000009803002043422061BC
:1051D000636B206465616C202D2D20736F6D6B6592
:1051E00020616C61726D2C2069665F616666697210
:1051F0006D203A2025640A0043422073656E6420C6
:105200006661696C202D2D20736F6D6B6520616C5C
:1052100061726D2C206E6F6465203A2025640A004F
:1052200046696C65207472616E73206D616C6C6F81
:1052300063206661696C6564210A000065000020D6
:10524000D74902080021002201EBC10300EBC30390
:105250001A72491C1429F7DB0020704700B50021A1
:1052600001704160FFF7EEFF002000BD2DE9F04323
:1052700089B00446DDE910590F4616469846204687
:10528000FFF7ECFF84F8047A84F8056AA4F82C9AF6
:10529000002E1CD0404637F08AF9202840D3FE4C1F
:1052A00094F89000C0070DD0FCA01AF080FF94F88D
:1052B000910038B194F86E0020B1F8A036F0E9FC06
:1052C00036F03EFD4FF0FF3009B0BDE8F08304F644
:1052D0002921481E821ECDE90001431E1646FAA16F
:1052E000404637F0CBF904F6D814A4F85250D4E96C
:1052F0000631A26A6069CDE9053107920490D4E9CC
:1053000003026168CDE90210CDE90052256894F8E6
:105310002D2094F82C10A4F6D8103346A847D3E7D4
:1053200004F606204146064637F063F904F6D81421
:10533000A4F85250D4E90523A06AE169CDE906102A
:10534000CDE90423D4E903026168CDE90210CDE977
:105350000052256894F82D2094F82C10A4F6D8104B
:105360003346A847B0E7D0F8E029002A02D0D0F8A9
:10537000D419104770470021002201EBC10300EB54
:10538000C3031A72491C1429F7DB00207047014639
:10539000002000EBC00201EBC202127A002A04D006
:1053A000401C1428F5DB4FF0FF30704710B5034662
:1053B000002000EBC00203EBC202147A012C06D1DC
:1053C000148B8C4203D192F83A20012A04D0401C5D
:1053D0001428EEDB4FF0FF3010BD142902DB4FF034
:1053E000FF30704701EBC10100EBC10000220272E7
:1053F000002070472DE9F84F0C460026009600F675
:10540000482B4FF0010A4FF0230940F21A474FF0A2
:105410000208A51C6946584625F017F9F8B16078CE
:1054200008B3012829D0022830D00328F2D19DF8F2
:10543000000023283DD004F64404206800F80590BD
:105440002068401C20609DF8001041552068401CD9
:105450002060A4F64404B84251D96670DAE74FF0F0
:10546000FF30BDE8F88F9DF800004028D2D184F8C5
:1054700001A0C4F844682670CCE79DF800004028DD
:1054800001D06670C6E784F80180C3E79DF800008C
:1054900023280BD0D4F844184855D4F84408401CAD
:1054A000C4F84408B842B5D96670B3E70320607009
:1054B000B0E7D4F844081A2801D26670AAE721465A
:1054C0000A8BA0F11A018A4214D000F80590D4F892
:1054D0004408401CC4F8440800F80590D4F8440877
:1054E000401CC4F84408B84201D9667092E784F8B9
:1054F00001808FE784F800A066700020B1E784F88F
:10550000018087E72DE9FE4F0D46DDF83090824699
:105510001146984600270026B8F11A0F02D2012042
:10552000BDE8FE8F40F21A40804501D90220F7E71E
:1055300042F264300AEB0004424620461AF091FB26
:10554000E08AB0F5806F01D90320E9E71A304045C1
:1055500001D00420E4E71922214628461AF081FBF5
:10556000E28A42F27D30824405F11908022A0AD308
:10557000514640461AF075FB687E85F81A04A87EED
:1055800085F81B0404E0002085F81A0485F81B0444
:10559000E98A11F80A2085F819242846C35D1E44BB
:1055A0007F1C192FFAD3002003E02B185B7E1E44CA
:1055B000401C8142F9DCF0B2824201D00520AFE705
:1055C000C5F82894344E96F8900000070FD521882E
:1055D00040A01AF0ECFD96F8910040B196F86E00EC
:1055E00028B121883BA036F054FB36F0A9FB96F891
:1055F000900000070FD5A1783AA01AF0D8FD96F8D0
:10560000910040B196F86E0028B1A17835A036F02F
:1056100040FB36F095FB96F8900000070FD5E17837
:1056200034A01AF0C4FD96F8910040B196F86E00CF
:1056300028B1E1782FA036F02CFB36F081FB96F8EC
:105640009000000723D561792079A279CDE9002166
:105650000290617AE379227A01F5FA6129A01AF0C1
:10566000A6FD96F8910090B196F86E0078B1607939
:105670002179A279CDE900200291617AE379227A39
:1056800001F5FA611FA036F004FB36F059FB96F8DD
:105690009000000766D545E09803002053657276B8
:1056A0006572206E616D6520697320746F6F206C68
:1056B0006F6E67202120636F6E6E65637420666174
:1056C000696C6564200A000025642E25642E25641B
:1056D0002E256400534E2020202020203A202564CF
:1056E000200A00005665725F6D61696E3A2025647C
:1056F000200A00005665725F757365723A20256452
:10570000200A000054696D655374616D703A20255C
:10571000642D25642D25642025643A25643A25648A
:10572000200A0000E17AA07A227BCDE900210290D4
:10573000637BA27BE17BF8A01AF039FD96F891001B
:1057400080B196F86E0068B1E17AA07A227BCDE94B
:1057500000210290637BA27BE17BEFA036F099FAF7
:1057600036F0EEFA96F8900000071FD5617C207C99
:10577000A27CCDE900210290E37C227D617DEEA038
:105780001AF015FD96F8910080B196F86E0068B198
:10579000607C217CA27CCDE900200291E37C227D0B
:1057A000617DE5A036F075FA36F0CAFA96F89000F9
:1057B00000070FD5217EE8A01AF0F9FC96F89100B9
:1057C00040B196F86E0028B1217EE3A036F061FA70
:1057D00036F0B6FA96F89000000713D595F819142C
:1057E000E0A00A461AF0E3FC96F8910050B196F852
:1057F0006E0038B195F81914DAA00A4636F049FA65
:1058000036F09EFA96F8900000070FD5E18ADBA0EB
:105810001AF0CDFC96F8910040B196F86E0028B1D0
:10582000E18AD6A036F035FA36F08AFA96F890007A
:10583000000704D5EA8A4146D4A0FFF70BF8002000
:105840006EE638B50446684608F0D2FD684637F083
:1058500035FA017D64396171017C491C2171017B3C
:10586000E170017AA17001796170007820700020E8
:1058700038BD13B5044601A837F020FA017D64391C
:105880006171017C491C2171017BE170017AA17079
:10589000017961700078207000201CBD10B58AB0BD
:1058A0000446002009902421684636F041FE6079C4
:1058B00000F5FA6005902079401E0490E07803908E
:1058C000A07802906078019020780090684636F0C9
:1058D000BBFD099009A808F0E1FD0AB0002010BD49
:1058E0002DE9F0410C4690460121A1701421E17090
:1058F0000188218000F10A0104F10A058E1DAF1D07
:10590000002B09D0062228461AF0ABF906223146B0
:1059100038461AF0A6F908E0062238461AF0A1F92E
:105920000622314628461AF09CF9A4F81680201D5C
:10593000FFF787FF0020BDE8F0812DE9F05F054605
:105940000E4690461C464FF000090027B8F1000FA4
:1059500007D0D8F80400801CB0F5806F01D9381F3B
:1059600009E42846FFF713FD82465FEA0A0002D5E4
:105970004FF0FF30F4E74FF0000B24B30AEBCA00FE
:10598000012105EBC00030304172317E017005F617
:105990004225288830802888401C2880A878B0704C
:1059A000E878A5F64225F070062205F6352106F1C5
:1059B0000A001AF056F9062205F63B2106F11000FE
:1059C0001AF04FF909E00AEBCA0005EBC00080F8B5
:1059D00039B096F82C1480F83010B8F1000F0CD0C4
:1059E0000AEBCA00D8F8042005EBC001921C18315C
:1059F00023463046FFF774FF09E00AEBCA0005EBC7
:105A0000C0011831234600223046FFF769FF0AEB38
:105A1000CA0005EBC00404F1180010F809100F4487
:105A200009F10109B9F1190FF7D3DFF86C9199F871
:105A3000900000070FD5394658A01AF0B8FB99F826
:105A4000910040B199F86E0028B1394653A036F064
:105A500020F936F075F9B8F1000F3FD0D8F80400FE
:105A6000801C1AF088FD6063E0B1012241461AF003
:105A7000F8F8606B0122401C08F101011AF0F1F8FE
:105A8000D8E90121606B801C1AF0EBF899F89000BE
:105A9000000704D5E28D47A0616BFEF7DBFE002016
:105AA000E18D18E099F89000C0070DD045A01AF0DC
:105AB0007EFB99F8910038B199F86E0020B141A0B1
:105AC00036F0E7F836F03CF96FF0010048E7626B1A
:105AD000125C1744401C8142F9DC01E0C4F834B088
