:020000040800F2
:10000000F0680020FD8C010801D800084D37020877
:1000100003D8000805D8000807D800080000000031
:1000200000000000000000000000000009D80008E7
:100030000BD8000800000000D736020831D50008B0
:10004000178D0108178D0108178D0108178D0108FC
:10005000178D0108178D0108178D0108178D0108EC
:10006000178D0108178D0108178D0108178D0108DC
:10007000178D0108178D0108178D0108178D0108CC
:10008000178D0108178D0108178D0108178D0108BC
:10009000178D0108178D0108178D0108178D0108AC
:1000A000178D0108178D0108178D0108178D01089C
:1000B0006D230108178D0108DD240108178D010843
:1000C000178D0108178D0108178D0108178D01087C
:1000D000178D010889DA0008C3DA000801DB00087F
:1000E00035D800080DD80008178D0108178D0108B4
:1000F000178D0108178D0108178D0108178D01084C
:10010000178D0108178D0108178D0108178D01083B
:100110003FDB00087BDB0008178D0108178D010805
:10012000A9250108178D0108178D0108178D0108F1
:10013000178D0108B1550108178D0108178D0108A9
:10014000178D0108178D0108178D0108178D0108FB
:10015000178D0108178D0108178D0108B9DB0008FC
:10016000178D0108178D0108178D0108178D0108DB
:10017000178D0108178D0108178D0108178D0108CB
:10018000178D0108DFF80CD03DF008FA0048004751
:10019000EF470008F06800202DE9FC41002401949D
:1001A00000221146F1A024F0ABFBF44E002825DA22
:1001B000F3A024F07DFAF3A1F4A024F04AFB00237D
:1001C000F2A2EFA1EFA0009424F0B8F9002817D014
:1001D00096F89000C0070DD0EDA01FF0F0FF96F844
:1001E000910038B196F86E0020B1E9A03BF059FDBE
:1001F0003BF0AEFD0A2022F0FCFCFBE724F0AEFB56
:10020000F0A024F012FD0546002D2ED10021EDA016
:1002100024F0D0FC002828D0D9A024F049FAD9A194
:10022000DAA024F016FB0023D8A2D5A1D5A0009413
:1002300024F084F9A8B196F89000C0070DD0D4A09E
:100240001FF0BDFF96F8910038B196F86E0020B10E
:10025000CFA03BF026FD3BF07BFD0A2022F0C9FC3D
:10026000FBE70021D7A024F0A5FC284624F0ABFD35
:10027000D6A024F0DAFC05463DB90021D3A024F035
:1002800099FC10B1D2A01FF09AFF284624F09BFDE4
:10029000D5A024F0CAFC05461DB90021D2A024F047
:1002A00089FC284624F08FFDD1A024F0BEFC054631
:1002B0001DB90021CEA024F07DFC284624F083FD4A
:1002C000CDA024F0B2FC05461DB90021CAA024F03F
:1002D00071FC284624F077FDC9A024F0A6FC054651
:1002E0001DB90021C6A024F065FC284624F06BFD52
:1002F000C6A024F09AFC05461DB90021C3A024F035
:1003000059FC284624F05FFDC1A024F08EFC054670
:100310001DB90021BEA024F04DFC284624F053FD59
:1003200000220221BDA024F0EBFA002802DB24F019
:1003300015FB11E0002240F20111B8A024F0E0FA10
:100340000546B9483CF03BF90246B749284624F037
:100350004AFB284624F002FB4FF4004600223146B7
:1003600082A024F0CDFA0546002D6FDB0022114655
:10037000284624F05DFB012201A9284624F00EFB4B
:100380004FF49677012816D0284624F0E7FA77A094
:1003900023F0CBFD0022114674A024F0B1FA00280E
:1003A00046DA78A179A024F054FA384622F021FCEC
:1003B00004F080FA3EE09DF804007B2834D0284603
:1003C00024F0CCFA69A023F0B0FD0022114667A00A
:1003D00024F096FA00281ADA69A024F069F969A1D4
:1003E0006AA024F036FA002368A265A165A00094F3
:1003F00024F0A4F88D495DA01BF008F900201CF042
:100400000AF9384622F0F5FB04F054FA01E024F032
:10041000A5FA864955A01BF0F9F800201CF0FBF85E
:1004200083A01FF0CCFE1BE0284624F097FA17E0CB
:1004300024F094FA7D494DA01BF0E8F800201CF050
:10044000EAF88AA01FF0BBFE0AE0FFE7774947A061
:100450001BF0DCF800201CF0DEF893A01FF0AFFECC
:1004600000223146A0A024F04BFA002802DB24F041
:1004700075FA05E09CA01AF088FCA0A01FF09FFE72
:1004800000223146ACA024F03BFA002802DB24F025
:1004900065FA06E0AE49A8A01AF0E1FBAD481FF0EE
:1004A0008EFE00223146ACA024F02AFA002802DB9E
:1004B00024F054FA06E0AE49A7A01AF03BF8AD4884
:1004C0001FF07DFE00223146ABA024F019FA00286F
:1004D00002DB24F043FA06E0AD49A7A01AF0B2F817
:1004E000AC481FF06CFE00223146ABA024F008FAA5
:1004F000002802DB24F032FA06E0AC49A6A01AF08C
:10050000BCF9ABA01FF05BFE00223146B7A024F07F
:10051000F7F9002802DB24F021FA06E0B749B3A07E
:100520001AF04AFEB6A01FF04AFE00223146C2A0D1
:1005300024F0E6F9002802DB24F010FA06E0C249B4
:10054000BDA01AF00FFBC1A01FF039FE00223146FA
:10055000CDA024F0D5F9002803DB24F0FFF9BDE895
:10056000FC81CE49C8A01AF0C8FD99E12F636F6ED7
:100570006669672F7379732E63666700980300209E
:100580002F000000666C617368300000656C6D00C0
:10059000466C6173682046696C6520537973746595
:1005A0006D20696E697469616C7A6174696F6E201F
:1005B0006661696C656420616761696E2021212133
:1005C000200A00002F726F6D000000002F534400BE
:1005D0004D616B65202F5344206469722066616908
:1005E0006C6564200A0000002F636F6E6669670007
:1005F0002F736372697074002F6D6F64756C650082
:100600002F6D6F64756C652F6C6962002F667700C3
:100610002F646F776E6C6F61640000002F696E69E4
:10062000742E7263000000003E37040836F303089E
:1006300053797374656D20636F6E666967206669B0
:100640006C652069732072657061697265642077DA
:10065000697468207379735F6366675F696E697434
:100660005F6461746120212121200A005379737431
:10067000656D20636F6E6669672066696C652069C9
:100680007320726577726974652077697468207366
:1006900079735F6366675F696E69745F64617461D3
:1006A00020212121200A000053797374656D206395
:1006B0006F6E6669672066696C6520697320726574
:1006C00063726561746564207769746820737973F7
:1006D0005F6366675F696E69745F6461746120213E
:1006E0002121200A000000002F636F6E6669672FCA
:1006F0006D6F64652E636667000000006D6F646552
:1007000020636F6E6669672066696C652069732077
:100710007265637265617465642077697468206DC1
:100720006F64655F6366675F696E69745F64617457
:100730006120212121200A002F636F6E6669672FD7
:100740007472616E73706172656E742E6366670099
:1007500090F20308345C04082F636F6E6669672F9C
:1007600050524F5F554954442E63666700000000A5
:1007700034F10308AC5B04082F636F6E6669672F62
:1007800050524F5F4354524C2E6366670000000086
:100790004CF10308F05B04082F636F6E6669672FE6
:1007A000415030312E636667000000009CF1030861
:1007B0004150303120636F6E6669672066696C65F1
:1007C000206973207265637265617465642077695E
:1007D000746820415030315F6366675F696E697489
:1007E0005F6461746120212121200A002F636F6EF4
:1007F0006669672F46412E6366670000A4F103080F
:10080000464120636F6E6669672066696C65206982
:1008100073207265637265617465642077697468BA
:100820002046415F6366675F696E69745F646174E7
:100830006120212121200A002F636F6E6669672FD6
:100840006574682E636667004CF20308657468205F
:10085000636F6E6669672066696C652069732072D4
:100860006563726561746564207769746820657476
:10087000685F6366675F696E69745F646174612055
:10088000212121200A0000002F636F6E6669672F07
:10089000574946492E63666700000000F6F20308D8
:1008A000E9A01FF08CFC5AE67FB5054600221146F0
:1008B000284624F025F80446002C08DA1FF08AF9AF
:1008C00002462946EFA01FF07AFC04B070BD6946CD
:1008D000204624F011F9029818B1204624F03EF881
:1008E000F3E7204624F03AF8284623F01EFB294679
:1008F000EBA01FF064FCE8E710B5F2A023F015FBB5
:10090000F4A0FFF7D1FF002010BD10B5AFF2F42026
:1009100023F00BFBAFF2AC3023F007FBAFF28810F3
:1009200023F003FBF0A023F000FBAFF2F40023F070
:10093000FCFAFFF731FC002010BD10B5EF4C00238E
:10094000B2F5007F01D9581E10BD214402E0CC5CF5
:10095000C4545B1C9342FAD3002010BDF0B587B09D
:10096000002400250395049505950695062200218F
:10097000E348FFF7E2FFE24841790379C278CDE925
:1009800000230291837842780178DEA01FF017FCE3
:10099000E74E0021316071600622D94930461FF0D0
:1009A00068F9E44B03CE40F618121B1A8A4103D2B1
:1009B000E1A01FF004FC10E003AE0A2200233BF08C
:1009C00001FDC4F10C033032F25404F101040D2C8A
:1009D000F3DB03A9DFA01FF0F2FBE14812F02CF8D3
:1009E000DF49491C881E12F012F9DD4E0124D33E66
:1009F00086F8884096F8D200022803D0042801D057
:100A000012F007FA96F8D400532801D186F8704006
:100A1000032733281CD0342822D0352825D0562847
:100A200028D02AF0C9F93BF0E0F920F071FA22F061
:100A3000B1FE27F0A6FB24F032FE27F0F9FA15F0FC
:100A40000AFB0EF01CFA96F8D2000B2815D017E01E
:100A50001FF007FCC3A00AF029FF86F87070E2E7D8
:100A60001FF0FFFB86F87070DDE71FF0FAFB86F8D9
:100A70007070D8E72AF0A0F9D5E7BCA013F010FDFC
:100A800096F8D400522836D00023AFF20052AFF2CD
:100A90001051AFF21050009523F050FD002843D0C4
:100AA000B4481FF08CFBAFF22451AFF2205023F07A
:100AB000D0FE0023AFF22C52AFF23C51AFF23C50CB
:100AC000009523F03BFD002831D096F89000C00738
:100AD0000DD0A9A01FF073FB96F8910038B196F8DD
:100AE0006E0020B1A4A03BF0DCF83BF031F90A2005
:100AF00022F07FF8FBE7AFF27451AFF2705023F0B1
:100B0000A8FE96F89000C0070DD0A8A01FF057FBD4
:100B100096F8910038B196F86E0020B1A3A03BF092
:100B2000C0F83BF015F9FEE7ACA01FF048FB0A2027
:100B300022F05FF8B1A1B3A013F0C3FA0023AFF223
:100B4000B452AFF27851AFA0009523F0F7FCAE4D50
:100B500000283AD0ADA01FF032FB96F8D4005428FC
:100B600038D0FFF719FBFFF7C7FEB3480023B3A245
:100B7000AFF2B0510090184623F0E0FC00283ED0C0
:100B8000AFA01FF01CFB032016F03DFFA0F5B44101
:100B90005A390DD01BF017FB01201BF009FD96F808
:100BA000D30003282FD004282DD005282BD02CE0EB
:100BB00016F03CFB0021032016F01CFF0121AAA027
:100BC00003F03EFF03F076FEFEE7ABA01FF0F7FA5E
:100BD0002C70C2E7FFF799FE96F89000C0070DD081
:100BE000AEA01FF0ECFA96F8910038B196F86E00BE
:100BF00020B1AAA03BF055F83BF0AAF8FEE7B5A05B
:100C00001FF0DDFABFE71BF0B7F896F89100002857
:100C100016D0AFF2946003F08DFFB64988420FDD25
:100C20004F48413807463BF0CAFC304490F89100E9
:100C30002F2806D096F89000C00703D039465BE114
:100C40007BE16EE167E100005749464920636F6E22
:100C50006669672066696C652069732072656372D6
:100C60006561746564207769746820574946495FF7
:100C70006366675F696E69745F64617461202121D6
:100C800021200A004F70656E2066696C652025730F
:100C9000206661696C6564203A202564200A0000A2
:100CA00046696C652025732073697A652069732015
:100CB0007A65726F2C2072656D6F7665206974207D
:100CC0002E0A00002F6669726D776172652E626967
:100CD0006E0000002F66772F6669726D776172650E
:100CE0002E62696E000000002F636F6E6669672FC9
:100CF000415030322E636667000000008878FF1F85
:100D000065000020554954445F49443A202530325B
:100D1000582025303258202530325820253032587E
:100D200020253032582025303258200A200000007B
:100D300078000020FF9F724E534E20746F6F206C1E
:100D400061726765202C206572726F7220212121EB
:100D50000A000000534E203A2025730A00000000CC
:100D60006B04002075617274310000007370693289
:100D700030000000805C04085350492046696C65CF
:100D80002053797374656D20696E697469616C7A3A
:100D90006174696F6E206661696C6564206167616A
:100DA000696E20212121200A000000006D6B66730E
:100DB00020666C617368302066696E6973682C20E8
:100DC000506C656173652072657365742074686525
:100DD000206465766963652E0A000000535049203F
:100DE00046696C652053797374656D20696E69740A
:100DF00069616C697A6564210A0000007370693169
:100E0000310000007364300000000020534443614F
:100E100072642046696C652053797374656D20692E
:100E20006E697469616C697A6174696F6E2066615C
:100E3000696C6564210A0000604F0408726F6D00E0
:100E4000524F4D2046696C652053797374656D204F
:100E5000696E697469616C7A6174696F6E2066612C
:100E6000696C6564210A00002F66772F75706772C0
:100E70006164652E666C670053444361726420466A
:100E8000696C652053797374656D20696E69746946
:100E9000616C697A6564210A00000000496E69741A
:100EA00020636F6E66696775726174696F6E206624
:100EB000696E69736865642C20506C656173652088
:100EC000726573657420746865206465766963650E
:100ED0002E0A0000524F4D2046696C6520537973ED
:100EE00074656D20696E697469616C697A656421E5
:100EF0000A00000040420F00F7A01FF060F996F8CA
:100F0000910040B196F86E0028B13946F2A03AF04F
:100F1000C8FE3AF01DFF0222AFF69C1138461EF0C3
:100F2000A8FEF9A138463BF016FB38463AF067FDBB
:100F3000F8A03AF0B6FE3AF0D3FF17F04FFF18F0E2
:100F400074F996F87000012801D0022819D196F89A
:100F5000900040070DD5FBA01FF031F996F89100E5
:100F600038B196F86E0020B1F6A03AF09AFE3AF049
:100F7000EFFE0721FB4808F092FD287808B186F8BB
:100F8000744086F86E4007B0F0BD1CB5F64C02E028
:100F9000012021F02EFE94F86E000028F8D0F348CE
:100FA00014244FF480530078CDE900040022F04966
:100FB000F0A021F062FDF249086008B121F010FDB7
:100FC000F0480022F0490078CDE900044FF40064B5
:100FD0002346EEA021F051FDEF49086008B121F051
:100FE000FFFCEE491E2023460978CDE900100022BF
:100FF000EB49ECA021F041FDEE490860002803D048
:10100000BDE81C4021F0ECBC1CBD2DE9FC470446AA
:10101000142520781E264FF400774FF480580028BE
:101020002DD0E548434600220078CDE90006E3498B
:10103000E3A021F022FDE649086008B121F0D0FCD0
:10104000E44964203B460978CDE900100022E249DA
:10105000E2A021F012FDE449086008B121F0C0FCD3
:10106000E2483B4600220078CDE90005E049E1A0D6
:1010700021F003FDE149086008B121F0B1FCE078FE
:10108000F8B13AF015F931F05FFA0CF0A5FA1AF060
:10109000C1FD14F02DFDDAA01FF091F8B249012036
:1010A00081F86F00DC48434600220078CDE9000655
:1010B000DA49DBA021F0E1FCDD49086008B121F04C
:1010C0008FFCA07978B3DFF86C934FF400630022B3
:1010D00099F80000CDE90005D749D8A021F0CDFC52
:1010E000D949086008B121F07BFC99F80000CDE9EE
:1010F00000053B460022D549D5A021F0BEFCD649CB
:10110000086008B121F06CFCD44843460022007806
:10111000CDE90006D249D3A021F0AFFCD549086043
:1011200008B121F05DFC607870B1D34843460022DD
:101130000078CDE90005D149D1A021F09EFCD3492A
:10114000086008B121F04CFCA07870B1D04843464B
:1011500000220078CDE90005CE49CFA021F08DFC1A
:10116000D049086008B121F03BFC20794FF40059C8
:10117000E8B1CD484B4600220078CDE90005CB49C7
:10118000CBA021F07AFCCD49086008B121F028FC01
:10119000CB483B4600220078CDE90005C949CAA0EA
:1011A00021F06BFCCA49086008B121F019FC607994
:1011B000E8B1C8484B4600220078CDE90006C64990
:1011C000C6A021F05AFCC849086008B121F008FC0B
:1011D000C6483B4600220078CDE90006C449C5A0B8
:1011E00021F04BFCC649086008B121F0F9FBE07919
:1011F00070B1C448434600220078CDE90005C249D9
:10120000C2A021F03AFCC449086008B121F0E8FB13
:10121000207A78B1C1493C2043460978CDE90010D5
:101220000022BF49BFA021F028FCC149086008B1D5
:1012300021F0D6FB0020BDE8FC8710B54A4C02E047
:10124000012021F0D6FC94F86E000028F8D0B948AF
:1012500001220270427000218170C17002712178F8
:10126000012902D0022902D003E0427101E042715B
:101270008271BDE81040001DC7E610B53A4C02E08F
:10128000012021F0B6FC94F86E000028F8D0A9489F
:101290000021417001780122012901D0B9B177E123
:1012A000817859B1C2712178012902D0022902D076
:1012B0006EE102726CE10272427269E1C17839B189
:1012C00082722178012904D0022903D060E138E13B
:1012D00058E131E132E100004C6F672066696C65CE
:1012E0002070617468206572726F72203A202573D5
:1012F000202C207573652064656661756C742070A0
:101300006174680A000000006C6F67732E74787453
:10131000000000000A0A0A4C6F672073746172743F
:10132000203D3D3D3D3D3D3D3D3D3D3D3D3D3D3D0A
:101330003D3D3D3D3D3D3D3D3D3D3D3D3D3D3D3DDD
:101340000A0A00000A2020456E74657220746573D5
:1013500074696E67206D6F646520212121200A0A5F
:1013600000000000780C002098030020DC01002021
:1013700019BA0008554954445F424C45000000002A
:10138000E0010020DD0100209DBA000855495444C9
:101390005F424C455F727800E4010020DE010020CE
:1013A000F7BA0008554954445F424C455F72656383
:1013B00000000000E801002003000020D52E0008F6
:1013C000554954445F475052535F726563000000B3
:1013D00014000020E00500209B08010847534D5FE2
:1013E0004D47333031000000E4050020E1050020C6
:1013F0005908010847534D5F72780000E805002046
:101400005443502F495020696E697469616C697A40
:101410006564210A000000001A000020DF41000876
:10142000554954445F6574685F726563000000004D
:1014300040000020EC0500202B1B010857494649BD
:101440005F4553503037000000060020C91A0108DC
:10145000574946495F72780004060020EE010020DB
:10146000D5C20008554954445F574946495F7265E3
:10147000630000000002002001000020DB290008BA
:10148000554954445F6D61696E0000000C000020F6
:1014900002000020EB2C0008554954445F325F6D78
:1014A00061696E00100000201800002061390008FA
:1014B000554954445F6574680000000038000020FE
:1014C0001B000020973D00086574685F727800007B
:1014D0004400002019000020253E000855495444CE
:1014E0005F6574685F3200003C0000201C00002033
:1014F000534100086574685F72785F320000000035
:1015000048000020EC010020D1BD0008554954449A
:101510005F57494649000000F8010020ED01002016
:1015200025C10008554954445F325F574946490078
:10153000FC010020B5040020C27229E0C2720273CF
:1015400026E08178012902D1C378022B03D0C37829
:10155000012B0ED01CE0C27182722178012902D0C9
:10156000022903D014E00272C27211E00272027307
:101570000EE002290CD1C27182722178012902D0B9
:10158000022903D004E00272C27201E0C272427208
:10159000BDE81040001D38E570B5FE4C02E00120AA
:1015A00021F027FB94F86E000028F8D0FA4D0120B6
:1015B0002978012901D051B39EE0697859B1287189
:1015C0002178012902D0022902D095E0687193E0C8
:1015D0006871A87190E0A97859B1E8712178012962
:1015E00002D0022902D087E0287285E02872687252
:1015F00082E0E978F9B1A8722178012902D00229A4
:1016000002D079E0E87277E0E872287374E06978D4
:10161000012902D1AA78022A03D0AA78012A0ED081
:101620000FE02871E8712178012902D0022903D046
:1016300062E0687128725FE0687168725CE002299C
:1016400002D0012A0ED010E02871E871217801291A
:1016500002D0022903D04FE0687128724CE0287252
:10166000A87149E0EB78022B03D0EB78012B0ED068
:101670000FE0E871A8722178012902D0022903D075
:101680003AE02872E87237E02872287334E0022AC0
:1016900002D001290ED00FE0E871A872217801294B
:1016A00002D0022903D027E02872E87224E0E87211
:1016B000687221E0022B02D0012B0ED01CE02871B1
:1016C000A8722178012902D0022903D014E06871A0
:1016D000E87211E0687128730EE002290CD12871BC
:1016E000A8722178012902D0022903D004E0687190
:1016F000E87201E0E872A871281DBDE8704084E43A
:101700007CB5A44C02E0022021F073FA94F86E003C
:101710000028F8D094F87000012824D01AF0DFFADD
:1017200094F8D40005220A214FF4806333284FD067
:1017300094F8D300012859D0022857D05B00032821
:1017400062D0042801D005286CD1CDE90012002216
:10175000AFF2BB1191A021F090F9002862D0BDE852
:101760007C4021F03DB994F8D310002301208A4A2F
:10177000012918D0022916D002268D4D032918D030
:10178000042901D00529CBD1137050709670D37005
:101790002670874887A120383AF033FF85A1284674
:1017A0003AF02FFFBCE7107050709370D370207028
:1017B000B6E7137053709070D67026707C487DA188
:1017C00020383AF01EFF7BA128463AF01AFFA7E71F
:1017D000CDE900120022AFF64D0179A021F04DF9BC
:1017E00000281FD0BDE87C4021F0FAB8CDE90012F6
:1017F0000022AFF2B95176A021F03FF9002811D0B4
:10180000BDE87C4021F0ECB8CDE900120022AFF237
:10181000955173A021F031F9002803D0BDE87C4038
:1018200021F0DEB87CBD2DE9FC475A4D02E00220D4
:1018300021F0DFF995F86E000028F8D095F87000D7
:101840004FF40076B3000A2404281BD095F8D20088
:10185000022841D06649DFF89C81674D674F032815
:101860004BD0042866D009287BD00A287AD00B28D0
:1018700079D00C2878D0002877D0BDE8FC4760A04C
:101880001EF09DBC95F8D200032805D0092803D08E
:101890000A2801D00B2869D16048002260490078ED
:1018A000CDE900045FA021F0E8F85F49086008B1C5
:1018B00021F096F85D48334600220078CDE9000417
:1018C0005B495CA021F0D9F85C49086000284DD044
:1018D000BDE8FC4721F084B85948002259490078F6
:1018E000CDE9000458A021F0C8F859490860002843
:1018F0003CD0BDE8FC4721F073B80878CDE900047E
:101900000022544954A021F0B8F8286008B121F011
:1019100067F898F80000CDE90004334600224F49EB
:101920004FA021F0AAF8386000281FD0BDE8FC477E
:1019300021F056B84C48334600220078CDE9000427
:101940004A494BA021F099F84B49086008B121F0B1
:1019500047F84A48334600220078CDE90004484958
:1019600005E00FE0B0E0CEE0FCE02CE110E045A0A7
:1019700021F083F846490860002809D0BDE8FC47FB
:1019800021F02EB80878CDE900040022314981E029
:1019900014E1000098030020B50400205549544488
:1019A0005F475052535F4554485F696E6974000049
:1019B000E2040020737A6A73746573740000000097
:1019C000554954445F424C455F696E69740000009C
:1019D000554954445F475052535F696E6974000023
:1019E000554954445F6574685F696E69740000000E
:1019F0004401002045010020480100204C01002046
:101A0000556E6B6E6F776E20626F617264207479B1
:101A1000706520212121200A000000000C02002016
:101A2000E9CD000854500000100200200D020020F3
:101A300053CE000854505F7278000000140200205A
:101A400090000020BDA2000873656E736F720000E5
:101A5000B8000020EDB000084641000085B5000840
:101A600046415F727800000050010020EDB600088A
:101A70006374726C5F696E00C80100205101002020
:101A80007BB700086374726C5F6F757400000000B0
:101A9000CC010020AFF2400020F0EFFF286008B139
:101AA00020F09EFF98F80000CDE900046749334616
:101AB0000022AFF2540020F0E0FF386000287DD013
:101AC000BDE8FC4720F08CBF0878CDE900046049F0
:101AD0000022AFF27C0020F0D0FF286008B120F097
:101AE0007FFF98F80000CDE90004584933460022F2
:101AF000AFF2940020F0C1FF3860002869D0BDE843
:101B0000FC4720F06DBF0878CDE9000450499946A4
:101B10000022AFF2BC0020F0B0FF286008B120F036
:101B20005FFF98F80000CDE90004484933460022E1
:101B3000AFF2D40020F0A1FF386008B120F050FFD0
:101B400044484B4600220078CDE90004424943A0B6
:101B500020F093FF4449086000283AD0BDE8FC47D4
:101B600020F03EBF0878CDE9000439490022AFF2E9
:101B7000181020F082FF286008B120F031FF98F89B
:101B80000000CDE90004314933460022AFF23010A5
:101B900020F073FF386008B120F022FF33484FF483
:101BA000805300220078CDE90004314931A020F0B3
:101BB00064FF3349086000280BD000E009E0BDE86D
:101BC000FC4720F00DBFAFF2C810BDE8FC471EF087
:101BD000F6BABDE8FC877CB505200A24CDE90040B3
:101BE000C3020022274928A020F047FF08B120F0B7
:101BF000F7FE27484FF400652B460078CDE9000436
:101C00000022244924A020F038FF2649086008B1AA
:101C100020F0E6FE09264FF480730022AFF2F9317E
:101C2000CDE9006420A020F028FF08B120F0D8FE04
:101C30002B460022AFF23751CDE900641DA020F001
:101C40001CFF08B120F0CCFE00207CBD85B500084B
:101C5000EDB0000838030020A1D2000850524F5FB9
:101C60005549544400000000800300201802002061
:101C7000BDCF000850524F5F4354524C000000004B
:101C8000340300205D090008696E697400000000DB
:101C90008000002055A200087379735F737461742B
:101CA000757300008C0000204150505F696E6974AC
:101CB00000000000434F4D5F696E69740000000032
:101CC00010B5C2B004464FF4807102A83AF038FC57
:101CD00001A80CF095FB0121204602F0B1FE002284
:101CE0000121204622F00CFEF94CC4F884000028A3
:101CF00015DA94F89000C0070DD0F6A01EF05FFA38
:101D000094F8910038B194F86E0020B1F1A039F048
:101D1000C8FF3AF01DF84FF0FF3042B010BD94F804
:101D2000D3000BF00FFD0246F2A102A83BF016FF14
:101D30000246002A12DA94F89000C00713D0F3A0EC
:101D40001EF03DFA94F8910068B194F86E0050B11D
:101D5000EEA039F0A6FF39F0FBFF04E002A9D4F8A9
:101D6000840022F040FE94F8D2000BF004FD0246FD
:101D7000ECA102A83BF0F2FE0246002A12DA94F827
:101D80009000C00713D0E1A01EF019FA94F891005A
:101D900068B194F86E0050B1DCA039F082FF39F0E0
:101DA000D7FF04E002A9D4F8840022F01CFE01A8A9
:101DB0003AF0A6FB0246E2A102A83BF0CFFE0246A3
:101DC000002A12DA94F89000C00713D0CFA01EF0BA
:101DD000F6F994F8910068B194F86E0050B1CBA078
:101DE00039F05FFF39F0B4FF04E002A9D4F88400B1
:101DF00022F0F9FD94F8D300012808D0022806D07B
:101E0000032828D004286BD0052869D0AAE094F8CC
:101E10007520CEA102A83BF0A1FE0246002A14DAEA
:101E200094F89000C007F1D0B8A01EF0C8F994F85B
:101E300091000028EAD094F86E000028E6D0B3A004
:101E400039F02FFF39F084FF8CE002A9D4F8840028
:101E500022F0C9FD86E094F87620BFA102A83BF0ED
:101E60007DFE0246002A12DA94F89000C00713D0D3
:101E7000A6A01EF0A4F994F8910068B194F86E0041
:101E800050B1A2A039F00DFF39F062FF04E002A9C1
:101E9000D4F8840022F0A7FD94F87720B2A102A81C
:101EA0003BF05CFE0246002A14DA94F89000C0076A
:101EB00058D096A01EF083F994F89100002851D0D4
:101EC00094F86E0000284DD090A039F0EAFE39F069
:101ED0003FFF47E002A9D4F8840022F084FD41E0EE
:101EE00094F8752099A102A83BF038FE0246002A1A
:101EF00012DA94F89000C00713D084A01EF05FF9A6
:101F000094F8910068B194F86E0050B17FA039F058
:101F1000C8FE39F01DFF04E002A9D4F8840022F0C5
:101F200062FD94F876208CA102A83BF017FE0246D1
:101F3000002A12DA94F89000C00713D073A01EF0A4
:101F40003EF994F8910068B194F86E0050B16FA01A
:101F500039F0A7FE39F0FCFE04E002A9D4F88400B1
:101F600022F041FD94F8D200032802D0022866D066
:101F7000A7E094F878207FA102A83BF0EFFD02468D
:101F8000002A12DA94F89000C00713D05FA01EF068
:101F900016F994F8910068B194F86E0050B15BA006
:101FA00039F07FFE39F0D4FE04E002A9D4F88400B1
:101FB00022F019FD94F8792072A102A83BF0CEFD21
:101FC0000246002A12DA94F89000C00713D04FA0FE
:101FD0001EF0F5F894F8910068B194F86E0050B1D5
:101FE0004AA039F05EFE39F0B3FE04E002A9D4F84D
:101FF000840022F0F8FC94F87A2066A102A83BF055
:10200000ADFD0246002A14DA94F89000C00758D0BB
:102010003EA01EF0D4F894F89100002851D094F816
:102020006E0000284DD039A039F03BFE39F090FE0B
:1020300047E002A9D4F8840022F0D5FC41E094F8EE
:102040007C2058A102A83BF089FD0246002A12DA42
:1020500094F89000C00713D02CA01EF0B0F894F8AC
:10206000910068B194F86E0050B128A039F019FEC3
:1020700039F06EFE04E002A9D4F8840022F0B3FC2B
:1020800094F87D204DA102A83BF068FD0246002A8D
:1020900012DA94F89000C00713D01CA01EF08FF83D
:1020A00094F8910068B194F86E0050B117A039F01F
:1020B000F8FD39F04DFE04E002A9D4F8840022F0C6
:1020C00092FCD4F8840022F049FC002025E60000B0
:1020D00098030020437265617465207465737469A8
:1020E0006E672066696C65206661696C6564202195
:1020F000200A00004D6F746865725F626F617264E0
:102100005F74797065203A2025730A004C6F672050
:10211000737072696E7466206661696C65642021F3
:10212000200A00004465766963655F626F617264CE
:102130005F74797065203A2025730A0A0000000058
:1021400054696D65203A2025730A0A0047534D20D3
:102150003A2025640A00000065746865726E657433
:10216000203A2025640A000057494649203A202594
:10217000640A00005253323332203A092025640A9F
:10218000000000005253343835203A092025640AF3
:1021900000000000696E707574203A092025640AF9
:1021A0000000000073656E736F725F345F32306DD4
:1021B00041203A092025640A0000000073656E730F
:1021C0006F725F3556203A092025640A000000002E
:1021D0002DE9F047F94F022607F1750097F8D3C0B3
:1021E00090F800804179C2780379C479057A90F833
:1021F0005D00BCF1010F0FD0BCF1020F0CD0B9464D
:10220000BCF1030F99F876903ED0BCF1040F7AD060
:10221000BCF1050F76D0E6E0B8F1000FFBD0032843
:1022200002D0022819D0DEE00029F4D0002AF2D032
:10223000002BF0D0E2A0FFF743FDE5A01DF0BFFFAB
:10224000DFA021F080FE00201AF0E5F90B21E5481F
:1022500007F025FC87F87060C5E0002CDBD0002D6E
:10226000D9D0D7A0FFF72CFDD9A01DF0A8FFD4A08E
:1022700021F069FE00201AF0CEF90B21D94807F0B1
:102280000EFC87F87060AEE0B9F1000FC3D097F88C
:1022900077C0BCF1000FBED0032802D0022819D0AD
:1022A000A1E00029B7D0002AB5D0002BB3D0C4A03C
:1022B000FFF706FDC6A01DF082FFC1A021F043FE7E
:1022C00000201AF0A8F90B21C64807F0E8FB87F8B0
:1022D000706088E0002C9ED0002D9CD0B8A0FFF745
:1022E000EFFCBBA01DF06BFFB5A021F02CFE002081
:1022F0001AF091F90B21BB4807F0D1FB87F8706009
:1023000071E000E03AE0B8F1000F6CD0B9F1000FD5
:1023100069D0032802D0022819D064E0002962D0D5
:10232000002A60D0002B5ED0A5A0FFF7C9FCA8A0B2
:102330001DF045FFA2A021F006FE00201AF06BF967
:102340000B21A84807F0ABFB87F870604BE0002C2E
:1023500049D0002D47D09AA0FFF7B2FC9CA01DF0F9
:102360002EFF97A021F0EFFD00201AF054F90B2169
:102370009C4807F094FB87F8706034E0B8F1000FD8
:1023800031D0B9F1000F2ED00B2802D00C2816D076
:1023900029E041B33AB333B389A0FFF791FC8CA095
:1023A0001DF00DFF86A021F0CEFD00201AF033F9BC
:1023B0000B218C4807F073FB87F8706013E094B131
:1023C0008DB17FA0FFF77CFC81A01DF0F8FE7CA002
:1023D00021F0B9FD00201AF01EF90B21814807F009
:1023E0005EFB87F87060D7F880004EF66021884267
:1023F0006FD373A0FFF764FC7BA01DF0E0FE70A01C
:1024000021F0A1FD97F8D300012808D0022806D0BA
:1024100003283ED004287FD0052877D01CE197F808
:10242000D200032802D002281BD015E197F87500CE
:1024300020B10A216B4807F032FB0DE197F87A00D2
:1024400050B197F8780038B197F8790020B1092198
:10245000644807F024FBFFE00821624807F01FFBF7
:10246000FAE097F8750020B10A215E4807F017FBE3
:10247000F2E097F87C0038B197F87D0020B109218F
:10248000584807F00CFBE7E00821564807F007FB27
:10249000E2E097F8D200032802D002281FD0DBE048
:1024A00097F8760038B197F8770020B10A214D48A7
:1024B00007F0F5FAD0E097F87A0058B197F878006D
:1024C00040B197F8790028B10921464807F0E7FAAA
:1024D000C2E0C3E00821434807F0E1FABCE097F806
:1024E000760038B197F8770020B10A213D4807F00F
:1024F000D6FAB1E097F87C0048B197F87D0030B18A
:102500000921384807F0CBFAA6E005E044E00821AD
:10251000344807F0C4FA9FE097F8D200032802D0AD
:1025200002281ED098E097F8750038B197F8760029
:1025300020B10A212B4807F0B2FA8DE097F87A0013
:1025400050B197F8780038B197F8790020B1092197
:10255000244807F0A4FA7FE00821224807F09FFAF8
:102560007AE097F8750038B197F8760020B10A2123
:102570001C4807F094FA6FE097F87C0038B197F8A0
:102580007D0020B10921174807F089FA64E008218D
:10259000144807F084FA5FE097F8D2000B2802D0C5
:1025A0000C283FD058E097F8750038B397F87600BC
:1025B00020B30A210B4807F072FA4DE0980300207F
:1025C0002F746573745F6C6F672E747874000000ED
:1025D0000A54657374696E67207061737365642053
:1025E0000A0A0000780C00200A54657374696E674B
:1025F0002074696D656F7574200A0A00FFE797F80B
:102600007A0050B197F8780038B197F8790020B186
:102610000921134807F043FA1EE00821104807F08B
:102620003EFA19E097F8750038B197F8760020B1B6
:102630000A210B4807F033FA0EE097F87C0038B116
:1026400097F87D0020B10921054807F028FA03E03A
:102650000821034807F023FA87F87060BDE8F08787
:10266000780C002030B50021FE4A01241268002AAF
:1026700003D05060137803B91470FB4B53F821203A
:102680002AB1906053F82120157805B91470491CBF
:102690000529F3DBF549096819B188600A7802B9A0
:1026A0000C70F349096819B148600A7802B90C70D6
:1026B000F049096819B14860087800B90C70002029
:1026C00030BD30B50021E74A01241268002A03D04A
:1026D0009060137803B91470E34B53F821202AB1AA
:1026E000D06053F82120157805B91470491C0529CC
:1026F000F3DBDE49096819B1C8600A7802B90C70C9
:10270000DB49096819B188600A7802B90C70D949A7
:10271000096819B18860087800B90C70002030BDD4
:102720000EF022B82DE9F0438FB00446DDE916968D
:102730000D4617469846342102A839F001FF1CB116
:1027400001208DF8080002E003208DF80800ADF8A4
:1027500038504B464246394602A800960EF046F8DD
:102760000FB0BDE8F08370477047704770472DE9A0
:10277000FF4F93B023AF209E97E880078B46154606
:102780001C46342106A839F0DBFEBBF1000F01D056
:10279000002000E002208DF818008DF819509DB13E
:1027A00021460DF1260039F02CFFADF84660279840
:1027B0008DE880070490DDE9212306A913980DF028
:1027C000DBFF17B0BDE8F08F20788DF81A00607835
:1027D0008DF81B00A0788DF81C00E0788DF81D00A6
:1027E000ADF81E60E3E710B50168A3480068C0F8C3
:1027F000D419012180F8D019FFF734FF9F4C94F8C9
:10280000900040070DD59EA01DF0D9FC94F89100D2
:1028100038B194F86E0020B199A039F042FA39F03D
:1028200097FA002010BD70B5044608460DF0D5FF9C
:10283000924D95F89000400711D596A0D4F8D41980
:102840001DF0BDFC95F8910048B195F86E0030B1CF
:1028500090A0D4F8D41939F024FA39F079FA00208C
:1028600070BD70B5044694F8D009002816D0834D89
:1028700095F89000C00711D08DA0D4F8D4191DF0A0
:102880009EFC95F8910048B195F86E0030B188A093
:10289000D4F8D41939F005FA39F05AFA002084F83E
:1028A000D00970BD70B50C4615461E464FF4FA713E
:1028B00087481CF03FF93246294620460DF054FF68
:1028C000044683481CF018FA204670BD70B51646C1
:1028D0000446B2B204F6482027F069FD0546B54229
:1028E0001AD0664E96F89000C00713D02A4679A0F9
:1028F000D4F8D4191DF063FC96F8910050B196F805
:102900006E0038B12A4673A0D4F8D41939F0C9F949
:1029100039F01EFA6FF0060070BD3EB5044604F6AD
:102920002E2408782070487860708878A070C87865
:10293000E070A280A4F62E24504D95F89000400738
:102940002AD594F8310A94F8301ACDE901020091A1
:1029500094F82F3A94F82E2A66A0D4F8D4191DF0D2
:102960002EFC95F89100002816D095F86E000028EE
:1029700012D004F61224E07F218CA27FCDE9002042
:102980000291637F227F54F83E1C5AA039F089F9E6
:10299000BDE83E4039F0DCB93EBD10B501683648AF
:1029A0004068C0F8D419012180F8D019FFF789FEDA
:1029B000324C94F8900040070DD558A01DF0FFFB55
:1029C00094F8910038B194F86E0020B153A039F01A
:1029D00068F939F0BDF9002010BD88B000231A460F
:1029E00053A157481BF0E1FE554800231A4655A154
:1029F0002C381BF0DAFE214E02E0022020F0F9F81C
:102A000096F888000028F8D0AFF2F1000025CDE953
:102A1000065004950595AFF24B10AFF2B911CDE910
:102A20000015AFF2FD13AFF24122AFF2BD21CDE9A7
:102A30000205AFF28F1002F033FB0F4C206078B12B
:102A400042F6082196F836200A540322414902F042
:102A500012FB4FF0010886F8D68001213E487DE048
:102A60008EE0000010080020E40C00200802002086
:102A700020080020280800200400002098030020DF
:102A8000535A4A5320636F6E6E65637465642120E8
:102A90000A000000554954445F47505253202564B2
:102AA00020646973636F6E6E6563742E200A000084
:102AB000554954445F47505253202564206469733C
:102AC000636F6E6E656374656420212121200A00A6
:102AD000E416002072696E676275662025642077AF
:102AE00072697465206572726F72203A20256420C5
:102AF00000000000554954445F475052532025645C
:102B000020495020706F7274203A2025642E25646D
:102B10002E25642E25643A2564200A0058465A441E
:102B200020636F6E6E656374656421200A00000087
:102B3000554954445F6D61696E5F74780000000010
:102B40005C0B0020554954445F6D61696E5F72787B
:102B500000000000B80B00208C1600201BF0A1FE26
:102B600000287FF47AAFB078FE4FF8B1B08ECDE98F
:102B700000050122F31C1146206802F077FB1EE0DD
:102B800096F89000C0070DD0F7A01DF018FB96F83E
:102B9000910038B196F86E0020B1F3A039F081F8B9
:102BA00039F0D6F8052020F024F8FBE7B08ECDE907
:102BB00000053B4600220121206802F057FB002857
:102BC00016DA96F89000B046C00718D0EDA01DF0B8
:102BD000F6FA98F8910090B198F86E0078B1E9A0F3
:102BE00039F05FF839F0B4F809E0052020F001F879
:102BF000206890F8D0090028F7D086F8898096F8E8
:102C00007000012801D0022862D10A201FF0F1FFD4
:102C1000FBE790F8D019A1BB0421E04806F03FFF84
:102C2000B07848B1B08ECDE900050122F31C114601
:102C3000206802F01BFB08E0B08ECDE900053B46A2
:102C400000220121206802F011FB00281DDA96F80D
:102C50009000C0070DD0D2A01DF0B1FA96F89100F7
:102C600038B196F86E0020B1CDA039F01AF839F0DD
:102C70006FF840F6B8301FF0BCFF206880F8D059DC
:102C800026E008E005201FF0B4FF206890F8D00986
:102C90000028F7D00CE030B190F8D019012902D10A
:102CA0000178022918D006F020FA206805F0EAFE23
:102CB000C248007848B10521B84806F0F0FE4FF44C
:102CC000FA701FF096FF01F0F5FD01201FF091FF53
:102CD00020680028DFD09CE70321B04806F0DFFE23
:102CE0002168022081F8D009E2E788B09D4E233E9A
:102CF00002E002201FF07DFF96F888000028F8D03F
:102D0000AFF2E9300025CDE9065004950595AFF204
:102D10004340AFF2B141CDE90015AFF2F543AFF258
:102D20008532AFF2B551CDE90205AFF2874002F02E
:102D3000B7F9A34C606090B996F890003746C00789
:102D40000DD0A0A01DF03BFA97F8910038B197F88C
:102D50006E0020B19BA038F0A4FF38F0F9FF606846
:102D600042F6082196F86C200A5403229C4902F08E
:102D700082F9012086F8D8000A201FF03AFF96F861
:102D8000890018B996F88B000028F5D0DFF8D481B7
:102D900096F83800A8F1230808F1390708F1590816
:102DA00050B1B6F86A00CDE9000501223B46114654
:102DB000606802F05BFA09E0B6F86A00CDE9000548
:102DC000434600220121606802F050FA002816DA1A
:102DD00096F89000B146C00716D06AA01DF0EFF932
:102DE00099F8910080B199F86E0068B165A038F04B
:102DF00058FF38F0ADFF07E005201FF0FAFE6068CD
:102E000090F8D0090028F7D096F87000012801D07A
:102E1000022852D10A201FF0ECFEFBE790F8D019EF
:102E200000293AD196F8381049B1B6F86A10CDE9C0
:102E3000001501223B46114602F018FA08E0B6F8E8
:102E40006A10CDE9001543460022012102F00EFA76
:102E500000281CDA96F8900040070DD561A01DF0FF
:102E6000AEF996F8910038B196F86E0020B15DA0E9
:102E700038F017FF38F06CFF40F6B8301FF0B9FE9D
:102E8000606880F8D05918E005201FF0B2FE606835
:102E900090F8D0090028F7D00CE030B190F8D019A4
:102EA000012902D1017802290BD006F01EF96068D1
:102EB00005F0E8FD01201FF09CFE60680028ECD0C2
:102EC000ACE70321354806F0EAFD6168022081F88D
:102ED000D009EFE7234C233C02E005201FF089FED8
:102EE00094F8D6000028F8D0354C206806F042FD52
:102EF000606806F03FFD01201FF07BFEF5E73048DB
:102F0000006806F0CAB810B5164C233C94F890003F
:102F100040070DD53DA01DF052F994F8910038B14D
:102F200094F86E0020B139A038F0BBFE38F010FFE5
:102F3000002010BD10B50B4C233C94F890004007C6
:102F40000DD538A01DF03BF994F8910038B194F8F4
:102F50006E0020B133A038F0A4FE38F0F9FE002056
:102F600010BD0000BB030020554954445F535A4A2A
:102F70005320696E6974206661696C656420210A5A
:102F8000000000005549544420636F6E6E65637401
:102F9000206661696C656420210A0000780C0020BD
:102FA000554954445F535A4A5320636F6E6E6563AC
:102FB00074206661696C656420210A0002050020A6
:102FC00004000020554954445F58465A4420696E15
:102FD0006974206661696C656420210A0000000044
:102FE000B80B0020554954445F58465A4420636F3B
:102FF0006E6E656374206661696C65642021207261
:1030000065747279202E2E2E0A00000046696C65C8
:1030100020646F776E6C6F61642073756363657392
:10302000732E0A0046696C6520646F776E6C6F6161
:1030300064206661696C65642E0A000008B5AFF211
:103040000B11AFF23D130246FC48009142F284712D
:103050000068014405F0DEFF08BD3EB5044601A846
:1030600002F0EFFB01A9F548009101222346114629
:10307000006803F00CFB3EBD0146F048006803F019
:103080009EB92DE9FF47ED4CED4D0526216804273B
:1030900095F890004FF003094FF0020800297DD009
:1030A00040070DD5E7A01DF08AF895F8910038B1DA
:1030B00095F86E0020B1E3A038F0F3FD38F048FE3B
:1030C00095F8900040071DD5CDE90269CDE900874C
:1030D0002068012300220178E1481DF070F895F87E
:1030E000910078B195F86E0060B1CDE90269CDE943
:1030F00000872068012300220178D94838F0D1FDEB
:1031000038F026FE95F89000400713D5206890F817
:10311000051AD4A01DF053F895F8910050B195F818
:103120006E0038B1206890F8051ACEA038F0B9FDCD
:1031300038F00EFE95F8900040071DD5206800F687
:103140002620C1780091837842780178CAA01DF0CA
:1031500036F895F8910078B195F86E0060B1206866
:1031600000F62620C1780091837842780178C2A0C9
:1031700038F097FD38F0ECFD95F89000400715D534
:103180002168C2A001F606211DF019F895F89100FA
:1031900060B195F86E0048B1216800E039E101F6B0
:1031A0000621BAA038F07DFD38F0D2FD95F89000E8
:1031B000400713D52068B0F82A1AB9A01CF0FFFF09
:1031C00095F8910050B195F86E0038B12068B0F8CC
:1031D0002A1AB3A038F065FD38F0BAFD95F89000D2
:1031E00040071DD5206800F62E20C1780091837815
:1031F00042780178ADA01CF0E2FF95F8910078B11B
:1032000095F86E0060B1206800F62E20C17800911C
:10321000837842780178A5A038F043FD38F098FD16
:1032200095F89000400713D52068B0F8321AA5A091
:103230001CF0C5FF95F8910050B195F86E0038B1BB
:103240002068B0F8321A9FA038F02BFD38F080FDCE
:10325000606800287ED095F8900040070DD59DA0AD
:103260001CF0ADFF95F8910038B195F86E0020B1D3
:1032700098A038F016FD38F06BFD95F890004007E7
:103280001DD5CDE90269CDE90087606801230022E0
:10329000017873481CF093FF95F8910078B195F888
:1032A0006E0060B1CDE90269CDE900876068012355
:1032B000002201786A4838F0F4FC38F049FD95F8AE
:1032C0009000400713D5606890F8051A65A01CF0BF
:1032D00076FF95F8910050B195F86E0038B16068AE
:1032E00090F8051A5FA038F0DCFC38F031FD95F855
:1032F000900040071DD5606800F62620C178009137
:103300008378427801785CA01CF059FF95F8910011
:1033100078B195F86E0060B1606800F62620C1783B
:10332000009183784278017853A038F0BAFC38F0E5
:103330000FFD95F89000400715D5616853A001F680
:1033400006211CF03CFF95F8910060B195F86E00E5
:1033500048B100E0DAE061684CA001F6062138F0DF
:10336000A0FC38F0F5FC95F89000400713D5606894
:10337000B0F82A1A4AA01CF022FF95F8910050B12B
:1033800095F86E0038B16068B0F82A1A44A038F099
:1033900088FC38F0DDFC95F8900040071DD560688A
:1033A00000F62E20C17800918378427801783FA002
:1033B0001CF005FF95F8910078B195F86E0060B1AA
:1033C000606800F62E20C1780091837842780178F9
:1033D00036A038F066FC38F0BBFC95F8900040074A
:1033E00013D56068B0F8321A36A01CF0E8FE95F8E4
:1033F000910050B195F86E0038B16068B0F8321A9B
:1034000030A038F04EFC38F0A3FC04B00020BDE83A
:10341000F08740077FF51CAF35A01CF0D0FE95F873
:10342000910000283FF414AF95F86E000028F9D001
:103430002FA038F036FC38F08BFC09E704000020A0
:10344000980300200A205549544420535A4A5320D7
:1034500073657276657220696E666F3A200A0000A5
:10346000C45C040869665F7573655F6E616D653A7B
:103470002025640A0000000049503A2025642E25CA
:10348000642E25642E25640A0000000073657276A0
:1034900065725F6E616D653A2025730A0000000059
:1034A000706F72743A2025640A0000006C6F6361CB
:1034B0006C5F49503A2025642E25642E25642E2504
:1034C000640A00006C6F63616C5F706F72743A2005
:1034D00025640A000A20554954442058465A44207D
:1034E00073657276657220696E666F3A200A000015
:1034F0000A205549544420535A4A53206973206E78
:103500006F742075736564200A00000095F89000C0
:1035100040077FF57AAF09A01CF051FE95F89100A5
:1035200000283FF472AF95F86E000028F9D003A090
:1035300038F0B7FB38F00CFC67E700000A2055496B
:1035400054442058465A44206973206E6F74207585
:10355000736564200A0000002DE9F04786B00D462F
:1035600004464FF0FF394E466978DFF8108400F6C4
:10357000262A002928D005F10E002DF05BF848B16D
:1035800000690422016850461CF073FBE88DA4F822
:103590002A0A19E098F89000C0070DD0F8A01CF096
:1035A0000EFE98F8910038B198F86E0020B1F4A0A2
:1035B00038F077FB38F0CCFB0422A91C50461CF0F5
:1035C00058FBE88DA4F82A0AD4F8007A57B1B4F869
:1035D0002A0A0090F648B4F8322A53460168204679
:1035E000091DB847287800BB0221002208462DF0AB
:1035F00034FF064630001CD4002002900390049053
:10360000059002208DF80900B4F82C0A2FF088FAF2
:10361000ADF80A0000202FF089FA0390102202A9C9
:1036200030462DF092FBC4F8D469304606B0BDE8B0
:10363000F08798F89000C0070DD0DEA01CF0BFFD09
:1036400098F8910038B198F86E0020B1D9A038F000
:1036500028FB38F07DFB4846E8E710B5002801DB81
:103660002DF02BFC002010BDF0B587B004460D46B0
:1036700016461F46002003900490059006900220F5
:103680008DF80D00B4F82A0A2FF04AFAADF80E00B2
:10369000D4F8260A04904FF4FA71CC481BF04AFA89
:1036A000102003A9CDE9001000233A4631462846F0
:1036B0002DF018FE0446C5481BF01EFB07B020463F
:1036C000F0BD2DE9FF4F93B023AF209E97E8800710
:1036D0008B4615461C46342106A838F031FFBBF155
:1036E000000F01D0002000E002208DF818008DF8B6
:1036F00019509DB121460DF1260038F082FFADF83A
:10370000466027988DE880070490DDE9212306A90B
:103710001398FFF721FF17B0BDE8F08F20788DF8E0
:103720001A0060788DF81B00A0788DF81C00E078F6
:103730008DF81D00ADF81E60E3E770B505688F4C8D
:1037400094F8900040070FD52946A1A01CF037FD42
:1037500094F8910040B194F86E0028B129469CA0DD
:1037600038F09FFA38F0F4FAA3480068C0F8D4594A
:10377000012180F8D019FEF775FF94F890004007FA
:103780000DD59EA01CF01BFD94F8910038B194F863
:103790006E0020B199A038F084FA38F0D9FA0020F0
:1037A00070BD2DE9F04107460E463C46734D95F835
:1037B000900040070FD5314696A01CF000FD95F80B
:1037C000910040B195F86E0028B1314691A038F0D3
:1037D00068FA38F0BDFA3046FFF73FFFD4F8E43915
:1037E0001BB132460021384698470020BDE8F081E1
:1037F00070B50446164694F8D009002814D05F4DE1
:1038000095F89000C0070FD0314689A01CF0D7FC76
:1038100095F8910040B195F86E0028B1314684A02A
:1038200038F03FFA38F094FA002084F8D00970BDDF
:1038300070B516460446B2B204F6482026F0B7FD2D
:103840000546B5421AD04D4E96F89000C00713D0E9
:103850002A467FA0D4F8D4191CF0B1FC96F8910048
:1038600050B196F86E0038B12A4679A0D4F8D41930
:1038700038F017FA38F06CFA6FF0060070BD3EB5FC
:10388000044604F62E240878207048786070887802
:10389000A070C878E070A280A4F62E24374D95F869
:1038A0009000400726D594F8310A94F8301ACDE9F3
:1038B0000102009194F82F3A94F82E2A6CA0D4F8C3
:1038C000D4191CF07CFC95F8910098B195F86E0025
:1038D00080B104F61224E07F218CA27FCDE9002084
:1038E0000291637F227F54F83E1C61A038F0D9F921
:1038F00038F02EFA00203EBD70B505681F4C94F8D4
:10390000900040070FD5294665A01CF058FC94F89C
:10391000910040B194F86E0028B1294660A038F0BB
:10392000C0F938F015FA34484068C0F8D45901217C
:1039300080F8D019FEF7C5FE94F8900040070DD529
:1039400061A01CF03CFC94F8910038B194F86E0032
:1039500020B15DA038F0A5F938F0FAF9002070BD6B
:103960008AB000270997DFF8148002E002201FF0D8
:1039700040F998F86E000028F8D0B4E098030020D1
:1039800047657420686F7374206279206E616D657D
:10399000206661696C656420210A20557365207476
:1039A000686520495020616464726573730A000081
:1039B000540A0020437265617420736F636B6574F1
:1039C000206661696C656420210A0000880B002074
:1039D000554954445F6574685F535A4A5320636F76
:1039E0006E6E6563746564202C20736F636B657401
:1039F000203A2025640A0000200000206574685FDA
:103A0000535A4A5320636F6E6E6563746564212058
:103A10000A000000554954445F65746820256420FD
:103A2000646973636F6E6E6563742E200A00000014
:103A3000554954445F657468202564206469736344
:103A40006F6E6E656374656420212121200A000079
:103A500072696E6762756620256420777269746585
:103A6000206572726F72203A2025642000000000E9
:103A7000554954445F65746820736F636B657420A7
:103A8000256420495020706F7274203A2025642EDE
:103A900025642E25642E25643A2564200A00000042
:103AA000554954445F6574685F58465A4420636FB3
:103AB0006E6E6563746564202C20736F636B657430
:103AC000203A2025640A00006574685F58465A440D
:103AD00020636F6E6E656374656421200A000000C8
:103AE00002201FF086F898F86F000028F8D0FE4DED
:103AF00002E001201FF07DF8286890F82D00C00634
:103B0000F7D540F2DC501CF03EFDF84CA060E0B36D
:103B1000AFF29520CDE9067004970597AFF2EF203C
:103B2000AFF23331CDE90017AFF28933AFF2F5329E
:103B3000AFF27141CDE90207AFF2D34001F0B0FA24
:103B40002060E0B342F6082198F836200A544EF679
:103B50008701A0F8321A0122E54901F08CFA01260A
:103B600088F8D660286890F82D00C0077ED098F8B5
:103B70000200DFF8809300283BD02068B8F83410AA
:103B800008F10303B0F8322A00E007E0CDE90012A3
:103B90000122114601F06AFB099037E098F8900085
:103BA000C0070FD0D4A01CF00AFB98F8910048B1D0
:103BB00098F86E0030B1D0A038F073F800E002E061
:103BC00038F0C6F8FEE798F89000C0070DD0D1A0F5
:103BD0001CF0F5FA98F8910038B198F86E0020B111
:103BE000CCA038F05EF838F0B3F805201FF001F8EB
:103BF000FBE72068B8F834204B46B0F8321ACDE91C
:103C000000210022012101F031FB099009980028D0
:103C100016DA98F89000C246C0070DD0C5A01CF077
:103C2000CEFA9AF8910038B19AF86E0020B1C1A08E
:103C300038F037F838F08CF864201EF0DAFF10E026
:103C40002068D0F8DC1909A8884798F87000012886
:103C500010D002280ED00321BC4805F020FF88F8C0
:103C60008B6098F8700001280DD000E007E0022872
:103C700009D083E00721B54805F011FFEFE70120E7
:103C80001EF0B7FF6EE788F876600A201EF0B1FFDD
:103C9000FBE790F8D01989BB0421AC4805F0FFFE82
:103CA000286890F82D00C10758D0C00656D598F85E
:103CB000020070B12068B8F8342008F10303B0F8AE
:103CC000321ACDE900210122114601F0CFFA099004
:103CD0000CE02068B8F834204B46B0F8321ACDE931
:103CE00000210022012101F0C1FA09900998002861
:103CF0001ADA98F89000C0070FD000E021E094A0F5
:103D00001CF05DFA98F8910038B198F86E0020B177
:103D10008FA037F0C6FF38F01BF864201EF069FF53
:103D2000206880F8D07929E0206880F8D06902E026
:103D300005201EF05EFF206890F8D0090028F7D01B
:103D40000CE030B190F8D019012902D10178022994
:103D500018D005F0CAF9206804F094FE8348007872
:103D600048B10521794805F09AFE4FF4FA701EF02B
:103D700040FF00F09FFD01201EF03BFF206800285F
:103D8000DFD086E70321714805F089FE2168022013
:103D900081F8D009E2E788B00024049405940694E1
:103DA00007940394534D233D02E001201EF021FFB0
:103DB00095F88B000028F8D0049405940694079495
:103DC00002208DF81100494C2068B0F82C0A2EF022
:103DD000A7FEADF812002068D0F8260A0590102042
:103DE00003902068D0B190F8D019B9B1D0F8D409B7
:103DF000002813DB03A904AACDE90021082340F21F
:103E0000DB52A1682DF005F92061002806DD23684A
:103E100002461846D3F8EC59A168A84701201EF0C5
:103E2000E8FEDEE78AB000270997324C233C02E027
:103E300002201EF0DEFE94F86E000028F8D002E0AA
:103E400002201EF0D6FE94F86F000028F8D0264E0F
:103E500002E001201EF0CDFE306890F82D00C00673
:103E6000F7D540F2DC501CF08EFB204DE860C8B363
:103E7000AFF2F550CDE9067004970597AFF24F60A9
:103E8000AFF29361CDE90017AFF2E963AFF2975259
:103E9000AFF2D171CDE90207AFF6330001F000F9BE
:103EA000686000281FD042F6082194F86C200A545C
:103EB0004EF68801A0F8321A01220D4901F0DBF814
:103EC0004FF0010884F8D880306890F82D00C007C2
:103ED00075D0DFF820A094F83800AAF1230A0AF17F
:103EE000390945E056E06BE0540A0020200000202C
:103EF000B80B0020BB0300204D616C6C6F63206524
:103F0000746820627566206661696C656420210AA8
:103F100000000000554954445F6574685F535A4A75
:103F20005320696E6974206661696C656420210A9A
:103F3000000000005549544420636F6E6E65637441
:103F4000206661696C656420210A0000780C0020FD
:103F5000554954445F535A4A5320636F6E6E6563EC
:103F600074206661696C656420210A0002050020E6
:103F70000AF1590A002839D06868B4F86A104B462B
:103F8000B0F8322ACDE900120122114601F06EF993
:103F9000099038E094F89000C0070FD0AFF2A80065
:103FA0001CF00DF994F8910040B194F86E0028B11E
:103FB000AFF2BC0037F075FE37F0CAFEFEE74AE00C
:103FC00094F89000C0070DD0FDA01CF0F8F894F80C
:103FD000910038B194F86E0020B1F9A037F061FE7D
:103FE00037F0B6FE05201EF004FEFBE76868B4F863
:103FF0006A205346B0F8321ACDE90021002201218F
:1040000001F034F909900998002818DA94F8900022
:10401000A346C0070FD0AFF2E4001CF0D0F89BF825
:10402000910040B19BF86E0028B1AFF2F80037F074
:1040300038FE37F08DFE64201EF0DBFD04E068687A
:10404000D0F8DC1909A8884794F87000012806D038
:10405000022804D075E001201EF0CBFD34E70A20D1
:104060001EF0C7FDFBE790F8D019E1BB316891F86D
:104070002D10CA0755D0C90653D594F8381061B130
:10408000B0F8321AB4F86A20CDE9002101224B467B
:10409000114601F0EBF809900BE0B0F8321AB4F8D1
:1040A0006A20CDE9002153460022012101F0DEF80B
:1040B0000990099800281ADA94F89000C0070DD0EA
:1040C000C7A01CF07CF894F8910038B194F86E0009
:1040D00020B1C3A037F0E5FD37F03AFE64201EF0B2
:1040E00088FD686800E00FE080F8D07929E0686812
:1040F00080F8D08902E005201EF07BFD686890F80A
:10410000D0090028F7D00CE030B190F8D01901297F
:1041100002D10178022918D004F0E7FF686804F0A2
:10412000B1FCB648007848B10521B54805F0B7FCA8
:104130004FF4FA701EF05DFD00F0BCFB01201EF094
:1041400058FD68680028DFD08DE7022180F8D0197B
:10415000E7E788B000240494059406940794039438
:10416000A84D02E001201EF044FD95F88B000028C8
:10417000F8D0049405940694079402208DF8110059
:10418000A14C6068B0F82C0A2EF0CAFCADF8120001
:104190006068D0F8260A0590102003906068D0B1BE
:1041A00090F8D019B9B1D0F8D409002813DB03A9CD
:1041B00004AACDE90021082340F2DB52E1682CF08B
:1041C00028FF6061002806DD636802461846D3F8C0
:1041D000EC59E168A84701201EF00BFDDEE7002244
:1041E0008AA18D481AF01CFC864C02E005201EF0C6
:1041F00000FD94F8D6000028F8D0834C206805F024
:10420000B9FB606805F0B6FB01201EF0F2FCF5E793
:104210002DE9FF477C4C7B4D05262168042795F846
:1042200090004FF003094FF0020800297DD04007AD
:104230000DD57A481BF0C3FF95F8910038B195F879
:104240006E0020B1754837F02CFD37F081FD95F8F0
:10425000900040071DD5CDE90269CDE900872068AF
:104260000123002201786E481BF0A9FF95F8910008
:1042700078B195F86E0060B1CDE90269CDE90087AB
:104280002068012300220178654837F00AFD37F0E5
:104290005FFD95F89000400713D5206890F8051A47
:1042A00060A01BF08CFF95F8910050B195F86E005E
:1042B00038B1206890F8051A5AA037F0F2FC37F0B0
:1042C00047FD95F8900040071DD5206800F6262090
:1042D000C178009183784278017857A01BF06FFF76
:1042E00095F8910078B195F86E0060B1206800F6FD
:1042F0002620C17800918378427801784EA037F06B
:10430000D0FC37F025FD95F89000400715D52168C1
:104310004EA001F606211BF052FF95F8910060B106
:1043200095F86E0048B1216800E0D7E101F606215A
:1043300046A037F0B6FC37F00BFD95F8900040072B
:1043400013D52068B0F82A1A45A01BF038FF95F85D
:10435000910050B195F86E0038B12068B0F82A1A73
:104360003FA037F09EFC37F0F3FC95F89000400733
:104370001DD5206800F62E20C17800918378427800
:1043800001783AA01BF01BFF95F8910078B195F8E1
:104390006E0060B1206800F62E20C178009183780D
:1043A0004278017831A037F07CFC37F0D1FC95F8E9
:1043B0009000400777D52068B0F8321A62E072E0CA
:1043C000554954445F6574685F58465A4420696E85
:1043D0006974206661696C656420210A0000000030
:1043E000554954445F58465A4420636F6E6E656366
:1043F00074206661696C656420210A000205002052
:10440000780C002098030020200000206574685F6D
:1044100073656E6400000000880B0020605D040876
:10442000C45C040869665F7573655F6E616D653AAB
:104430002025640A0000000049503A2025642E25FA
:10444000642E25642E25640A0000000073657276D0
:1044500065725F6E616D653A2025730A0000000089
:10446000706F72743A2025640A0000006C6F6361FB
:104470006C5F49503A2025642E25642E25642E2534
:10448000640A0000AAA01BF09AFE95F8910050B1B2
:1044900095F86E0038B12068B0F8321AA4A037F051
:1044A00000FC37F055FC95F89000400713D52068C4
:1044B000B0F82C1AA2A01BF082FE95F8910050B122
:1044C00095F86E0038B12068B0F82C1A9CA037F02F
:1044D000E8FB37F03DFC606800287DD095F890003F
:1044E00040070DD59B481BF06AFE95F8910038B146
:1044F00095F86E0020B1974837F0D3FB37F028FCD1
:1045000095F8900040071DD5CDE90269CDE90087F7
:1045100060680123002201788F481BF050FE95F857
:10452000910078B195F86E0060B1CDE90269CDE9EE
:1045300000876068012300220178874837F0B1FBCB
:1045400037F006FC95F89000400715D5606890F8A4
:10455000051AAFF230101BF032FE95F8910058B1F9
:1045600095F86E0040B1606890F8051AAFF24C10F3
:1045700037F097FB37F0ECFB95F8900040071FD51C
:10458000606800F62620C17800918378427801782F
:10459000AFF25C101BF013FE95F8910080B195F816
:1045A0006E0068B1606800F62620C17800918378BB
:1045B00042780178AFF2801037F073FB37F0C8FB18
:1045C00095F89000400717D5616801F60621AFF213
:1045D00084101BF0F4FD00E095E095F8910058B1CF
:1045E00095F86E0040B1616801F60621AFF2A410A3
:1045F00037F057FB37F0ACFB95F89000400715D526
:104600006068B0F82A1AAFF2A8101BF0D8FD95F830
:10461000910058B195F86E0040B16068B0F82A1A60
:10462000AFF2C41037F03DFB37F092FB95F89000E5
:1046300040071FD5606800F62E20C178009183786E
:1046400042780178AFF2DC101BF0B9FD95F89100CB
:1046500080B195F86E0068B1606800F62E20C178D0
:104660000091837842780178AFF2002037F019FB8F
:1046700037F06EFB95F89000400713D56068B0F8EE
:10468000321A2BA01BF09BFD95F8910050B195F8C4
:104690006E0038B16068B0F8321A25A037F001FB1F
:1046A00037F056FB95F89000400713D56068B0F8D6
:1046B0002C1A23A01BF083FD95F8910050B195F8BA
:1046C0006E0038B16068B0F82C1A1DA037F0E9FA16
:1046D00037F03EFB04B00020BDE8F08740077FF5CF
:1046E000FAAE1EA01BF06BFD95F8910000283FF478
:1046F000F2AE95F86E000028F9D018A037F0D1FA84
:1047000037F026FBE7E695F890004007E2D51BA0BE
:104710001BF055FD95F891000028DBD095F86E0050
:104720000028D7D015A037F0BCFA37F011FBD1E73D
:104730006C6F63616C5F706F72743A2025640A005D
:104740006C697374656E5F706F72743A2025640AC9
:10475000000000001C5D0408C45C04080A205549E0
:1047600054442065746820535A4A53206973206E5C
:104770006F742075736564200A0000000A20554993
:104780005444206574682058465A44206973206E4A
:104790006F742075736564200A00000005460C469E
:1047A00016A01BF00CFD29461EA01BF008FD21469B
:1047B00021A01BF004FDFEE710B508F0F9FF1BF087
:1047C00022FD19F033FD1DF050FD1EF06CFC1F4959
:1047D0001F481BF090FE1DF019FFFDF7FCF91EF0BD
:1047E0006DFC19F05CFFBDE810401DF025BF10B551
:1047F0001EF05AFFFFF7E0FF002010BD0A0D205702
:10480000726F6E6720706172616D6574657220767B
:10481000616C7565206465746563746564206F6E92
:104820000D0A00002020202020202066696C6520D1
:104830002025730D0A000000202020202020206C5D
:10484000696E65202025640D0A000000000002202A
:10485000F068002070B50D46164600240146F1A010
:104860001BF0ADFC04E0295DEFA01BF0A8FC641C6C
:10487000B442F8D3BDE87040EDA01BF0A0BC0A46DE
:104880000146ECA01BF09BBC002101E04140400828
:104890000028FBD101F001007047012080F313884C
:1048A000F1480168F14A01F4E06111430160BFF38E
:1048B0004F8FFEE7FFF7F1FFFEE700B5002801D0BC
:1048C000FFF7F8FF00BD00B5002801D1FFF7F2FFA8
:1048D00000BD2DE9F04395B007460D4616469846B3
:1048E0000024B8F1000F05D0B8F1100F04D94FF033
:1048F000100801E04FF01008002239460DA81FF003
:10490000F5F8002806DA3946D9A01BF058FC15B096
:10491000BDE8F0834DB129460DA81FF0F1F9A8427A
:1049200003D0D7A01BF04BFC32E0E94622E0002583
:1049300009E019F80510DAA01BF041FC641C0EB167
:10494000B44225D26D1CBD42F3D3B9A01BF037FC95
:104950001EE0002509E019F80510D1A01BF02FFC7E
:10496000641C0EB1B44213D26D1CBD42F3D3B0A08F
:104970001BF025FC3322002168461BF057F9424604
:1049800069460DA81FF039F907464745E1D2CEE741
:104990000DA81FF00CF9BAE72DE9F04705460F46C0
:1049A00092461C460026284637F009FEB0F5807F67
:1049B00002DDF01EBDE8F08709222946BAA037F0D3
:1049C00013FE10B16FF00100F4E71CB1102C02D9F6
:1049D000102400E01024BAFBF4F915E006FB047182
:1049E000B4A01BF0ECFB002506FB04F806E07819E8
:1049F00018F800108CA01BF0E2FB6D1CA542F6D34A
:104A00008BA01BF0DCFB761C4E45E7DBBAFBF4F019
:104A100004FB10A090B106FB0471A6A01BF0CFFB15
:104A20000025664305E07819315C7FA01BF0C7FBC9
:104A30006D1CA542F7D37EA01BF0C1FB0020B9E797
:104A40001FB50446002902D020461FF06EFA00224E
:104A50004FF4817120461FF053FF0446002C08DA02
:104A60001BF0B8F8014696A01BF0A9FB204604B045
:104A700010BD6946204620F03FF8029818B197A073
:104A800002991BF09CFB20461FF068FF0020EEE718
:104A900070B50E46002242F201011FF031FF0446BC
:104AA000002C06DA214694A01BF089FB4FF0FF3062
:104AB00070BD304637F083FD05462A463146204614
:104AC0001FF091FF0146A94208D091A01BF077FB8F
:104AD00020461FF043FF6FF0010070BD20461FF01D
:104AE0003DFF002070BD012192A0FFF7A9FF6420C7
:104AF0001EF07FF8FFF7DEFE10B5642148431EF07C
:104B000078F8002010BD10B537F0FDF9BDE8104071
:104B10008C481FF00ABA70B504468A4D923D95F84C
:104B20009010CB0703D0224687A01BF048FB85F8E6
:104B3000904070BD0EB50028FFD169461FF07AFE87
:104B400030B18CA01BF03BFB0020014603B000BD40
:104B50000299009848430021F8E71FB50C46002849
:104B600008D069461FF0E5F838B187A01BF027FB95
:104B700000207CE74FF0FF3079E7029820600020AA
:104B800075E7F0B5ADF5017D06460F460024002E11
:104B900018D000224FF4004130461FF0B1FE054608
:104BA000280012D56748923890F89000C00704D0CA
:104BB0002A4631467AA01BF002FB6FF001000DF58A
:104BC000017DF0BD4FF0FF30F9E74FF4007632463B
:104BD00001A928461FF0E2FE0246B24205D101A912
:104BE000204618F041FC84B2F1E701A9204618F0F4
:104BF0003BFC388028461FF0B1FE0020DFE710B5EF
:104C00006EA137F0E3FC10B14FF0FF3010BD6D49DD
:104C100001200870002010BD37F0D1BC37F068BE0D
:104C200037F0A5BC25733A0020253032580000002B
:104C30000A00000044454255473A2057726F6E679C
:104C400020706172616D65746572732076616C7538
:104C5000653A2066696C65202573206F6E206C694B
:104C60006E652025640D0A000CED00E00400FA05D5
:104C70004F70656E202573206661696C65640A005B
:104C8000537461727420706F736974696F6E2069F8
:104C900073206F766572666C6F7721200A000000C2
:104CA0002530325820000000535A4A53574C57576A
:104CB00047000000307825303858203A09000000BD
:104CC0004372656174652066696C65206661696C14
:104CD0006564203A202564200A00000046696C655E
:104CE000206973206578697374202C2073697A6554
:104CF000203A2025640A000046696C65206F7065C3
:104D00006E206661696C6564203A2025640A0000A3
:104D100046696C6520616464206572726F722C2034
:104D20007772697465642025642062797465730AFA
:104D3000000000002F66772F757067726164652E22
:104D4000666C67002A04002053797374656D206CCB
:104D50006F67206C6576656C203A200A206F6C6462
:104D60003A202564202C206E6577203A2025642087
:104D70000A0000006466735F737461746673206672
:104D800061696C65642E0A004765742066696C650C
:104D90002073746174206661696C65642E0A00007A
:104DA0004F70656E2066696C6520257320666169A9
:104DB0006C6564203A2025642E0A0000737A6A73B9
:104DC000000000004C00002070B50D46164600247F
:104DD0000146F9A01BF0F3F904E0295DF7A01BF0F0
:104DE000EEF9641CB442F8D3BDE87040F5A01BF0A6
:104DF000E6B970B51546F44C94F8900040070FD50D
:104E00002946F2A01BF0DBF994F8910040B194F828
:104E10006E0028B12946EDA036F043FF36F098FF2A
:104E2000002070BD70B50D46E74C94F89000400727
:104E30000FD52946F0A01BF0C2F994F8910040B1BB
:104E400094F86E0028B12946EBA036F02AFF36F020
:104E50007FFF002070BD704740F2444200211AF0ED
:104E6000E5BE10B504460022114620461FF048FD5D
:104E7000002809DB1FF072FD2046BDE8104000222B
:104E800041F201011FF03CBD2046BDE81040002268
:104E900040F201111FF034BD1FF060BD70B5054632
:104EA0000C460422002120461AF0C0FEAD1E0B2D38
:104EB00024D2DFE805F0060B102323232315231A41
:104EC0001F00207840F00100207017E0207840F0AB
:104ED0000200207012E0207840F0040020700DE005
:104EE000207840F00800207008E0207840F01000A2
:104EF000207003E0207840F020002070002070BD7A
:104F00002DE9F0470446002500276760A760E760A9
:104F10002068002807D1207C4FF4717148431BF0B2
:104F200032FB206030B14FF00C0840F2B63A4FF03F
:104F300004092AE0A44C94F89000C0070DD0B8A052
:104F40001BF03DF994F8910038B194F86E0020B14F
:104F5000B3A036F0A6FE36F0FBFE4FF0FF30BDE802
:104F6000F087C5EB0511C1EB0526206808EB86012B
:104F70000844524600211AF059FE206800F82670B5
:104F8000206809EB860147506D1C207CA842E8DCB4
:104F90000020E4E72DE9F0410F46054611460024C4
:104FA00040F2B630834202D9A01EBDE8F081287CD1
:104FB00008E0C4EB04162A68C6EB042612F8262083
:104FC0002AB1641CA042F4DC4FF0FF30EDE7C4EBE3
:104FD0000412C2EB04260422286802EB86028750E2
:104FE0000822286802EB860283500C22286802EB14
:104FF000860210441A461AF03CFE2968012001F886
:1050000026002046D1E72DE9F0410F46054611461E
:10501000002440F2B630834201D9A01EC5E7287CA7
:1050200008E0C4EB04162A68C6EB042612F8262012
:105030002AB1641CA042F4DC4FF0FF30B5E7C4EBAA
:105040000412C2EB04260422286802EB8602875071
:105050000822286802EB860283500C22286802EBA3
:10506000860210441A461AF004FE2968012001F84D
:105070002600204699E710B50A7400220A6000F560
:10508000005393F8080A002803D0C3F88027501E65
:1050900010BDC3F880170846FFF732FF002010BD8F
:1050A0002DE9F05F0646DDE90AAB0F4690469946CA
:1050B00042F60C2528461BF066FA044620005CD018
:1050C0002A4600211AF0B2FD4FF4046204F654217E
:1050D00004F6482025F047F9002584F8D059681EC9
:1050E000C4F8D409C4F8A865C4F8D879C4F8DC8930
:1050F000C4F8E099C4F8E4A9C4F8E8B90C98C4F875
:10510000EC090D98C4F8F0090E98C4F8F4090F984A
:10511000C4F8F8091098C4F8FC091198C4F8000AFA
:10512000A4F8425A0622454904F635201AF0A1FD9A
:105130000622002104F63B201AF078FD84F8345A48
:10514000012084F8440A142084F8450AAFF2ED21C6
:1051500004F5005000F6B800016039494160AFF233
:10516000C7218160184842F6CC01214490F8D20052
:10517000FFF794FE2046BDE8F09F0020FBE710B546
:105180001BF0C6FA002010BDFEB500F6E41080F852
:105190002010A0F8482005698468C369CDE900455E
:1051A0000293D0E9057614460D460368324621463F
:1051B0002846B847FEBD000025733A00202530324E
:1051C000580000000A0000009803002043422061BC
:1051D000636B206465616C202D2D20736F6D6B6592
:1051E00020616C61726D2C2069665F616666697210
:1051F0006D203A2025640A0043422073656E6420C6
:105200006661696C202D2D20736F6D6B6520616C5C
:1052100061726D2C206E6F6465203A2025640A004F
:1052200046696C65207472616E73206D616C6C6F81
:1052300063206661696C6564210A000065000020D6
:10524000E74902080021002201EBC10300EBC30380
:105250001A72491C1429F7DB0020704700B50021A1
:1052600001704160FFF7EEFF002000BD2DE9F04323
:1052700089B00446DDE910590F4616469846204687
:10528000FFF7ECFF84F8047A84F8056AA4F82C9AF6
:10529000002E1CD0404637F092F9202840D3FE4C17
:1052A00094F89000C0070DD0FCA01AF088FF94F885
:1052B000910038B194F86E0020B1F8A036F0F1FCFE
:1052C00036F046FD4FF0FF3009B0BDE8F08304F63C
:1052D0002921481E821ECDE90001431E1646FAA16F
:1052E000404637F0D3F904F6D814A4F85250D4E964
:1052F0000631A26A6069CDE9053107920490D4E9CC
:1053000003026168CDE90210CDE90052256894F8E6
:105310002D2094F82C10A4F6D8103346A847D3E7D4
:1053200004F606204146064637F06BF904F6D81419
:10533000A4F85250D4E90523A06AE169CDE906102A
:10534000CDE90423D4E903026168CDE90210CDE977
:105350000052256894F82D2094F82C10A4F6D8104B
:105360003346A847B0E7D0F8E029002A02D0D0F8A9
:10537000D419104770470021002201EBC10300EB54
:10538000C3031A72491C1429F7DB00207047014639
:10539000002000EBC00201EBC202127A002A04D006
:1053A000401C1428F5DB4FF0FF30704710B5034662
:1053B000002000EBC00203EBC202147A012C06D1DC
:1053C000148B8C4203D192F83A20012A04D0401C5D
:1053D0001428EEDB4FF0FF3010BD142902DB4FF034
:1053E000FF30704701EBC10100EBC10000220272E7
:1053F000002070472DE9F84F0C460026009600F675
:10540000482B4FF0010A4FF0230940F21A474FF0A2
:105410000208A51C6946584625F01FF9F8B16078C6
:1054200008B3012829D0022830D00328F2D19DF8F2
:10543000000023283DD004F64404206800F80590BD
:105440002068401C20609DF8001041552068401CD9
:105450002060A4F64404B84251D96670DAE74FF0F0
:10546000FF30BDE8F88F9DF800004028D2D184F8C5
:1054700001A0C4F844682670CCE79DF800004028DD
:1054800001D06670C6E784F80180C3E79DF800008C
:1054900023280BD0D4F844184855D4F84408401CAD
:1054A000C4F84408B842B5D96670B3E70320607009
:1054B000B0E7D4F844081A2801D26670AAE721465A
:1054C0000A8BA0F11A018A4214D000F80590D4F892
:1054D0004408401CC4F8440800F80590D4F8440877
:1054E000401CC4F84408B84201D9667092E784F8B9
:1054F00001808FE784F800A066700020B1E784F88F
:10550000018087E72DE9FE4F0D46DDF83090824699
:105510001146984600270026B8F11A0F02D2012042
:10552000BDE8FE8F40F21A40804501D90220F7E71E
:1055300042F264300AEB0004424620461AF099FB1E
:10554000E08AB0F5806F01D90320E9E71A304045C1
:1055500001D00420E4E71922214628461AF089FBED
:10556000E28A42F27D30824405F11908022A0AD308
:10557000514640461AF07DFB687E85F81A04A87EE5
:1055800085F81B0404E0002085F81A0485F81B0444
:10559000E98A11F80A2085F819242846C35D1E44BB
:1055A0007F1C192FFAD3002003E02B185B7E1E44CA
:1055B000401C8142F9DCF0B2824201D00520AFE705
:1055C000C5F82894344E96F8900000070FD521882E
:1055D00040A01AF0F4FD96F8910040B196F86E00E4
:1055E00028B121883BA036F05CFB36F0B1FB96F881
:1055F000900000070FD5A1783AA01AF0E0FD96F8C8
:10560000910040B196F86E0028B1A17835A036F02F
:1056100048FB36F09DFB96F8900000070FD5E17827
:1056200034A01AF0CCFD96F8910040B196F86E00C7
:1056300028B1E1782FA036F034FB36F089FB96F8DC
:105640009000000723D561792079A279CDE9002166
:105650000290617AE379227A01F5FA6129A01AF0C1
:10566000AEFD96F8910090B196F86E0078B1607931
:105670002179A279CDE900200291617AE379227A39
:1056800001F5FA611FA036F00CFB36F061FB96F8CD
:105690009000000766D545E09803002053657276B8
:1056A0006572206E616D6520697320746F6F206C68
:1056B0006F6E67202120636F6E6E65637420666174
:1056C000696C6564200A000025642E25642E25641B
:1056D0002E256400534E2020202020203A202564CF
:1056E000200A00005665725F6D61696E3A2025647C
:1056F000200A00005665725F757365723A20256452
:10570000200A000054696D655374616D703A20255C
:10571000642D25642D25642025643A25643A25648A
:10572000200A0000E17AA07A227BCDE900210290D4
:10573000637BA27BE17BF8A01AF041FD96F8910013
:1057400080B196F86E0068B1E17AA07A227BCDE94B
:1057500000210290637BA27BE17BEFA036F0A1FAEF
:1057600036F0F6FA96F8900000071FD5617C207C91
:10577000A27CCDE900210290E37C227D617DEEA038
:105780001AF01DFD96F8910080B196F86E0068B190
:10579000607C217CA27CCDE900200291E37C227D0B
:1057A000617DE5A036F07DFA36F0D2FA96F89000E9
:1057B00000070FD5217EE8A01AF001FD96F89100B0
:1057C00040B196F86E0028B1217EE3A036F069FA68
:1057D00036F0BEFA96F89000000713D595F8191424
:1057E000E0A00A461AF0EBFC96F8910050B196F84A
:1057F0006E0038B195F81914DAA00A4636F051FA5D
:1058000036F0A6FA96F8900000070FD5E18ADBA0E3
:105810001AF0D5FC96F8910040B196F86E0028B1C8
:10582000E18AD6A036F03DFA36F092FA96F890006A
:10583000000704D5EA8A4146D4A0FFF70BF8002000
:105840006EE638B50446684608F0DAFD684637F07B
:105850003DFA017D64396171017C491C2171017B34
:10586000E170017AA17001796170007820700020E8
:1058700038BD13B5044601A837F028FA017D643914
:105880006171017C491C2171017BE170017AA17079
:10589000017961700078207000201CBD10B58AB0BD
:1058A0000446002009902421684636F049FE6079BC
:1058B00000F5FA6005902079401E0490E07803908E
:1058C000A07802906078019020780090684636F0C9
:1058D000C3FD099009A808F0E9FD0AB0002010BD39
:1058E0002DE9F0410C4690460121A1701421E17090
:1058F0000188218000F10A0104F10A058E1DAF1D07
:10590000002B09D0062228461AF0B3F906223146A8
:1059100038461AF0AEF908E0062238461AF0A9F91E
:105920000622314628461AF0A4F9A4F81680201D54
:10593000FFF787FF0020BDE8F0812DE9F05F054605
:105940000E4690461C464FF000090027B8F1000FA4
:1059500007D0D8F80400801CB0F5806F01D9381F3B
:1059600009E42846FFF713FD82465FEA0A0002D5E4
:105970004FF0FF30F4E74FF0000B24B30AEBCA00FE
:10598000012105EBC00030304172317E017005F617
:105990004225288830802888401C2880A878B0704C
:1059A000E878A5F64225F070062205F6352106F1C5
:1059B0000A001AF05EF9062205F63B2106F11000F6
:1059C0001AF057F909E00AEBCA0005EBC00080F8AD
:1059D00039B096F82C1480F83010B8F1000F0CD0C4
:1059E0000AEBCA00D8F8042005EBC001921C18315C
:1059F00023463046FFF774FF09E00AEBCA0005EBC7
:105A0000C0011831234600223046FFF769FF0AEB38
:105A1000CA0005EBC00404F1180010F809100F4487
:105A200009F10109B9F1190FF7D3DFF86C9199F871
:105A3000900000070FD5394658A01AF0C0FB99F81E
:105A4000910040B199F86E0028B1394653A036F064
:105A500028F936F07DF9B8F1000F3FD0D8F80400EE
:105A6000801C1AF090FD6063E0B1012241461AF0FB
:105A700000F9606B0122401C08F101011AF0F9F8ED
:105A8000D8E90121606B801C1AF0F3F899F89000B6
:105A9000000704D5E28D47A0616BFEF7DBFE002016
:105AA000E18D18E099F89000C0070DD045A01AF0DC
:105AB00086FB99F8910038B199F86E0020B141A0A9
:105AC00036F0EFF836F044F96FF0010048E7626B0A
:105AD000125C1744401C8142F9DC01E0C4F834B088
