:020000040800F2
:10000000203D002045680008851D000811200108DA
:10001000871D00088B1D00088F1D000800000000D0
:10002000000000000000000000000000931D000818
:10003000951D0008000000009B1F01081B1C000804
:100040005F6800085F6800085F6800085F68000874
:100050005F6800085F6800085F6800085F68000864
:100060005F6800085F6800085F6800085F68000854
:100070005F6800085F6800085F6800085F68000844
:100080005F6800085F6800085F6800085F68000834
:100090005F6800085F6800085F6800085F68000824
:1000A0005F6800085F6800085F6800085F68000814
:1000B0005F6800085F6800085F6800085F68000804
:1000C0005F6800085F6800085F6800085F680008F4
:1000D0005F680008CD1F0008052000083D200008CB
:1000E0005F6800085F6800085F6800085F680008D4
:1000F0005F6800085F6800085F6800085F680008C4
:100100005F6800085F6800085F6800085F680008B3
:100110005F680008AD2000085F6800085F6800089D
:100120005F6800085F6800085F6800085F68000893
:100130005F6800085F6800085F6800085F68000883
:100140005F6800085F6800085F6800085F68000873
:100150005F6800085F6800085F6800085F68000863
:100160005F6800085F6800085F6800085F68000853
:100170005F6800085F6800085F6800085F68000843
:100180005F680008DFF80CD01FF0D8FF0048004778
:10019000D30F0008203D002070B504460D46F848F6
:1001A0000CF0D1FC70BD024670472DE9FC410026E1
:1001B0000020019000221146F2A013F0E7F8054656
:1001C000002D17DAF3A012F091FFF3A1F4A013F0C1
:1001D00076F800200346F2A2EEA10090EEA012F005
:1001E000BDFE50B1EFA00EF06CFA02E00A2011F053
:1001F000F4FAFBE7284613F0F8F8F7A013F09FFA9B
:100200000446002C21D10021F3A013F054FA002859
:100210001BD0E0A012F06AFFDFA1E1A013F04FF8BD
:1002200000200346DEA2DBA10090DBA012F096FEC8
:1002300038B1DCA00EF045FA02E00A2011F0CDFA48
:10024000FBE70021E4A013F036FA204613F04CFB44
:10025000E3A013F074FA0446002C21D10021E0A0A1
:1002600013F029FA00281BD0CAA012F03FFFCAA140
:10027000CBA013F024F800200346C9A2C5A100902A
:10028000C5A012F06BFE38B1C6A00EF01AFA02E05B
:100290000A2011F0A2FAFBE70021D1A013F00BFA1B
:1002A000204613F021FBCFA013F049FA04461CB9F5
:1002B0000021CCA013F0FFF9204613F015FBCBA0D2
:1002C00013F03DFA04461CB90021C8A013F0F3F95D
:1002D000204613F009FBC6A013F031FA04461CB9FE
:1002E0000021C3A013F0E7F9204613F0FDFA002225
:1002F0000221C2A013F04AF80546002D03DB284670
:1003000013F073F812E0002240F20111BBA013F0C9
:100310003DF80546BC481FF0A0F807463A46BA49E2
:10032000284613F0ACF8284613F05FF800224FF48B
:10033000004194A013F02AF80546002D30DB00227E
:100340001146284613F0C3F8012201A9284613F0EC
:100350006EF80646012E15D19DF804007B280DD0BD
:10036000284613F042F887A012F0C6FAA74985A0E4
:1003700008F027F8A6A00EF0A4F918E0284613F01C
:1003800034F814E0284613F030F87EA012F0B4FAE6
:100390009E497CA008F015F8ACA00EF092F906E09A
:1003A0009A4978A008F00DF8B7A00EF08AF9BDE8D8
:1003B000FC8138B504460CF00DF802F09BFB3220AE
:1003C00011F00BFA0020034675A272A1009072A0F2
:1003D00012F0C4FD18B9BCA00EF073F917E0C2A06A
:1003E0000EF06FF96CA16EA012F069FF00200346B9
:1003F0006BA268A1009068A012F0B0FD38B1CAA04D
:100400000EF05FF902E00A2011F0E7F9FBE7322075
:1004100011F0E3F9D1A1D3A004F0C5F80020034600
:100420005FA26FA10090CFA012F098FD18B9CEA0E6
:100430000EF047F902E0D5A00EF043F9FFF7B5FE44
:1004400008F04BF8012008F031FA06F02EFA06F019
:10045000BCFCD9A1DCA012F066FB0120DE490870CB
:1004600038BD73B586B004464FF0FF350026142220
:10047000DAA101A81EF0A5FF012101A800F0D5FE18
:100480000022022101A812F081FF0546002D05DAA5
:10049000D7A00EF016F9B01E08B070BD042207A94F
:1004A000284612F0ECFF284612F09FFF0023224658
:1004B000194601A809F09FFA06463046ECE7F0B568
:1004C000ADF50D7D06460D464FF0FF344FF400713B
:1004D0000DA81EF08FFF00200C900027CCA30FCB9F
:1004E000CDE90A23CDE90801CDA292E80B00D2683C
:1004F000CDE90632CDE90401CDA3D3E90020D3E94B
:100500000213CDE90213CDE90020B5F5007F06D92D
:10051000CBA00EF0D6F820460DF50D7DF0BD2A4695
:1005200031460DA80DF061FD012108A800F07DFE07
:10053000012104A800F079FE0121684600F075FE53
:100540000022022108A812F021FF0446002C05DA3F
:10055000C2A00EF0B6F86FF00100DDE704220DA98D
:10056000204612F08CFF204612F03FFF00220221AD
:1005700004A812F00BFF0446002C00DA7CE181E1B4
:10058000640500202F636F6E6669672F7379732E81
:10059000636667002F000000666C617368300000BE
:1005A000656C6D00466C6173682046696C6520530C
:1005B000797374656D20696E697469616C7A6174B0
:1005C000696F6E206661696C656420616761696E40
:1005D00020212121200A00002F726F6D00000000F1
:1005E0002F5344002F636F6E666967002F66770094
:1005F0002F646F776E6C6F61640000002F696E6905
:10060000742E726300000000841F0208461D020859
:1006100053797374656D20636F6E666967206669D0
:100620006C652069732072657061697265642077FA
:10063000697468207379735F6366675F696E697454
:100640005F6461746120212121200A005379737451
:10065000656D20636F6E6669672066696C652069E9
:100660007320726577726974652077697468207386
:1006700079735F6366675F696E69745F64617461F3
:1006800020212121200A000053797374656D2063B5
:100690006F6E6669672066696C6520697320726594
:1006A0006372656174656420776974682073797317
:1006B0005F6366675F696E69745F6461746120215E
:1006C0002121200A000000005350492046696C6532
:1006D0002053797374656D20696E697469616C6902
:1006E0007A6564210A000000534443617264204625
:1006F000696C652053797374656D20696E697469DE
:10070000616C7A6174696F6E206661696C656421E1
:100710000A466F726D6174207468652053442063CB
:100720006172642E0A0000005350492046696C65CE
:100730002053797374656D20696E697469616C7A90
:100740006174696F6E206661696C656420616761C0
:10075000696E20212121200A000000007370693198
:1007600031000000736430005344436172642046DA
:10077000696C652053797374656D20696E6974695D
:10078000616C697A6564210A00000000534443618A
:1007900072642046696C652053797374656D2069B5
:1007A0006E697469616C7A6174696F6E20666169E3
:1007B0006C6564210A0000002F66772F66775F6200
:1007C0006F6F742E62696E002F53442F66775F62DD
:1007D0006F6F742E62696E00870000202F66772F7E
:1007E000746573745F6D6F64652E62696E000000DE
:1007F000746573745F6D6F64652066696C65206FE6
:1008000070656E206661696C656420210A000000D5
:100810002F66772F49445F312E62696E0000000019
:100820002F66772F49445F322E62696E0000000008
:100830002F66772F49445F6C6F636B2E62696E0081
:100840004944206C656E67687420697320746F6F0B
:10085000206C6F6E6720210A0000000049445F3160
:100860002066696C65206F70656E206661696C65D5
:100870006420210A00000000E9A00DF022FF6FF0C3
:10088000010049E604220EA9204612F0F8FD204698
:1008900012F0ABFD00220221684612F077FD0446FB
:1008A000002C05DAE5A00DF00CFF6FF0010033E637
:1008B00004220CA9204612F0E2FD204612F095FD1C
:1008C0000023E54A194608A809F095F807460023D1
:1008D000E14A121D194604A809F08DF807460023C5
:1008E000DE4A1946684609F086F80746384613E698
:1008F0000025002406E0DA48007800B103E001207A
:1009000010F06BFFF7E700BFD6A00BF073FDD749DF
:1009100008600846006820B9D2A1D5A00DF0D1FE2C
:1009200011E040F20311D14800680BF0D2FDAFF2A4
:100930009771CE4800680BF093FEAFF29571CB48EB
:1009400000680BF09AFED9E0D14800780F286ED2EB
:10095000DFE800F0CF08CFCFCFCFCF0D256E6F7D72
:10096000BDBEBF000721CA4800F072FDC2E00B20E7
:1009700016F0ACFB08B9641C10E07CB10B2016F03B
:10098000A5FB01280AD1022C01D9142C05D3282C4F
:1009900003D90B21BE4800F05BFD0024AAE009F05A
:1009A0005DF805460821BB48FFF789FD0546002391
:1009B0001A461946AFF2002009F01DF8054605B1A8
:1009C00002E009F042F800BF45B12946B2A00DF09F
:1009D00078FE0921AE4800F03BFD06E0B7A00DF01F
:1009E00070FE0A21AA4800F033FD00210E2016F007
:1009F0005AFB0A2010F0F1FE00210D2016F053FBE7
:100A0000642010F0EAFE01210D2016F04CFB4FF49B
:100A10007A7010F0E2FE00210D2016F044FB6420F5
:100A200010F0DBFE01210D2016F03DFB62E060E0DE
:100A300060E0ABA00DF045FEB44A03218B4800688E
:100A40000BF0F9FD0E21924800F002FD52E009F092
:100A500005F8054600231A461946AFF2A42008F00F
:100A6000CAFF054645B12946A9A00DF02AFE0C2172
:100A7000874800F0EDFC06E0AFA00DF022FE0D214E
:100A8000834800F0E5FC08F0E0FF00210E2016F09E
:100A90000AFB0A2010F0A1FE00210D2016F003FB36
:100AA000642010F09AFE01210D2016F0FCFA4FF49C
:100AB0007A7010F092FE00210D2016F0F4FA6420F6
:100AC00010F08BFE01210D2016F0EDFA12E011E07E
:100AD00010E0641C052C04D10121062016F0E3FA75
:100AE00006E00A2C04D30021062016F0DCFA0024CC
:100AF00000E000BF00BF052010F06FFE24E72DE9E5
:100B0000F04F85B08046002004908146002400BF4D
:100B10000025824675E1012304AA002140460BF01E
:100B20003EFD8146B9F1010F04DA4FF0FF3005B008
:100B3000BDE8F08F9DF8100089498A4A12688854F0
:100B400088480068401C8749086008460068FC28FF
:100B500003D900200860801EE9E79DF810000D28E9
:100B6000D8D14B480078072858D100217C487D4ACD
:100B7000126881547B4800680E2807D078497AA013
:100B80000DF09FFD0020774908603BE100240AE05A
:100B90007348005D392803DC7148005D302801DAB4
:100BA0004FF0010A641C6F480068401EA042EFD855
:100BB000BAF1000F07D06A4974A00DF082FD002041
:100BC000684908601EE100263746002411E00A2229
:100BD00000203146A1FB02CB07FB02B206FB002737
:100BE00066465F48005D3038861947EBE07704F1D0
:100BF00001045C480068A0F10100A042E7D8254844
:100C0000C0C0244D68792A79E978AB78CDE9003104
:100C1000CDE902206B782A785149CBE0D2E0000080
:100C200049445F322066696C65206F70656E20668E
:100C300061696C656420210A0000000049445F6C12
:100C40006F636B2066696C65206F70656E206661EE
:100C5000696C656420210A008878FF1F047AFF1FF1
:100C6000870000207561727434000000300000209D
:100C700053657269616C20646576696365202573CC
:100C8000206E6F7420666F756E64210D0A0000007F
:100C9000880600200800002050726F6772616D2086
:100CA0006661696C65642C20726573657420746874
:100CB00072204D43552E2025640A000050726F6744
:100CC00072616D2066696E69736865642C20726557
:100CD00073657420746872204D43552E200A0000FD
:100CE0004953505F666C61736820636F6D706C650B
:100CF0007465642C20656E74657220746573746904
:100D00006E67206D6F6465200A00000000000020FF
:100D100050726F6772616D20415050206661696C3E
:100D200065642C20726573657420746872204D436D
:100D3000552E2025640A000050726F6772616D2085
:100D40004150502066696E69736865642C20726535
:100D500073657420746872204D43552E200A00007C
:100D600088050020380000205363616E6E656420A2
:100D70006E756D626572206973206E6F74203133F9
:100D80002021203A2025730A000000005363616E81
:100D90006E6564206E756D626572206973206E6F7A
:100DA00074206E756D6265722021203A2025730AC9
:100DB000000000004EA00DF084FC08215C4800F00B
:100DC00047FB1AE05A4800780E2816D1052010F08B
:100DD00004FD002405E05748005D401E55490855B4
:100DE000641C55480068401EA042F4D85248514A3D
:100DF0000021036840460BF0F8FB00204E490860D4
:100E000095E688E600BF4FF0FF3090E6002070477F
:100E100000BF00231A4649A14B480BF08DFD06E0A8
:100E20004A48007800B103E0012010F0D6FCF7E753
:100E300000BF09E04FF0FF3143480BF0F8FD18B94F
:100E400043480068FFF75BFEF4E77CB505200A2104
:100E50004FF480530022CDE90010AFF6A9213DA048
:100E600010F0FBFB054615B1284610F0A9FB0A203F
:100E70003A49097883020022CDE90010384939A0A7
:100E800010F0EBFB3A4908600846006818B10846C4
:100E9000006810F095FB322130480078401CC0B249
:100EA0004FF420530022CDE90001AFF2BB5131A035
:100EB00010F0D3FB044614B1204610F081FB14203F
:100EC0002D4909784FF400630022CDE90010AFF2FC
:100ED000BF011BA010F0C1FB28490860084600684C
:100EE00018B10846006810F06BFB00207CBD0000C4
:100EF0005363616E6E656420626172636F64652026
:100F00003A2025730A2020204845583A20202530D1
:100F100032582025303258202530325820253032A2
:100F200058202530325820253032580A0000000061
:100F300088060020880500203800002073656D5F5A
:100F4000636F6D5F727800006405002087000020E9
:100F500030000020696E6974000000004400002029
:100F60005D1B00087379735F73746174757300009F
:100F700048000020495350003C0000204000002061
:100F800004460D4616A00DF09CFB21461EA00DF058
:100F900098FB294621A00DF094FB00BFFEE710B599
:100FA00000F0D0FE0DF0BDFB0BF0D0F90FF0EDFE20
:100FB00010F0CCFE1E491F480DF054FD10F0CEF885
:100FC000FFF743FF10F0CEFE0BF020FC10F0E2F82C
:100FD00010BD10B510F0CAFFFFF7E1FF002010BDF3
:100FE0000A0D2057726F6E6720706172616D6574B3
:100FF00065722076616C75652064657465637465DF
:1010000064206F6E0D0A0000202020202020206622
:10101000696C65202025730D0A0000002020202027
:101020002020206C696E65202025640D0A000000D8
:1010300000000220203D002070B504460D462A46DF
:101040002146B9A00DF03DFB70BD0146002201E034
:101050004A4049100029FBD102F0010070470120ED
:1010600080F3138800BF00BFBFF34F8FBB480068F9
:1010700000F4E060BA490843001DB8490860BFF3B6
:101080004F8F00BF00BFFEE7FFF7E9FF00BFFEE79D
:1010900000B502460AB1FFF7F7FF00BD00B50246F2
:1010A0000AB9FFF7F1FF00BD2DE9F04F95B0824678
:1010B000894615461E464FF000080024A3461EB17F
:1010C000102E02D9102600E01026002251460DA84D
:1010D00011F08AF9002804DA5146A2A00DF0F1FAC5
:1010E00048E0B9F1000F0AD049460DA811F0C8FA3E
:1010F0008346CB4503D09FA00DF0E3FA37E033E001
:101100003322002168460CF04CFF324669460DA898
:1011100011F005FA0746B74213D200240BE01DF880
:1011200004109CA00DF0CDFA08F1010815B1A845F6
:1011300000D31CE0641CBC42F1D395A00DF0C1FAB1
:1011400013E000240BE01DF8041092A00DF0B9FA92
:1011500008F1010815B1A84500D308E0641CBC42A1
:10116000F1D38BA00DF0ADFACAE700BF00BF0DA808
:1011700011F0A2F915B0BDE8F08F2DE9F84F8146C6
:101180000F4690461C46BA4600250026AB46484608
:101190001EF063F900900098B0F5807F02DDE81E34
:1011A000BDE8F88F092249467CA01EF06BF910B10A
:1011B0006FF00100F4E71CB1102C02D9102400E0FC
:1011C0001024B8FBF4FB002613E006FB047176A0A4
:1011D0000DF077FA002506E006FB04A0415D75A03E
:1011E0000DF06FFA6D1CA542F6D369A00DF069FAF7
:1011F000761C5E45E9DBB8FBF4F004FB108090B18F
:1012000006FB047168A00DF05CFA002506E006FB01
:1012100004A0415D67A00DF054FA6D1CA542F6D301
:101220005BA00DF04EFA0020BAE77FB506460D46EA
:1012300015B1304611F060FB00224FF48171304649
:1012400012F0A4F80446002C06DA21465BA00DF04B
:1012500038FA204604B070BD6946204612F0B6F94F
:10126000029818B15CA002990DF02BFA204612F0FA
:10127000BCF80020EEE72DE9F04180460F46002241
:1012800042F20101404612F081F80546002D07DACE
:10129000294658A00DF015FA4FF0FF30BDE8F08157
:1012A00038461EF0DAF8064632463946284612F02D
:1012B000E6F80446B44209D0214654A00DF001FAE4
:1012C000284612F092F86FF00100E7E7284612F086
:1012D0008CF80020E2E72DE9F04180460C461546E7
:1012E0001E4600270021404615F0CAFE0021404658
:1012F00015F0D9FE00BF12E00121404615F0D3FEE3
:10130000642104FB01F010F068FA0021404615F05A
:10131000CAFE642105FB01F010F05FFA7F1CB742A2
:10132000EADB0020BDE8F08144454255473A2057AA
:10133000726F6E6720706172616D65746572732083
:1013400076616C75653A2066696C65202573206F3F
:101350006E206C696E652025640D0A000CED00E0BE
:101360000000FA054F70656E202573206661696C78
:1013700065640A00537461727420706F73697469D4
:101380006F6E206973206F766572666C6F772120AF
:101390000A0000002530325820000000535A4A53FA
:1013A000574C575747000000307825303858203ABE
:1013B00009000000202530325800000043726561AA
:1013C00074652066696C65206661696C6564203AA5
:1013D000202564200A00000046696C65206973209E
:1013E0006578697374202C2073697A65203A20250A
:1013F000640A000046696C65206F70656E20666146
:10140000696C6564203A2025640A000046696C65B1
:1014100020616464206572726F722C207772697427
:1014200065642025642062797465730A00000000F9
:1014300000210170417081720022C2728281C281DA
:1014400001210171012242710022C2800281704794
:10145000027842700170704710B504462078002869
:101460000BD02078012809D1207861788842F7D004
:101470000020A07220712078607097E02078032807
:101480000AD1207861788842F7D00120A07200202C
:1014900020712078607089E0207804280AD12078B3
:1014A00061788842E9D00620A0720020207120785F
:1014B00060707BE0207805280AD120786178884226
:1014C00074D00920A07200202071207860706DE037
:1014D000207807280AD120786178884266D00120D8
:1014E000A07200202071207860705FE020780828CA
:1014F0000AD120786178884258D00620A072002056
:1015000020712078607051E0207809280AD1207875
:10151000617888424AD00020A07201202071207892
:10152000607043E020780A280AD1207861788842E8
:101530003CD00120A072002020712078607035E03E
:1015400020780B280AD12078617888422ED0062096
:10155000A072002020712078607027E020780C288D
:101560000AD120786178884220D00020A072012022
:1015700020712078607019E020780D280AD1207839
:101580006178884212D00120A0720020207120785A
:1015900060700BE020780E2808D1207861788842AE
:1015A00004D00620A072207120786070A07A0A28EA
:1015B00070D2DFE800F005129E1F4974FBBFE9FA04
:1015C000A17AE07A814203D0A17AE1720021A1815F
:1015D0000021092015F067FD50E1A17AE07A8142EF
:1015E00003D0A17AE1720021A1810121092015F027
:1015F0005AFD43E1A17AE07A814205D0A17AE172F5
:101600000021A1810121E181A08920B901210920C6
:1016100015F049FD14E0A089142804D10021092007
:1016200015F041FD0CE0A089C82809DB0021A1814B
:10163000E089401EE081E08908B90020A0721DE128
:10164000A089401CA08119E1A17AE07A814205D0ED
:10165000A17AE1720021A1810221E181A08920B952
:101660000121092015F01FFD15E0A089142804D1DF
:101670000021092015F017FD0DE0A089C8280ADB1C
:101680000021A181E089401EE081E08908B90020A5
:10169000A072F3E0EFE0A089401CA081EEE0A17A07
:1016A000E07A814205D0A17AE1720021A181032173
:1016B000E181A08920B90121092015F0F4FC14E092
:1016C000A089142804D10021092015F0ECFC0CE0BD
:1016D000A089C82809DB0021A181E089401EE081A2
:1016E000E08908B90020A072C8E0A089401CA08150
:1016F000C4E0A17AE07A814203D0A17AE1720021AC
:10170000A181A08920B90121092015F0CCFC0DE0B0
:10171000A089142804D10021092015F0C4FC05E09B
:10172000A089C82802DB0021A181A7E0A089401C74
:10173000A081A3E0A17AE07A814205D0A17AE1728A
:101740000021A1810121E181A08920B90121092085
:1017500015F0A9FC14E0A0890A2804D10021092071
:1017600015F0A1FC0CE0A089322809DB0021A18141
:10177000E089401EE081E08908B90020A0727DE088
:10178000A089401CA08179E0A17AE07A814205D04D
:10179000A17AE1720021A1810221E181A08930B901
:1017A0000121092015F07FFC16E019E042E0A08934
:1017B0000A2804D10021092015F075FC0CE0A0894D
:1017C000322809DB0021A181E089401EE081E08907
:1017D00008B90020A07251E0A089401CA0814DE012
:1017E000A17AE07A814205D0A17AE1720021A1813B
:1017F0000321E181A08920B90121092015F053FCC2
:1018000014E0A0890A2804D10021092015F04BFC1E
:101810000CE0A089322809DB0021A181E089401E6B
:10182000E081E08908B90020A07227E0A089401C6F
:10183000A08123E0A17AE07A814203D0A17AE1720B
:101840000021A181A08920B90121092015F02BFCDC
:101850000DE0A0890A2804D10021092015F023FCFD
:1018600005E0A089322802DB0021A18106E0A089E1
:10187000401CA08102E00020A07200BF00BF2079C0
:101880000A2870D2DFE800F005129E1F4974FBBFE2
:10189000E9FA21796079814203D0217961710021CF
:1018A000E1800021082015F0FEFB50E121796079EC
:1018B000814203D0217961710021E180012108205A
:1018C00015F0F1FB43E121796079814205D021795E
:1018D00061710021E18001212181E08820B901218D
:1018E000082015F0E0FB14E0E088142804D1002162
:1018F000082015F0D8FB0CE0E088C82809DB00219F
:10190000E1802089401E2081208908B900202071B3
:101910001DE1E088401CE08019E121796079814275
:1019200005D0217961710021E18002212181E088C7
:1019300020B90121082015F0B6FB15E0E088142835
:1019400004D10021082015F0AEFB0DE0E088C82886
:101950000ADB0021E1802089401E2081208908B90E
:1019600000202071F3E0EFE0E088401CE080EEE032
:1019700021796079814205D0217961710021E1806E
:1019800003212181E08820B90121082015F08BFB7B
:1019900014E0E088142804D10021082015F083FB0E
:1019A0000CE0E088C82809DB0021E1802089401E86
:1019B0002081208908B900202071C8E0E088401CFF
:1019C000E080C4E021796079814203D0217961719E
:1019D0000021E180E08820B90121082015F063FB97
:1019E0000DE0E088142804D10021082015F05BFBED
:1019F00005E0E088C82802DB0021E180A7E0E0885C
:101A0000401CE080A3E021796079814205D02179F2
:101A100061710021E18001212181E08820B901214B
:101A2000082015F040FB14E0E0880A2804D10021CA
:101A3000082015F038FB0CE0E088322809DB002193
:101A4000E1802089401E2081208908B90020207172
:101A50007DE0E088401CE08079E021796079814276
:101A600005D0217961710021E18002212181E08886
:101A700030B90121082015F016FB16E019E042E00C
:101A8000E0880A2804D10021082015F00CFB0CE0A6
:101A9000E088322809DB0021E1802089401E208176
:101AA000208908B90020207151E0E088401CE080C6
:101AB0004DE021796079814205D021796171002161
:101AC000E18003212181E08820B90121082015F05F
:101AD000EAFA14E0E0880A2804D10021082015F071
:101AE000E2FA0CE0E088322809DB0021E18020895D
:101AF000401E2081208908B90020207127E0E0885D
:101B0000401CE08023E021796079814203D0217973
:101B100061710021E180E08820B90121082015F0E1
:101B2000C2FA0DE0E0880A2804D10021082015F04F
:101B3000BAFA05E0E088322802DB0021E18006E005
:101B4000E088401CE08002E00020207100BF00BF60
:101B500010BD0278052A00D00278704700BF06E069
:101B60000D48007800B103E001200FF036FEF7E7E2
:101B700000BF0A48FFF75CFC01210848FFF768FC3A
:101B800009E00648FFF768FC00210448FFF7E1FF81
:101B900001200FF022FEF4E78700002088060020D5
:101BA00010B500214FF0006003F048F84FF4A0603A
:101BB00003F00AF810BD7FB5684603F000FB6849E2
:101BC0000098B0FBF1F04FF47A7100FB01F421466C
:101BD000481EB0F1807F00D31BE0481E4FF0E0228A
:101BE000506150170F22002807DA13071E0E5D4BB5
:101BF00000F00F052D1F5E5503E013071D0E5A4B15
:101C00001D5400BF00204FF0E022906107201061BA
:101C100000BF042003F02AF87FBD10B50CF06CF96A
:101C200052480068401C51490860084600680A286C
:101C300004D30AF09AFB00204C4908604C48006825
:101C4000401C4B4908600CF066F910BD1CB5022021
:101C50008DF8040003208DF8050000208DF80600A3
:101C60008DF807000121880303F082FB012108465B
:101C700003F03AFB4FF48070009069463D4803F052
:101C800081F8002208213B4803F007F900214FF4B6
:101C9000800003F049FA1CBD70B50AF058FB0446F9
:101CA0004FF0E02040694FF0E0218969401A00EBD5
:101CB000800040004FF0E0214969B0FBF1F004EBF7
:101CC000840100EB4105284670BD70B50AF03FFB6A
:101CD00005464FF0E02040694FF0E0218969401A45
:101CE00042F2107148434FF0E0214969B0FBF1F135
:101CF00040F27120684301EB0014204670BD30B5FE
:101D000002460B4600210224002A01DB002B01DAE7
:101D1000002030BD002111E001EB4100164D2844A8
:101D20004078904209D101EB4100284480789842E4
:101D300003D101EB4100285CEBE7491CA142EBDB3E
:101D40000020E6E710B5FFF72BFFFFF734FF00F0A8
:101D5000CFFA02F0EDFC09A00CF034FD10BD00003C
:101D600040420F0018ED00E000E400E0A000002079
:101D70008C000020000002407C1D02087561727416
:101D800033000000704700BFFEE700BFFEE700BF62
:101D9000FEE77047704700007FB505460C4625B941
:101DA0007322FC49FCA00CF074FD24B97422F9499B
:101DB000FEA00CF06EFD2E6C2068B0F5166F03D1FE
:101DC0004FF41660009046E02068B0F5965F03D1AE
:101DD0004FF4965000903EE02068B0F5165F03D1B6
:101DE0004FF41650009036E02068B0F5964F03D1BE
:101DF0004FF4964000902EE02068B0F5164F03D1C6
:101E00004FF41640009026E02068B0F5614F03D1F2
:101E10004FF4614000901EE02068B0F5E13F03D12F
:101E20004FF4E130009016E02068B0F5613F03D137
:101E30004FF4613000900EE02068B0F5E12F03D13F
:101E40004FF4E120009006E02068B0F5612F02D148
:101E50004FF461200090207900F00F00082808D18D
:101E60002079C0F3811020B14FF48050ADF8040008
:101E700002E00020ADF804002079C0F3011018B989
:101E80000020ADF8060007E02079C0F3011001281A
:101E900002D14003ADF806002079C0F3811018B9D3
:101EA0000020ADF8080015E02079C0F3811001286A
:101EB00004D14FF4C060ADF808000BE02079C0F306
:101EC0008110022803D14002ADF8080002E0002092
:101ED000ADF808000020ADF80C000C20ADF80A00A9
:101EE0006946306804F0EEFA0121306804F072FBB4
:101EF000002004B070BD2DE9F04105460E4617469E
:101F000025B9B122AD49A4A00CF0C3FC2C6C032E62
:101F100029D0102E13D0112E2AD194F9040000F0EC
:101F20001F0201219140A64A430942F8231000BF35
:101F3000002240F22551206804F002FC18E094F9D8
:101F4000040000F01F02012191404209920002F1B9
:101F5000E022C2F8001100BF012240F225512068A2
:101F600004F0EEFB04E039462846FFF715FF00BFFA
:101F700000BF0020BDE8F08170B504460E4624B9CC
:101F8000CE22904984A00CF084FC256C00BF286808
:101F9000008800F080000028F9D0286886800120A1
:101FA00070BD70B5044624B9DC2287497AA00CF0D4
:101FB00070FC256C4FF0FF362868008800F0200088
:101FC00010B128688088C6B2304670BD10B57F4C0D
:101FD0000BF092FF40F22551206804F0ECFB18B1A1
:101FE00001217B4815F0FCFA40F22661206804F0DC
:101FF000E2FB20B140F22661206804F013FC0BF0F4
:102000008AFF10BD10B5734C0BF076FF40F22551DE
:10201000206804F0D0FB18B101216F4815F0E0FAF8
:1020200040F22661206804F0C6FB20B140F2266130
:10203000206804F0F7FB0BF06EFF10BD10B5674C85
:102040000BF05AFF40F22551206804F0B4FB18B1A0
:102050000121634815F0C4FA40F22661206804F0BB
:10206000AAFB20B140F22661206804F0DBFB0BF0F4
:1020700052FF10BD10B55B4C0BF03EFF40F22551F6
:10208000206804F098FB18B10121574815F0A8FA10
:1020900040F22661206804F08EFB20B140F22661F8
:1020A000206804F0BFFB0BF036FF10BD10B54F4C9D
:1020B0000BF022FF40F22551206804F07CFB18B1A0
:1020C00001214B4815F08CFA40F22661206804F09B
:1020D00072FB20B140F22661206804F0A3FB0BF0F4
:1020E0001AFF10BD10B50121084603F0FDF80121CB
:1020F000084603F0F9F80121102003F039F9012115
:10210000084603F0F1F80121084603F0EDF801213B
:10211000480403F01CF90121022003F0E5F8012135
:10212000022003F0E1F80121880403F010F90121F5
:10213000042003F0D9F80121042003F0D5F801218F
:10214000C80403F015F90121042003F0CDF80121A2
:10215000082003F0C9F80121080503F0F8F810BDC4
:102160001CB502208DF8040000208DF80600012027
:102170008DF8070002208DF80500400200906946A6
:102180001C4802F0FFFD4FF40070009069461948AA
:1021900032E00000981D020873657269616C2021AD
:1021A0003D2052545F4E554C4C0000006366672042
:1021B000213D2052545F4E554C4C0000A81D020892
:1021C00080E100E0B61D0208C11D0208A400002045
:1021D0009C060020AC000020F4060020B400002083
:1021E0004C070020BC000020A4070020C4000020F1
:1021F000FC0700200000024002F0C4FD0722092174
:102200007E4802F04AFE07220A217C4802F045FE81
:10221000082000906946794802F0B4FD042000903F
:102220006946764802F0AEFD07220221734802F0AB
:1022300034FE07220321714802F02FFE4FF40060A4
:10224000009069466E4802F09DFD4FF4806000905A
:1022500069466B4802F096FD07220A21684802F0A1
:102260001CFE07220B21664802F017FE4FF40060A7
:1022700000906946634802F085FD4FF4806000904D
:102280006946604802F07EFD08220A215D4802F09E
:1022900004FE08220B215B4802F0FFFD04200090A1
:1022A0006946594802F06EFD4FF48050009069462F
:1022B000544802F067FD08220C21524802F0EDFD5F
:1022C00008220221504802F0E8FD1CBD38B5044642
:1022D00020798DF8000003208DF8010000208DF892
:1022E000020001208DF80300684602F072FC38BD40
:1022F00010B58CB0454903C9CDE90A0143490831FD
:1023000003C9CDE908014149103103C9CDE90601EE
:102310003E49183103C9CDE904013C49203103C9C4
:10232000CDE902013949283103C9CDE90001FFF7A0
:10233000D9FEFFF715FF364C364837494864084642
:10234000DDE90812C0E912122046FFF7BFFF23465D
:1023500040F2031231A1304815F0C7F8314C2D4836
:10236000314948640846DDE90612C0E912122046E8
:10237000FFF7ACFF234640F203122CA12A4815F0C8
:10238000B4F82C4C23482C4948640846DDE9041273
:10239000C0E912122046FFF799FF234640F20312CC
:1023A00026A1254815F0A1F8264C1A48264948646C
:1023B0000846DDE90212C0E912122046FFF786FF47
:1023C000234640F2031221A11F4815F08EF8214C3C
:1023D0001048214948640846DDE90012C0E912129C
:1023E0002046FFF773FF234640F203121BA11A4851
:1023F00015F07BF800200CB010BD0000000002407A
:102400000004024000080240000C0240CC1D0208FB
:10241000A4000020841D02089C06002075617274CF
:1024200031000000AC000020F406002075617274D9
:1024300032000000B40000204C0700207561727467
:1024400033000000BC000020A407002075617274F6
:1024500034000000C4000020FC0700207561727485
:102460003500000030B501464A69A2F146035A1C06
:10247000D41702EB9474A410DB4D6C43DB4D05FBC9
:102480000340DB4C0A6954F8222010440C69012CEB
:1024900009DD9A1CD41702EB9474A410A2EB8404F7
:1024A0000CB1D14A801ACA68521ECF4C04FB0200FC
:1024B0004FF461648A6804FB02003C244A6804FB10
:1024C00002000A68104430BD02460020704710B573
:1024D0000446002010BD2DE9F0418CB00746884627
:1024E000154627B95522C349C3A00CF0D2F9B8F15B
:1024F000100F03D0B8F1110F47D121E02E46C24989
:10250000002003F0CDF9C149002003F054FABE4881
:1025100080780190BC4840780290BB4800780390D6
:10252000BA484078401E0590B84880780490B74873
:10253000C0784630069001A8FFF794FF306024E091
:102540002E460121080702F002FF012002F0E5FCFF
:1025500030461DF02BFB04462078AB49887020796B
:102560004870207A0870207C401CA8494870207B65
:102570008870207D4638C870A349002003F02EF9EA
:10258000A249002003F0B1F900BF00BF00200CB049
:10259000BDE8F08110B54FF400140121080702F0E6
:1025A000D6FE012002F0B9FC012002F083FD00BF3D
:1025B000412002F038FD10B9601E041EF8D114B994
:1025C0004FF0FF3010BD4FF4807002F067FEFF2027
:1025D0008F4908607F208F490860012002F079FE52
:1025E00002F0C0FF0020EDE710B5FFF7D3FF002891
:1025F00002DA4FF0FF3010BD0020834908704870A8
:10260000887001208149487088700020C8700420BB
:10261000087080480068804948607D48006888608C
:1026200000200860084603F059F87749012003F0BC
:10263000D5F87649012003F058F9774803F04EF8B1
:1026400010B94FF0FF30D6E70020D4E710B50520D1
:10265000724908760121080702F079FE01218804F9
:1026600002F042FE012002F058FC012003F04FFC72
:102670004AF2A55188420CD069A00CF022F86EA055
:102680000CF01FF8FFF7B0FF28B177A00CF019F895
:1026900010BD02F067FF0020604988627848C86278
:1026A0000020086377484863002088637648C86341
:1026B00000200864032275A1584809F0C1FE00BF3C
:1026C000E6E738B504460020009070A009F092FEBD
:1026D00005463DB16A461021284609F0ACFF0CB111
:1026E00000982060009838BD2DE9F84306460F4653
:1026F000904600246846FFF7E4FF68461DF056FA4E
:10270000044634B1A6F26C706061781E2061C4F892
:102710000C8020461CF0FAFD00905CA009F06AFED7
:10272000054625B16A4611212846FFF7D4FE02F07E
:1027300019FF4AF2A551012003F0DCFBBDE8F88344
:102740002DE9F84306460F46904600246846FFF7F9
:10275000B8FF68461DF02AFA04461CB1A6606760FF
:10276000C4F8008020461CF0D1FD009047A009F07D
:1027700041FE054625B16A4611212846FFF7ABFE0A
:1027800002F0F0FE4AF2A551012003F0B3FBBDE8D0
:10279000F88370B504463DA009F02CFE054625B12E
:1027A000224611212846FFF796FE02F0DBFE4AF290
:1027B000A551012003F09EFB70BD01B5009800F506
:1027C000E14000906846FFF7E4FF08BD38B5684671
:1027D000FFF777FF68461CF0EDFD044621462CA06C
:1027E0000BF06FFF38BD0000805101008033E10124
:1027F000DC000020FC1D020864657620213D20528B
:10280000545F4E554C4C0000D4000020D8000020EE
:10281000D0000020CC0000205408002070080020C8
:10282000727463206973206E6F7420636F6E6669C3
:1028300067757265640A0000706C6561736520637A
:102840006F6E666967757265207769746820736555
:10285000745F6461746520616E64207365745F7475
:10286000696D650A0000000072746320636F6E6614
:102870006967757265206661696C2E2E2E0D0A00DF
:10288000C9240008CF240008D7240008727463000C
:1028900025730A001CB50121022002F025FD01214B
:1028A000084602F021FD02208DF8040000208DF87A
:1028B000060001208DF8070003208DF80500382060
:1028C000009069469B4802F05DFA05220321994871
:1028D00002F0E3FA05220421964802F0DEFA05220E
:1028E0001146944802F0D9FA93A29549954802F00E
:1028F00045F801208DF8040000208DF80600012025
:102900008DF8070002208DF805008F488F49086078
:102910004FF4004088800121084602F0E5FC8B4816
:1029200080880090894A9188106802F0A7FA874948
:102930000868694602F026FA844B7FA284A1864883
:1029400015F059F801208DF8040000208DF80600DC
:1029500001208DF8070002208DF805007F4880498E
:1029600008604FF4005088800121042002F0BCFC74
:102970007B48808800907A4A9188106802F07EFA3D
:1029800077490868694602F0FDF9754B6AA275A19E
:10299000764815F030F81CBD1CB50121022002F06C
:1029A000A3FC02208DF8040000208DF80600012011
:1029B0008DF8070003208DF805004FF4604000906B
:1029C00069465C4802F0DEF905220D21594802F003
:1029D00064FA05220E21574802F05FFA05220F2102
:1029E000544802F05AFA62A26349644801F0C6FFF3
:1029F00001208DF8040000208DF8060001208DF8DC
:102A0000070002208DF805004A485D490860012052
:102A100088800121022002F067FC594880880090DC
:102A2000574A9188106802F029FA554908686946A2
:102A300002F0A8F9524B4EA252A1544814F0DBFF09
:102A400001208DF8040000208DF8060001208DF88B
:102A5000070002208DF8050036484D490860022025
:102A60008880012102F040FC494880880090484A53
:102A70009188106802F002FA45490868694602F038
:102A800081F9434B3AA243A1444814F0B4FF1CBD62
:102A900010B50021082014F0F3FA0021092014F0E9
:102AA000EFFA0021082014F0FEFA0021092014F0AA
:102AB000FAFA01210B2014F0E3FA01210F2014F09F
:102AC000DFFA0021102014F0DBFA0121102014F0AD
:102AD000EAFA00210D2014F0D3FA00210E2014F0A0
:102AE000CFFA01210D2014F0DEFA00210E2014F09F
:102AF000DAFA10BD10B52A4B2A4A2BA12CA01CF0E3
:102B0000F7FC27480278274801782BA00BF0D9FD65
:102B1000FFF7BEFFFFF7BEFEFFF73EFF0CA12CA0A4
:102B200000F091F910B12CA00BF0CBFDFFF78EFD5A
:102B300010BD000000040240737069310000000005
:102B4000B408002000300140000002400C010020C9
:102B500073706931300000002C0900200008024029
:102B60001401002073706931310000007C090020DD
:102B70007370693200000000CC090020003800406A
:102B80001C0100207370693230000000440A0020EC
:102B9000240100207370693231000000940A002083
:102BA000890000208800002025642E256400000094
:102BB000312E3039000000000A53572076657273B9
:102BC000696F6E3A2025642E253032640A000000B9
:102BD000666C6173683000005B6572726F725D20B5
:102BE0004E6F20737563682073706920666C617323
:102BF00068210D0A0000000010B504464FF0FF31B7
:102C000004F154000AF073F810BD10B5044604F145
:102C100054000AF076F910BD3EB5FA48046D05205F
:102C20000290012001AB024602A90090204614F058
:102C3000AFFF9DF804003EBD10B500BFFFF7ECFFED
:102C400000F001000028F9D110BD7CB504460E4605
:102C5000154604208DF80400EA490122086D01A9F7
:102C600000F0C4F903208DF80400200C8DF8050055
:102C7000200A8DF80600E0B28DF80700E1490095C2
:102C800033460422086D01A914F082FF28467CBD5A
:102C90002DE9FC4104460D461646E0B220B17B22E8
:102CA000D949DAA00BF0F5FD06208DF80400D549CE
:102CB0000122086D01A900F099F920208DF8040087
:102CC000200C8DF80500200A8DF80600E0B28DF882
:102CD0000700CC490422086D01A900F087F9FFF72D
:102CE000ABFF002725E006208DF80400C54901222E
:102CF000086D01A900F07AF902208DF80400200C7B
:102D00008DF80500200A8DF80600E0B28DF8070066
:102D10004FF48070BB4900902B460422086D01A936
:102D200014F0BEFE05F5807504F58074FFF784FF8E
:102D30007F1CB7EB162FD6D304208DF80400B149C1
:102D40000122086D01A900F051F93046BDE8FC816F
:102D500001460020704738B504460D462046FFF76F
:102D60004BFF06208DF80000A6490122086D694638
:102D700000F03CF901208DF8000000208DF80100E2
:102D80008DF802009F490322086D694600F02EF974
:102D9000FFF752FF2046FFF738FF002038BD0146FD
:102DA0000020704770B505460E46144625B9C3226B
:102DB0009B499CA00BF06DFD102E0ED1214611B940
:102DC0004FF0FF3070BD8F48806C48608D48406C7C
:102DD00008608C48C06C886000BF0020F2E72DE9D5
:102DE000F04107460D4616461C463846FFF704FFDD
:102DF0008449896C01FB04F28249896C01FB05F06E
:102E00003146FFF722FF3846FFF7FFFE2046BDE8B8
:102E1000F0812DE9F04107460D4616461C4638461E
:102E2000FFF7EAFE7749896C01FB04F27549896C6A
:102E300001FB05F03146FFF72BFF3846FFF7E5FEB3
:102E40002046BDE8F081FEB506460F460022394611
:102E50006C48543009F0C1FE28B176A00BF031FC6B
:102E60006FF00500FEBD384609F0C4FA054635B9D5
:102E7000394677A00BF025FC6FF00500F2E76148BA
:102E8000056508208DF8050004208DF804007748BA
:102E900002905C49086D01A914F0D2FD5948FFF772
:102EA000ABFE0420029057490122086D02A900F0F0
:102EB0009DF89F20029003205249009001AB01220F
:102EC000086D02A914F064FE4E48FFF79EFE9DF8BF
:102ED0000400EF280ED066A00BF0F3FB9DF806303F
:102EE0009DF805209DF8041068A00BF0EAFB6FF038
:102EF0000500B7E74FF4805142488164C1649DF8F2
:102F000005409DF8060040EA042444F2180084427B
:102F100007D168A00BF0D5FB4FF4805039494864C5
:102F20004CE044F21700844207D168A00BF0C9FBC3
:102F30004FF400603349486440E044F21700844293
:102F400007D16BA00BF0BDFB4FF400602D49486426
:102F500034E044F21600844207D16BA00BF0B1FBC1
:102F60004FF480602749486428E046F21600844206
:102F700007D16BA00BF0A5FB4FF48060214948649A
:102F80001CE044F21500844206D16BA00BF099FBC3
:102F900060111C49486411E046F21500844207D1D3
:102FA00071A00BF08EFB4FF400701649486405E0E9
:102FB00073A00BF086FB6FF0050053E70120114969
:102FC0000876764888627648C8627648086376480C
:102FD0004863764888637648C863002008640B22FB
:102FE0003146084809F02CFA00203BE770B5054649
:102FF0000E461446234600223146284614F040FE71
:1030000070BD0000E40A00200B1E020828706167F2
:1030100065263078464629203D3D203000000000DE
:103020001D1E020864657620213D2052545F4E55D6
:103030004C4C0000696E6974207364206C6F636B84
:10304000206D75746578206661696C65640A00009E
:1030500073706920646576696365202573206E6FDF
:103060007420666F756E64210D0A000080F0FA020C
:103070004D616E7566616374757265727320494443
:10308000206572726F72210D0A0000004A454445A6
:103090004320526561642D49442044617461203AA3
:1030A0002025303258202530325820253032580D16
:1030B0000A000000573235513132384256206465DB
:1030C00074656374696F6E0D0A00000057323551E4
:1030D00036344256206F72205732355136344356BB
:1030E00020646574656374696F6E0D0A00000000EA
:1030F00057323551363444572064657465637469BA
:103100006F6E0D0A000000005732355133324256BF
:1031100020646574656374696F6E0D0A00000000B9
:10312000573235513332445720646574656374698E
:103130006F6E0D0A0000000057323551313642568D
:10314000206F7220573235513136434C206F722038
:10315000573235513136435620646574656374695E
:103160006F6E0D0A0000000057323551313644575A
:1031700020646574656374696F6E0D0A0000000059
:103180004D656D6F72792043617061636974792058
:103190006572726F72210D0A00000000512D000847
:1031A000572D00089F2D0008DF2D0008132E000862
:1031B000A52D000870B50446616C01F148004FF080
:1031C000FF3109F094FD054675B9606C006FA042AF
:1031D0000AD0606C406C04F14801026820469047B8
:1031E00005460DB9606C0467284670BD10B586B001
:1031F00004460020019002900390059820F0010001
:10320000401C0590059820F002000590606C406C11
:1032100001A942682046904706B010BD10B586B09F
:1032200004460020019002900390059820F00100D0
:103230000590059820F00200801C0590606C406CA1
:1032400001A942682046904706B010BD2DE9F04123
:1032500004460F46E51909F07AF806464FF00008D3
:10326000A54207D3AE4202D34FF001080BE04FF066
:10327000000808E0A64204D2AE4202D34FF0010893
:1032800001E04FF000084046BDE8F081F0B502468D
:103290000B460020002126E0555C00241DE0C0F311
:1032A0008016C5F3C01786EA070CBCF1000F08D0E2
:1032B00080F004004FEA406C4FEA1C6040F00100CF
:1032C00003E04FEA406C4FEA1C6004F1010C0CF083
:1032D000FF044FEA456C4FEA1C65082CDFDB01F167
:1032E000010C0CF0FF019942D6DBF0BD70B588B03F
:1032F000044609F02CF80546FF20029002A803902E
:1033000001A8049001200590079820F002004108D0
:1033100061F30000079018E0606C406C03A94268FC
:10332000204690479DF80400FF2802D1002008B0F5
:1033300070BD42F2107009F02DF80646314628465D
:10334000FFF784FF08B10220F1E7E5E72DE9F04F30
:103350008BB004468A4615461F46DDE91468FF20F7
:103360008DF810004AF040008DF81100280E8DF8FD
:103370001200280C8DF81300280A8DF81400E8B20A
:103380008DF815004FB905210DF11100FFF77EFFF3
:103390000746012000EB4700C7B28DF81670FF20EA
:1033A0008DF8170004A8069002A80790082008903E
:1033B0000A9820F00200410861F300000A902046BC
:1033C000FFF794FF606C406C06A942682046904766
:1033D0004FF001091CE0FF20019001A80690CDF8F4
:1033E0001C80012008900A9820F00200410861F337
:1033F00000000A90606C406C06A942682046904725
:1034000098F8000000F0800000B904E009F101091B
:10341000B9F1090FDFD300BFB9F1090F03D10120C2
:103420000BB0BDE8F08F012E01D10020F8E7022E8D
:1034300029D108F08CFF834624E00020069001A8E3
:103440000790012008900A9820F00200410861F3DB
:1034500000000A90606C406C06A9426820469047C4
:103460009DF80400FF2801D10020D9E74FF4FA604D
:1034700008F090FF014600905846FFF7E7FE08B1BC
:103480000220CDE7D9E7032E14D10020069008F1E1
:1034900001000790012008900A9820F002004108DE
:1034A00061F300000A90606C406C06A942682046F7
:1034B00090471AE0042E01D0072E14D10020069068
:1034C00008F101000790042008900A9820F00200FB
:1034D000410861F300000A90606C406C06A94268E4
:1034E0002046904701E001209AE7002098E7F0B5D8
:1034F00087B004460D4608F02AFF0646FF200190DB
:1035000001A80290CDF80CD001200490069820F07C
:103510000200410861F30000069018E0606C406C06
:1035200002A94268204690479DF80000A84202D1B7
:10353000002007B0F0BD4FF4487008F02BFF07469D
:1035400039463046FFF782FE08B10220F1E7E5E791
:10355000F0B587B004460D461646FE212046FFF71B
:10356000C6FF074617B1384607B0F0BD00200290ED
:1035700003950496069820F00200410861F30000CC
:103580000690606C406C02A942682046904700207B
:10359000029001A8039002200490069820F00200F7
:1035A000410861F300000690606C406C02A942681B
:1035B000204690470020D7E72DE9F0418AB0044625
:1035C0000D4616461F461022FF2101A80AF0E9FC0D
:1035D0008DF8137001A80590002006901020079028
:1035E000099820F00200410861F300000990606C26
:1035F000406C05A94268204690470595002006903A
:103600000796099820F00200410861F30000099034
:10361000606C406C05A942682046904701A805905F
:10362000CDF818D003200790099820F00200410837
:1036300061F300000990606C406C05A94268204667
:1036400090479DF8020000F01F08B8F1050F03D065
:1036500001200AB0BDE8F0812046FFF747FEF8E7F9
:103660002DE9F0478CB08046894692461E46444676
:10367000206DFFF79FFD054605B19EE008208DF8FF
:10368000210004208DF82000A06D099008A9206D6C
:1036900014F0D6F9012E20D1206DFFF7A7FD0AA85E
:1036A0000121CDE90010A16C01FB09F200231821D2
:1036B000206DFFF74BFE054615B99DF8280008B1AF
:1036C00000267AE0FE235146A26C206DFFF774FFBE
:1036D0000546002D70D000266EE0012E6CD9206DBD
:1036E000FFF784FD94F85400012821D00AA8012195
:1036F000CDE9001000231A463721206DFFF726FE82
:10370000054615B99DF8280008B1002655E00AA81D
:103710000121CDE90010002332461721206DFFF76B
:1037200015FE054615B99DF8280008B1002644E0AD
:103730000AA80121CDE90010A16C01FB09F20023C8
:103740001921206DFFF702FE054615B99DF82800E6
:1037500008B1002631E000270BE0A26C02FB07A1B4
:10376000FC23206DFFF728FF05460DB13E4602E021
:103770007F1CB742F1D300BF1222FF2168460AF036
:1037800010FCFD208DF81100CDF814D0002006901B
:1037900012200790099820F00200410861F3000010
:1037A0000990206D416C496C4A6805A99047206DCD
:1037B000FFF79CFD054600BF00BF206DFFF72EFD03
:1037C000216D496C01F1480009F09BFB30460CB0BB
:1037D000BDE8F0872DE9FF478046894692461D46A1
:1037E00044460026206DFFF7E5FC064606B162E080
:1037F00008208DF8010004208DF80000A06D0190D4
:103800006946206D14F01CF9012D1FD1206DFFF7C2
:10381000EDFC02A80121CDE90010A16C01FB09F229
:1038200000231121206DFFF791FD064616B99DF882
:10383000080008B100253EE05146A26C206DFFF75C
:1038400087FE0646002E35D0002533E0012D31D904
:10385000206DFFF7CBFC02A80121CDE90010A16C7F
:1038600001FB09F200231221206DFFF76FFD0646D0
:1038700016B99DF8080008B100251CE000270AE0F1
:10388000A26C02FB07A1206DFFF762FE06460EB197
:103890003D4602E07F1CAF42F2D300BF02A80221E6
:1038A000CDE9001000231A460C21206DFFF74EFDD4
:1038B000064600BF00BF206DFFF7B0FC216D496CCC
:1038C00001F1480009F01DFB284604B0BDE8F0876F
:1038D0002DE9F0478CB080468A4691461E46444604
:1038E000206DFFF767FC054605B196E008208DF8CE
:1038F000210004208DF82000A06D099008A9206DFA
:1039000014F09EF8012E1ED1206DFFF76FFC0AA85F
:103910000121CDE90010002352461821206DFFF748
:1039200015FD054615B99DF8280008B1002674E07C
:10393000FE234946A26C206DFFF73EFE0546002D92
:103940006AD0002668E0012E66D9206DFFF74EFC94
:103950000AA80121CDE9001000231A463721206D65
:10396000FFF7F4FC054615B99DF8280008B10026BC
:1039700053E00AA80121CDE90010002332461721A7
:10398000206DFFF7E3FC054615B99DF8280008B146
:10399000002642E00AA80121CDE90010002352468A
:1039A0001921206DFFF7D2FC054615B99DF82800B6
:1039B00008B1002631E000270BE0A26C02FB079162
:1039C000FC23206DFFF7F8FD05460DB13E4602E0F1
:1039D0007F1CB742F1D300BF1222FF2168460AF0D4
:1039E000E0FAFD208DF81100CDF814D000200690EB
:1039F00012200790099820F00200410861F30000AE
:103A00000990206D416C496C4A6805A99047206D6A
:103A1000FFF76CFC054600BF00BF206DFFF7FEFB03
:103A2000216D496C01F1480009F06BFA30460CB089
:103A3000BDE8F0872DE9FF4780468A4691461D463E
:103A400044460026206DFFF7B5FB064606B15EE052
:103A500008208DF8010004208DF80000A06D019071
:103A60006946206D13F0ECFF012D1DD1206DFFF78D
:103A7000BDFB02A80121CDE900100023524611210F
:103A8000206DFFF763FC064616B99DF8080008B1E3
:103A900000253CE04946A26C206DFFF759FD064623
:103AA000002E33D0002531E0012D2FD9206DFFF7F6
:103AB0009DFB02A80121CDE90010002352461221EE
:103AC000206DFFF743FC064616B99DF8080008B1C3
:103AD00000251CE000270AE0A26C02FB0791206D84
:103AE000FFF736FD06460EB13D4602E07F1CAF42B1
:103AF000F2D300BF02A80221CDE9001000231A462C
:103B00000C21206DFFF722FC064600BF00BF206D90
:103B1000FFF784FB216D496C01F1480009F0F1F9D0
:103B2000284604B0BDE8F08701B5AAB02A982990CC
:103B3000002026902998006D10B908202BB000BDF8
:103B400008208DF8890004208DF88800FC48239017
:103B50002998006D22A9219013F072FF2998006D19
:103B60001E90FFF727FB2690269800B10CE22998BB
:103B7000006D1E90FFF752FBFF22642106A81BF088
:103B800032FC06A81F9000202090642021902398EA
:103B900020F00200410861F3000023902998006D95
:103BA00005902998006D406C406C40681FA90490F6
:103BB000DDE90420904708F0CAFB25902AE0299807
:103BC000006D1E90FFF712FB27A80121CDE9001020
:103BD0002998006D9523002211461E90FFF7B6FB31
:103BE00026902998006D1E90FFF718FB269820B9A3
:103BF0009DF89C00012800D10DE040F6B83008F097
:103C0000C9FB01461E902598FFF720FB10B102204A
:103C10002690ABE7D3E700BF08F099FB259000BFE3
:103C20002998006D1E90FFF7E1FA27A80721CDE93A
:103C300000102998006D87234FF4D57208211E903B
:103C4000FFF784FB26902998006D1E90FFF7E6FA97
:103C50002698B8B99DF89C0000F0040020B102211C
:103C6000299880F854101DE00321299880F85410F9
:103C70009DF8A000AA2811D19DF89F0070B90120DD
:103C8000269073E7C82008F085FB01461E90259812
:103C9000FFF7DCFA10B10220269067E79DF8A0003C
:103CA000AA28BDD100BF299890F85400022876D1E7
:103CB00000201E90AEE02998006D1C90FFF796FA48
:103CC00027A80421CDE900102998006D00231A4689
:103CD0003A211C90FFF73AFB2690269828B12998A4
:103CE000006D1C90FFF79AFA40E79DF89C0000F0E9
:103CF000FE0028B12998006D1C90FFF78FFA8AE02A
:103D00002998006D1C90FFF789FA9DF89D0024907A
:103D10009DF89E10249801EB002024909DF89F10A0
:103D2000249801EB002024909DF8A010249801EB2A
:103D300000202490249800F4004010B9012026901F
:103D4000E9E308F004FB1D9061E04FF4487008F0CF
:103D500021FB01461C901D98FFF778FA28B129989D
:103D6000006D1C90FFF75AFA52E02998006D1C90E4
:103D7000FFF73CFA27A80121CDE900102998006D32
:103D800000231A4637211C90FFF7E0FA2690269868
:103D900030B12998006D1C90FFF740FA37E0D5E06C
:103DA0009DF89C0000F0FE0028B12998006D1C9041
:103DB000FFF734FA2CE027A80121CDE9001029985B
:103DC000006D00231A4629211C90FFF7BFFA2690A8
:103DD000269828B12998006D1C90FFF71FFA16E06D
:103DE0009DF89C0000F0FE0028B12998006D1C9001
:103DF000FFF714FA0CE09DF89C0038B92998006D83
:103E00001C90FFF70BFA01201E9001E000BF9CE719
:103E100000BF00E04FE700BF1E9801287ED0299820
:103E2000006D1B90FFF7FAF9FF22642103A81BF035
:103E3000DAFA03A81F900020209064202190239894
:103E400020F00200410861F30000239000201C9044
:103E50000FE02998006D02902998006D406C406C2D
:103E600040681FA90190DDE9012090471C98401C83
:103E70001C901C980A28ECD308F069FA1D902AE0DF
:103E80002998006D1B90FFF7B1F927A90120CDE912
:103E900000012998006D9523002211461B90FFF721
:103EA00055FA26902998006D1B90FFF7B7F92698D0
:103EB00020B99DF89C00012800D10DE040F6B830F3
:103EC00008F068FA01461B901D98FFF7BFF910B182
:103ED000022026901FE3D3E700BF08F038FA1D90B8
:103EE00030E02998006D1B90FFF780F927A8012189
:103EF000CDE900102998006D00231A461B90FFF7AA
:103F000025FA26902998006D1B90FFF787F92698CF
:103F100048B99DF89C0030B9012100E015E02998CE
:103F200080F854100FE040F6B83008F033FA01463C
:103F30001B901D98FFF78AF920B102202690EAE233
:103F4000801A0600CDE700BF00BF02E1299890F873
:103F50005400032877D12998006D1E90FFF746F989
:103F600027A80421CDE900102998006D00231A46E6
:103F70003A211E90FFF7EAF92690269828B1299851
:103F8000006D1E90FFF74AF9C5E29DF89C0000F015
:103F9000FE0038B12998006D1E90FFF73FF901200F
:103FA0002690B8E22998006D1E90FFF737F99DF82A
:103FB0009D0024909DF89E10249801EB00202490F1
:103FC0009DF89F10249801EB002024909DF8A010EC
:103FD000249801EB00202490249800F4004010B9AC
:103FE0000120269097E208F0B2F9259000BF2998A9
:103FF000006D1E90FFF7FAF84FF4487008F0CAF908
:1040000001461E902598FFF721F938B12998006DD7
:104010001E90FFF703F9012026907CE227A80121DA
:10402000CDE900102998006D6523002237211E90EC
:10403000FFF78CF92690269830B12998006D1E90D4
:10404000FFF7ECF82FE081E09DF89C0000F0FE0007
:1040500038B12998006D1E90FFF7E0F801202690F6
:1040600059E227A80121CDE900102998006D772396
:104070008A0729211E90FFF769F92690269838B102
:104080002998006D1E90FFF7C9F80120269042E2A2
:104090009DF89C0000F0FE0020B12998006D1E9054
:1040A000FFF7BCF800BF9DF89C0000289FD129981D
:1040B000006D1E90FFF7B2F82998006D1E90FFF773
:1040C00095F827A80421CDE900102998006D002358
:1040D0001A463A211E90FFF739F92690269828B102
:1040E0002998006D1E90FFF799F814E29DF89C0046
:1040F00000F0FE0038B12998006D1E90FFF78EF891
:104100000120269007E22998006D1E90FFF786F89F
:104110009DF89D0024909DF89E10249801EB0020AE
:1041200024909DF89F10249801EB002024909DF886
:10413000A010249801EB00202490249800F08040E7
:1041400038B10421299880F8541002E0012026900B
:10415000E1E1299890F85400042806D1F7492A98FB
:104160004163F7492A98816305E0F6492A9841633B
:10417000F5492A9881632998006D2390FFF74EF83E
:104180002998006D2390FFF731F827A80121CDE988
:1041900000102998006D912300223B212390FFF706
:1041A000D5F826902998006D2390FFF737F82698C8
:1041B00010B99DF89C0010B101202690ABE1299820
:1041C000006D2390FFF72AF82998006D2390FFF7E0
:1041D0000DF827A80121CDE900102998006D0023D2
:1041E0004A0210212390FFF7B1F826902998006D1C
:1041F0002390FFF713F8269810B99DF89C0010B192
:104200000120269087E14FF400712998C164299814
:1042100081642998006D1F90FEF7E8FF27A801210F
:10422000CDE900102998006D00231A4609211F903E
:10423000FFF78CF82690269828B12998006D1F90DA
:10424000FEF7ECFF67E1269810B99DF89C0038B1A5
:104250002998006D1F90FEF7E1FF012026905AE19A
:104260002998006D102220A91F90FFF771F9269060
:104270002998006D1F90FEF7D1FF269800B14AE102
:104280009DF8800000F0C0001C901C9880111F90C9
:10429000299890F8540001287DD11F98022802DD4A
:1042A0000120269037E11F9818B11F98012800D0EF
:1042B00000BF9DF883001C901C9800F003001C9028
:1042C0001C9818B9A1492998816513E01C98012808
:1042D00003D19F49299881650CE01C98022803D1DD
:1042E0009C492998816505E01C98032802D19A49C8
:1042F000299881659DF8850000F00F001C901C989E
:1043000018909DF8860000F003001B904FF6FF7197
:104310001B9801EA00201B909DF887101B98084409
:104320001B904FF6FF711B9801EA80001B909DF8CF
:10433000880000F0C0001C901C9880111C90DDE9E2
:104340001B0108441B901B981E909DF8890000F0EB
:1043500003001C901C9840001C909DF88A101C982B
:1043600000EBD1101C901C981990012118988140E5
:104370001998801C012282401E98401C424301FB78
:1043800002F01D902998816C1D98B0FBF1F12998DD
:104390004164B0E0FFE71F98F0BB9DF883001C90DC
:1043A0001C98322803D16B492998816509E01C9833
:1043B0005A2803D169492998816502E064492998FE
:1043C00081659DF8850000F00F001C901C981890E6
:1043D0009DF8860000F003001B904FF6FF711B98BC
:1043E00001EA00201B909DF887101B9808441B9041
:1043F0004FF6FF711B9801EA80001B909DF8880022
:1044000000F0C0001C901C9880111C90DDE91B017D
:1044100008441B901B9800E025E01E909DF8890041
:1044200000F003001C901C9840001C909DF88A101E
:104430001C9800EBD1101C901C9819900121189821
:1044400081401998801C012282401E98401C4243E2
:1044500001FB02F01D902998816C1D98B0FBF1F1D1
:104460002998416447E01F98012841D19DF88300B5
:104470001C901C98322803D136492998816517E091
:104480001C985A2803D135492998816510E01C9859
:104490000B2803D130492998816509E01C982B2805
:1044A00003D12F492998816502E02949299881651E
:1044B0009DF8870000F03F001A901A9800021A90A9
:1044C0009DF888101A9808441A901A9800021A90B9
:1044D0009DF889101A9808441A901A981E901E98F0
:1044E000401C40081D901D9881022998416402E0FB
:1044F000012026900FE008208DF8890004208DF817
:1045000088002998806D23902998006D22A9219018
:1045100013F096FA00BF2998006D2390FEF77EFEF7
:104520002998006D406C4830239008F0EAFC2698EA
:10453000FFF704BB0246002070470000353A000830
:10454000D1380008D537000861360008A086010080
:1045500040420F008096980000E1F50580F0FA02D5
:1045600000C2EB0B0146002070472DE9F0410546E3
:104570000F4616462C462DB940F26562264927A003
:104580000AF087F9102F0CD1314619B94FF0FF30DE
:10459000BDE8F081A06C4860E06C8860606C0860E9
:1045A00000BF0020F4E72DE9F04104460D46002746
:1045B000284607F01FFF064616B9B81FBDE8F08170
:1045C0005C220021194809F0ECFC1848066501201E
:1045D0001649087600211548816400201349486473
:1045E00000211248C1641248104988621148C8620B
:1045F000114808630020486388631048C86300209E
:104600000864086248620F222146084807F018FF34
:1046100007463846D2E70000321E0208646576205D
:10462000213D2052545F4E554C4C0000600B002041
:10463000293B000835450008654500086B45000822
:104640000146112903D23E4A02EB011000E000208E
:1046500070472DE9F04107460D461646E8B2FFF7D0
:10466000EFFF04460CB9BDE8F0812EB9A28991B2E2
:10467000A06800F005FC04E0A28991B2A06800F0F7
:10468000FDFB00BFEFE72DE9F04107460D46002690
:10469000E8B2FFF7D5FF044614B93046BDE8F08113
:1046A000A28991B2A06800F0CFFB08B9002600E013
:1046B00001263046F2E72DE9FC4107460E46144636
:1046C000F0B2FFF7BDFF05460DB9BDE8FC81012141
:1046D000686800F009FEE868009000208DF8060088
:1046E00003208DF8050034B901208DF80400002066
:1046F0008DF8070016E0012C05D100208DF804008C
:104700008DF807000EE0022C06D100208DF8040081
:1047100001208DF8070005E000208DF8040002203C
:104720008DF807006946A86800F02CFB00BFCCE7B5
:1047300010B50022034904A012F086FC002010BD31
:10474000441E0208541F020870696E0070B586B0DE
:1047500006460C46756C01A801F085FD60780828B6
:1047600003DC0020ADF808000AE06078102804DCC3
:104770004FF40060ADF8080002E0082006B070BDFC
:10478000924A6168924A914200D91146914B1B6846
:104790009808B1EB500F07D38D4BB3EB500F03D3F9
:1047A0000023ADF810302CE0B1EB900F03D30823B9
:1047B000ADF8103025E0B1EBD00F03D31023ADF8E6
:1047C00010301EE0B1EB101F03D31823ADF81030EA
:1047D00017E0B1EB501F03D32023ADF8103010E0E9
:1047E000B1EB901F03D32823ADF8103009E0B1EBF3
:1047F000D01F03D33023ADF8103002E03823ADF8DA
:104800001030207800F0020018B10220ADF80A0044
:1048100002E00020ADF80A00207800F0010018B195
:104820000120ADF80C0002E00020ADF80C0020786B
:1048300000F0040018B10020ADF8120002E0802062
:10484000ADF812000020ADF804004FF48270ADF80E
:1048500006004FF40070ADF80E00686F01F010FC18
:1048600001A9686F01F032FC0121686F01F011FDB0
:104870000021686F01F068FD00207FE72DE9FC5FF3
:1048800005460C46686C019005F148090198406F97
:1048900000902E6CD4F808A0207C00F0010018B124
:1048A000B188306800F0ECFA99F8010008282BDC98
:1048B0002768D4F8048021E04FF0FF0B0FB117F800
:1048C00001BB00BF0221009801F073FD0028F9D060
:1048D0005946009801F036FD00BF0121009801F013
:1048E00068FD0028F9D0009801F029FD00F0FF0BC9
:1048F000B8F1000F01D008F801BB00BFBAF1000009
:10490000AAF1010AD8D12EE099F8010010282ADC7A
:104910002768D4F8048020E04FF0FF0B0FB137F880
:1049200002BB00BF0221009801F043FD0028F9D02E
:104930005946009801F006FD00BF0121009801F0E2
:1049400038FD0028F9D0009801F0F9FC8346B8F151
:10495000000F01D028F802BB00BFBAF10000AAF195
:10496000010AD9D100BF207CC0F3400018B1B18842
:10497000306800F083FAA068BDE8FC9F70B505467A
:104980000C4616461448854205D160670121801403
:1049900000F0EEFC13E01148854205D1606701216B
:1049A000001400F0D4FC0AE00D48854205D1606790
:1049B0000121C01300F0CBFC01E0062070BD094AC4
:1049C0003146204612F0FEFFF8E7000080A81201F1
:1049D00080C3C9013401002000300140003800408C
:1049E000003C00402C0100200CB5002001900090FC
:1049F0006B48006840F480306949086000BF68482F
:104A0000006800F4003000900198401C019000986C
:104A100018B90198B0F5A06FF1D16148006800F4B1
:104A2000003010B10120009001E0002000900098BB
:104A3000012838D15A4808300068594908310860BF
:104A40000846006840F4004008600846006840F4EA
:104A5000A05008605348091F0860081F006840F014
:104A60008070091F086000BF4D48006800F00070AA
:104A70000028F9D040F203704B49086048480830DC
:104A8000006820F0030046490831086008460068C5
:104A900040F00200086000BF41480830006800F0A4
:104AA0000C000828F8D10CBD10B53D48006840F056
:104AB00001003B4908600020394908310860384846
:104AC00000683A490840364908603948091D0860BD
:104AD000081F006820F48020091F0860002030496A
:104AE0000C310860FFF780FF4FF00060314908602B
:104AF00010BD70B500200022022300240221284DA1
:104B000008352D6805F00C0020B1042806D00828CF
:104B100034D107E0284D294E356033E0284D274E2B
:104B200035602FE01E4D2D1D2D68C5F380541C4DA2
:104B30002D1D2D6805F03F0154B1214DB5FBF1F558
:104B4000174E361D3668C6F3881605FB06F209E0D7
:104B5000194DB5FBF1F5124E361D3668C6F38816B1
:104B600005FB06F20E4D2D1D2D68C5F301456D1C8C
:104B70006B00B2FBF3F5114E356003E00E4D0F4EA6
:104B8000356000BF00BF064D08352D68C5F303151D
:104B90000C4E705D094D2D68C540084E356070BDE6
:104BA00000380240193C4005003C0240FFFFF6FE81
:104BB0001030002408ED00E00024F400340100204F
:104BC00040787D013801002032490143324A1160AA
:104BD000704770B5002100230F22C4781CB32E4CFF
:104BE000246804F4E064C4F5E064C4F30721C1F16F
:104BF0000404E3B20A4144789C40E1B28478144052
:104C000021430C07210E254C05786155047804F0EA
:104C10001F050124AC4005786D11AD0005F1E025BC
:104C2000C5F8004109E0047804F01F050124AC40F8
:104C30001B4D0678761145F8264070BD194A0A408A
:104C40000243154B1B1F1A60704739B1124A121DDF
:104C500012680243104B1B1D1A6006E00E4A121D1B
:104C6000126882430C4B1B1D1A607047042808D140
:104C70004FF0E021096941F004014FF0E022116199
:104C800007E04FF0E021096921F004014FF0E02234
:104C9000116170470000FA050CED00E000E400E04F
:104CA00080E100E080FFFF1F10B504468C4884427D
:104CB00008D10121084600F06CFB0021012000F022
:104CC00068FB5EE08748844208D10121022000F0A1
:104CD00060FB0021022000F05CFB52E0824884422D
:104CE00008D10121042000F054FB0021042000F031
:104CF00050FB46E07D48844208D10121082000F0A5
:104D000048FB0021082000F044FB3AE07848844248
:104D100008D10121102000F03CFB0021102000F000
:104D200038FB2EE07348844208D10121202000F096
:104D300030FB0021202000F02CFB22E06E48844252
:104D400008D10121402000F024FB0021402000F088
:104D500020FB16E06948844208D10121802000F040
:104D600018FB0021802000F014FB0AE06448844214
:104D700007D10121801500F00CFB0021A01500F0E7
:104D800008FB10BDF0B50A4600210023002400BF37
:104D90003DE0012505FA01F3156805EA03049C428C
:104DA00034D105684F000326BE40B5430560157930
:104DB0004E00B5400668354305601579012D02D0D7
:104DC0001579022D16D185684F000326BE40B543E4
:104DD000856055794E00B5408668354385604568E5
:104DE00001268E40B5434560456896798E40B6B23F
:104DF00035434560C5684F000326BE40B543C560D6
:104E0000D5794E00B540C6683543C560491C1029A8
:104E1000BFD3F0BD4FF6FF710160002101714171F8
:104E20008171C171704708B54FF480320092009AC9
:104E30000A430092009AC261C161009AC261C269CC
:104E40000092C269009208BD0246002013690B401F
:104E50000BB1012000E0002070470146086980B2D4
:104E600070470246002053690B400BB1012000E05F
:104E7000002070470146486980B27047018370473F
:104E8000418370470AB1018300E04183704741616B
:104E9000704742694A4042617047F0B500230024E0
:104EA0004D07ED0E02FA05F3CE1000F1200555F87E
:104EB00026504E07F70E0F26BE40B543CF1000F127
:104EC000200646F82750CE1000F1200555F8265050
:104ED00045EA0304CE1000F1200545F82640F0BD58
:104EE000000002400004024000080240000C0240A2
:104EF000001002400014024000180240001C024052
:104F00000020024010B50121080700F088FA0021B6
:104F10004FF0805000F083FA10BD2D4908627047B1
:104F2000014600202B4A106820F0E0000843106082
:104F300070472749086170472549A03108607047CC
:104F40002349A4310860704721494862704710B571
:104F5000024600201F4B186820F003001043186021
:104F60001D4B1B6843F004031B4C2360012901D136
:104F700030BF00E020BF184B1B6823F00403164C21
:104F8000236010BD1348006840F004001149086018
:104F90000846006840F0020008600F48006840F0D2
:104FA00004000D49086000BF00BF30BF70470146D4
:104FB0000020084A52680A400AB1012000E000209F
:104FC00070470449096841EA8001024A116070474C
:104FD00000000E420070004010ED00E0FA4800684A
:104FE00040F00100F84908600020F74908310860E6
:104FF000F5480068F5490840F3490860F448091D80
:105000000860081F006820F48020091F0860002045
:10501000ED490C31086070470021EB4A921C117079
:1050200011460870704710B5014600220023002089
:105030004A11012A02D1E44C236808E0022A03D174
:10504000E14C7034236802E0DF4C7434236801F0D3
:105050001F02012494401C400CB1012000E00020FC
:1050600010BD38B5002000900024002500BF31207D
:10507000FFF7D9FF05460098401C00900098B0F556
:10508000A06F01D0002DF2D03120FFF7CCFF08B186
:10509000012400E00024204638BD01460020CA4A11
:1050A000106820F0F80040EAC10010607047C9495C
:1050B000086070470021C44A7032117011700128D5
:1050C00002D004280AD104E00121BF4A70321170D5
:1050D00005E00521BC4A7032117000E000BF00BF3E
:1050E0007047BD490860704770B5049C41EA82155D
:1050F0000126C6EB530645EA0645054345EA046525
:10510000B14E361D356070BDB249086670478201E8
:1051100042EA0172AC4B84331A607047AD4988662D
:105120007047AC49C864704702460020A64B08335C
:10513000186820F0EC6042EA01031843A24B0833E0
:1051400018607047024600209F4B0833186820F013
:10515000784042EA010318439B4B083318607047BC
:1051600001460020984A0832106820F003000843E6
:105170001060704794480830006800F00C007047D9
:1051800001460020904A0832106820F0F0000843E1
:1051900010607047014600208B4A0832106820F4E6
:1051A000E05008431060704701460020864A0832EC
:1051B000106820F4604040EAC10010607047F0B50C
:1051C0000021002200240225002602237E4F0837FA
:1051D0003F6807F00C0121B1042905D0082937D117
:1051E00005E07E4F076036E07D4F076033E0764F85
:1051F0003F1D3F68C7F38056734F3F1D3F6807F060
:105200003F036EB1764FB7FBF3F7DFF8BCC10CF18B
:10521000040CDCF800C0CCF3881C07FB0CF40CE099
:105220006E4FB7FBF3F7DFF8A0C10CF1040CDCF80C
:1052300000C0CCF3881C07FB0CF4634F3F1D3F6894
:10524000C7F301477F1C7D00B4FBF5F7076002E060
:10525000624F076000BF00BF5B4F08373F6807F031
:10526000F00109095F4F7A5C0768D7404760564FE5
:1052700008373F6807F4E051890A5A4F7A5C47685B
:10528000D7408760504F08373F6807F46041490BAB
:10529000544F7A5C4768D740C760F0BD002100F4E6
:1052A0004072B2F5407F0AD1474A0832116821F4B2
:1052B000F8114D4A02401143434A08321160424AF4
:1052C00070321268C0F30B031A433F4B70331A60FD
:1052D000704741494439086070473F494039086088
:1052E000704742490860704739B1374A3032126816
:1052F0000243354B30331A6006E0334A30321268CD
:105300008243314B30331A60704739B12E4A343200
:10531000126802432C4B34331A6006E02A4A3432B6
:1053200012688243284B34331A60704739B1264AD9
:10533000383212680243244B38331A6006E0224A9E
:10534000383212688243204B38331A60704739B1C3
:105350001D4A4032126802431B4B40331A6006E07C
:10536000194A403212688243174B40331A60704723
:1053700039B1154A443212680243134B44331A6060
:1053800006E0114A4432126882430F4B44331A60DC
:10539000704739B10C4A1032126802430A4B10337D
:1053A0001A6006E0084A103212688243064B103336
:1053B0001A607047E1B1044A143212680243024B8A
:1053C00014331A6019E0000000380240FFFFF6FEB7
:1053D0001030002400004742800E47420024F400B1
:1053E00040787D0148010020FFFCFF0F5C0147422F
:1053F0005B4A126882435A4B1A60704739B1584A67
:10540000121D12680243564B1B1D1A6006E0544AD7
:10541000121D12688243524B1B1D1A60704739B12E
:105420004F4A0C32126802434D4B0C331A6006E0AF
:105430004B4A0C3212688243494B0C331A60704756
:1054400039B1474A103212680243454B10331A6093
:1054500006E0434A103212688243414B10331A600F
:10546000704739B13E4A3C32126802433C4B3C33F0
:105470001A6006E03A4A3C3212688243384B3C33A9
:105480001A60704739B1364A403212680243344BD1
:1054900040331A6006E0324A403212688243304B91
:1054A00040331A60704739B12D4A443212680243C2
:1054B0002B4B44331A6006E0294A44321268824377
:1054C000274B44331A60704739B1254A4C32126871
:1054D0000243234B4C331A6006E0214A4C321268D7
:1054E00082431F4B4C331A60704739B11C4A50320B
:1054F000126802431A4B50331A6006E0184A5032C1
:1055000012688243164B50331A60704739B1144AFF
:10551000D21F12780243124BDB1F1A7006E0104AAA
:10552000D21F127882430E4BDB1F1A7070470C4853
:105530006030006840F08070094960310860704751
:1055400001460020064A083A12680A400AB10120C2
:1055500000E0002070470249891F08707047000072
:105560001438024008B50022009200200021CA220F
:10557000FE4B1A6053221A60FC4A183A126822F055
:10558000A002FA4B183B1A6000BFF84A183A12689A
:1055900002F02001009A521C0092009AB2F5004FCE
:1055A00001D00029F1D0F14A183A126802F0200225
:1055B0000AB1012000E00020FF22EC4B1A6008BD78
:1055C00008B50022009200200021E84A183A12682B
:1055D00002F04002E2B9421EE44B183B1A6000BFE1
:1055E000E24A183A126802F04001009A521C0092F6
:1055F000009AB2F5803F01D00029F1D0DB4A183A79
:10560000126802F040020AB1012002E0002000E02E
:10561000012008BD38B50020009000240025CA20D4
:10562000D249086053200860FFF7CAFF00B947E07D
:105630000020CE492439086042F20110091D08609B
:10564000081D006800F00700091D086000BFC7487A
:105650001838006800F004040098401C009000987E
:10566000B0F5803F01D0002CF1D0C0481838006858
:1056700000F0040008B9002522E0BC481C3800688E
:105680000020BA491C3908604FF6FF70B74910393D
:105690000860B748091F08600020B4490C39086049
:1056A000091D0860091D0860B04918390860AF4934
:1056B0001C310860FFF756FF08B9002500E00125FE
:1056C000FF20AA490860284638BDA8481838006855
:1056D00020F08000A54918390860704730B50446AD
:1056E0000025CA20A149086053200860FFF768FF21
:1056F00000B91DE09D481C38006820F040009B491F
:105700001C390860084600682168084397491C391D
:10571000086096491439A068086008460068A188A6
:1057200040EA0140914914390860FFF7CEFF012596
:10573000FF208E490860284630BD002101607F218E
:105740004160FF218160704718B1FF21874A1160D5
:1057500004E0CA21854A116053211160704730B5B9
:1057600004460025CA208149086053200860FFF7DD
:1057700027FF00B914E044B17C481C38006840F0B1
:1057800010007A491C39086007E078481C38006826
:1057900020F0100075491C390860FFF796FF0125BD
:1057A000FF2072490860284630BD0146002204E00F
:1057B000501CC2B2A1F10A00C1B20A29F8DA1007DE
:1057C00041EA10607047014600BF080900EB800005
:1057D000420001F00F001044C0B270472DE9F041C3
:1057E00005460C460026002755B960481C3800685D
:1057F00000F0400000B102E00020E07000BF0EE0C9
:105800005A481C38006800F0400020B12078FFF7AB
:10581000DAFF064602E00020E07000BF00BF55B18D
:1058200020780004617840EA0120A1780843E178FB
:1058300040EA014611E02078FFF7B7FF4FEA004841
:105840006078FFF7B2FF48EA0028A078FFF7ADFFC5
:1058500048EA0008E07848EA0046CA204349086060
:1058600053200860FFF7ACFE08B900270CE0414860
:1058700030403E4924390860FFF727FFFFF772FEEA
:1058800008B9002700E00127FF20384908603846A2
:10589000BDE8F0810021C1700170417081707047D6
:1058A00070B506460C46002530482438006831495A
:1058B00000EA0105C5F305402070C5F306206070BD
:1058C00005F07F00A07005F48000000CE0705EB968
:1058D0002078FFF778FF20706078FFF774FF607022
:1058E000A078FFF770FFA07070BD2DE9F04105466C
:1058F0000C46002600274DB9607800F010001028F3
:1059000004D1607820F010000A30607005B908E01A
:105910006078FFF758FF0646A078FFF754FF064669
:1059200000BF55B1E0780004617840EA0120A17819
:105930000843217840EA413611E0E078FFF735FF6F
:105940004FEA00486078FFF730FF48EA0028A07867
:10595000FFF72BFF48EA0008207848EA4036CA20C3
:10596000024908605320086006E000002428004037
:10597000FF007F007F7F7F00FFF722FE08B900272E
:105980000BE0F6483040F6490860FFF79EFEFFF74F
:10599000E9FD08B9002700E00127FF20F049203188
:1059A00008603846BDE8F0810121017081704170C6
:1059B0000021C170704770B506460C460025E848C6
:1059C0000068E64900EA0105280CE070C5F30420F0
:1059D000607005F03F00A070C5F3423020706EB9D2
:1059E000E078FFF7F0FEE0706078FFF7ECFE6070A3
:1059F000A078FFF7E8FEA0702078207070BD2DE938
:105A0000F04105460E46144600276DB9D448001DE6
:105A1000006800F0400000B102E00020E07000BF2C
:105A2000A06800B91AE019E0CD48001D006800F038
:105A3000400020B12078FFF7C6FE074602E00020B4
:105A4000E07000BFA06820B9207BFFF7BCFE0746CE
:105A500004E0207BFFF7B7FE074600BF95B1207832
:105A60000004617840EA0120A1780843E17840EA27
:105A70000140217B40EA0160A1680843616840EA77
:105A800001071BE02078FFF790FE4FEA004860789E
:105A9000FFF78BFE48EA0028A078FFF786FE48EA69
:105AA0000008E07848EA0048207BFFF77EFE48EADD
:105AB0000060A1680843616840EA0107CA20A8495C
:105AC0002031086053200860B6F5807F03D1A448D8
:105AD0001830076002E0A2481C300760FF20A04990
