:020000040800F2
:10000000F0470020653F0008450E00088DAB000852
:10001000470E0008490E00084B0E000800000000C3
:100020000000000000000000000000004D0E00086D
:100030004F0E00080000000017AB00086D0D00080F
:100040007F3F00087F3F00087F3F00087F3F000898
:100050007F3F00087F3F00087F3F00087F3F000888
:100060007F3F00087F3F00087F3F00087F3F000878
:100070007F3F00087F3F00087F3F00087F3F000868
:100080007F3F00087F3F00087F3F00087F3F000858
:100090007F3F00087F3F00087F3F00087F3F000848
:1000A0007F3F00087F3F00087F3F00087F3F000838
:1000B0007F3F00087F3F00087F3F00087F3F000828
:1000C0007F3F00087F3F00087F3F00087F3F000818
:1000D0007F3F0008FB0F0008351000087310000870
:1000E0007F3F00087F3F00087F3F00087F3F0008F8
:1000F0007F3F00087F3F00087F3F00087F3F0008E8
:100100007F3F00087F3F00087F3F00087F3F0008D7
:100110007F3F00087F3F00087F3F00087F3F0008C7
:100120007F3F00087F3F00087F3F00087F3F0008B7
:100130007F3F00087F3F00087F3F00087F3F0008A7
:100140007F3F00087F3F00087F3F00087F3F000897
:100150007F3F00087F3F00087F3F00087F3F000887
:100160007F3F00087F3F00087F3F00087F3F000877
:100170007F3F00087F3F00087F3F00087F3F000867
:100180007F3F0008DFF80CD015F00AFA004800475E
:10019000A7030008F0470020EFF30980704780F3C1
:1001A00009887047EFF30880704780F3088870472C
:1001B00040BA7047C0BA704738B505F019FE01F073
:1001C000EDFB002423462CA22CA12DA000940BF0C3
:1001D00060FB002815D02CA007F025FD28A126A043
:1001E0000BF078FC002324A224A125A000940BF09E
:1001F00050FB48B134A007F016FD0A200AF061F95F
:10020000FBE73EA007F00FFD03F0DEFE43490120AF
:10021000087038BD7CB505240A264FF480552B465E
:100220000022AFF26B01CDE900643DA00AF092F824
:1002300008B10AF043F83C484FF48063002200788C
:10024000CDE9000639493AA00AF084F83B49086034
:1002500008B10AF033F83A482B4600220078CDE97D
:100260000004384938A00AF075F8394908600AF0E6
:1002700025F800207CBD0000656C6D002F0000009B
:10028000666C6173683000005344436172642046B9
:10029000696C652053797374656D20696E69746942
:1002A000616C7A6174696F6E206661696C65642146
:1002B0000A466F726D617420746865205344206330
:1002C0006172642E0A0000005350492046696C6533
:1002D0002053797374656D20696E697469616C7AF5
:1002E0006174696F6E206661696C65642061676125
:1002F000696E20212121200A00000000535049206E
:1003000046696C652053797374656D20696E6974F4
:1003100069616C697A6564210A000000520000205E
:10032000696E69740000000000000020B109000837
:100330007379735F73746174757300000400002037
:1003400008000020110B00087379735F49415000C9
:100350001400002004460D4616A007F064FC214658
:100360001EA007F060FC294621A007F05CFCFEE718
:1003700010B500F04DFD07F076FC05F0F7FC09F034
:10038000F4FB0AF0AEFA1F491F4807F0DEFD09F042
:1003900086FDFFF73FFF0AF0A9FA05F021FFBDE84F
:1003A000104009F093BD10B50AF09EFBFFF7E0FF87
:1003B000002010BD0A0D2057726F6E6720706172A9
:1003C000616D657465722076616C75652064657415
:1003D0006563746564206F6E0D0A00002020202084
:1003E00020202066696C65202025730D0A0000001E
:1003F000202020202020206C696E65202025640D9F
:100400000A00000000000220F04700200A460146D2
:1004100068A007F008BC002101E041404008002826
:10042000FBD101F001007047012080F313886E4872
:1004300001686E4A01F4E06111430160BFF34F8F20
:10044000FEE7FFF7F1FFFEE700B5002801D0FFF758
:10045000EBFF00BD00B5002801D1FFF7E5FF00BDAF
:100460002DE9F04395B01D0090460E4607464FF02B
:10047000000401D0102D00D91025014600220DA83E
:100480000AF03AFD002806DA394659A007F0CBFBFE
:1004900015B0BDE8F0833EB131460DA80AF020FE4C
:1004A000B04201D056A01EE0E94633220021684642
:1004B00007F009F92A4669460DA80AF099FD064693
:1004C000A84213D200254F460AE0795D54A007F0F8
:1004D000AAFB641CB8F1000F01D044451AD26D1C70
:1004E000B542F2D34DA007F09EFB13E000270BE0CE
:1004F00019F807104AA007F096FB641CB8F1000F2A
:1005000001D0444506D27F1CB742F1D343A007F087
:100510008AFBCAE70DA80AF049FDB9E71FB50446F2
:1005200009B10AF0E0FE00224FF4817120460BF081
:1005300067FB040006D501463BA007F074FB20468C
:1005400004B010BD69460BF02DFC029818B10146AD
:100550003CA007F068FB20460BF078FB0020EFE79B
:1005600070B50E46002242F201010BF049FB040077
:1005700006D501463AA007F056FB4FF0FF3070BD9C
:10058000304614F0D0FA05460246314620460BF0BC
:1005900098FB0146A84208D037A007F044FB20464C
:1005A0000BF054FB6FF0010070BD20460BF04EFBCA
:1005B000002070BD44454255473A2057726F6E6720
:1005C00020706172616D65746572732076616C75FF
:1005D000653A2066696C65202573206F6E206C6912
:1005E0006E652025640D0A000CED00E00400FA059C
:1005F0004F70656E202573206661696C65640A0022
:10060000537461727420706F736974696F6E2069BE
:1006100073206F766572666C6F7721200A00000088
:1006200025303258200000004372656174652066F1
:10063000696C65206661696C6564203A20256420D8
:100640000A00000046696C6520697320657869734B
:1006500074202C2073697A65203A2025640A0000F2
:1006600046696C65206F70656E206661696C6564B3
:10067000203A2025640A000046696C6520616464A4
:10068000206572726F722C20777269746564202500
:10069000642062797465730A000000000021017013
:1006A00041708172C1728181C181012202714271E6
:1006B000C1800181704702784270017070472DE956
:1006C000F041044600780126022710B32078012863
:1006D00020780FD003282ED02078042811D021783C
:1006E0000920052922D0217807291FD02078082841
:1006F00021D00EE0617888420BD0A77207E0A67285
:1007000005E020786178884203D00620A072207826
:100710006070A07A00254FF003080A287DD2DFE838
:1007200000F00F1852243F489B647D862178627840
:100730009142EBD1EDE7207861788842DFD1E8E79C
:10074000A07AE17A884202D0A07AE072A5810021E5
:1007500007E0A07AE17A884202D0A07AE072A5810F
:10076000012109200EF08BFA6CE0A07AE17A884230
:1007700003D0A07AE072A581E681A08930B1A0897A
:10078000142805D0A089C82840D205E0012100E046
:10079000002109200EF073FAA089401CA08151E0CD
:1007A000A07AE17A8842E8D0A07AE072A581E78158
:1007B000E3E7A07AE17A8842DFD0A07AE072A581EF
:1007C000A4F80E80D9E7A07AE17A884202D0A07A14
:1007D000E072A581A0890028D8D0A0891428D7D09C
:1007E000A089C828D8D3A5812CE0A07AE17A8842D4
:1007F00003D0A07AE072A581E681A0890028C5D047
:10080000A0890A28C4D0A0893228C5D3A581E0894F
:10081000401EE081E08900B114E012E0A07AE17AA4
:100820008842EAD0A07AE072A581E781E5E7A07A64
:10083000E17A8842E1D0A07AE072A581A4F80E8026
:10084000DBE7A57220790A2849D2DFE800F0161FFD
:100850005E2C4B54936F8089A07AE17A884202D053
:10086000A07AE072A581A08900288FD0A0890A28EB
:100870008ED0A0893228B6D28EE72079617988425D
:1008800002D020796071E580002107E0207961794C
:10089000884202D020796071E5800121BDE8F041F5
:1008A00008200EF0ECB920796179884203D02079D4
:1008B0006071E5802681E088B8B3E08814286CD0A8
:1008C000E088C82804D26AE008200EF0D8F966E073
:1008D000E5802089401E20812089002800D12571D3
:1008E000BDE8F081207961798842E4D02079607197
:1008F000E5802781DFE7207961798842DBD02079A4
:100900006071E580A4F80880D5E720796179884294
:1009100002D020796071E580E08830B1E088142849
:100920003BD0E088C82834D239E034E020796179BE
:10093000884203D020796071E5802681E08850B339
:10094000E0880A2829D0E0883228C1D227E020791F
:1009500061798842F2D020796071E5802781EDE7E6
:10096000207961798842E9D020796071E580A4F826
:100970000880E3E720796179884202D020796071AC
:10098000E580E08838B1E0880A2806D0E08832287F
:1009900005D3E580A4E7012196E7002194E7E088EC
:1009A000401CE0809CE70178052900D00078704762
:1009B0000D4C207898B10D48FFF770FE0B480121CF
:1009C00002784270017004460848FFF778FE2078EC
:1009D000052800D02078012009F073FDF4E70120FC
:1009E00009F06FFDE5E70000520000203C0B0020FD
:1009F0002DE9F04786B000248246694604940BF046
:100A0000D1F90298671E002830D001F08DFA66A057
:100A100007F009F96A4D02992846014401F0D5FA18
:100A200068A007F000F96DA007F0FDF8AE144FF0D4
:100A30000A0832466A4950460BF024F981460246BC
:100A40006849674801F096FB05EB442004904A464C
:100A5000644904A801F0F6FA78B101F05FFE62A0E3
:100A600007F0E1F8384606B0BDE8F08764A007F06B
:100A7000DAF850460BF0EAF8F4E7B14509D068A07F
:100A800007F0D1F867A007F0CEF801F047FE00208C
:100A9000E9E7641CB4FBF8F108FB11400028C8D159
:100AA00066A007F0C0F8C4E700204FF0E021421E26
:100AB000C1F88021530DC1F88431C1F88022C1F8FA
:100AC0008432014600F1E02282F80014401CF02834
:100AD000F8D370475A4807F0A6F80A2009F0F1FC4D
:100AE000FFF7E2FF02F012F935480168554A11405C
:100AF000B1F1005F0BD14168534C6160216000216E
:100B000081F314880068FFF750FB20688047FEE7F8
:100B100001210024080702F039FA4C4D287828B941
:100B20000A2009F0CEFC641C142CF7DB0022022101
:100B300047A00BF065F8002831DB0BF087F848A0E0
:100B400007F071F8002211464DA00BF059F804008F
:100B500022D450A007F067F82046FFF749FF544D14
:100B60004FF4967628B107202870304609F0A9FC8A
:100B700015E050A007F057F820460BF067F834A0B6
:100B80000AF0B1FB0A2009F09CFC082028703046CE
:100B900009F097FCFFF79EFF4FA007F044F853A021
:100BA00007F041F80A20F3E745726173696E672028
:100BB00074686520666C617368202E0A000000006E
:100BC0000000020857726974696E672074686520B6
:100BD000666C617368202E0A000000000A7C000029
:100BE000500B002050130020466C61736820777210
:100BF000697465206572726F7220210A000000001E
:100C00004669726D776172652066696C65206973EB
:100C100020696E76616C69616420210A0000000021
:100C20007C0A0000466C61736820777269746564A1
:100C300020646F6E65202E0A000000003E00000058
:100C4000748901080000FE2F0C00002052000020D3
:100C50002F66772F757067726164652E666C67000A
:100C60004669726D77616972207570646174652080
:100C7000666C6167206973207365742E0A0000003A
:100C80002F66772F6669726D776172652E62696E65
:100C9000000000004669726D776169722066696CB8
:100CA00065206861766520666F756E642E0A0000A7
:100CB0003C0B00204669726D776169722075706423
:100CC00061746564207375636365737366756C6CBA
:100CD0007920210A000000004E6F206669726D774E
:100CE0006169722066696C6520210A004E6F20617F
:100CF000637469766520696E7075742C20617574F3
:100D00006F2D72756E207468652041505020210A45
:100D10000000000010B54FF48021480201F09FFC54
:100D2000BDE810404FF4A06001F064BC1FB56846F8
:100D300002F0AAF83D490098B0FBF1F04FF47A7147
:100D40004843B0F1807F0DD220F07F414FF0E0208A
:100D5000491E4161364AF02182F8141D002181614B
:100D600007210161042001F08BFC1FBD10B506F0C6
:100D700069FC304C2068401C20600A2803D305F031
:100D800003F800202060BDE8104006F066BC10B5F6
:100D900004F0EDFF4FF0E0214A698B694969D21AEE
:100DA00002EB82025200B2FBF1F100EB800001EB9A
:100DB000400010BD10B504F0DAFF4FF0E0214A69A1
:100DC0008B694969D21A42F210735A43B2FBF1F1AE
:100DD0001A11504301EB001010BD70B50022022320
:100DE000002813DB002911DB134C00BF02EB420586
:100DF00025446E78864206D1AD788D4203D102EB50
:100E00004200205C70BD521C9A42EFDB002070BD96
:100E100010B5FFF77FFFFFF789FF00F003FA01F03D
:100E200016FABDE8104005A006F052BF40420F0080
:100E30000FE000E058000020AA700108756172748C
:100E4000310000007047FEE7FEE7FEE7704770479D
:100E50007FB50C46050004D17322FC49FCA006F0C6
:100E600088FF24B97422F949FEA006F082FF2068A9
:100E70002D6C4FF4166188421BD04900884218D06F
:100E80004900884215D04900884212D04900884262
:100E90000FD04FF4614188420BD04900884208D0FE
:100EA0004900884205D04900884202D04900884262
:100EB00000D100916168002001F00F02082A06D1DC
:100EC00011F0C00F03D05102ADF8041001E0ADF8ED
:100ED0000400616811F0300F04D0C1F30111012941
:100EE00003D006E0ADF8060003E04FF40051ADF882
:100EF0000610616811F0C00F05D0C1F381110129FE
:100F000014D0022915D0ADF8080000BFADF80C00D0
:100F10000C20ADF80A006946286802F0C0FE0121E5
:100F2000286802F02DFF04B0002070BD4FF4C061AE
:100F300001E04FF48061ADF80810E7E770B51646A0
:100F40000D46040005D1C149B1221031C0A006F000
:100F500010FF216C032D25D0012040F22553102DC8
:100F60000FD0112D22D191F9042002F01F04A040CE
:100F70005209920002F1E022C2F8800100220868C2
:100F80000CE091F9042002F01F04A04052099200E5
:100F900002F1E022C2F8000108680122194602F0BD
:100FA0008EFF03E031462046FFF752FF002070BD60
:100FB00070B50D46040005D1A449CE221E31A4A06F
:100FC00006F0D7FE206C006801880906FCD58580F4
:100FD000012070BD10B5040005D19C49DC222931E7
:100FE0009BA006F0C6FE216C4FF0FF3009680A880E
:100FF000920601D58888C0B210BD70B59D4C06F030
:1010000021FB40F22551206802F07BFF18B101213D
:1010100099480EF0E8F840F226652946206802F06B
:1010200070FF18B12946206802F08AFFBDE87040C1
:1010300006F013BB70B58F4C083406F003FB40F28A
:101040002551206802F05DFF20B18B480121583006
:101050000EF0C9F840F226652946206802F051FFDB
:1010600018B12946206802F06BFFBDE8704006F019
:10107000F4BA70B57F4C103406F0E4FA40F2255112
:10108000206802F03EFF20B17B480121B0300EF015
:10109000AAF840F226652946206802F032FF18B10E
:1010A0002946206802F04CFFBDE8704006F0D5BA32
:1010B00070B5704C183406F0C5FA40F2255120681E
:1010C00002F01FFF18B101216C480EF08CF840F2BD
:1010D00026652946206802F014FF18B129462068C9
:1010E00002F02EFFBDE8704006F0B7BA70B5614C53
:1010F000203406F0A7FA40F22551206802F001FFE3
:1011000020B15E48012158300EF06DF840F226659E
:101110002946206802F0F5FE18B12946206802F041
:101120000FFFBDE8704006F098BA2DE9FC4102209F
:101130008DF8040000218DF8061001218DF80710AC
:1011400044024F4E8DF8050069463046009401F088
:10115000D3FC601000906946304601F0CDFC0722B8
:101160000921304601F051FD07220A21304601F0E5
:101170004CFD082000906946304601F0BDFC042576
:1011800069463046009501F0B7FC0722022130463F
:1011900001F03BFD07220321304601F036FD394FB7
:1011A000660069463846009601F0A6FC6946384656
:1011B000009401F0A1FC07220A21384601F025FD28
:1011C00007220B21384601F020FD00962E4E69467D
:1011D000304601F091FC69463046009401F08CFCE9
:1011E00008220A21304601F010FD08220B2130466A
:1011F00001F00BFD254C69462046009501F07CFC72
:10120000A01400906946304601F076FC08220C21BB
:10121000304601F0FAFC08220221204601F0F5FCDC
:10122000BDE8FC812DE9FF5F08484438D0E9045A45
:10123000D0E906B2D0E902670392D0E90812CDE9FD
:101240000012D0E90A90029022E00000F470010838
:1012500073657269616C20213D2052545F4E554C7C
:101260004C00000063666720213D2052545F4E55BC
:101270004C4C00005C000020501B0020581C00203B
:10128000000002400004024000080240000C02403E
:1012900000F063F8FFF749FF5A48594CDFF85C81CA
:1012A00080E8D000404600F097F84346554840F2A9
:1012B0000318424654A144380DF06FFF51484F4E79
:1012C000143000F128074464C7E9085A083630464C
:1012D00000F082F8334642464DA1A7F128000DF0F8
:1012E0005CFF07F1300006F108054464039A2846C4
:1012F000C7E91EB200F070F82B46424646A107F13E
:1013000030000DF04AFF07F1880008354464DDE93C
:1013100000120838C0E91412284600F05DF82B4688
:1013200042463FA107F188000DF037FF07F1E000CA
:1013300000F12002446402980835C2E90A90284668
:1013400000F04AF82B46424637A107F1E0000DF0C5
:1013500024FF04B00020BDE8F09F10B5012108462D
:1013600001F0F6FD0121084601F0F2FD01211020F7
:1013700001F016FE0121084601F0EAFD01210846B0
:1013800001F0E6FD0121480401F000FE01210220E8
:1013900001F0DEFD0121022001F0DAFD01218804C7
:1013A00001F0F4FD0121042001F0D2FD012104200F
:1013B00001F0CEFD0121C80401F0F2FD012104205D
:1013C00001F0C6FD0121082001F0C2FD0121BDE8A8
:1013D0001040080501F0E4BD08B500798DF8000063
:1013E00003208DF8010000208DF8020001208DF807
:1013F0000300684601F003F908BD00005C0000200E
:10140000E0700108941B00207561727431000000C7
:1014100075617274320000007561727433000000EF
:1014200075617274340000007561727435000000DB
:1014300010B54169CB4BA1F14502D41702EB947270
:10144000921040F2A324463962434B4303EBC2128D
:10145000C54C0369012B54F823402244C34C04DDDE
:101460008907B1F1004F00D02244C16840F2A323A4
:10147000594302EBC11182682144C2EB4213C3EB12
:10148000022201EB021142680068C2EB021201EB7A
:101490008201084410BD0020704700207047F0B55D
:1014A0008BB016460F4620B95522B149B1A006F0BF
:1014B00060FCAD4C083C251D102F02D0112F3FD1F0
:1014C0001CE0A9490020083901F034FFA64900209A
:1014D000091F01F09DFFA0780090607801902078AE
:1014E00002906878401E0490A8780390E87846300F
:1014F00005906846FFF79CFF306021E00121080756
:1015000001F044FD012001F0AFFB304613F028FE4E
:101510000178A17001796170017A2170017C491C08
:101520006970017BA970007D8F494638E8700839E1
:10153000002001F0B3FE8C490020091F01F01DFFBF
:101540000BB00020F0BD10B501214FF400140807C6
:1015500001F01CFD012001F087FB012001F02CFCB3
:10156000412001F0F1FB88B194B14FF4807001F09B
:10157000CEFC7D48FF21103841607F2101600120B1
:1015800001F0DAFC01F0ACFD002010BD641EE7D1D3
:101590004FF0FF3010BD10B5FFF7D5FF4FF0FF340F
:1015A000002825DB704A0021083A01201170517093
:1015B0009170121D50709070D170042010700C3A10
:1015C00013687048436052688260016001F015FE44
:1015D00065490120083901F061FE63490120091FB6
:1015E00001F0CBFE674801F008FE08B1002010BDF5
:1015F000204610BD10B5634C05200C340121207627
:10160000080701F0C3FC0121880401F0A1FC0120BE
:1016100001F02AFB012002F013F9A0F52541A539BC
:101620000DD059A006F0FFFA5DA006F0FCFAFFF716
:10163000B2FF30B1BDE8104065A006F0F4BA01F089
:101640004FFD69490020C4E90A0168490322C4E941
:101650000C016749C4E90E0120644A48BDE8104006
:1016600064A10C3004F0FABB38B5044600200090A9
:1016700061A004F0CDFB30B16A46102104F0E4FC17
:101680000CB100982060009838BDF8B505461646A4
:101690000C466846FFF7E8FF684613F061FD28B185
:1016A000641EA5F26C75C660C0E9044513F094F998
:1016B000009050A004F0ACFB18B16A461121FFF76E
:1016C000EEFE01F00DFD4AF2A551012002F0B0F846
:1016D000F8BDF8B5064614460D466846FFF7C4FF48
:1016E000684613F03DFD08B180E8700013F074F90E
:1016F000009040A004F08CFB18B16A461121FFF75E
:10170000CEFE01F0EDFC4AF2A551012002F090F866
:10171000F8BD10B5044638A004F07AFB18B1224693
:101720001121FFF7BCFE01F0DBFCBDE810404AF2DE
:10173000A551012002F07CB801B5009800F5E14008
:1017400000906846FFF7E5FF08BD08B56846FFF75B
:101750008BFF684613F094F9014628A006F063FA5F
:1017600008BD00008033E1019400002080AEFEFF40
:101770002871010864657620213D2052545F4E5542
:101780004C4C0000081D0020727463206973206EA9
:101790006F7420636F6E666967757265640A000016
:1017A000706C6561736520636F6E666967757265DD
:1017B0002077697468207365745F64617465206163
:1017C0006E64207365745F74696D650A00000000C3
:1017D00072746320636F6E666967757265206661F7
:1017E000696C2E2E2E0D0A00971400089B14000819
:1017F0009F140008727463007274630025730A00FA
:101800002DE9FC410121022001F0A2FB0121084643
:1018100001F09EFB02268DF8046000278DF806700B
:1018200001248DF8074003208DF805003820DFF8EB
:10183000A48100906946404601F05EF9052203212B
:10184000404601F0E2F905220421404601F0DDF9AD
:1018500005221146404601F0D8F95FA2604961486F
:1018600000F0E7FD8DF804408DF806705F4D8DF8AF
:1018700007408DF805605C482860E003A8800121DE
:10188000084601F065FBA9880091286801F0AEF9CF
:101890006946286801F030F951482B464EA254A100
:1018A00078300DF0DDFD8DF804408DF806708DF870
:1018B000074005F108048DF805600420C4F8008095
:1018C000A0800121022001F043FBA1880091206843
:1018D00001F08CF96946206801F00EF94048234672
:1018E0003DA245A1C8300DF0BBFDBDE8FC8110B59F
:1018F000002101200DF0AFF9002102200DF0ABF91D
:10190000002103200DF0A7F9012100200DF0A3F91B
:10191000012104200DF09FF9012103200DF0AFF902
:10192000012108460DF0ABF9012102200DF0A7F9C5
:10193000002106200DF08FF900210A200DF08BF90F
:10194000012105200DF087F9012107200DF083F911
:10195000002106200DF093F901210A200DF08FF9E6
:10196000002108200DF077F9002109200DF073F90E
:10197000002108200DF083F9002109200DF07FF9E6
:1019800001210B200DF067F900210C200DF063F907
:101990000021BDE810400C200DF071B910B5184BB6
:1019A000184A19A11AA013F0FBF815480278154837
:1019B000017819A006F037F9FFF722FF0CA11CA04F
:1019C00000F030F910B11CA006F02DF9BDE8104070
:1019D000FFF710BE00040240737069310000000080
:1019E000581D00200030014000000240C4000020CB
:1019F000737069313000000073706931310000008C
:101A0000540000205300002025642E2564000000AF
:101A1000312E3031000000000A5357207665727372
:101A2000696F6E3A2025642E253032640A0000006A
:101A3000666C6173683000005B6572726F725D2066
:101A40004E6F20737563682073706920666C6173D4
:101A500068210D0A000000002DE9FC4717460E46DC
:101A6000044610F0FF0F04D07B22CA49CAA006F03A
:101A700080F9DFF838834FF006098DF80490454669
:101A8000012201A9D8F8500000F069F920208DF852
:101A90000400200C8DF80500200A8DF806008DF852
:101AA0000740042201A9286D00F059F900F060F9FF
:101AB000002523E08DF80490012201A9D8F85000F8
:101AC00000F04DF902208DF80400200C8DF805007F
:101AD000200A8DF806004FF480708DF807400090C2
:101AE0003346042201A9D8F850000DF002FD04F598
:101AF000807406F5807600F03BF96D1CB5EB172F6E
:101B0000D8D304208DF80400012201A9D8F8500090
:101B100000F025F93846BDE8FC870020704738B54D
:101B2000044600F020F9A14D06208DF800000122A6
:101B30006946286D00F013F901208DF8000000209F
:101B40008DF801008DF8020003226946286D00F02F
:101B500006F900F00DF904F1540004F040FE0020F5
:101B600038BD0020704770B514460D4628B9894924
:101B7000C32212318EA006F0FCF8102D07D144B11B
:101B80008A48816C6160416C2160C06CA06000205B
:101B900070BD4FF0FF3070BD2DE9FC479A461646E8
:101BA0008846814600F0DFF8804F04200122BC6C9B
:101BB0008DF80400254604FB08F405FB0AF501A98D
:101BC000386D00F0CCF803208DF80400200C8DF85F
:101BD0000500200A8DF806008DF807400095334671
:101BE000042201A9386D0DF0E2FC09F1540004F063
:101BF000F6FD50468FE72DE9F0411D4617460E468B
:101C0000044600F0B0F869483946806C00FB05F2E4
:101C10007043FFF721FF04F1540004F0E0FD284673
:101C2000BDE8F0812DE9FE43064660480C4654307D
:101C30000022804604F06CFC6FF0050708B160A03C
:101C40005EE0204604F0E4F8002835D0574C082127
:101C5000042520658DF80110604901918DF8005030
:101C600069460DF01BFC204600F07DF88DF8085009
:101C7000012202A9206D00F072F89F208DF8080063
:101C80000320009001AB012202A9206D0DF08FFC12
:101C9000404604F0A4FD9DF80400EF2811D050A0A8
:101CA00005F0C1FF9DF806309DF805209DF8041051
:101CB00052A005F0B8FF25E021465AA005F0B3FF79
:101CC00020E04FF48055A564E5649DF805009DF87B
:101CD000061041EA0020A0F58041183915D0491CB2
:101CE00015D0AD10491C19D0B1F5005118D06D10A8
:101CF000A0F58041153915D0B1F5005114D050A090
:101D000005F091FF3846BDE8FE8354A00DE059A0D0
:101D100005F089FF4FF40060606409E05EA004E014
:101D200063A002E068A000E073A005F07CFF65649A
:101D3000012020767648A0627648E06276482063EB
:101D4000764860637648A0637648E06300202064AC
:101D50000B223146154804F081F80020D3E71346E2
:101D600000220DF07EBC4FF0FF31543004F058BC1F
:101D7000FEB50E4C05250126206D8DF8045002ABF2
:101D8000012201A900960DF012FC9DF80800C00781
:101D9000F2D1FEBD37710108287061676526307881
:101DA000464629203D3D203000000000701E0020E6
:101DB00064657620213D2052545F4E554C4C000006
:101DC000696E6974207364206C6F636B206D757429
:101DD0006578206661696C65640A000080F0FA022B
:101DE0004D616E75666163747572657273204944E6
:101DF000206572726F72210D0A0000004A45444549
:101E00004320526561642D49442044617461203A45
:101E10002025303258202530325820253032580DB8
:101E20000A00000073706920646576696365202587
:101E300073206E6F7420666F756E64210D0A00004A
:101E40004D656D6F727920436170616369747920AB
:101E50006572726F72210D0A000000005732355111
:101E6000313238425620646574656374696F6E0D53
:101E70000A0000005732355136344256206F722026
:101E8000573235513634435620646574656374693E
:101E90006F6E0D0A00000000573235513332425642
:101EA00020646574656374696F6E0D0A000000003C
:101EB0005732355133324457206465746563746911
:101EC0006F6E0D0A00000000573235513136425610
:101ED000206F7220573235513136434C206F7220BB
:101EE00057323551313643562064657465637469E1
:101EF0006F6E0D0A000000005732355131364457DD
:101F000020646574656374696F6E0D0A00000000DB
:101F10001B1B00081F1B0008631B0008991B0008FF
:101F2000F71B0008671B000810B500F0EBFBBDE8CD
:101F30001040F32000F071BD0021A0F100634FF4C8
:101F4000804293423FD376490144914201D2082115
:101F500039E074490144914201D2102133E07249C1
:101F60000144914201D218212DE070490144B1F59C
:101F7000803F01D2202126E06D4942184FF4003104
:101F80008A4201D228211EE06A4A02448A4201D2D2
:101F9000302118E0684A02448A4201D2382112E016
:101FA000664A02448A4201D240210CE0644A02445B
:101FB0008A4201D2482106E0624A1044884201D296
:101FC000502100E058210846704770B50D46FFF7D4
:101FD000B3FF04462846FFF7AFFF054608E002219D
:101FE000204600F0CAFB082801D0012070BD08344B
:101FF000AC42F4D9002070BD2DE9F0474F4F0025C9
:10200000164689460446FF4315E000BF19F80580CF
:102010002068414600F06BFC082802D00120BDE892
:10202000F08720680178414501D00220F7E7206859
:10203000401C20606D1CB54202D22068B842E5D930
:102040000020ECE72DE9F0470446006816460F46ED
:10205000002580070CD0206800F00300C0F10400C8
:10206000804602462046FFF7C7FFA6EB0806474416
:10207000DFF8D48014E000BF57F825902068494667
:1020800000F0FBFB082801D00120C8E720680168A8
:10209000494501D00220C2E72068001D20606D1C68
:1020A000B5EB960F02D221684145E5D9684206EBAF
:1020B000800207EB85012046FFF79EFF0020AEE778
:1020C0001B4810B54042FFF737FF044600F080FC84
:1020D0000146E008C14040F6FF72C240914201D182
:1020E000012010BD002010BD08B50820022000907E
:1020F0000F484042FFF720FFC10801208840C0F58B
:102100008050009000F00EFC0021009800F01DFCB3
:1021100000F051FC082801D0022008BD012008BDB4
:1021200000C0FFF70080FFF70040FFF70000FFF757
:102130000000FEF70000FCF70000FAF70000F8F7D7
:102140000000F6F70000F4F7FCFF0708F0B5144CA8
:10215000134D002324682D1D09E01F1907F0030704
:1021600005EB4727C65CFF5C3E44CE545B1C9342A4
:10217000F3D3F0BDF0B50A4C0023261D25680BE013
:102180005F1907F0030706EB4727C45CFF5CE41BFD
:1021900004F58074CC545B1C9342F1D3F0BD000075
:1021A000D40000200D2803D22D4901EB0010704708
:1021B0000020704710B5C8B2FFF7F4FF00280BD01D
:1021C0008189806889B21AB1BDE8104000F00EBD67
:1021D000BDE8104000F00CBD10BD10B50024C8B221
:1021E000FFF7E0FF30B18189806889B200F0EAFC36
:1021F00000B10124204610BD7CB51546C8B2FFF7DA
:10220000D1FF04001AD00121606800F0A1FEE0684F
:10221000002100908DF8061003208DF805000120A4
:102220006DB1012D0ED0022D8DF8041000D00220CA
:102230008DF807006946A06800F05EFC7CBD8DF853
:10224000040001E08DF804108DF80710F2E704494E
:1022500010B50022D03103A00CF0E3FC002010BD2B
:102260006071010870696E0030B585B0456C0C4630
:10227000684601F020FC60780021082802D8ADF8FB
:10228000041005E0102814D84FF40060ADF80400E5
:102290007A4A6068904200D91046794A12689208DA
:1022A000B0EB520F08D3774B9A4205D8ADF80C101B
:1022B00023E0082005B030BDB0EB920F01D3082019
:1022C00019E0B0EBD20F01D3102014E0B0EB121FD5
:1022D00001D318200FE0B0EB521F01D320200AE0F9
:1022E000B0EB921F01D3282005E0B0EBD21F01D341
:1022F000302000E03820ADF80C002078800703D5AE
:102300000220ADF8060001E0ADF806102078C00705
:1023100003D00120ADF8080001E0ADF808102078E6
:10232000400702D5ADF80E1002E08020ADF80E0097
:10233000ADF800104FF48270ADF802004FF4007059
:10234000ADF80A00686F01F017FB6946686F01F08D
:1023500037FB0121686F01F0C3FB0021686F01F0BA
:102360000AFC0020A6E72DE9F0470C46416C00F17D
:102370004806076C207CD1F874A0A568C00703D07C
:10238000B988386800F034FC7078082823D8D4E97C
:1023900000861DE04FF0FF09B8F1000F01D018F8DA
:1023A000019B0221504601F011FC0028F9D049465A
:1023B000504601F0DEFB0121504601F007FC0028E9
:1023C000F9D0504601F0D3FBC0B20EB106F8010BB4
:1023D0006D1EDFD223E0102821D8D4E900861CE04E
:1023E0004FF0FF09B8F1000F01D038F8029B02212D
:1023F000504601F0EBFB0028F9D04946504601F069
:10240000B8FB0121504601F0E1FB0028F9D050460D
:1024100001F0ADFB0EB126F8020B6D1EE0D2207C60
:10242000800703D5B988386800F0E0FBA068BDE8F4
:10243000F08770B50C4614491546884205D161678E
:102440000121801400F0ACFD0EE01049884203D158
:1024500061670121001405E00D4988420BD16167D5
:102460000121C01300F092FD29462046BDE87040CE
:10247000084A0CF0E3BF062070BD000080C3C9010C
:10248000E00800200187930300300140003800403D
:10249000003C0040D80800204C4810B5016841F0CD
:1024A00001010160494A0021083211600268484B6D
:1024B0001A400260031D474A1A60026822F4802213
:1024C000026042480C30016000F03AF8434942484B
:1024D000086010BD70B53D4C08342068404A10F0CB
:1024E0000C01404804D0404D042903D0082903D0F2
:1024F00002601BE0056019E03449091D0B68C3F355
:1025000080560B6803F03F0316B1B5FBF3F201E010
:10251000B2FBF3F20B680968C3F388135A43C1F3A3
:102520000141491C4900B2FBF1F1016021682D4ACB
:10253000C1F30311121D515C0268CA40026070BDF4
:102540000CB50021214801910091026842F48032CB
:1025500002604FF4A063026802F400320092019A14
:10256000521C0192009A12B9019A9A42F3D1026860
:10257000920329D501210091144908310A680A60A3
:102580000A6842F400420A600A6842F4A0520A60F3
:102590000B1F164A1A60026842F0807202600268DD
:1025A0009201FCD5124A40F203701060086820F0D6
:1025B00003000860086840F0020008600868C0F383
:1025C00081000228FAD10CBD00910CBD00380240F8
:1025D000FFFFF6FE103000240000040808ED00E0C4
:1025E0000024F400E008002040787D01193C4005FB
:1025F000003C02402849084328490860704730B52C
:102600000F22C47801780123FCB1244C246801F125
:10261000E02104F4E064C4F5E064C4F30724C4F1E9
:102620000405E2404478AC408578154025432A01F2
:1026300081F80024007800F01F018B4040098000E1
:1026400000F1E020C0F8003130BD01F01F008340F0
:102650004809800000F1E020C0F8803130BD104A08
:10266000114001430D48001F016070470B4A121DC5
:102670000029116801D0014300E0814311607047D7
:102680004FF0E0210428086903D020F0040008611D
:10269000704740F00400FAE70000FA050CED00E096
:1026A00080FFFF1FDF4908707047DE490028086877
:1026B00002D040F4807001E020F480700860704720
:1026C000D8490028086802D040F4007001E020F4E6
:1026D000007008607047D3490028086802D040F4B1
:1026E000806001E020F4806008607047CD48016898
:1026F00041F4006101607047CA48016841F48051AB
:1027000001607047C74810300068002805DAC548E6
:10271000C549001D0160C54901607047C1481030BE
:10272000016841F0004101607047BE4908200C314A
:102730000A68D20301D5012070470A68D20601D584
:10274000052070470A6812F0EF0F01D0062070478D
:1027500009688907FBD50720704708B508208DF860
:10276000000000BFFFF7E1FF8DF800009DF80000BA
:102770000128F7D09DF8000008BD70B50646002579
:1027800029B1012928D0022929D04FF44075FFF73B
:10279000E4FF08281FD1A34C1034206820F44070B7
:1027A0002060206828432060206820F0F800206026
:1027B000206846F0020108432060206840F4803021
:1027C0002060FFF7CAFF216821F002012160216823
:1027D00021F0F801216070BD4FF48075D7E74FF408
:1027E0000075D4E730B504460025FFF7B6FF2CB1DD
:1027F000012C1DD0022C1ED04FF44075082816D194
:10280000884C1034206820F44070206020682843F1
:102810002060206840F004002060206840F4803090
:102820002060FFF79AFF216821F00401216030BD8C
:102830004FF48075E2E74FF40075DFE7F0B5154619
:102840001E460746FFF789FF082815D1754C10343E
:10285000206820F440702060206840F440702060C0
:10286000206840F0010020603D607E60FFF775FF4A
:10287000216821F001012160F0BD70B50D460646CA
:10288000FFF76BFF082814D1664C1034206820F441
:1028900040702060206840F400702060206840F0A4
:1028A000010020603560FFF758FF216821F0010129
:1028B000216070BD70B50D460646FFF74EFF082833
:1028C00014D1584C1034206820F4407020602068E7
:1028D00040F480702060206840F001002060358066
:1028E000FFF73BFF216821F00101216070BD70B549
:1028F0000D460646FFF731FF082812D1494C103427
:10290000206820F44070206020682060206840F03B
:10291000010020603570FFF720FF216821F00101E0
:10292000216070BD3F4814300068C00705D03D48A5
:102930003F49083001603F49016070473948143011
:10294000016841F001010160704730B50D46044651
:10295000FFF703FF082807D13248163001880DB170
:10296000A14300E02143018030BD10B50446FFF7CC
:10297000F4FE082802D12B481530047010BD70B544
:1029800015460C460646FFF7E8FE082808D12549FB
:102990001431087800F00F0004432C4334430C70CA
:1029A00070BD204914310A7822F00C020A700A78AE
:1029B00002430A7070471B481430017841F002014D
:1029C0000170CAE6174814300068C0F3471070471A
:1029D00014481630008870471249002015310978D4
:1029E000AA2900D0012070470E481430007800F06A
:1029F0000C0070470B4A10320029116801D00143C6
:102A000000E08143116070470146064A00200C3205
:102A100012680A4200D00120704702490C31086058
:102A200070470000003C024023016745AB89EFCDB1
:102A30003B2A19087F6E5D4C7C4910B5884206D14F
:102A40000121084600F0B6FA002101204FE0784944
:102A5000884206D10121022000F0ACFA00210220B8
:102A600045E07449884206D10121042000F0A2FA11
:102A7000002104203BE07049884206D10121082052
:102A800000F098FA0021082031E06C49884206D114
:102A90000121102000F08EFA0021102027E0684963
:102AA000884206D10121202000F084FA0021202054
:102AB0001DE06449884206D10121402000F07AFAE5
:102AC0000021402013E06049884206D10121802086
:102AD00000F070FA0021802009E05C4988420AD1A8
:102AE00084150121204600F065FA00212046BDE84A
:102AF000104000F05FBA10BDF0B500230124032799
:102B00000D6804FA03F21540954242D1D0F800C096
:102B10005E0007FA06F52CEA050CC0F800C091F833
:102B200004C0D0F800E00CFA06FC4CEA0E0CC0F829
:102B300000C091F804C0BCF1010F02D0BCF1020F3B
:102B40001FD1D0F808C02CEA050CC0F808C091F8D5
:102B500005C0D0F808E00CFA06FC4CEA0E0CC0F8F0
:102B600008C0D0F804C02CEA020CC0F804C04268C7
:102B700091F806C00CFA03FC1FFA8CFC42EA0C0226
:102B80004260C268AA43C260CA79C568B2402A439B
:102B9000C2605B1C102BB3D3F0BD4FF6FF71016018
:102BA0000021017141718171C171704708B541F413
:102BB00080320092C261C1610099C161C169C0697E
:102BC000009008BD0246002012690A4200D0012090
:102BD0007047006980B270470246002052690A427D
:102BE00000D001207047406980B270470183704770
:102BF000418370470AB10183704741837047416147
:102C0000704742694A40426170474B07DB0E9A4069
:102C1000C90810B500EB8100016A0F249C40A14354
:102C20000162016A1143016210BD00000000024010
:102C30000004024000080240000C02400010024064
:102C40000014024000180240001C02400020024014
:102C500010B501210C07204600F0CAF92046BDE856
:102C60001040002100F0C4B9254908627047254A88
:102C7000116821F0E00101431160704720490861AB
:102C800070471F49C1F8A00070471D49C1F8A40052
:102C900070471B49486270471A4B1A6822F00302BA
:102CA00002431A601848026842F0040202600129D7
:102CB00005D020BF016821F004010160704730BFDA
:102CC000F8E71048016841F004010160016841F033
:102CD000020101600C48016841F00401016030BF4D
:102CE0007047084A0146002052680A4200D001207D
:102CF000704704490A6842EA800008607047000093
:102D000000000E420070004010ED00E0EA4801684B
:102D100041F001010160E84A0021083211600268B7
:102D2000E64B1A400260031DE54A1A60026822F46D
:102D300080220260E0480C3001607047DE490022CA
:102D4000891C0A7008707047024600205109012949
:102D50000CD002290CD0D8497431096802F01F0246
:102D6000012393400B4200D001207047D249F4E781
:102D7000D1497031F1E718B500204FF4A0640090FC
:102D80003120FFF7E1FF0099491C0091A14201D0D9
:102D90000028F5D03120FFF7D7FF002800D0012010
:102DA00018BDC5490A6822F0F80242EAC00008606E
:102DB0007047C44908607047BF49002270310A70EB
:102DC0000A70012802D0042801D10520087070473C
:102DD000BD490860704741EA82115A0810B5BB4BE3
:102DE000029C03EB02421143014341EA0460B249F1
:102DF000091D086010BDB34908667047800140EAAC
:102E00000170AD49843108607047AE4988667047EB
:102E1000AC49C8647047A84A08321368084323F0D5
:102E2000EC63184310607047A34A083213680843E4
:102E300023F078431843106070479F4A08321168A6
:102E400021F003010143116070479B48083000687E
:102E500000F00C007047984A0832116821F0F00128
:102E6000014311607047944A0832116821F4E0511F
:102E7000014311607047904908310A6822F46042AA
:102E800042EAC0000860704770B58B4A083211688A
:102E90008F4C11F00C0104D08E4E042903D0082968
:102EA00003D004601BE0066019E08349091D0B682C
:102EB000C3F380550B6803F03F0315B1B6FBF3F382
:102EC00001E0B4FBF3F30C680968C4F388146343AE
:102ED000C1F30141491C4900B3FBF1F101601168E4
:102EE0000F2303EA11117C4B5C5C0168E1404160F7
:102EF0001468072505EA94241C5D21FA04F4846013
:102F0000126805EA52329A5CD140C16070BDC0F3CC
:102F10000121032908D1684A0832116821F4F81305
:102F20006E49014019431160634970310A68C0F36A
:102F30000B0002430A6070476349443908607047D8
:102F400061494039086070475E49C1F85C017047CB
:102F5000594A30320029116801D0014300E0814311
:102F600011607047544A34320029116801D001437E
:102F700000E08143116070474F4A383200291168E0
:102F800001D0014300E08143116070474A4A40325A
:102F90000029116801D0014300E0814311607047AE
:102FA000454A44320029116801D0014300E08143C1
:102FB00011607047404A10320029116801D0014366
:102FC00000E08143116070473B4A143200291168C8
:102FD00001D0014300E0814311607047364A183246
:102FE0000029116801D0014300E08143116070475E
:102FF000314A20320029116801D0014300E08143A9
:10300000116070472C4A24320029116801D0014315
:1030100000E0814311607047274A5032002911684F
:1030200001D0014300E0814311607047224A5432CD
:103030000029116801D0014300E08143116070470D
:103040001D4A58320029116801D0014300E0814334
:1030500011607047184A60320029116801D001439D
:1030600000E0814311607047134A643200291168FF
:1030700001D0014300E08143116070470E4A0D32D8
:103080000029117801D0014300E08143117070479D
:1030900009487430016841F0807101607047014651
:1030A000054A00200C3212680A4200D00120704705
:1030B00001490E310870704700380240FFFFF6FEEC
:1030C0001030002400004742800E47420000FFFFFE
:1030D0000024F40040787D01F4080020FFFCFF0F7D
:1030E00018B50020FF490090CA20086053200860EE
:1030F000FC481838026822F0A0020260C41302687B
:10310000009B02F020025B1C0093A34201D0002A26
:10311000F5D00068800601D5012000E00020FF22E4
:103120000A6018BD08B500200090EE481838016804
:10313000490612D44FF0FF31016083130168009AF1
:1031400001F04001521C00929A4201D00029F5D0B2
:103150000068400601D4002008BD012008BD78B5F4
:103160000024E04ECA200094254630605320306091
:10317000FFF7D8FFA0B3DB4824380460D94942F2F6
:10318000011020390860081D016801F00701016085
:103190008513011D0A68009B02F004025B1C00936A
:1031A000AB4201D0002AF5D00A6852071CD502684C
:1031B0000460CC4A4FF6FF70103A1060121FCA48E4
:1031C0001060C8480C380460001D0460001D0460D5
:1031D0000C60C4481C300460FFF782FF20B1012559
:1031E000FF203060284678BD0025F9E7BD48183833
:1031F000016821F080010160704770B5B94E044646
:103200000025CA20306053203060FFF78BFFA8B143
:10321000B4481C38016821F040010160016822684F
:1032200011430160AF48A168143801600168A288A9
:1032300041EA02410160FFF7D9FF0125FF2030601C
:10324000284670BD002101607F214160FF2181601F
:103250007047A44908B1FF2002E0CA20086053204B
:103260000860704770B59F4C06460025CA20206054
:1032700053202060FFF756FF60B19A481C38016860
:1032800016B141F0100101E021F010010160FFF7DB
:10329000ADFF0125FF202060284670BD70B5934A20
:1032A0000C4603004FF000062078126831464FEAC2
:1032B000426204D0002A15DA00F053FB13E0002A22
:1032C00000DBE17000F041FB0504607800F03DFB9D
:1032D00045EA0025A07800F038FB0543E07845EA90
:1032E00000450AE0E170A078217840EA0145607865
:1032F000E178000240EA014005437A4CCA20206090
:1033000053202060FFF70EFF50B179480540774801
:1033100008380560FFF76AFFFFF7E2FE00B10126FB
:10332000FF202060304670BD0021C17001704170E7
:103330008170704710B50C466C49083909686C4AB1
:103340001140C1F305422270C1F30623637001F0FE
:103350007F03A370402303EA1141E17000280BD1E1
:10336000104600F0FEFA2070607800F0FAFA607003
:10337000A07800F0F6FAA07010BD70B50C46010000
:1033800060784FF0000625D000F0EBFAA07800F04E
:10339000E8FAA078E17840EA0145607821780002F7
:1033A00040EA413005434F4CCA2020605320206042
:1033B000FFF7B8FE50B14F4805404C48001F05606C
:1033C000FFF714FFFFF78CFE00B10126FF202060FD
:1033D000304670BDC10603D520F010000A30607081
:1033E000E07800F0B2FA0504607800F0AEFA45EA41
:1033F0000025A07800F0A9FA0543207845EA403579
:10340000D1E701210170817041700021C1707047C6
:1034100010B50C463549091F0968364A11400A0C97
:10342000E270C1F30423637001F03F03A370C1F3A2
:103430004231217000280BD1104600F092FAE07062
:10344000607800F08EFA6070A07800F08AFAA070C0
:1034500010BD70B514460D46244A0021002810689E
:103460004FEA406005D000281CDA207800F079FA95
:1034700019E0002800DBE170207800F066FA06040D
:10348000607800F062FA46EA0026A07800F05DFA63
:103490000643E07846EA0046207B00F056FA46EA0A
:1034A000006010E0E170207B00F05BFAA0782178EA
:1034B000E27840EA01406178090241EA02410843AA
:1034C000217B40EA0160A168064A0843616808431D
:1034D000CA21116053211160B5F5807F0FD0111FF3
:1034E000086009E024280040FF007F000828004011
:1034F0007F7F7F003FFFFF00FF20106070BDF94914
:10350000EEE70021C170017041708170012281607D
:1035100002734160704710B51446B1F5807F2BD01F
:10352000F049091D0968C1F305422270C1F3062361
:10353000637001F07F03A370402303EA1143E3703B
:10354000C1F30563237301F0804301F08031C4E9C6
:10355000011300280FD1104600F003FA20706078A4
:1035600000F0FFF96070A07800F0FBF9A070207BFC
:1035700000F0F7F9207310BDDA49D3E738B500221F
:103580000092D84BCA2208331A6053221A60D54AD7
:10359000143A0029116802D00143116012E08143FE
:1035A0001160D04A103A95131168009C01EA10216D
:1035B000641C0094AC4201D00029F5D0116811EAD6
:1035C000102000D00120FF21196038BDC54ACA2152
:1035D0000832116053211160C24914390B6823F07D
:1035E00007030B600B6803430B60FF2010607047FC
:1035F000BC49CA2208310A6053220A60B94A083A13
:103600001060FF2008607047B6480838006880B234
:10361000704718B500210091B24ACA2108321160E2
:1036200053211160AF4914390028086803D040F4D1
:103630008060086014E020F480600860A9481038B9
:1036400084130168009B01F004015B1C0093A342FA
:1036500001D00029F5D00068400701D4002000E027
:103660000120FF21116018BD9E4BCA2210B50833FE
:103670001A6053221A609B4A143A146824F4802476
:1036800014601468084304431460FF20186010BDE0
:1036900094481438006800F480207047914BCA2287
:1036A00010B508331A6053221A608E4A143A14680F
:1036B00024F4E00414601468084304431460FF20F9
:1036C000186010BDF0B50746864C0025CA200834A6
:1036D0000E46206053202060FFF724FD30B1814862
:1036E0003743001F0760FFF781FD0125FF202060A1
:1036F0002846F0BD70B506467A4C0025CA2008342D
:10370000206053202060FFF70DFD60B1754814382C
:10371000016816B141F0800101E021F080010160F3
:10372000FFF764FD0125FF202060284670BD6D4A2B
:10373000CA2108321160532111606A4914390028E6
:10374000086802D040F4000001E020F400000860A6
:10375000FF2010607047634B10B5143B1A6840F6A9
:103760000804A24342EA000209B142F400625D4843
:10377000CA2108300160532101601A60FF210160F5
:1037800010BD70B50D465749144614310968564AA4
:103790001140544A183212684FF63F731A40C1F371
:1037A00005432B70C1F306236B7001F07F03AB70F0
:1037B000402303EA1141E9700021E170C2F30421C2
:1037C000617002F03F01A170C2F342312170002804
:1037D00017D1287800F0C5F82870687800F0C1F893
:1037E0006870A87800F0BDF8A870607800F0B9F8AB
:1037F0006070A07800F0B5F8A070207800F0B1F803
:10380000207070BD374A24320029116803D041EA84
:1038100040001060704721EA4000FAE7314A243244
:103820000029116801D0014300E081431160704715
:103830002C4A08B5343202EB80000090016008BDCC
:10384000284908B5343101EB80000090006808BDBC
:10385000244924310A6822F480320A600A6802434B
:103860000A6070471F4924310A6822F400320A6056
:103870000A6802430A6070471A4924310A6822F430
:1038800080220A600A6802430A60704730B5154D0D
:10389000CA2208352A6053222A60124B114A143B6F
:1038A0002432002920F00404196800F0040004D038
:1038B000214319601168014303E0A14319601168B5
:1038C00081431160FF20286030BD02460549002079
:1038D0001039096843F677731940114200D001206E
:1038E000704700001C2800407F7F7F0080B240F0BE
:1038F0008000C1431F48026802F08002114301604A
:10390000EEE71C4A00213432126802F00403194A1F
:10391000121F126803EAD03302401A43154B1B688A
:1039200003EA101003D00004000C00D00121084667
:10393000D6E7C0F30F1040F08000C1430D48026885
:1039400002F0800211430160CAE7002103E0491C34
:103950000A38C9B2C0B20A28F9D2090740EA116090
:10396000BEE7010901EB810100F00F0000EB41000F
:10397000C0B2B5E70C280040A74910B588420AD16B
:10398000841401212046FFF73DFB2046BDE810408E
:103990000021FFF737BBA149884202D1012104145D
:1039A00004E09F4988420AD10121C4132046FFF751
:1039B0001FFB2046BDE810400021FFF719BB10BDDA
:1039C00030B502884C8802F441530A88CD882243DE
:1039D0008C882C4322430C8922434C8922438C89B6
:1039E0002243CC8922431A430280828B22F4006254
:1039F0008283098A018230BDF0B502220023858BC3
:103A000001244FF24006354085830284858B8E6801
:103A1000022E3ED08A8802B10224824A13681B0219
:103A200003D5136823F4000313607E4A7C321368C5
:103A30001268C3F388137B4EC2F30272361F3668D6
:103A4000794F06F03F06B7FBF6F65E43B6FBF2F29F
:103A5000CB88B3F5007F2CD06301B2FBF3F200BF3B
:103A600002EB82028B685200B2FBF3F2521D92B25B
:103A70000A23B2FBF3F202F00103D21A4FF6FF74ED
:103A8000C2F34F0204EA0323941EFE2C01D3022248
:103A90000023CC881A43144304840A884B881A43B1
:103AA0008B8889890B431A432A4342F4006181833E
:103AB000F0BD120AD4E70021018041808180C180DD
:103AC000018141818181C1810721018270470021EB
:103AD000018041808180C1800222826081817047A3
:103AE0000029018802D041F0400101E021F04001AD
:103AF000018070470029818B02D041F4806101E090
:103B000021F4806181837047028822F40062028080
:103B100002880A4302807047B1F5804F018803D0C4
:103B200021F480410180704741F48041FAE7A1F51A
:103B30007E420188FF3A02D041F4807101E021F415
:103B40008071018070470029818802D041F0040112
:103B500001E021F00401818070470029818802D0B2
:103B600041F0100101E021F010018180704780894F
:103B70007047818170470029018802D041F40051CB
:103B800001E021F4005101807047018841F4805127
:103B900001807047012901D0008B7047808A7047EF
:103BA000008A7047002A828801D00A4300E08A43D5
:103BB00082807047090901238B40002A828899B2CC
:103BC00001D00A4300E08A43828070470246002009
:103BD00012890A4200D001207047C9430181704711
:103BE00010B501F00F040122034602FA04F400208C
:103BF00009098A4091B29A88A4B20A4019892142DF
:103C000002D0002A00D0012010BD01F00F020121D6
:103C10009140C943018170470030014000380040A5
:103C2000003C00400838024040787D01C74910B58B
:103C3000884206D101211020FFF7E4F9002110206D
:103C400028E0C349884202D101214C0410E0C14957
:103C5000884202D101218C040AE0BF49884202D186
:103C60000121CC0404E0BD4988420AD101210C05A0
:103C70002046FFF7BDF92046BDE810400021FFF7C0
:103C8000B7B9B749884209D101212020FFF7BAF915
:103C900000212020BDE81040FFF7B4B910BD7FB56A
:103CA0000446008A0D4620F44051E88808432082EB
:103CB000A08941F20C618843A9882A8911436A8945
:103CC00002431143A181A08A20F44071A8890843CE
:103CD000A0826846FFF7D8F89C48844202D0A048EA
:103CE000844201D1039800E00298A189090400EB05
:103CF000C00101EB0010296801D5490000E08900EE
:103D0000B0FBF1F26420B2FBF0F109010B096FF096
:103D100018056B4302EB8302A3891D044FF03203A5
:103D200006D503EBC202B2FBF0F000F0070005E09D
:103D300003EB0212B2FBF0F000F00F000843208109
:103D40007FBD4FF41651016000218180C180018147
:103D50000C2242818181704710B5028A4C8822F47E
:103D600070630A8822438C88C9880C4322431A4313
:103D7000028210BD0021018041808180C180704796
:103D80000029818902D041F4005101E021F4005161
:103D900081817047028B02F47F420283028B0A43C7
:103DA000028370470029818902D041F4004101E07B
:103DB000C1F30E01818170470029818A02D041F44C
:103DC000006101E021F4006181827047C1F30801C4
:103DD000818070478088C0F308007047028A22F013
:103DE0000F020282028A0A430282704700298189F7
:103DF00002D041F0020101E021F00201818170470F
:103E0000828922F40062828182890A43828170471A
:103E1000028A22F020020282028A0A43028270474A
:103E20000029018A02D041F4804101E021F480415F
:103E300001827047818941F0010181817047002929
:103E4000818A02D041F0080101E021F0080181825D
:103E50007047028BD2B20283028B42EA01210183B6
:103E600070470029818A02D041F0200101E021F051
:103E70002001818270470029818A02D041F010011F
:103E800001E021F0100181827047828A22F0040251
:103E90008282828A0A43828270470029818A02D004
:103EA00041F0020101E021F0020181827047002A05
:103EB000828A01D00A4300E08A438282704710B5AB
:103EC000C1F3421301F01F040121A140012B07D0CF
:103ED000022B07D01430002A026805D00A4304E000
:103EE0000C30F8E71030F6E78A43026010BD024656
:103EF000002012880A4200D001207047C943018087
:103F0000704730B501F01F0201240025C1F34213B0
:103F100004FA02F2012B0FD0022B0FD0838A4FEA52
:103F200011210088134204FA01F400EA040001D0D0
:103F300000B10125284630BD8389F0E7038AEEE70A
:103F40000A0A01219140C9430180704700100140D5
:103F50000044004000480040004C00400050004039
:103F6000001401400648804706480047FEE7FEE788
:103F7000FEE7FEE7FEE7FEE7FEE7FEE7FEE7FEE719
:103F8000992400088501000838B503F094FE040068
:103F900019D06A461421194802F056F8009810B951
:103FA00017A003F040FE154A4FF480636C320021E5
:103FB000124801F0FFFF030005D0104A00216C32C7
:103FC000204602F01CF838BD08B54FF400600090A0
:103FD000184B042218A109480CF083F9010004D001
:103FE000BDE8084016A003F01EBE13A010F03DFA75
:103FF000AFF26B00BDE8084002F08AB8EC26002062
:104000006C6F6774726163652070697065206C679E
:10401000706970652069732066756C6C2C20736FF5
:104020006D65206C6F67206D6179206C6F73740A09
:1040300000000000EC1E00206C67706970650000D5
:10404000696E69742070697065206465766963655E
:10405000206661696C65643A2025640A00000000EE
:1040600070B504462F2084F844000D4604F1450045
:1040700010F06EFD002241F2011104F1440007F03E
:10408000BFFDE06300280ADA03F0F8FA01466BA0EE
:1040900003F0C9FD70A003F0C6FD182070BD2846CE
:1040A00010F041FD2844401C10F03CFE206410B983
:1040B0004FF0FF302064062070BD2DE9F04104462A
:1040C000C06B17460E46002804DA2E22674968A006
:1040D00003F04FFE256C681C0DD0BD4200D33D4659
:1040E0002A463146E06B07F0ECFD206C401B206453
:1040F0000620BDE8F0813A463146E06B07F0E1FD6D
:10410000F6E710B50446C06B002805DA574943228C
:10411000093157A003F02DFEE06B07F097FD4FF03B
:10412000FF30E063062010BD2DE9F041A4B00D463C
:104130000646802103A810F0C3FC4FF4A27003F0E0
:104140004CFF04462EB94949512212314CA003F0CC
:1041500010FE4DA003F067FD51484FF47A724F49AD
:104160008DE807004F4B40F203123146204610F015
:1041700092FA064601464CA003F055FD04F14401B5
:10418000884651A003F04FFD9EBB95B3284610F022
:10419000CAFC012802D128782F282AD0294603A852
:1041A00010F0D6FC284610F0BEFC03AF3844414660
:1041B00010F0CEFC284610F0B6FC0546404610F044
:1041C000B2FC2844002139540A4603A807F018FD20
:1041D000002805DB07F03AFD03A807F084F801E0AA
:1041E00007F034FD03A9404607F0B7F9404607F051
:1041F0007AF8204603F0A9FF304624B079E710B5DD
:10420000044601F005FE18B1BDE8104000218BE71F
:10421000214634A003F007FD4FF0FF3010BD10B56C
:10422000044603F048FD18B12146BDE810407BE785
:1042300033A003F0F8FC4FF0FF3010BD6572726FD1
:1042400072206372656174696E672066696C653A95
:104250002025640A0000000061626F72742074728D
:10426000616E736D697373696F6E0A003C72010849
:10427000636374782D3E6664203E3D20300000006C
:104280006964657600000000656E746572696E672A
:104290002052594D206D6F64650A000003410008EB
:1042A000BB400008614000086C656176696E67205C
:1042B00052594D206D6F6465207769746820636F73
:1042C00064652025640A000066696C6520257320FA
:1042D000686173206265656E2063726561746564F0
:1042E0002E0A0000636F756C64206E6F742066691F
:1042F0006E64206465766963653A25730A00000080
:10430000636F756C64206E6F742066696E642063E1
:104310006F6E736F6C652E0A000000002DE9F0418E
:104320000022E8B0114607F06BFC050042D4684655
:104330000EF06CFA4FF0000827AEFF27344601223A
:1043400067A9284607F09EFC002807DD9DF89C0120
:104350000A281FD004F8010B7F1EF0D1A01B0028F3
:1043600025DD27AA0021115408F1010811466846ED
:104370000FF07AF80EF068F978B10EF065F90EF0EA
:1043800066F90246414632A003F04DFC0EF05CF99E
:1043900038B108E004F8010BE0E726980EF025F9A3
:1043A000F4E70FF033FA68460EF040FAC4E7284607
:1043B00007F04CFC68B0BDE8F0812DE9FF410546EF
:1043C0004FF4807003F009FE07001BD0284607F069
:1043D0007AFD06002ED0304607F0AEFD040025D051
:1043E00010220021684603F06EF9284610F09BFB6E
:1043F000284404F1040310F8010C2A462F2807D0A2
:1044000018A106E004B019A0BDE8F04103F00BBC10
:104410001AA1384603F048FC1AA1384610F05BFB9D
:104420000028D8D0384605F09AF8D4E7304607F08F
:1044300008FE03E0294614A003F0F5FB04B038465B
:10444000BDE8F04103F081BE16A067E718A065E75C
:1044500025733A25643A206572726F722025730ABB
:104460000000000025732F25730000006F75742075
:104470006F66206D656D6F72790A00002573257374
:10448000000000002E6D6F006F70656E2025732098
:104490006469726563746F7279206661696C6564C2
:1044A0000A0000002F696E69742E7263000000001C
:1044B0002F6D6F64756C65732E726300F8488068A9
:1044C000704770B505000C4601D00CB108E009B189
:1044D000012070BD002070BD0028FCD0641C6D1C44
:1044E000287810F073FA0646207810F06FFA8642AA
:1044F0002878F1D010F06AFA0546207810F066FAB4
:10450000281A70BDE64910B1026822B902E0E548F8
:10451000086003E0E34A0A60406800B9E248486086
:10452000704770B50446DE4E16E0A0892568C005C8
:104530000AD4A06820B1FFF7F4FFA089C00503D416
:10454000206908B171688847206A08B17168884796
:104550007168204688472C46002CE6D170BD2DE9B5
:10456000F34F002583B00C46D0490120CDE900511E
:10457000029020782E462F46A846A9462D2804D121
:104580000020CB49641CCDE900012078302800D1FF
:10459000641C20783138082817D800BF14F8010BA4
:1045A000303810F0E5FC82468B460022C14B28468D
:1045B000314610F06BFC52465B4610F0C0FB0546DE
:1045C00020780E4630380928E8D920782E2824D1C2
:1045D0006078302841D339283FD8641C14F8010B87
:1045E000303810F0C5FC82468B460022B14B28467D
:1045F000314610F04BFC52465B4610F0A0FB0546DE
:104600000E460022A94B3846414610F039FC0746B9
:104610002078884630380928E0D92078652801D0EC
:1046200045281AD114F8010F2B2802D02D2810D0BC
:1046300000E0641C6FF02F012078A0F13002092AFD
:104640000BD809EB890201EB420200EB0209641C62
:10465000F2E74FF0FF300290EBE7029909FB01F01F
:1046600010F086FC3A46434610F069FB02460B46C2
:104670000020904911F0ECFF07468846DDE9000173
:104680002A46334610F002FC3A46434610F0FEFB41
:10469000039AC2E9060110F089FC03994861039866
:1046A0000321C16005B02046BDE8F08F2DE9F0413F
:1046B00006467B4FD6E90643DFF8FC811D4640697C
:1046C00010F056FC22462B4610F0DAFB21F0004198
:1046D0000022434610F09CFC17D8784A784B2046BD
:1046E000294610F095FC10D80022764B204629462A
:1046F00010F0A6FC09D839681520884707003ED07D
:1047000071A1726911F0D2F939E039684020884707
:10471000070034D02046294611F0CEFE22462B4613
:1047200010F0AEFB21F000410022434610F070FC77
:104730000BD8204625F00041644A654B10F068FC18
:1047400003D222462B4663A116E025F00041204605
:104750000E46624A624B10F05BFC06D3204631469F
:104760000022604B10F06CFC03D222462B465EA167
:1047700002E022462B465DA1384611F097F93846F3
:10478000BDE8F0810178A1F13002092A01D8114673
:104790000AE0A1F14102052A01D8373904E0A1F16C
:1047A0006102052A3FD857390A0110F8011FA1F10B
:1047B0003003092B01D8303A0AE0A1F14103052B5F
:1047C00001D8373A04E0A1F16103052B2BD8573A01
:1047D00011440A0110F8011FA1F13003092B01D87F
:1047E000303A0AE0A1F14103052B01D8373A04E041
:1047F000A1F16103052B16D8573A114440780901FD
:10480000A0F13002092A01D8303904E0A0F14102B8
:10481000052A02D8373908447047A0F16102052AF9
:1048200001D85739F7E7002070472DE9F0470C46CB
:104830000646481C22780021194B222A07D0002066
:104840009C60BDE8F087401C5C2A00D1401C0278C7
:10485000222A02D00AB1491CF5D1481C19688847A0
:10486000051EEED0601C2C464FF48067B1E05C2939
:1048700003D004F8011B401CABE000F101084078B4
:1048800072283DD006DC622832D0662832D06E28ED
:1048900031D133E0742835D075282CD134E00000B4
:1048A00004090020E5650108956501080000F03F56
:1048B0000000F0BF000024400000B03C0000C0FF3A
:1048C000FFFFDF410000E0C12564000044F3C2E4C3
:1048D000E4E9634C252E3066000000008DEDB5A0A4
:1048E000F7C6B03E65CDCD412565000025660000C8
:1048F000082000E00C2004F8010B68E00A20FAE729
:104900000D20F8E70920F6E708F10100FFF73AFF6C
:104910008146A0F55C4008F10408B84257D3B9F1CC
:10492000000F54D0A9F55840B84217D298F80100AA
:104930005C284CD198F80200752848D108F1030092
:10494000FFF720FFA0F55C4108F10608B9423ED20E
:10495000C9F3090161F39F2000F580390420B9F102
:10496000800F02D20120641C2AE0B9F5006F02D248
:104970000220A41C06E0B9F5803F02D20320E41C0B
:104980000EE0241D022813D0032809D004281DD1CD
:1049900009F0BF0141F0800104F8011D4FEA9919A7
:1049A00009F0BF0141F0800104F8011D4FEA991997
:1049B00009F0BF0141F0800104F8011D4FEA991987
:1049C000FE49095C41EA090104F8011D044408F1AB
:1049D00001000178222902D000297FF448AF00218C
:1049E00021700178222900D1401C0421C6E9031559
:1049F00027E72DE9F04104004FF0000501D00646FD
:104A000010E0AFF22C10BDE8F04100F039BD39469E
:104A1000EBA010F07EF808B16D1C02E0202F00D250
:104A20006D1D761C37780FB16D1CF0D1E649E81C7E
:104A300009688847051E2FD022260670681C4FF093
:104A40005C0823E01F2907D9222905D05C2903D05F
:104A500000F8011B641C19E000F8018B14F8012B0D
:104A6000414607460C2A1FD006DC082A1AD0092A1C
:104A700020D00A2A06D119E00D2A19D0222A0ED0F8
:104A80005C2A0AD0D1A111F011F8781D21780029F3
:104A9000D8D106704170284672E6397000E03E7049
:104AA000401CF3E7622006E0662004E06E2002E08E
:104AB000722000E074203870781CE7E72DE9F0419F
:104AC00005460878C04E7B2801D0B16032E0062050
:104AD000E860481C00F0F1FC074600787D2813D000
:104AE00000F0DFFC041EA8600FD0384600F0E5FCA3
:104AF00001462046FFF799FE00F0DFFC002804D0B5
:104B00002169002721622BE0781C39E6B06011E0B2
:104B1000401C00F0D2FC0146204600F028F800F0CE
:104B2000CCFC051EF1D028782C2805D028787D28CB
:104B30001BD0B560002023E600F0B3FC0028E4D0D1
:104B4000206044600446681C00F0B7FC0146204623
:104B5000FFF76BFE00F0B1FC0028D6D0216921627E
:104B6000276101783A29D3D0D0E7681C08E670B5F0
:104B70000C0005461FD0042296A120460FF0F1FF3D
:104B8000D8B1052295A120460FF0EBFFC0B1042259
:104B900094A120460FF0E5FFB0B12078222818D06C
:104BA0002D2803D0A0F13001092917D82146284625
:104BB000BDE87040D3E4002070BD0220E86006E04C
:104BC0000020E860601D70BD0120E8606861201D64
:104BD00070BD21462846BDE8704026E65B2804D01B
:104BE0007B2808D078488460E5E721462846BDE860
:104BF000704000F06CBC21462846BDE870405DE77F
:104C00002DE9F04190460E46044600F04AFC6E4FF6
:104C100005004FF00000B86015D0204600F04DFCB4
:104C200001462846FFF7A3FF04000ED0B8F1000F9D
:104C30000FD0204600F041FC0446007848B12846D9
:104C4000FFF76FFCBC6000209AE52846FFF769FC7F
:104C5000F9E706B13460284692E500221146CFE715
:104C60002DE9FE4F054607204FF0000B0090A86885
:104C700016468A465F46CDF808B001E000687F1C02
:104C80000028FBD150490A68E7B1B80004469047B4
:104C90005FEA000935D04C492046096888475FEA39
:104CA000000830D0214648460FF00AFF2146404612
:104CB0000FF006FFAC680AF1010AEEB30098504409
:104CC00000904FE016B10AF1040000E00320904785
:104CD000002814D07B210170411C66B10A2201F822
:104CE000012B00220924AAF1010302E001F8014B83
:104CF000521C9A42FADB7D220A7000224A70BDE8FB
:104D0000FE8F0020FBE730494846496871E0206A81
:104D1000FFF76FFE019048F82B00324651462046BF
:104D200000F04FF9014649F82B0001980BF1010BF7
:104D3000A8B1A1B1084600E014E00FF0F4FE05466A
:104D400001980FF0F0FE291816B10AF1020000E0F8
:104D50000020014400980844801C009001E00120DC
:104D600002902468002CD2D1029898B91649009874
:104D7000096888475FEA000B0CD07B218BF8001094
:104D80000BF1010416B10A2004F8010B0020207079
:104D900005466CE000240C4D0BE000BF58F82400E1
:104DA00008B16968884759F8240008B169688847DC
:104DB000641CBC42F2DB4046696817E0607201087F
:104DC000225C080C0A0D0900040900207525303406
:104DD000780000006E756C6C0000000066616C73FA
:104DE00065000000747275650000000088476968FE
:104DF0004846884785E746B10020092103E000BF07
:104E000004F8011B401C5045FADB58F825102046D9
:104E10000FF09EFE58F825000FF085FE04443A205E
:104E200004F8010B16B1092004F8010B59F82510FC
:104E300020460FF08DFE59F825000FF074FE044453
:104E4000781E854202D02C2004F8010B16B10A20EE
:104E500004F8010B0020207058F82500FE4949682D
:104E60008847FD4959F82500496888476D1CBD42AF
:104E7000C1DBF94D404669688847696848468847FC
:104E80004EB100200922AAF1010102E004F8012B31
:104E9000401C8842FADB7D2020700020607058465C
:104EA0002DE72DE9F74F002581464FF0050B80686F
:104EB000A8462E4601E000686D1C0028FBD1E64A9A
:104EC00011685DB1A800044692468847071E0DD0C0
:104ED00021460FF0F5FDD9F8084021E0032088476E
:104EE000040002D0DDA10FF033FE204607E700BF2B
:104EF000DDE901122046491C00F063F847F828005C
:104F000008F1010850B10FF00EFE029901B1012124
:104F1000014401EB0B0000F1020B00E001262468C4
:104F200014B1002EE4D012E08EB9DAF80010584621
:104F300088475FEA00080AD05B214FF0000988F833
:104F4000001008F1010488F801904E462DE000247D
:104F5000564605E057F8240008B171688847641C7C
:104F6000AC42F7DB7168384688470020C7E600BFCF
:104F700057F8261020460FF0EBFD57F826000FF0EB
:104F8000D2FD0444681E864209D02C2004F8010B8F
:104F9000029810B1202004F8010B84F80090DAF890
:104FA000041057F826008847761CAE42E0DBDAF89A
:104FB0000410384688475D20207084F801904046F0
:104FC0009DE630B403004FF0000008D01C7B072C96
:104FD00006D2DFE804F00A0D071216191C000020A3
:104FE00030BC7047AFF2142004E0AFF2102001E0B3
:104FF000AFF2102030BC00F043BA30BC1846FFF7C7
:1050000055BB186930BCF4E430BC184649E730BCE5
:10501000184625E601220021D3E700221146D0E7F9
:105020008168002001E00968401C0029FBD170471D
:10503000806801E00068491E002801D00029F9DCE1
:10504000704770B50D46846800E024682CB129468D
:10505000206AFFF736FA0028F7D1204670BD70B5F8
:10506000054600F01EFA04000DD0282229460FF054
:105070000EFD00202062E168606041F48071E16013
:105080002060204670BD002070BD8268002901D0DC
:105090001AB981607047020002D010680028FAD166
:1050A00011604A60704770B514000D4606460DD079
:1050B000206A10B1684949688847284600F0E0F93D
:1050C000206221463046BDE87040DEE770BD10B575
:1050D00004460846FFF7C3FF01462046BDE81040DE
:1050E000D3E770B505460C461046FFF7B8FF0246F9
:1050F00021462846BDE87040D5E70246806801E0B9
:105100000068491E002811D00029F9DC416809B166
:1051100003680B60016809B143684B609168814284
:1051200001D101689160002101604160704710B5B4
:10513000FFF7E3FFBDE81040FFF7F3B92DE9F041B9
:105140000F4606460025846801E024686D1C54B1B2
:105150003946206AFFF7B5F90028F6D129463046CE
:10516000BDE8F041C9E7002096E410B5FFF7E6FF7F
:10517000BDE81040FFF7D5B930B40346806801E0C0
:105180000068491E002814D00029F9DC016811606C
:105190004468546001B14A609968814201D19A60C3
:1051A00001E051680A6000214160016030BCFFF7F6
:1051B000B8B915E72DE9F04116468846074600259F
:1051C000846801E024686D1C002C0FD04146206AE1
:1051D000FFF777F90028F5D1404600F051F9306229
:1051E000324629463846BDE8F041C5E754E410B5DB
:1051F00000F057F9002801D00221C16010BD10B5A0
:1052000000F04FF9002801D00121C16010BD10B598
:1052100000F047F9002801D00021C16010BD10B591
:10522000044600F03EF9002804D00CB1012100E052
:105230000021C16010BD70B505460E4600F031F981
:10524000040008D00320E060C4E906562846314631
:105250000FF0ACFE606103E0040900205B5D00001C
:10526000204670BD70B5054600F01BF9040005D05E
:105270000420E060284600F003F92061204670BD5C
:1052800010B500F00EF9002801D00521C16010BD55
:1052900010B500F006F9002801D00621C16010BD4C
:1052A0002DE9F0410F4680460024FFF7E9FF06464E
:1052B00000250AE058F825000FF05AFEFFF7BBFF63
:1052C00045B12060446004466D1C0EB1BD42F1DB67
:1052D00030461AE4B060F6E72DE9F0410F4680460B
:1052E0000024FFF7CDFF064600250AE058F8250008
:1052F0000FF07BFEFFF79FFF45B12060446004463E
:105300006D1C0EB1BD42F1DB304614E4B060F6E72F
:105310002DE9F0410F4680460024FFF7B1FF064615
:1053200000250AE008EBC501D1E90001FFF783FF82
:1053300045B12060446004466D1C0EB1BD42F1DBF6
:10534000304613E4B060F6E72DE9F0410F468046A1
:105350000024FFF795FF0646002508E058F82500D1
:10536000FFF780FF45B12060446004466D1C0EB11C
:10537000BD42F3DB304667E4B060F6E72DE9F0416B
:105380000F4605004FF000061CD000F08AF8041EFE
:1053900019D0E86820F48070E06068696061D5E940
:1053A0000601C4E90601286918B100F069F8206116
:1053B00098B1286A18B100F063F8206268B1AFB103
:1053C000AD6811E000203FE401212846FFF7D6FF39
:1053D00018B136B13060466004E02046FFF7A1F80E
:1053E000F0E7A0602D680646002DEDD120462BE4A5
:1053F00001461AE0D2B2202A0BD0092A09D00D2A80
:1054000007D00A2A05D02F2A05D0D3B2222B23D0C9
:1054100007E0401C09E042782F2A0CD0D2B22A2A99
:1054200010D010F8012B01F8012B0278002AE1D1ED
:1054300000200870704710F8012F002AF8D00A2ABF
:10544000F9D1D7E710F8012F22B12A2AFAD14278F0
:105450002F2AF7D1801CE8E701F8012B401C08E057
:105460005C2A02D101F8012B401C10F8012B01F835
:10547000012B02780AB1222AF2D101F8012BC8E7E8
:1054800070B506460FF04FFB2D49401C04460968D5
:105490008847051E04D0224631460FF0F8FA284608
:1054A00070BD274910B5096828208847040002D03C
:1054B00028210FF005FB204610BD00E0401C00280D
:1054C00004D00178002901D02029F7D970472DE9AF
:1054D000F041044608781A4E5B2801D0B1602AE0FA
:1054E0000520E060481CFFF7E8FF074600785D28CC
:1054F00006D0FFF7D6FF051EA06002D0384609E0AF
:10550000781C31E6FFF7CDFF0028FAD0286045600F
:105510000546601CFFF7D1FF01462846FFF727FB31
:10552000FFF7CBFF040006D020782C28EAD02078A3
:105530005D2802D0B460002016E6601C14E600006E
:10554000040900207FB5002206F05AFB04006FF02A
:10555000010526D4694606F025FC28B1204606F050
:1055600075FB681004B070BD029860B1401C02F079
:1055700034FDFA49086001000AD02046029A06F07C
:1055800081FB2046EEE7204606F060FB2846E9E76F
:10559000F3A002F048FB204606F058FB6FF0020033
:1055A000E0E7F7A002F03FFBF0E710B50446EB4858
:1055B000006802F0CAFD204606F048FB002010BD3E
:1055C0002DE9F0410C46F7A006F07DFC050003D163
:1055D0000021F4A006F041FC284606F032FD00222E
:1055E0004FF48171F1A006F00BFB060059D4FFF7D0
:1055F0004FFE074620780FF0CCFCFFF71CFE02465A
:10560000EEA13846FFF74FFD60780FF0C2FCFFF7C0
:1056100012FE0246EBA13846FFF745FDA01CFFF73E
:1056200021FE0246EBA13846FFF73DFD04F12300C1
:10563000FFF718FE0246EAA13846FFF734FDA08EB8
:105640000FF0A7FCFFF7F7FD0246E8A13846FFF789
:105650002AFD3846FFF7DEFC05463846FEF761FFB7
:10566000B5B128460FF05FFA044602462946304697
:1056700006F027FBA04202D0DFA002F0D4FA2846B1
:1056800010F088FF304606F0E1FA0020BDE8F08116
:10569000DFA002F0C8FA304606F0D8FA6FF0070033
:1056A000F4E7E6A002F0BFFA3046EFE770B500215C
:1056B000BEA0FFF747FF04003BD4A8480068FFF7EF
:1056C000CCFA0646BDA1FFF7BCFC10B1E349406926
:1056D0000860BCA13046FFF7B4FC10B1E049406956
:1056E0000860BCA13046FFF7ACFC050007D0286974
:1056F0000FF019FA421CDB4829690FF0C8F9B8A16C
:105700003046FFF79EFC050007D028690FF00BFA22
:10571000421CD54829690FF0BAF9B4A13046FFF709
:1057200090FC10B1D149808A08802046FFF73DFFE8
:1057300005E0841C03D1CE499CA0FFF741FF002067
:1057400070BD2DE9F0410D4607461646022197A08F
:10575000FFF7F8FE04004AD480480068FFF77DFA9E
:1057600080462046FFF721FF39464046FFF769FC97
:105770000446012E02D0022E06D00DE028680FF05C
:10578000F7FBC4E9060107E028460FF0CCF9421CFC
:10579000294620690FF07BF94046FFF73BFC0546A0
:1057A0004046FEF7BEFEFDB1002241F201017FA09E
:1057B00006F026FA00220646114606F0A2FA28460E
:1057C0000FF0B1F9044602462946304606F079FA50
:1057D000A04202D0A7A002F026FA304606F036FA20
:1057E000284610F0D7FE02E0AAA002F01CFA002022
:1057F0004CE72DE9F0470F46804602216BA0FFF7EA
:10580000A1FE040050D455480068FFF726FA8146EF
:105810002046FFF7CAFE002520E000BF05EB45004B
:1058200000EBC50108EB810421464846FFF709FC5F
:105830000646A06A012802D0022806D00DE0206AA0
:105840000FF096FBC6E9060107E0606A0FF06BF9FE
:10585000421C616A30690FF01AF96D1CBD42DDDB34
:105860004846FFF7D7FB04464846FEF75AFEC4B148
:105870004EA005F038FD002240F201114BA006F0C9
:10588000BFF9054620460FF04EF90246214628464C
:1058900006F017FA284606F0D9F9204610F07AFEED
:1058A00002E07CA002F0BFF90020BDE8F08701B55E
:1058B0000122694641A0FFF744FF08BD01B50098E9
:1058C00038B1012805D07DA002F0ADF94FF0FF30CE
:1058D00008BD012269463BA0FFF733FF08BD70B544
:1058E00006460D46582002F078FB04460220A062CE
:1058F00038A120460FF02CF90120666260653BA1BB
:1059000004F12C000FF024F902212046E564FFF792
:1059100070FF204602F019FC002070BD70B50646ED
:105920000D46582002F059FB04460220A0622CA12B
:1059300020460FF00DF90120666260652BA104F18D
:105940002C000FF005F902212046E564FFF751FF16
:10595000204602F0FAFB002070BD00001009002074
:105960006D616C6C6F632073797374656D20636F08
:105970006E666967206661696C65642021200D0090
:1059800053797374656D20636F6E6669672066690D
:105990006C65206973206E6F74206578697374205C
:1059A00021200D002F636F6E666967002F636F6E95
:1059B0006669672F7379732E636667007379735F07
:1059C000636667007376725F7573655F6E616D65A0
:1059D000000000007376725F69665F6E616D65003E
:1059E0007376725F69665F69700000007376725F3C
:1059F00069665F706F7274007379732E63666720D7
:105A00007772697465206572726F72210A000000F6
:105A1000634A534F4E5F5072696E74206F75747095
:105A2000757420627566206D616C6C6F63206661B1
:105A3000696C65642021200A0000000043726561E2
:105A4000746520636F6E6669672066696C652066A1
:105A500061696C65642021200A00000018000020A4
:105A60001C000020200000204000002050000020EA
:105A7000747001087379732E6366672066696C65BC
:105A8000207772697465206572726F722021200A16
:105A90000000000053797374656D20636F6E666952
:105AA000672077726974652075706461746520661B
:105AB00061696C656420210A00000000496E707500
:105AC00074206461746120697320696E76616C6909
:105AD0006420210A000000002DE9F0410E4617461F
