:020000040800F2
:100000001879002039F50108F916010855BE0208D3
:10001000FB160108FF160108031701080000000085
:1000200000000000000000000000000007170108A9
:100030000917010800000000DFBD02086B1301086A
:1000400053F5010853F5010853F5010853F501086C
:1000500053F5010853F5010853F5010853F501085C
:1000600053F5010853F5010853F5010853F501084C
:1000700053F5010853F5010853F5010853F501083C
:1000800053F5010853F5010853F5010853F501082C
:1000900053F5010853F5010853F5010853F501081C
:1000A00053F5010853F5010853F5010853F501080C
:1000B000A175010853F501081977010853F50108E6
:1000C00053F5010853F5010853F5010853F50108EC
:1000D00053F50108B1190108E9190108211A0108AD
:1000E000311701080B17010853F5010853F50108F2
:1000F00053F5010853F5010853F5010853F50108BC
:1001000053F5010853F5010853F5010853F50108AB
:10011000591A0108911A010853F5010853F501080D
:10012000ED77010853F5010853F5010853F501086F
:1001300053F50108B7B2010853F5010853F501085A
:1001400053F5010853F5010853F5010853F501086B
:1001500053F5010853F5010853F50108C91A0108C0
:1001600053F5010853F5010853F5010853F501084B
:1001700053F5010853F5010853F5010853F501083B
:1001800053F5010800F002F800F0BBF80AA090E86F
:10019000000C82448344AAF10107DA4501D100F042
:1001A000B0F8AFF2090EBAE80F0013F0010F18BF54
:1001B000FB1A43F001031847108D0500308D050030
:1001C0000A444FF0000C10F8013B13F0070408BF7D
:1001D00010F8014B1D1108BF10F8015B641E05D01B
:1001E00010F8016B641E01F8016BF9D113F0080FD0
:1001F0001EBF10F8014BAD1C0C1B09D16D1E58BF62
:1002000001F801CBFAD505E014F8016B01F8016B98
:100210006D1EF9D59142D6D370470000002300240B
:1002200000250026103A28BF78C1FBD8520728BF06
:1002300030C148BF0B6070476E290AF077A2702961
:1002400009F04DA466290EF097A465290EF094A438
:1002500067290EF091A461290EF090A403681B0A8F
:1002600028BF41F08001692909F0BEA3642909F083
:10027000BBA3752909F0B8A36F290AF06BA57829EB
:1002800009F019A4E9290AF005A5E4290AF002A554
:10029000F5290AF0FFA4EF290AF068A5F82909F06A
:1002A00018A40368DB0928BF41F0800163290AF024
:1002B00086A473290AF08BA4E3290BF089A2F32901
:1002C0000BF08EA2002070471FB59DE803004AF096
:1002D00081F949F048FE4BF047F804000020002166
:1002E0004DF06AFD401C6060002000214DF07AFD59
:1002F000E060002000214DF08BFD20611FBD10B596
:1003000010BD4BF0C4FF1146FFF7DEFF05F09BFB6D
:100310004BF0E2FF03B4FFF7F2FF03BC4CF012F81E
:100320000B49D1F800C04A685CF8043B10681844D7
:1003300042F8040B8C4528BFA1F1DC0C8A4228BF8F
:10034000A1F1DC02C1F800C04A6020F00040704713
:10035000407200202DE9FC4100260020019000227F
:100360001146F5A02CF042FF0446002C2EDAF6A030
:100370002CF0ECFDF5A1F7A02CF0D1FE00200346F7
:10038000F4A2F1A10090F1A02CF018FD002820D0DB
:1003900000BFF14890F8900000F0010000280FD055
:1003A000EEA027F088FEEC4890F8910040B1EA48B2
:1003B00090F86E0020B1E9A048F0C8FD48F02BFE8F
:1003C00000BF02E00A202AF006FFFBE720462CF0DF
:1003D0003CFFEFA02DF0E3F80546002D37D10021BA
:1003E000EBA02DF098F8002831D0D7A02CF0AEFD6E
:1003F000D6A1D8A02CF093FE00200346D5A2D2A10E
:100400000090D2A02CF0DAFC00281CD000BFD2480B
:1004100090F8900000F0010078B1D0A027F04BFEDA
:10042000CD4890F8910040B1CB4890F86E0020B1D3
:10043000CAA048F08BFD48F0EEFD00BF02E00A20A4
:100440002AF0C9FEFBE70021D1A02DF064F8284670
:100450002DF07AF9D0A02DF0A2F805463DB9002183
:10046000CDA02DF058F810B1CCA027F024FE2846DE
:100470002DF06AF9CFA02DF092F805461DB90021A4
:10048000CCA02DF048F828462DF05EF9CBA02DF039
:1004900086F805461DB90021C8A02DF03CF8284675
:1004A0002DF052F9C7A02DF07AF805461DB90021AC
:1004B000C4A02DF030F828462DF046F9C3A02DF049
:1004C0006EF805461DB90021C0A02DF024F828467D
:1004D0002DF03AF9C0A02DF062F805461DB90021B3
:1004E000BDA02DF018F828462DF02EF9BBA02DF058
:1004F00056F805461DB90021B8A02DF00CF8284685
:100500002DF022F900220221B7A02CF06FFE044644
:10051000002C03DB20462CF098FE12E0002240F273
:100520000111B1A02CF062FE0446B24849F09BFDD7
:1005300007463A46AF4920462CF0D1FE20462CF023
:1005400084FE00224FF400417BA02CF04FFE0446B5
:10055000002C76DB0022114620462CF0E8FE01221A
:1005600001A920462CF093FE0646012E40D19DF8AD
:1005700004007B2838D020462CF067FE6EA02CF0BB
:10058000EBF8002211466CA02CF030FE0446002C43
:100590001CDA6DA02CF0DAFC6CA16EA02CF0BFFD73
:1005A000002003466BA268A1009068A02CF006FC16
:1005B000914961A021F07CFF002023F02AFA4FF43A
:1005C00096702AF008FE05F0BEFA02E020462CF0F4
:1005D0003CFE894958A021F06BFF002023F019FA56
:1005E00086A027F068FD36E020462CF02EFE32E093
:1005F00020462CF02AFE50A02CF0AEF80022114626
:100600004DA02CF0F3FD0446002C0ADA4FA151A0B6
:100610002CF085FD4FF496702AF0DDFD05F093FA7D
:1006200002E020462CF011FE734943A021F040FF68
:10063000002023F0EEF900E003E07FA027F03BFD6F
:1006400009E06D493CA021F033FF002023F0E1F9DF
:1006500088A027F030FD00224FF4004195A02CF037
:10066000C5FD0446002C03DB20462CF0EEFD05E022
:1006700090A021F014FA94A027F01DFD00224FF461
:100680000041A0A02CF0B2FD0446002C03DB204664
:100690002CF0DBFD06E0A1499AA021F050F9A0481A
:1006A00027F009FD00224FF400419EA02CF09EFD92
:1006B0000446002C03DB20462CF0C7FD06E09F49D2
:1006C00098A020F02EFD9E4827F0F5FC00224FF464
:1006D00000419CA02CF08AFD0446002C03DB204640
:1006E0002CF0B3FD06E09D4996A020F0BBFD9C4890
:1006F00027F0E1FC00224FF400419AA02CF076FD97
:100700000446002C03DB20462CF09FFD06E09A49AE
:1007100094A021F00DF899A027F0CDFC00224FF411
:100720000041A5A02CF062FD0446002C03DB20460E
:100730002CF08BFD50E147E12F636F6E6669672FE8
:100740007379732E636667002F000000666C617317
:1007500068300000656C6D00CC040020466C61734D
:10076000682046696C652053797374656D20696EE5
:10077000697469616C7A6174696F6E206661696C15
:10078000656420616761696E20212121200A0000D3
:100790002F726F6D000000002F5344004D616B6598
:1007A000202F534420646972206661696C6564205F
:1007B0000A0000002F636F6E666967002F73637213
:1007C000697074002F6D6F64756C65002F6D6F64B8
:1007D000756C652F6C6962002F6677002F646F77E8
:1007E0006E6C6F61640000002F696E69742E726315
:1007F000000000008A32050882EE04085379737401
:10080000656D20636F6E6669672066696C65206937
:1008100073207265706169726564207769746820FD
:100820007379735F6366675F696E69745F6461742F
:100830006120212121200A0053797374656D2063A2
:100840006F6E6669672066696C65206973207265E2
:1008500077726974652077697468207379735F6350
:1008600066675F696E69745F64617461202121212C
:10087000200A000053797374656D20636F6E66699A
:10088000672066696C6520697320726563726561B3
:100890007465642077697468207379735F63666731
:1008A0005F696E69745F6461746120212121200A8F
:1008B000000000002F636F6E6669672F6D6F6465BF
:1008C0002E636667000000006D6F646520636F6EC5
:1008D0006669672066696C6520697320726563725A
:1008E00065617465642077697468206D6F64655F05
:1008F0006366675F696E69745F646174612021215A
:1009000021200A002F636F6E6669672F7472616E13
:1009100073706172656E742E63666700DCED0408A7
:10092000AC5705082F636F6E6669672F50524F5F93
:10093000554954442E6366670000000080EC0408AB
:10094000245705082F636F6E6669672F50524F5FFB
:100950004354524C2E6366670000000098EC040874
:10096000685705082F636F6E6669672F41503031F5
:100970002E63666700000000E8EC04084150303147
:1009800020636F6E6669672066696C6520697320F5
:10099000726563726561746564207769746820416B
:1009A0005030315F6366675F696E69745F6461745C
:1009B0006120212121200A002F636F6E6669672F55
:1009C00046412E6366670000D849AFF2140021F05B
:1009D000EDFAD7A027F06FFB00224FF40041E2A010
:1009E0002CF004FC0446002C03DB20462CF02DFCEC
:1009F00006E0E149DCA020F012FFE0A027F05BFB5D
:100A000000224FF40041ECA02CF0F0FB0446002C37
:100A100003DB20462CF019FC06E0EC49E6A021F0AF
:100A200058FAEBA027F047FBBDE8FC817FB50446F0
:100A30000022114620462CF0D9FB0546002D08DA8D
:100A400026F078FF064632462146F0A027F033FB19
:100A500013E0694628462CF0E9FC029850B9284674
:100A60002CF0F3FB20462BF077FE2146EEA027F07A
:100A700022FB02E028462CF0E8FB04B070BD10B564
:100A8000F2A02BF069FEF5A0FFF7D0FF002010BD0B
:100A900010B5AFF2AC202BF05FFEAFF264302BF05C
:100AA0005BFEAFF240102BF057FEF1A02BF054FE8E
:100AB000ADA02BF051FEFFF74DFC002010BD30B56E
:100AC00003460C46EF4D0021B2F5007F01D9481EC8
:100AD00030BD002103E02819405C5854491C914264
:100AE000F9D30020F4E7F0B587B0074600260020D0
:100AF000039004900590069000BF06220021E24872
:100B0000FFF7DDFFE0484079DF490979DE4AD27816
:100B1000CDE900210290DC48837842780178DBA09F
:100B200027F0C9FA0021E44A116051600622D64933
:100B3000E14826F054FFE048E04B06C840F61810A4
:100B4000591A904103D2DEA027F0B5FA20E0DA4826
:100B500030C8002616E00A2200232046294648F025
:100B600043FE30201018C6F10C0103AA50544FF078
:100B70000A024FF000032046294648F035FE04469D
:100B80000D46761C0D2EE6DB03A9D4A027F093FAC0
:100B9000D54817F0D4F8D449491C881E17F0D6F967
:100BA0000120D149D33981F88800084690F8D20055
:100BB000022806D0084690F8D200042801D017F089
:100BC00001FBC948D33890F8D400532804D1012040
:100BD000C549D33981F87000C348D33890F8D400A0
:100BE00033280AD127F0DFFAC0A00EF0FEF9032067
:100BF000BD49D33981F8700026E0BB48D33890F85E
:100C0000D400342807D127F0CEFA0320B649D339CF
:100C100081F8700018E0B448D33890F8D400352833
:100C200007D127F0C0FA0320AF49D33981F870000B
:100C30000AE0AD48D33890F8D400562802D133F0FA
:100C4000D4FC01E033F0D1FC48F098FA28F0EEF93A
:100C50002BF024F930F01AFB2DF04DFA30F05BFA4E
:100C60001BF0AAF912F053F99F48D33890F8D2003C
:100C70000B2802D19FA019F0DCF89B48D33890F8DC
:100C8000D400522822D1AFF23C51AFF238502CF0B0
:100C900046FA00BF9448D33890F8900000F0010065
:100CA00088B196A027F007FA8F48D33890F89100C2
:100CB00048B18D48D33890F86E0020B18FA048F02D
:100CC00045F948F0A8F900BF00BFFEE70020034641
:100CD000AFF28052AFF290510090AFF290502CF0F2
:100CE0006DF818B991A027F0E6F947E1974827F089
:100CF000E2F9AFF2A851AFF2A4502CF010FA0020A4
:100D00000346AFF2B052AFF2C0510090AFF2C45000
:100D10002CF054F840B100BF7348D33890F89000DD
:100D200000F0010008B113E128E121E1F0EC040832
:100D3000464120636F6E6669672066696C6520694D
:100D40007320726563726561746564207769746885
:100D50002046415F6366675F696E69745F646174B2
:100D60006120212121200A002F636F6E6669672FA1
:100D70006574682E6366670098ED040865746820E2
:100D8000636F6E6669672066696C6520697320729F
:100D90006563726561746564207769746820657441
:100DA000685F6366675F696E69745F646174612020
:100DB000212121200A0000002F636F6E6669672FD2
:100DC000574946492E6366670000000042EE04085A
:100DD0005749464920636F6E6669672066696C658E
:100DE0002069732072656372656174656420776938
:100DF000746820574946495F6366675F696E697426
:100E00005F6461746120212121200A004F70656EAA
:100E10002066696C65202573206661696C656420B5
:100E20003A202564200A000046696C65202573205D
:100E300073697A65206973207A65726F2C207265F8
:100E40006D6F7665206974202E0A00002F66697226
:100E50006D776172652E62696E0000002F66772FD4
:100E60006669726D776172652E62696E00000000BE
:100E70002F636F6E6669672F415030322E6366674D
:100E8000000000008878FF1F2801002055495444C5
:100E90005F49443A202530325820253032582025E9
:100EA0003032582025303258202530325820253015
:100EB0003258200A2000000030010020FF9F724EAF
:100EC000534E20746F6F206C61726765202C206513
:100ED00072726F72202121210A000000534E203AC5
:100EE0002025730A000000009F05002075617274C0
:100EF0003100000073706932300000006D6B667362
:100F000020666C617368302066696E6973682C2096
:100F1000506C6561736520726573657420746865D3
:100F2000206465766963652E0A00000053504920ED
:100F300046696C652053797374656D20696E6974B8
:100F400069616C697A6564210A000000F857050838
:100F5000F1A027F0B0F8FD4890F8910040B1FB48AF
:100F600090F86E0020B1ECA047F0F0FF48F053F885
:100F700000BF02E00A202AF02EF9FBE70A202AF03F
:100F80002AF9F3A1F4A018F0E0FC00200346AFF624
:100F90003C02AFF2FC710090EFA02BF00FFF30B9D4
:100FA000EEA027F088F80120F549087002E0F5A0CE
:100FB00027F081F8E54890F8D40054281BD1FFF7BA
:100FC00067FD00BFE14890F8900000F0010078B1A3
:100FD000F7A027F070F8DD4890F8910040B1DB48A9
:100FE00090F86E0020B1F2A047F0B0FF48F013F87F
:100FF00000BF00BFFEE7FFF7ADF9FFF740FDFA487D
:101000000023FAA2AFF67801009018462BF0D6FE26
:1010100018B9F7A027F04FF802E0FDA027F04BF831
:1010200003201CF056FF45F65A2188420DD11CF0D2
:101030007BFA002103201CF03FFF0121FEA004F0F9
:1010400053FE04F080FD00BFFEE722F037FA0120D6
:1010500022F0A9FCBD4890F8D300032809D0BB4872
:1010600090F8D300042804D0B84890F8D30005289D
:1010700001D121F0FEFEB54890F8910000283FD044
:10108000AFF63C1004F0BCFEEF49884238DDAF48B3
:10109000923048F0E8FF401EAC499231085C2F289E
:1010A00020D000BFA94890F8900000F0010088B15E
:1010B000E6A027F000F8A54890F8910050B1A348A9
:1010C00090F86E0030B1A1499231E0A047F03EFFA8
:1010D00047F0A1FF00BF0222AFF694119B48923067
:1010E00026F07DFCE5A19948923049F026F8974812
:1010F000923047F0ABFDE4A047F028FF48F080F8BD
:101100001EF0ABFA1EF00DFD904890F8700001281B
:1011100004D08E4890F87000022822D100BF8B487E
:1011200090F8900000F0040078B1E3A026F0C3FF2F
:10113000864890F8910040B1844890F86E0020B144
:10114000DDA047F003FF47F066FF00BF0721E2483C
:101150000BF024FD8A48007818B101207B4981F802
:1011600074000120794981F86E0007B0F0BD1CB50C
:10117000044602E001202AF02EF8744890F86E0030
:101180000028F7D01420D54909784FF48053002265
:10119000CDE90010D249D3A029F05DFFD449086001
:1011A0000846006818B10846006829F007FF1420B7
:1011B000D04909784FF400630022CDE90010CE49F0
:1011C000CEA029F048FFD04908600846006818B151
:1011D0000846006829F0F2FE1E20CC4909784FF439
:1011E00000630022CDE90010C949CAA029F033FFED
:1011F000CC4908600846006818B10846006829F024
:10120000DDFE1CBD1CB50446207800283ED01E2003
:10121000C54909784FF480530022CDE90010C34935
:10122000C3A029F018FFC64908600846006818B135
:101230000846006829F0C2FE6420C24909784FF4CC
:1012400000730022CDE90010BF49C0A029F003FFC0
:10125000C14908600846006818B10846006829F0CE
:10126000ADFE1420BD4909784FF400730022CDE98A
:101270000010BB49BBA029F0EEFEBC49086008463F
:10128000006818B10846006829F098FEE07828B395
:1012900047F0E4F83CF082FD10F0E4F821F019FD8D
:1012A0001AF078FBB2A026F006FF0120274981F84A
:1012B0006F001E20B44909784FF480530022CDE915
:1012C0000010B249B2A029F0C6FEB5490860084630
:1012D000006818B10846006829F070FEA07900285F
:1012E00018D01420AF4909784FF400630022CDE9EB
:1012F0000010AD49ADA029F0AEFEAF490860084628
:10130000006818B10846006829F058FE1420A54965
:10131000097853E179E100005350492046696C6532
:101320002053797374656D20696E697469616C7A94
:101330006174696F6E206661696C656420616761C4
:10134000696E20212121200A00000000CC04002029
:10135000737069313100000073643000534443619D
:1013600072642046696C652053797374656D2069D9
:101370006E697469616C697A6564210A0000000015
:10138000040000205344436172642046696C652068
:1013900053797374656D20696E697469616C697ADB
:1013A0006174696F6E206661696C6564210A000072
:1013B000496E697420636F6E6669677572617469DE
:1013C0006F6E2066696E69736865642C20506C6569
:1013D0006173652072657365742074686520646547
:1013E000766963652E0A0000AC4A0508726F6D00CD
:1013F000524F4D2046696C652053797374656D209A
:10140000696E697469616C697A6564210A0000001B
:10141000524F4D2046696C652053797374656D2079
:10142000696E697469616C7A6174696F6E20666156
:10143000696C6564210A00002F66772F75706772EA
:101440006164652E666C670040420F004C6F672038
:1014500066696C652070617468206572726F7220B5
:101460003A202573202C20757365206465666175AC
:101470006C7420706174680A000000006C6F677300
:101480002E747874000000000A0A0A4C6F672073FB
:1014900074617274203D3D3D3D3D3D3D3D3D3D3DD2
:1014A0003D3D3D3D3D3D3D3D3D3D3D3D3D3D3D3D6C
:1014B0003D3D3D3D0A0A00000A2020456E746572DC
:1014C0002074657374696E67206D6F6465202121D7
:1014D00021200A0A00000000AA0F0020D4020020E8
:1014E000A7F10008554954445F424C4500000000F4
:1014F000D8020020DC02002045F20008554954447F
:101500005F424C455F727800E0020020E402002058
:10151000A7F20008554954445F424C455F72656329
:1015200000000000E802002018000020E53A000852
:10153000554954445F475052535F72656300000041
:101540001C000020C8070020E753010847534D5FE7
:101550004D47333031000000CC070020D407002075
:10156000A953010847534D5F72780000D807002047
:101570005443502F495020696E697469616C697ACF
:101580006564210A000000009800002091520008C4
:10159000554954445F6574685F72656300000000DC
:1015A0009C000020F8070020716C0108574946494B
:1015B0005F45535030370000FC0700204FF40073A4
:1015C0000022CDE90010F849F8A029F044FDF949BE
:1015D00008600846006818B10846006829F0EEFC6B
:1015E0001E20F54909784FF480530022CDE9001000
:1015F000F249F3A029F02FFDF5490860084600687C
:1016000018B10846006829F0D9FC6078A0B1142010
:10161000F04909784FF480530022CDE90010EE49DB
:10162000EEA029F018FDF04908600846006818B1DE
:101630000846006829F0C2FCA078A0B11420EB494C
:1016400009784FF480530022CDE90010E849E9A061
:1016500029F001FDEA4908600846006818B108460B
:10166000006829F0ABFC207948B31420E5490978DB
:101670004FF400530022CDE90010E349E3A029F024
:10168000EAFCE54908600846006818B108460068A9
:1016900029F094FC1420E14909784FF400730022EA
:1016A000CDE90010DE49DFA029F0D5FCDF49086054
:1016B0000846006818B10846006829F07FFC607988
:1016C00048B31E20DA4909784FF400530022CDE9CF
:1016D0000010D849D8A029F0BEFCDA4908600846B5
:1016E000006818B10846006829F068FC1E20D64939
:1016F00009784FF400730022CDE90010D349D4A03B
:1017000029F0A9FCD54908600846006818B10846C8
:10171000006829F053FCE079A0B11420D049097881
:101720004FF480530022CDE90010CE49CEA029F01D
:1017300092FCD04908600846006818B10846006865
:1017400029F03CFC207AA0B13C20CB4909784FF429
:1017500080530022CDE90010C849C9A029F07BFCC4
:10176000CA4908600846006818B10846006829F0B0
:1017700025FC00201CBD10B5044602E0012029F024
:101780002AFDC34890F86E000028F7D00120C14917
:101790000870487000208870C87001200871BC482B
:1017A0000078012803D10121BA48417107E0B84807
:1017B0000078022803D10121B64841718171B548F2
:1017C000001DFFF71FFD10BD10B5044602E001200B
:1017D00029F001FDAE4890F86E000028F7D00020F7
:1017E000AC4948700846007801282CD1084680781A
:1017F00090B10121A748C171A5480078012802D104
:10180000A44801725CE0A2480078022858D1012166
:10181000A0480172417253E09E48C07800284FD022
:1018200001219C4881729A480078012802D1994888
:10183000C17245E096480078022841D101219548BF
:10184000C17201733CE093480078002838D1914878
:101850008078012818D18F48C078022814D101213E
:101860008C48C17181728A480078012803D1894867
:101870000172C17224E086480078022820D101213B
:101880008448017201731BE08248C078012817D197
:1018900080488078022813D101217E48C17181726D
:1018A0007B480078012803D17A480172C17207E0B1
:1018B00077480078022803D101217648C17241722D
:1018C0007448001DFFF79EFC10BD10B5044602E0F1
:1018D000012029F080FC6E4890F86E000028F7D0B7
:1018E0006C480078012843D16A48407898B10120BB
:1018F0006849087166480078012803D101216548CC
:10190000417168E1624800780228FAD101216148FA
:10191000417181715FE15F48807890B101215D483C
:10192000C1715B480078012802D15A48017252E126
:10193000574800780228E4D10121564801724172CB
:1019400049E15448C0780028DBD001215148817218
:101950004F480078012802D14E48C1723BE14C4803
:1019600000780228CDD101214A48C172017332E1C9
:10197000484800780028C4D146484078012811D151
:101980004448807802280DD1012042490871012184
:101990004048C1713E48007801287DD13D484171E1
:1019A000017218E181E077E0176C01085749464958
:1019B0005F727800040800200403002057FC000830
:1019C000554954445F574946495F726563000000BA
:1019D0000803002008000020BB3400085549544487
:1019E0005F6D61696E0000000C0000201000002097
:1019F0006F370008554954445F325F6D61696E006E
:101A00001400002088000020D348000855495444A1
:101A10005F657468000000008C000020A0000020BA
:101A2000534D00086574685F72780000A4000020C0
:101A300090000020094E0008554954445F657468C1
:101A40005F32000094000020A8000020DB51000855
:101A50006574685F72785F3200000000AC0000209F
:101A6000F40200205DF60008554954445F5749468A
:101A700049000000F8020020FC02002023FA0008C0
:101A8000554954445F325F574946490000030020DE
:101A9000CC040020E9050020FE480078022803D18C
:101AA0000121FD484171417295E0FB488078012891
:101AB0001AD1F9484078022816D10120F649087158
:101AC0000121F548C171F3480078012803D1F2489B
:101AD000417101727FE0EF48007802287BD101213B
:101AE000ED480172817176E0EB488078012818D1C9
:101AF000E948C078022814D10121E748C1718172F8
:101B0000E4480078012803D1E3480172C17262E021
:101B1000E048007802285ED10121DF48017201739C
:101B200059E0DD48C078012818D1DB4880780228C8
:101B300014D10121D848C1718172D648007801289A
:101B400003D1D5480172C17245E0D248007802281D
:101B500041D10121D048C17241723CE0CE48407869
:101B600001281AD1CC48C078022816D10120CA49D0
:101B700008710121C8488172C6480078012803D144
:101B8000C5484171C17226E0C2480078022822D1BE
:101B90000121C148417101731DE0BF48C07801288F
:101BA00019D1BD484078022815D10120BA490871E1
:101BB0000121B9488172B7480078012803D1B6489D
:101BC0004171C17207E0B3480078022803D10121B6
:101BD000B148C1728171B048001DFFF713FB10BD01
:101BE0007CB5054602E0022029F0F5FAA94890F8F4
:101BF0006E000028F7D0A74890F8700001284DD15A
:101C0000A44890F8D300012804D0A24890F8D3004B
:101C100002280AD10120A04908704870002088706D
:101C2000C87001209B4908703AE09A4890F8D300A8
:101C3000032813D10020984908704870012088704B
:101C40000220C8709349087094A1974848F0DCF9C5
:101C500092A19548203048F0D7F921E08D4890F8BE
:101C6000D300042804D08B4890F8D300052817D15E
:101C700000208949087001204870022088700020E7
:101C8000C87002208349087084A1874848F0BCF9D5
:101C900082A18548203048F0B7F901E021F08BF8A7
:101CA0007C4890F8D400332811D105200A214FF444
:101CB00080630022CDE90010AFF64D317BA029F002
:101CC000CAF9044614B1204629F078F97CBD714860
:101CD00090F8D300012804D06E4890F8D300022871
:101CE00011D105200A214FF480630022CDE90010B4
:101CF000AFF27D5171A029F0AEF90446ACB3204695
:101D000029F05CF931E0634890F8D300032811D141
:101D100005200A214FF400630022CDE90010AFF244
:101D200057516AA029F097F90446F4B1204629F0EA
:101D300045F91AE0574890F8D300042804D05548D4
:101D400090F8D300052810D105200A214FF4006334
:101D50000022CDE90010AFF28D4160A029F07BF99F
:101D6000044614B1204629F029F900BFAEE71CB59E
:101D7000044602E0022029F02EFA464890F86E0050
:101D80000028F7D03C2009214FF480530022CDE9F0
:101D90000010574957A029F05EF9584908600846D5
:101DA000006818B10846006829F008F9394890F829
:101DB000700004283FD1374890F8D20003280ED095
:101DC000344890F8D200092809D0324890F8D2005F
:101DD0000A2804D02F4890F8D2000B282AD10A20D4
:101DE000474909784FF400630022CDE900104549C6
:101DF00045A029F030F9454908600846006818B147
:101E00000846006829F0DAF80A20414909784FF4B9
:101E100000730022CDE900103E493FA029F01BF9D4
:101E20003F49086008460068002803D0084600685B
:101E300029F0C4F8D4E1174890F8D200022816D14E
:101E40000A20384909784FF400630022CDE90010D8
:101E5000354936A029F0FFF8364908600846006881
:101E60000028E7D00846006829F0A8F8B8E109483A
:101E700090F8D200032867D10A202F4909784FF43F
:101E800000630022CDE900102C492DA029F0E3F8D1
:101E90002C495AE0CC040020E9050020737A6A73CB
:101EA0007465737400000000F60500205549544421
:101EB0005F424C455F696E697400000055495444A7
:101EC0005F475052535F696E69740000554954442E
:101ED0005F6574685F696E69740000005549544419
:101EE0005F475052535F4554485F696E6974000004
:101EF00009320208454C4543000000000000002064
:101F00002D030020D50901085450000030030020A3
:101F100034030020550A010854505F727800000015
:101F20003803002074010020BDD4000873656E736F
:101F30006F72000078010020C8010020ABE70008A4
:101F400046410000CC0100201EE008600846006801
:101F500018B10846006829F031F80A20C549097807
:101F60004FF400730022CDE90010C349C3A029F04B
:101F700072F8C449086008460068002803D0084683
:101F8000006829F01BF82BE1BF4890F8D200042824
:101F90002BD10A20BD4909784FF400730022CDE906
:101FA0000010BB49BBA029F056F8BC4908600846A0
:101FB000006818B10846006829F000F80A20B849FE
:101FC00009784FF400730022CDE90010B549B6A09E
:101FD00029F041F8B7490860084600680028D2D0C7
:101FE0000846006828F0EAFFFAE0A74890F8D20017
:101FF00009282CD10A20B04909784FF40063002247
:10200000CDE90010AD49AFF2C80029F024F8AC4981
:1020100008600846006818B10846006828F0CEFF3E
:102020000A20944909784FF400730022CDE900108A
:10203000914992A029F00FF892490860084600687B
:102040000028A0D00846006828F0B8FFC8E08E48F5
:1020500090F8D2000A282BD1974909784FF40063F1
:102060000022CDE900109549AFF22C1028F0F3FFC3
:10207000934908600846006818B10846006828F0CF
:102080009DFF0A207B4909784FF400730022CDE9B7
:102090000010794979A028F0DEFF7A4908600846E7
:1020A00000680028A0D00846006828F087FF97E065
:1020B000754890F8D2000B2841D10A207E49097852
:1020C0004FF400630022CDE900107C49AFF290107C
:1020D00028F0C1FF7A4908600846006818B1084630
:1020E000006828F06BFF0A20624909784FF40073FA
:1020F0000022CDE90010604960A028F0ACFF6149E2
:1021000008600846006818B10846006828F056FFC5
:102110000A206C4909784FF400630022CDE90010D1
:1021200069496AA028F097FF6B4908600846006873
:10213000002855D00846006828F040FF50E052487B
:1021400090F8D2000C2840D10A205B4909784FF45E
:1021500000630022CDE900105849AFF21C2028F09E
:102160007AFF574908600846006818B108460068B9
:1021700028F024FF0A203F4909784FF40073002219
:10218000CDE900103C493DA028F065FF3D490860BD
:102190000846006818B10846006828F00FFF0A20BA
:1021A0004E4909784FF480530022CDE900104C4984
:1021B0004CA028F050FF4E4908600846006878B1EE
:1021C0000846006828F0FAFE0AE02F4890F8D2008E
:1021D00018B948A025F06FFF02E046A025F06BFF7C
:1021E0001CBD1CB505200A21C3020022CDE9001048
:1021F000474948A028F02FFF044614B1204628F094
:10220000DDFE0A20454909784FF400630022CDE93C
:102210000010434943A028F01EFF454908600846C6
:10222000006818B10846006828F0C8FE0A20092195
:102230004FF480730022CDE90010AFF2CD413DA0F4
:1022400028F009FF044614B1204628F0B7FE0A2002
:1022500009214FF400630022CDE90010AFF27F6145
:1022600037A028F0F8FE044614B1204628F0A6FE58
:1022700000201CBDD001002045EC000846415F72E3
:1022800078000000D4010020CC0400204C02002083
:10229000B5ED00086374726C5F696E005002002037
:1022A0005402002077EE00086374726C5F6F7574DF
:1022B0000000000058020020C8010020ABE7000821
:1022C000CC010020700400206110010850524F5FC3
:1022D00055495444000000007404002040030020CD
:1022E000E90C010850524F5F4354524C000000006B
:1022F00044030020556E6B6E6F776E20626F6172C3
:1023000064207479706520212121200A00000000DA
:10231000E70A0008696E697400000000600100208F
:1023200043D400087379735F73746174757300002C
:10233000640100204150505F696E69740000000024
:10234000434F4D5F696E69740000000070B5C2B004
:1023500005464FF4807102A847F09CFF002401A8B5
:1023600010F02FF80121284603F0BEFC00220121C5
:1023700028462AF03BFFFE49C1F884000846D0F801
:10238000840000281BDA00BF084690F8900000F097
:10239000010078B1F7A025F08EFEF54890F8910085
:1023A00040B1F34890F86E0020B1F2A046F0CEFDA7
:1023B00046F031FE00BF4FF0FF3042B070BDEC4937
:1023C00091F8D3000FF025F906463246F1A102A894
:1023D00047F0A4FA0446002C17DA00BFE44890F84E
:1023E000900000F0010078B1F0A025F064FEE04814
:1023F00090F8910040B1DE4890F86E0020B1EBA05B
:1024000046F0A4FD46F007FE06E0D9492246D1F881
:10241000840002A92AF063FFD54991F8D2000FF099
:1024200017F906463246E7A102A847F077FA0446B4
:10243000002C17DA00BFCE4890F8900000F00100A1
:1024400078B1DAA025F037FEC94890F8910040B184
:10245000C74890F86E0020B1D4A046F077FD46F052
:10246000DAFD06E0C2492246D1F8840002A92AF02A
:1024700036FF01A847F0A0FF06463246D8A102A8C1
:1024800047F04CFA0446002C17DA00BFB84890F821
:10249000900000F0010078B1C4A025F00CFEB44813
:1024A00090F8910040B1B24890F86E0020B1BFA002
:1024B00046F04CFD46F0AFFD06E0AD492246D1F8AE
:1024C000840002A92AF00BFFA94890F8D300012844
:1024D00004D0A74890F8D300022829D1A44890F846
:1024E0007520C2A102A847F019FA0446002C17DA99
:1024F00000BF9F4890F8900000F0010078B1ABA0B9
:1025000025F0D9FD9A4890F8910040B1984890F88C
:102510006E0020B1A5A046F019FD46F07CFDBBE0A1
:1025200093492246D1F8840002A92AF0D8FEB3E0EC
:102530008F4890F8D300032852D18D4890F8762028
:10254000ADA102A847F0EAF90446002C17DA00BF53
:10255000874890F8900000F0010078B193A025F032
:10256000AAFD834890F8910040B1814890F86E0030
:1025700020B18EA046F0EAFC46F04DFD06E07C4915
:102580002246D1F8840002A92AF0A9FE784890F8E2
:1025900077209DA102A847F0C1F90446002C17DA64
:1025A00000BF734890F8900000F0010078B17FA060
:1025B00025F081FD6E4890F8910040B16C4890F88C
:1025C0006E0020B179A046F0C1FC46F024FD63E026
:1025D00067492246D1F8840002A92AF080FE5BE018
:1025E000634890F8D300042804D0614890F8D300E1
:1025F000052851D15E4890F875207CA102A847F0CB
:102600008DF90446002C17DA00BF594890F8900065
:1026100000F0010078B165A025F04DFD544890F818
:10262000910040B1524890F86E0020B15FA046F092
:102630008DFC46F0F0FC06E04D492246D1F88400BE
:1026400002A92AF04CFE4A4890F876206AA102A816
:1026500047F064F90446002C17DA00BF444890F8AC
:10266000900000F0010078B150A025F024FD404812
:1026700090F8910040B13E4890F86E0020B14BA018
:1026800046F064FC46F0C7FC06E039492246D1F822
:10269000840002A92AF023FE354890F8D2000328CE
:1026A00064D1334890F878205AA102A847F036F94F
:1026B0000446002C17DA00BF2D4890F8900000F077
:1026C000010078B139A025F0F6FC294890F8910076
:1026D00040B1274890F86E0020B134A046F036FC97
:1026E00046F099FC06E022492246D1F8840002A96E
:1026F0002AF0F5FD1E4890F879204AA102A847F07B
:102700000DF90446002C17DA00BF194890F8900024
:1027100000F0010078B125A025F0CDFC144890F818
:10272000910040B1124890F86E0020B11FA046F011
:102730000DFC46F070FC06E00D492246D1F88400FD
:1027400002A92AF0CCFD0A4890F87A2039A102A803
:1027500047F0E4F80446002C74DA00BF044890F80F
:10276000900000F0010010B110A06CE084E07AE06D
:10277000CC040020437265617465207465737469CC
:102780006E672066696C65206661696C65642021EE
:10279000200A00004D6F746865725F626F61726439
:1027A0005F74797065203A2025730A004C6F6720AA
:1027B000737072696E7466206661696C656420214D
:1027C000200A00004465766963655F626F61726428
:1027D0005F74797065203A2025730A0A00000000B2
:1027E00054696D65203A2025730A0A0047534D202D
:1027F0003A2025640A00000065746865726E65748D
:10280000203A2025640A000057494649203A2025ED
:10281000640A00005253323332203A092025640AF8
:10282000000000005253343835203A092025640A4C
:1028300000000000696E707574203A092025640A52
:102840000000000010E025F036FCFE4890F89100F2
:1028500048B1FC4890F86E0028B1AFF2B00046F0E5
:1028600075FB46F0D8FB69E0F6492246D1F88400B2
:1028700002A92AF034FD61E0F24890F8D200022863
:1028800056D1F04890F87C20EFA102A847F046F816
:102890000446002C19DA00BFEA4890F8900000F0D6
:1028A000010088B1AFF2FC0025F005FCE54890F886
:1028B000910048B1E34890F86E0028B1AFF21410CF
:1028C00046F044FB46F0A7FB06E0DE492246D1F87D
:1028D000840002A92AF003FDDA4890F87D20E0A1E7
:1028E00002A847F01BF80446002C19DA00BFD548AF
:1028F00090F8900000F0010088B1AFF2501025F080
:10290000DAFBD04890F8910048B1CE4890F86E00BC
:1029100028B1AFF2681046F019FB46F07CFB0DE0E1
:10292000C8492246D1F8840002A92AF0D8FC05E063
:10293000C44890F8D2000B2800D000BFC149D1F89C
:1029400084002AF082FC002037E510B5BD4890F8DD
:10295000D300012804D0BB4890F8D300022852D1FC
:10296000B84890F87500002827D0B64890F8D200F3
:10297000032823D1B34890F87A000028F4D0B14856
:1029800090F878000028EFD0AE4890F87900002841
:10299000EAD0B8A0FFF7DAFCBAA025F08CFBB5A00E
:1029A00029F0E6FE002021F034F80B21BA480AF0A5
:1029B000F5F80220A34981F8700037E1A14890F8AA
:1029C000D20002281ED19F4890F87C000028F4D045
:1029D0009C4890F87D000028EFD0A6A0FFF7B6FC39
:1029E000A8A025F068FBA3A029F0C2FE002021F0DA
:1029F00010F80B21A8480AF0D1F80220914981F87B
:102A0000700013E112E18F4890F8D300032857D1EA
:102A10008C4890F876000028CFD08A4890F877004C
:102A20000028CAD0874890F8D200032823D18548CF
:102A300090F87A000028C0D0824890F878000028EA
:102A4000BBD0804890F879000028B6D089A0FFF765
:102A50007DFC8CA025F02FFB86A029F089FE0020AC
:102A600020F0D7FF0B218C480AF098F80220754916
:102A700081F87000DAE0734890F8D20002281ED185
:102A8000704890F87C00002897D06E4890F87D0040
:102A9000002892D077A0FFF759FC7AA025F00BFB15
:102AA00074A029F065FE002020F0B3FF0B217A48C6
:102AB0000AF074F80220634981F87000B6E0B5E0CE
:102AC000604890F8D300042857D15E4890F875000C
:102AD000002896D05B4890F87600002891D059489D
:102AE00090F8D200032823D1564890F87A000028A5
:102AF00087D0544890F878000028BBD0514890F80F
:102B000079000028B6D05BA0FFF720FC5DA025F07F
:102B1000D2FA58A029F02CFE002020F07AFF0B21D9
:102B20005D480AF03BF80220464981F870007DE0DC
:102B3000444890F8D20002281ED1424890F87C0008
:102B4000002873D03F4890F87D0000286ED049A03F
:102B5000FFF7FCFB4BA025F0AEFA46A029F008FEDB
:102B6000002020F056FF0B214B480AF017F80220F6
:102B7000344981F8700059E058E0324890F8D300A9
:102B8000052853D12F4890F8750000284ED02D48C5
:102B900090F87600002849D02A4890F8D2000B28F7
:102BA00023D1284890F87A0000283FD0254890F893
:102BB000780000283AD0234890F87900002835D0D2
:102BC0002CA0FFF7C3FB2FA025F075FA29A029F050
:102BD000CFFD002020F01DFF0B212F4809F0DEFF64
:102BE0000220184981F8700020E0164890F8D200C1
:102BF0000C281BD1134890F87C00B8B1114890F80C
:102C00007D0098B11BA0FFF7A1FB1EA025F053FA91
:102C100018A029F0ADFD002020F0FBFE0B211E487E
:102C200009F0BCFF0220074981F870000548D0F880
:102C300080004EF66021884273D30EA0FFF786FB1A
:102C40002CE00000CC04002073656E736F725F345B
:102C50005F32306D41203A092025640A00000000EF
:102C600073656E736F725F3556203A092025640ACA
:102C7000000000002F746573745F6C6F672E7478AA
:102C8000740000000A54657374696E672070617384
:102C9000736564200A0A0000AA0F0020A7A025F08F
:102CA0000AFAAFF2300029F063FDA94890F8D3008A
:102CB000012804D0A64890F8D300022845D1A448A2
:102CC00090F8D20003281ED1A14890F8750020B1D9
:102CD0000A21A04809F062FF2BE19D4890F87A0094
:102CE00060B19B4890F8780040B1994890F879001D
:102CF00020B10921974809F051FF1AE108219548B0
:102D000009F04CFF15E1924890F8D20002281BD13F
:102D10008F4890F8750028B10A218E4809F03EFFCF
:102D200007E10AE18A4890F87C0040B1884890F8B1
:102D30007D0020B10921874809F030FFF9E0082122
:102D4000844809F02BFFF4E0F3E0814890F8D300C9
:102D500003284CD17E4890F8D200032822D17C4829
:102D600090F8760040B17A4890F8770020B10A21B7
:102D7000784809F013FFDCE0754890F87A0060B1FC
:102D8000734890F8780040B1714890F8790020B10C
:102D90000921704809F002FFCBE008216D4809F0D5
:102DA000FDFEC6E06A4890F8D20002281ED16848AD
:102DB00090F8760040B1664890F8770020B10A217B
:102DC000644809F0EBFEB4E0614890F87C0040B143
:102DD0005F4890F87D0020B109215E4809F0DEFED1
:102DE000A7E008215B4809F0D9FEA2E0A1E058481D
:102DF00090F8D30004284CD1554890F8D20003280D
:102E000022D1534890F8750040B1514890F87600AF
:102E100020B10A214F4809F0C1FE8AE04C4890F8E1
:102E20007A0060B14A4890F8780040B1484890F87C
:102E3000790020B10921474809F0B0FE79E0082166
:102E4000444809F0ABFE74E0414890F8D2000228F3
:102E50001ED13F4890F8750040B13D4890F876008B
:102E600020B10A213B4809F099FE62E0384890F809
:102E70007C0040B1364890F87D0020B109213548EA
:102E800009F08CFE55E00821324809F087FE50E039
:102E90004FE02F4890F8D30005284AD12C4890F8ED
:102EA000D2000B2822D12A4890F8750040B128485A
:102EB00090F8760020B10A21264809F06FFE38E02C
:102EC000234890F87A0060B1214890F8780040B12A
:102ED0001F4890F8790020B109211E4809F05EFED4
:102EE00027E008211B4809F059FE22E0184890F815
:102EF000D2000C281DD1164890F8750040B1144836
:102F000090F8760020B10A21124809F047FE10E03F
:102F10000F4890F87C0040B10D4890F87D0020B13A
:102F200009210C4809F03AFE03E00821094809F09C
:102F300035FE0220064981F8700010BD0A54657301
:102F400074696E672074696D656F7574200A0A0074
:102F5000CC040020AA0F002001460022FE48006891
:102F600050B1FD4800684160FB480068007818B91E
:102F70000120F94B1B681870002212E0F74850F846
:102F8000220068B1F54850F822008160F34850F8FB
:102F90002200007820B90120F04B53F8223018703D
:102FA000521C052AEADBEE48006850B1EC48006884
:102FB0008160EB480068007818B90120E84B1B6875
:102FC0001870E848006850B1E64800684160E5487C
:102FD0000068007818B90120E24B1B681870E248BD
:102FE000006850B1E04800684160DF480068007840
:102FF00018B90120DC4B1B6818700020704701468F
:103000000022D548006850B1D34800688160D2489A
:103010000068007818B90120CF4B1B681870002297
:1030200012E0CE4850F8220068B1CC4850F8220097
:10303000C160CA4850F82200007820B90120C74B6F
:1030400053F822301870521C052AEADBC448006885
:1030500050B1C3480068C160C1480068007818B921
:103060000120BF4B1B681870BE48006850B1BD48B6
:1030700000688160BB480068007818B90120B94B2E
:103080001B681870B848006850B1B7480068816084
:10309000B5480068007818B90120B34B1B68187058
:1030A0000020704770B504460D4616463246294644
:1030B000204612F0C5F870BD2DE9F0438FB00446EC
:1030C0000D4616461F46DDE91689342102A847F051
:1030D000E1F81CB101208DF8080002E003208DF812
:1030E0000800ADF8385043463A46314602A8CDF8BC
:1030F000009012F0F8F80FB0BDE8F0830146704779
:10310000024670470146704710B5044610BD2DE9D0
:10311000F04F93B080460D4616461C46DDF88CB045
:10312000DDE91F9A1C9F342106A847F0B3F80DB1C2
:10313000002000E002208DF818008DF819609DF83D
:10314000190070B920788DF81A0061788DF81B107D
:10315000A1788DF81C10E1788DF81D10ADF81E7067
:1031600006E021460DF1260046F04EFF06A8C78571
:10317000DDE92110CDE9030BCDE9009A029106A902
:103180004046DDE91D2312F06CF813B0BDE8F08F66
:1031900070B504464FF0FF35002625687348006877
:1031A000C0F8D45901207149096881F8D0096F48E5
:1031B0000068FFF7D1FE00BF6D4890F8900000F066
:1031C000040078B16BA024F076FF694890F8910074
:1031D00040B1674890F86E0020B166A045F0B6FE99
:1031E00045F019FF00BF002070BD70B504460D46C4
:1031F0002646284612F06DF800BF5D4890F8900012
:1032000000F0040098B160A0D6F8D41924F053FF60
:10321000574890F8910050B1554890F86E0030B181
:1032200059A0D6F8D41945F091FE45F0F4FE00BF40
:10323000002070BD2DE9F04105460E4617462C468C
:1032400094F8D00900281BD000BF494890F890009E
:1032500000F0010098B153A0D4F8D41924F02BFF4A
:10326000434890F8910050B1414890F86E0030B159
:103270004CA0D4F8D41945F069FE45F0CCFE00BF4F
:10328000002084F8D009BDE8F0812DE9F0418046A6
:103290000C4615461E4600274FF4FA71494823F0A4
:1032A00020FA32462946204611F0CAFF0746454813
:1032B00023F021FB3846BDE8F0812DE9F0410446BA
:1032C0008846154600272646AAB2414606F64820FB
:1032D00030F0E6F80746AF4221D000BF244890F80E
:1032E000900000F00100A8B13A4637A0D6F8D419F2
:1032F00024F0E1FE1E4890F8910058B11C4890F867
:103300006E0038B13A4630A0D6F8D41945F01EFE0A
:1033100045F081FE00BF6FF00600BDE8F08100BF00
:10332000FBE72DE9FE4305460E4617469946DDF8B4
:1033300028802C46307884F82E0A717840F62F20A9
:103340000155B178401C0155F178401C0155A4F895
:10335000327A00BF064847E03C0A002014100020E3
:103360003C0300202C0A0020480A002030000020E6
:10337000CC040020535A4A5320636F6E6E65637409
:10338000656421200A000000554954445F475052AB
:103390005320256420646973636F6E6E6563742EB9
:1033A000200A0000554954445F4750525320256479
:1033B00020646973636F6E6E656374656420212198
:1033C00021200A00581A002072696E676275662013
:1033D0002564207772697465206572726F72203A75
:1033E000202564200000000090F8900000F0040008
:1033F000002833D0B4F8320A40F63121095D4FF489
:103400002362125DCDE90021029040F62F20035D7A
:1034100094F82E2AF5A0D4F8D41924F04CFEFD48D7
:1034200090F89100D0B1FB4890F86E00B0B1B4F8BC
:10343000320A40F63121095D4FF42362125DCDE975
:103440000021029040F62F20035D94F82E2AE7A079
:10345000D4F8D41945F07AFD45F0DDFD00BFBDE894
:10346000FE8370B504464FF0FF352568EA480068D2
:10347000C0F8D4590120E849096881F8D009E64824
:103480000068FFF7BCFD00BFE24890F8900000F034
:10349000040078B1E1A024F00EFEDE4890F891001F
:1034A00040B1DC4890F86E0020B1DCA045F04EFD44
:1034B00045F0B1FD00BF002070BD88B0002400239E
:1034C0001A46DBA1DE4822F031FF00231A46DDA1B7
:1034D000E04822F02BFF02E0022027F07CFECD48DE
:1034E00090F888000028F7D0AFF2C91000210491AD
:1034F0000591CDE906100846AFF241210022AFF256
:10350000CB23CDE90032CDE90210AFF22133AFF287
:103510007F32AFF20541AFF28D2002F0ADFFCE4910
:10352000086008460068E0B900BFBA4890F890000B
:1035300000F0010078B1C9A024F0BDFDB54890F8B5
:10354000910040B1B34890F86E0020B1C3A045F09F
:10355000FDFC45F060FD00BF02E0052027F03BFECA
:10356000FBE7AC4890F83610BB48006800F5005007
:1035700080F8081A0322C049B748006802F061FFCA
:103580000120A44981F8D60050E00121BB4822F077
:1035900048FF0446002C49D19E48807870B1002134
:1035A0009C48808E9B4BDB1C0122CDE9000111461B
:1035B000A948006803F05FF804460DE00021954833
:1035C000808E944B23330A46CDE900010121A248A5
:1035D000006803F050F80446002C18DA00BF8D484C
:1035E00090F8900000F0010078B1A5A024F063FDF0
:1035F000884890F8910040B1864890F86E0020B15C
:103600009FA045F0A3FC45F006FD00BF0FE002E0DF
:10361000052027F0E0FD9048006890F8D0090028C8
:10362000F6D001207B4981F8890000E0ADE700BFBA
:10363000784890F87000012804D0764890F870001F
:10364000022804D102E00A2027F0C5FDFBE78DE047
:1036500081480068002858D07F48006890F8D00959
:10366000002852D104218C4809F098FA69488078E2
:1036700070B100216748808E664BDB1C0122CDE9CA
:10368000000111467448006802F0F5FF04460DE0A1
:1036900000216048808E5F4B23330A46CDE900014C
:1036A00001216D48006802F0E6FF0446002C21DA93
:1036B00000BF584890F8900000F0010078B177A062
:1036C00024F0F9FC534890F8910040B1514890F82B
:1036D0006E0020B171A045F039FC45F09CFC00BFA4
:1036E00040F6B83027F077FD00205B49096881F883
:1036F000D0093BE002E0052027F06DFD5648006848
:1037000090F8D0090028F6D01FE053480068A0B117
:103710005148006890F8D00901280ED14E48006841
:103720000078022809D103215B4809F037FA02200A
:103730004949096881F8D00907E04748006808F05E
:1037400078FB4548006807F0ADFE5B48007848B15B
:103750000521514809F022FA4FF4FA7027F03BFD99
:1037600002F0F1F9012027F036FD00BF70E788B0C4
:10377000002402E0022027F02EFD264890F8880061
:103780000028F7D0AFF26540002104910591CDE902
:1037900006100846AFF2DD410022AFF26753CDE9D3
:1037A0000032CDE90210AFF2BD53AFF24932AFF2B1
:1037B000A161AFF2295002F05FFE17490860084688
:1037C000006888B900BF134890F8900000F001002D
:1037D00058B13AA024F06FFC0E4890F8910020B147
:1037E0000C4890F86E0077E07EE07CE05549544448
:1037F0005F4750525320256420495020706F7274E7
:10380000203A2025642E25642E25642E25643A2531
:1038100064200A00CC0400203400002058465A449A
:1038200020636F6E6E656374656421200A0000007A
:10383000554954445F6D61696E5F74780000000003
:10384000680D0020554954445F6D61696E5F727860
:10385000000000003C0D0020300000205549544479
:103860005F535A4A5320696E6974206661696C65BA
:103870006420210A00000000740E0020001A0020BD
:103880005549544420636F6E6E65637420666169A8
:103890006C656420210A0000AA0F00205549544499
:1038A0005F535A4A5320636F6E6E6563742066617E
:1038B000696C656420210A007E0600205549544445
:1038C0005F58465A4420696E6974206661696C6568
:1038D0006420210A0000000028B1AFF2200045F06A
:1038E00035FB45F098FB00BFFD4890F86C10FD4893
:1038F000006800F5005080F8081A0322FA49F948D8
:10390000006802F09EFD0120F54981F8D80056E0DC
:103910000A2027F060FCF24890F8890020B9F048AE
:1039200090F88B0000284AD0ED4890F8380078B124
:103930000021EB48B0F86A00E94B39330122CDE9A8
:1039400000011146E748006802F095FE04460EE0CB
:103950000021E348B0F86A00E14B59330A46CDE94B
:1039600000010121DF48006802F085FE0446002CBA
:103970001ADA00BFDA4890F8900000F0010088B130
:10398000AFF2041024F097FBD54890F8910048B1AD
:10399000D34890F86E0028B1AFF21C1045F0D6FA6B
:1039A00045F039FB00BF0BE002E0052027F013FCD7
:1039B000CC48006890F8D0090028F6D000E0A7E7CE
:1039C00000BFC74890F87000012804D0C44890F8A0
:1039D0007000022804D102E00A2027F0FCFBFBE77C
:1039E0007FE0C0480068002857D0BE48006890F8C3
:1039F000D009002851D1BA4890F8380078B1002198
:103A0000B748B0F86A00B64B39330122CDE900015E
:103A10001146B448006802F02EFE04460EE0002174
:103A2000AF48B0F86A00AE4B59330A46CDE9000101
:103A30000121AC48006802F01EFE0446002C21DA89
:103A400000BFA74890F8900000F0040078B1A7A04C
:103A500024F031FBA24890F8910040B1A04890F8C2
:103A60006E0020B1A1A045F071FA45F0D4FA00BF74
:103A700040F6B83027F0AFFB00209A49096881F87A
:103A8000D0092EE002E0052027F0A5FB954800684C
:103A900090F8D0090028F6D01FE092480068A0B145
:103AA0009048006890F8D00901280ED18D48006830
:103AB0000078022809D10321964809F06FF8022006
:103AC0008849096881F8D00907E08648006808F04D
:103AD000B0F98448006807F0E5FC012027F07BFB83
:103AE00000BF7EE700BF02E0052027F074FB7C48A2
:103AF00090F8D6000028F7D00AE08748006808F060
:103B000069FF7848006808F065FF012027F063FB33
:103B1000F3E710B58048006808F059F910BD10B5FA
:103B2000044600BF6E4890F8900000F0040078B1A1
:103B30007AA024F0C0FA6A4890F8910040B1684831
:103B400090F86E0020B175A045F000FA45F063FAD8
:103B500000BF002010BD10B5044600BF604890F8BB
:103B6000900000F0040078B172A024F0A4FA5C4840
:103B700090F8910040B15A4890F86E0020B16DA0C5
:103B800045F0E4F945F047FA00BF002010BD38B514
:103B90000446AFF23D00AFF27903224600905E4842
:103BA000006842F2847101445B48006808F0CAF87A
:103BB00038BD3EB5044601A803F0CAF801A8234663
:103BC0000122114600905448006804F09BF93EBD64
:103BD00010B5044621465048006804F007F810BDAF
:103BE0001FB54D480068B8B900BF3D4890F8900037
:103BF00000F0040078B155A024F05DFA384890F840
:103C0000910040B1364890F86E0020B14FA045F0C9
:103C10009DF945F000FA9EE100BF314890F8900010
:103C200000F0040078B150A024F045FA2C4890F838
:103C3000910040B12A4890F86E0020B14AA045F0AA
:103C400085F945F0E8F900BF00BF254890F89000DD
:103C500000F0040048B30320052104220223CDE92B
:103C60000032CDE902102C480068017801230022BF
:103C7000444824F020FA1A4890F89100A8B1184856
:103C800090F86E0088B10320052104220223CDE9BB
:103C90000032CDE90210204800680178012300229B
:103CA000384845F053F945F0B6F900BF00BF0C485D
:103CB00090F8900000F0040088B11748006890F870
:103CC000051A31A024F0F7F9054890F8910030B1B9
:103CD000034890F86E0010B10F4800685EE065E0A0
:103CE000CC04002034000020740E002055495444B8
:103CF0005F58465A4420636F6E6E65637420666138
:103D0000696C65642021207265747279202E2E2ED4
:103D10000A000000AA0F00203000002046696C65F0
:103D200020646F776E6C6F61642073756363657375
:103D3000732E0A0046696C6520646F776E6C6F6144
:103D400064206661696C65642E0A00000A2055498A
:103D5000544420535A4A53206973206E6F7420755F
:103D6000736564200A0000000A205549544420531A
:103D70005A4A532073657276657220696E666F3A8F
:103D8000200A00003C58050869665F7573655F6E20
:103D9000616D653A2025640A0000000090F8051A5C
:103DA000AFF21C0045F0D2F845F035F900BF00BF76
:103DB000FE4890F8900000F0040088B3FC480068CA
:103DC00090F8290A0090FA48006890F8283AF848D4
:103DD000006890F8272AF648006890F8261AF5A09F
:103DE00024F069F9F14890F89100C8B1EF4890F8D3
:103DF0006E00A8B1EE48006890F8290A0090EC48DF
:103E0000006890F8283AEA48006890F8272AE848BD
:103E1000006890F8261AE7A045F098F845F0FBF8FE
:103E200000BF00BFE14890F8900000F00400B8B176
:103E3000DF48016801F60621E3A024F03CF9DB48E5
:103E400090F8910060B1D94890F86E0040B1D84820
:103E5000016801F60621DCA045F078F845F0DBF8B2
:103E600000BF00BFD14890F8900000F00400B8B146
:103E7000CF480068B0F82A1AD8A024F01CF9CB4823
:103E800090F8910060B1C94890F86E0040B1C84800
:103E90000068B0F82A1AD1A045F058F845F0BBF8F0
:103EA00000BF00BFC14890F8900000F0040088B344
:103EB000BF48006890F8310A0090BD48006890F84B
:103EC000303ABB48006890F82F2AB948006890F84B
:103ED0002E1AC5A024F0EFF8B44890F89100C8B1AC
:103EE000B24890F86E00A8B1B148006890F8310A65
:103EF0000090AF48006890F8303AAD48006890F8FC
:103F00002F2AAB48006890F82E1AB7A045F01EF88B
:103F100045F081F800BF00BFA44890F8900000F081
:103F20000400B8B1A2480068B0F8321AB4A024F076
:103F3000C2F89E4890F8910060B19C4890F86E00DD
:103F400040B19B480068B0F8321AADA044F0FEFFC3
:103F500045F061F800BFAE480068B8B900BF9348AB
:103F600090F8900000F0040078B1AAA024F0A3F823
:103F70008E4890F8910040B18C4890F86E0020B1C6
:103F8000A4A044F0E3FF45F046F897E100BF87485E
:103F900090F8900000F0040078B1A5A024F08BF810
:103FA000824890F8910040B1804890F86E0020B1AE
:103FB0009FA044F0CBFF45F02EF800BF00BF7B4828
:103FC00090F8900000F0040048B30320052104227B
:103FD0000223CDE90032CDE902108D480068017856
:103FE00001230022994824F066F8704890F8910067
:103FF000A8B16E4890F86E0088B103200521042214
:104000000223CDE90032CDE9021081480068017831
:10401000012300228D4844F099FF44F0FCFF00BFCB
:1040200000BF624890F8900000F00400C8B17848E2
:10403000006890F8051AAFF2B02024F03CF85B4815
:1040400090F8910068B1594890F86E0048B17048F6
:10405000006890F8051AAFF2D02044F077FF44F0E2
:10406000DAFF00BF00BF514890F8900000F0040054
:1040700088B36748006890F8290A0090644800688F
:1040800090F8283A6248006890F8272A604800684B
:1040900090F8261A47A024F00EF8444890F89100B2
:1040A000C8B1424890F86E00A8B15948006890F82D
:1040B000290A00905648006890F8283A5448006849
:1040C00090F8272A5248006890F8261A39A044F040
:1040D0003DFF44F0A0FF00BF00BF344890F89000BF
:1040E00000F00400B8B14A48016801F6062136A084
:1040F00023F0E1FF2D4890F8910060B12B4890F833
:104100006E0040B14248016801F606212EA044F03D
:104110001DFF44F080FF00BF00BF244890F89000CE
:1041200000F00400B8B13A480068B0F82A1A2BA091
:1041300023F0C1FF1D4890F8910060B11B4890F832
:104140006E0040B132480068B0F82A1A23A044F04B
:10415000FDFE44F060FF00BF00BF144890F89000DF
:1041600000F0040000B32A48006890F8310A00907B
:104170002748006890F8303A2548006890F82F2AC0
:104180002348006890F82E1A17A023F094FF0748E0
:1041900090F8910040B1054890F86E0020B11C489D
:1041A000006890F8310A53E065E00000CC0400207C
:1041B0003000002049503A2025642E25642E2564C5
:1041C0002E25640A000000007365727665725F6ECA
:1041D000616D653A2025730A00000000706F7274EB
:1041E0003A2025640A0000006C6F63616C5F4950DF
:1041F0003A2025642E25642E25642E25640A0000AD
:104200006C6F63616C5F706F72743A2025640A0092
:10421000340000200A20554954442058465A44206E
:104220006973206E6F742075736564200A00000046
:104230000A20554954442058465A442073657276E2
:10424000657220696E666F3A200A00003C580508C6
:1042500000901C48006890F8303A1A48006890F8BE
:104260002F2A1848006890F82E1AAFF2840044F004
:104270006DFE44F0D0FE00BF00BF134890F89000E0
:1042800000F00400C8B10F480068B0F8321AAFF26D
:10429000900023F010FF0C4890F8910068B10A4894
:1042A00090F86E0048B107480068B0F8321AAFF2D3
:1042B000B00044F04BFE44F0AEFE00BF002004B05E
:1042C00010BD000034000020CC0400202DE9F04F88
:1042D00087B007460D46DDE911ABDDF840903C465E
:1042E00000200690461E80466878002835D005F1EB
:1042F0000E0037F0DFFA8046B8F1000F0BD0D8F887
:1043000010000422016804F6262023F068FBE88DE3
:10431000A4F82A0A21E000BFF94890F8900000F0C4
:10432000010000280FD0F7A023F0C5FEF44890F854
:10433000910040B1F24890F86E0020B1F1A044F035
:1043400005FE44F068FE00BF0422A91C04F62620E6
:1043500023F045FBE88DA4F82A0AD4F8000A68B1D6
:10436000B4F82A0A0090B4F8322A04F62623F14859
:10437000D4F800CA0168091D2046E04728780028C3
:104380003ED100220221084638F0D4FA0646002E1B
:1043900019DB0020029003900490059002208DF814
:1043A0000900B4F82C0A3AF037F8ADF80A000020FA
:1043B0003AF03EF80390102202A9304637F0EAFEA8
:1043C000C4F8D4691DE000BFCD4890F8900000F01B
:1043D000010078B1D8A023F06EFEC94890F8910092
:1043E00040B1C74890F86E0020B1D3A044F0AEFDB4
:1043F00044F011FE00BF4FF0FF3007B0BDE8F08F72
:1044000000BF3046F9E710B50446002C02DB204619
:1044100037F01FFF002010BD2DE9F04387B00446A0
:104420000D4616461F464FF00009A0460020039097
:1044300004900590069002208DF80D00B8F82A0A25
:1044400039F0EAFFADF80E00D8F8260A04904FF4D0
:10445000FA71BF4822F045F9102003A900233A461B
:10446000CDE900103146284638F08AF98146B8482F
:1044700022F041FA484607B0BDE8F0832DE9F04F3D
:1044800093B080460D4616461C46DDF88CB0DDE93B
:104490001F9A1C9F342106A845F0FCFE0DB1002098
:1044A00000E002208DF818008DF819609DF81900C1
:1044B00070B920788DF81A0061788DF81B10A178FA
:1044C0008DF81C10E1788DF81D10ADF81E7006E017
:1044D00021460DF1260045F097FD06A8C785DDE9C8
:1044E0002110CDE9030BCDE9009A029106A94046BF
:1044F000DDE91D23FFF7EAFE13B0BDE8F08F70B5CC
:1045000004464FF0FF350026256800BF7C4890F830
:10451000900000F0040088B129468EA023F0CBFD66
:10452000774890F8910048B1754890F86E0028B12E
:10453000294688A044F00AFD44F06DFD00BF8F4875
:104540000068C0F8D45901208C49096881F8D00965
:104550008A480068FEF700FD00BF694890F89000A7
:1045600000F0040078B186A023F0A5FD644890F81F
:10457000910040B1624890F86E0020B180A044F0F4
:10458000E5FC44F048FD00BF002070BD70B5054655
:104590000C462E4600BF5A4890F8900000F00400E8
:1045A00088B121467CA023F086FD554890F8910003
:1045B00048B1534890F86E0028B1214676A044F0E7
:1045C000C5FC44F028FD00BF2046FFF71CFFD6F8CD
:1045D000E40928B1224600212846D6F8E439984754
:1045E000002070BD2DE9F04104460F4615462646D1
:1045F00096F8D009C8B100BF414890F8900000F08B
:10460000010088B129466BA023F055FD3C4890F885
:10461000910048B13A4890F86E0028B1294665A04B
:1046200044F094FC44F0F7FC00BF002086F8D00969
:10463000BDE8F0812DE9F041044688461546002783
:104640002646AAB2414606F648202EF029FF074624
:10465000AF4221D000BF2A4890F8900000F001003E
:10466000A8B13A465BA0D6F8D41923F024FD24481B
:1046700090F8910058B1224890F86E0038B13A464F
:1046800054A0D6F8D41944F061FC44F0C4FC00BF37
:104690006FF00600BDE8F08100BFFBE72DE9FE43A7
:1046A00005460E4617469946DDF828802C46307898
:1046B00084F82E0A717840F62F200155B178401CFD
:1046C0000155F178401C0155A4F8327A00BF0C481E
:1046D00090F8900000F00400002810D0B4F8320ADE
:1046E00040F63121095D4FF42362125DCDE90021CE
:1046F000029040F62F20035D94F82E2A7AE09DE088
:10470000CC04002047657420686F737420627920A0
:104710006E616D65206661696C656420210A2055B3
:104720007365207468652049502061646472657304
:10473000730A0000700C0020437265617420736F6F
:10474000636B6574206661696C656420210A0000F2
:10475000EC0D0020554954445F6574685F535A4A14
:104760005320636F6E6E6563746564202C20736FD5
:10477000636B6574203A2025640A0000C0000020A5
:104780006574685F535A4A5320636F6E6E65637435
:10479000656421200A000000554954445F6574682F
:1047A00020256420646973636F6E6E6563742E20C8
:1047B0000A000000554954445F6574682025642050
:1047C000646973636F6E6E65637465642021212173
:1047D000200A000072696E67627566202564207782
:1047E00072697465206572726F72203A20256420A8
:1047F00000000000F0A0D4F8D41923F05CFCFA48C3
:1048000090F89100D0B1F84890F86E00B0B1B4F8CB
:10481000320A40F63121095D4FF42362125DCDE981
:104820000021029040F62F20035D94F82E2AE2A08A
:10483000D4F8D41944F08AFB44F0EDFB00BF00200B
:10484000BDE8FE8370B504464FF0FF3500262568AD
:1048500000BFE54890F8900000F0040088B12946B8
:10486000E2A023F028FCE04890F8910048B1DE482F
:1048700090F86E0028B12946DCA044F067FB44F0B4
:10488000CAFB00BFE3480068C0F8D4590120E149E1
:10489000096881F8D009DF480068FEF7B0FB00BF67
:1048A000D14890F8900000F0040078B1DAA023F02D
:1048B00002FCCD4890F8910040B1CB4890F86E00D2
:1048C00020B1D5A044F042FB44F0A5FB00BF00207E
:1048D00070BD8AB00020099000BF02E0022026F0DF
:1048E0007AFCC14890F86E000028F7D002E0022060
:1048F00026F071FCBC4890F86F000028F7D002E069
:10490000012026F068FCCA48006890F82D0000F0ED
:1049100010000028F4D040F2DC5023F007FEC54917
:10492000086008460068C8B900BFAF4890F890001A
:1049300000F0010078B1C0A023F0BDFBAA4890F8B8
:10494000910040B1A84890F86E0020B1BAA044F0A0
:10495000FDFA44F060FB00BF00BFFEE7AFF2C320EA
:10496000002104910591CDE906100846AFF23B31D4
:104970000022AFF28F33CDE90032CDE90210AFF261
:10498000F333AFF28542AFF20B51AFF2735001F047
:1049900073FDB049086008460068E0B900BF92485E
:1049A00090F8900000F0010078B1ABA023F083FBF9
:1049B0008D4890F8910040B18B4890F86E0020B17E
:1049C000A5A044F0C3FA44F026FB00BF02E0052096
:1049D00026F001FCFBE7844890F836109D480068FB
:1049E00000F5005080F8081A4EF6870099490968CA
:1049F000A1F8320A0122A0499648006801F021FD81
:104A00000120794981F8D6006EE08948006890F865
:104A10002D0000F00100002862D07348807888B132
:104A20008C480068B0F8320A6F49898E6E4BDB1CE7
:104A30000122CDE9001011468648006801F01BFEF6
:104A4000099010E083480068B0F8320A6649898E00
:104A5000654B23330022CDE9001001217D48006819
:104A600001F009FE0990099800281BDA00BF5E4892
:104A700090F8900000F0010078B180A023F01BFBBB
:104A8000594890F8910040B1574890F86E0020B115
:104A90007AA044F05BFA44F0BEFA00BF642026F02E
:104AA0009AFB22E06B480068D0F8DC1909A8884717
:104AB0004D4890F87000012804D04B4890F87000E1
:104AC000022804D10721734808F068F803E00321A5
:104AD000704808F063F80120434981F88B0004E036
:104AE000012026F078FB00BF8FE700BF3E4890F81A
:104AF0007000012804D03C4890F87000022808D1CA
:104B00000121394880F8761002E00A2026F063FB84
:104B1000FBE71DE14F48006800284AD04D48006877
:104B200090F8D009002844D104215A4808F036F8FA
:104B30003F48006890F82D0000F0010000283AD0AE
:104B40003B48006890F82D0000F01000002832D09B
:104B50002548807888B13F480068B0F8320A224979
:104B6000898E214BDB1C0122CDE90010114639480A
:104B7000006801F080FD099010E036480068B0F848
:104B8000320A1949898E184B23330022CDE90010CF
:104B900001213048006801F06EFD09900998002855
:104BA0007ADA00BF104890F8900000F0010008B1D8
:104BB00073E09CE081E0BAE0554954445F65746855
:104BC00020736F636B657420256420495020706FDB
:104BD0007274203A2025642E25642E25642E2564C7
:104BE0003A2564200A000000CC04002055495444B2
:104BF0005F6574685F58465A4420636F6E6E6563E4
:104C0000746564202C20736F636B6574203A2025D3
:104C1000640A0000C40000206574685F58465A4466
:104C200020636F6E6E656374656421200A00000066
:104C3000700C0020CC0000204D616C6C6F6320650F
:104C4000746820627566206661696C656420210A5B
:104C500000000000C0000020554954445F6574689E
:104C60005F535A4A5320696E6974206661696C65A6
:104C70006420210A00000000740E002055495444AD
:104C800020636F6E6E656374206661696C65642075
:104C9000210A0000AA0F002019E0F9A023F00BFA66
:104CA000FE4890F8910040B1FC4890F86E0020B1A9
:104CB000F3A044F04BF944F0AEF900BF642026F0B5
:104CC0008AFA0020F649096881F8D00940E00120FD
:104CD000F349096881F8D00902E0052026F07BFA43
:104CE000EF48006890F8D0090028F6D01FE0EC48A3
:104CF0000068A0B1EA48006890F8D00901280ED1F8
:104D0000E74800680078022809D10321E54807F048
:104D100045FF0220E249096881F8D00907E0E04830
:104D2000006807F086F8DE48006806F0BBFBDE4846
:104D3000007848B10521DB4807F030FF4FF4FA70E6
:104D400026F049FA00F0FFFE012026F044FA00BFE9
:104D5000E0E688B000BF0020049005900690079020
:104D6000039002E0012026F036FACC4890F88B0040
:104D70000028F7D0002004900590069007900220AC
:104D80008DF81100C6490968B1F82C0A39F044FBC6
:104D9000ADF81200C2480068D0F8260A059010202D
:104DA000039030E0BE48006850B3BD48006890F8FA
:104DB000D00928B3BA480068D0F8D40900281FDB0E
:104DC00003A804A9CDE90010B5490968082340F2F9
:104DD000DB52D1F8D409B549096837F01FFBB44953
:104DE00008600846006800280ADDAD480068D0F871
:104DF000EC3908460268AD480168A9480068984740
:104E0000012026F0E8F9CDE78AB00020099000BF24
:104E100002E0022026F0DFF9A04890F86E0000289A
:104E2000F7D002E0022026F0D6F99C4890F86F00F7
:104E30000028F7D002E0012026F0CDF99D48006857
:104E400090F82D0000F010000028F4D040F2DC5063
:104E500023F06CFB9849086008460068D8B900BF89
:104E60008E4890F8900000F0010088B1AFF2382031
:104E700023F021F9894890F8910048B1874890F8CB
:104E80006E0028B1AFF2502044F060F844F0C3F84F
:104E900000BF00BFFEE7AFF2FB7000210491059157
:104EA000CDE906100846AFF673010022AFF6CB033A
:104EB000CDE90032CDE90210AFF62F13AFF27B62DD
:104EC000AFF64721AFF6AF2001F0D6FA7B49086074
:104ED00008460068E0B900BF704890F8900000F004
:104EE000010078B176A023F0E6F86C4890F89100C4
:104EF00040B16A4890F86E0020B171A044F026F8E5
:104F000044F089F800BF02E0052026F064F9FBE7D1
:104F1000624890F86C106948006800F5005080F80D
:104F2000081A4EF6880065490968A1F8320A01227C
:104F30006B496248006801F084FA0120574981F802
:104F4000D8005CE05B48006890F82D0000F001009C
:104F5000002850D0514890F8380090B15748006868
:104F6000B0F8320A4D49B1F86A104C4B393301227E
:104F7000CDE9001011465148006801F07CFB099012
:104F800011E04E480068B0F8320A4449B1F86A109E
:104F9000424B59330022CDE90010012147480068F7
:104FA00001F069FB0990099800281DDA00BF3B4811
:104FB00090F8900000F0010088B1AFF2403023F08B
:104FC0007AF8364890F8910048B1344890F86E006D
:104FD00028B1AFF2583043F0B9FF44F01CF800BFDD
:104FE000642026F0F8F80BE034480068D0F8DC19AB
:104FF00009A8884704E0012026F0EDF800BFA1E7EA
:1050000000BF264890F87000012804D0234890F88B
:105010007000022804D102E00A2026F0DCF8FBE749
:10502000DAE02648006800287ED02448006890F81E
:10503000D009002878D11F48006890F82D0000F0B2
:105040000100002871D01B48006890F82D0000F086
:105050001000002869D0114890F8380070B1174846
:105060000068B0F8320A0D49B1F86A100B4B3933B9
:105070000122CDE900101146104833E037E000006E
:10508000554954445F535A4A5320636F6E6E6563AB
:1050900074206661696C656420210A00CC040020DC
:1050A000C0000020AA0F00207E060020CC000020B7
:1050B000D4000020700C0020D0000020C40000208C
:1050C000554954445F6574685F58465A4420696E78
:1050D0006974206661696C656420210A0000000023
:1050E000740E0020006801F0C6FA099011E0FE4835
:1050F0000068B0F8320AFD49B1F86A10FB4B593329
:105100000022CDE900100121F748006801F0B3FA50
:1051100009900998002823DA00BFF44890F890001D
:1051200000F0010090B101E02AE044E0F0A022F09C
:10513000C2FFEE4890F8910040B1EC4890F86E0044
:1051400020B1EBA043F002FF43F065FF00BF6420F5
:1051500026F041F80020E449096881F8D0093BE0D5
:105160000120E149096881F8D00902E0052026F014
:1051700032F8DD48006890F8D0090028F6D01AE02F
:10518000D948006878B1D848006890F8D00901285B
:1051900009D1D54800680078022804D1D2490968AD
:1051A00081F8D00907E0D048006806F042FECE48FA
:1051B000006806F077F9D548007848B10521D44851
:1051C00007F0ECFC4FF4FA7026F005F800F0BBFC99
:1051D000012026F000F800BF23E788B000BF0020C0
:1051E0000490059006900790039002E0012025F0BE
:1051F000F2FFBE4890F88B000028F7D00020049002
:1052000005900690079002208DF81100B6490968B4
:10521000B1F82C0A39F000F9ADF81200B248006874
:10522000D0F8260A05901020039030E0AE480068C0
:1052300050B3AD48006890F8D00928B3AA48006878
:10524000D0F8D40900281FDB03A804A9CDE9001079
:10525000A5490968082340F2DB52D1F8D409AD49C9
:10526000096837F0DBF8AC49086008460068002898
:105270000ADD9D480068D0F8EC3908460268A54868
:105280000168994800689847012025F0A4FFCDE700
:1052900000BF0022A1A1A44821F099F902E0052055
:1052A00025F099FF914890F8D6000028F7D00AE041
:1052B0009E48006807F08EFB8B48006807F08AFB69
:1052C000012025F088FFF3E71FB598480068B8B9BA
:1052D00000BF864890F8900000F0040078B194A0D8
:1052E00022F0E9FE814890F8910040B17F4890F8A3
:1052F0006E0020B18EA043F029FE43F08CFEBCE18D
:1053000000BF7A4890F8900000F0040078B190480F
:1053100022F0D1FE754890F8910040B1734890F8A2
:105320006E0020B18A4843F011FE43F074FE00BFC6
:1053300000BF6E4890F8900000F0040048B30320CE
:10534000052104220223CDE90032CDE9021077487D
:1053500000680178012300227E4822F0ACFE6348F9
:1053600090F89100A8B1614890F86E0088B10320D0
:10537000052104220223CDE90032CDE902106B4859
:105380000068017801230022724843F0DFFD43F0FA
:1053900042FE00BF00BF554890F8900000F00400A6
:1053A000B8B16248006890F8051A6BA022F083FE3D
:1053B0004E4890F8910060B14C4890F86E0040B1B2
:1053C0005A48006890F8051A63A043F0BFFD43F007
:1053D00022FE00BF00BF454890F8900000F0040096
:1053E00088B35248006890F8290A00904F48006836
:1053F00090F8283A4D48006890F8272A4B480068F2
:1054000090F8261A59A022F056FE384890F89100DC
:10541000C8B1364890F86E00A8B14448006890F8CA
:10542000290A00904148006890F8283A3F480068EF
:1054300090F8272A3D48006890F8261A4BA043F0C0
:1054400085FD43F0E8FD00BF00BF284890F89000BC
:1054500000F00400B8B13548016801F6062148A003
:1054600022F029FE214890F8910060B11F4890F881
:105470006E0040B12D48016801F6062140A043F0BE
:1054800065FD43F0C8FD00BF00BF184890F89000CC
:1054900000F00400B8B125480068B0F82A1A3DA011
:1054A00022F009FE114890F8910060B10F4890F881
:1054B0006E0040B11D480068B0F82A1A35A043F0CC
:1054C00045FD43F0A8FD00BF00BF084890F89000DC
:1054D00000F0040030B11548006890F8310A0090DF
:1054E00012485DE088E00000C4000020CC040020E9
:1054F000554954445F58465A4420636F6E6E656345
:1055000074206661696C656420210A007E060020B3
:10551000AA0F0020D0000020D80000206574685F2A
:1055200073656E6400000000EC0D0020C0000020D8
:105530000A20554954442065746820535A4A532020
:105540006973206E6F742075736564200A00000013
:10555000D85805083C58050869665F7573655F6E25
:10556000616D653A2025640A0000000049503A2028
:1055700025642E25642E25642E25640A0000000073
:105580007365727665725F6E616D653A2025730A88
:1055900000000000706F72743A2025640A00000059
:1055A000006890F8303AF748006890F82F2AF548DC
:1055B000006890F82E1AF4A022F07DFDF84890F8CB
:1055C0009100C8B1F64890F86E00A8B1ED480068A7
:1055D00090F8310A0090EB48006890F8303AE948BA
:1055E000006890F82F2AE748006890F82E1AE6A085
:1055F00043F0ACFC43F00FFD00BF00BFE84890F85B
:10560000900000F00400B8B1DE480068B0F8321A2B
:10561000E4A022F050FDE24890F8910060B1E0482B
:1056200090F86E0040B1D7480068B0F8321ADDA09B
:1056300043F08CFC43F0EFFC00BF00BFD84890F86B
:10564000900000F00400B8B1CE480068B0F82C1A01
:10565000D8A022F030FDD24890F8910060B1D04837
:1056600090F86E0040B1C7480068B0F82C1AD1A07D
:1056700043F06CFC43F0CFFC00BFD3480068B8B9DE
:1056800000BFC74890F8900000F0040078B1CFA0A8
:1056900022F011FDC24890F8910040B1C04890F846
:1056A0006E0020B1C9A043F051FC43F0B4FC65E1A9
:1056B00000BFBB4890F8900000F0040078B1CB48E0
:1056C00022F0F9FCB64890F8910040B1B44890F847
:1056D0006E0020B1C54843F039FC43F09CFC00BF8C
:1056E00000BFAF4890F8900000F0040048B30320DA
:1056F000052104220223CDE90032CDE90210B2488F
:105700000068017801230022B94822F0D4FCA448A3
:1057100090F89100A8B1A24890F86E0088B10320DB
:10572000052104220223CDE90032CDE90210A6486A
:105730000068017801230022AD4843F007FC43F0E4
:105740006AFC00BF00BF964890F8900000F004008B
:10575000C8B19D48006890F8051AAFF2042022F005
:10576000AAFC8F4890F8910068B18D4890F86E00BF
:1057700048B19548006890F8051AAFF2242043F02C
:10578000E5FB43F048FC00BF00BF854890F890005F
:1057900000F0040098B38C48006890F8290A009043
:1057A0008948006890F8283A8748006890F8272AC6
:1057B0008548006890F8261AAFF2502022F07BFC52
:1057C000774890F89100D0B1754890F86E00B0B16C
:1057D0007D48006890F8290A00907B48006890F89E
:1057E000283A7948006890F8272A7748006890F8A6
:1057F000261AAFF2882043F0A9FB43F00CFC00BF4F
:1058000000BF674890F8900000F00400C8B16E48EF
:10581000016801F60621AFF2982022F04CFC6048A6
:1058200090F8910068B15E4890F86E0048B1664803
:10583000016801F60621AFF2B82043F087FB43F080
:10584000EAFB00BF00BF564890F8900000F004004B
:10585000C8B15D480068B0F82A1AAFF2C82022F03B
:105860002AFC4F4890F8910068B14D4890F86E00BE
:1058700048B155480068B0F82A1AAFF2E82043F062
:1058800065FB43F0C8FB00BF00BF454890F890009F
:1058900000F0040088B34C48006890F8310A00908A
:1058A0004948006890F8303A4748006890F82F2A35
:1058B0004548006890F82E1A33A022F0FCFB3848C7
:1058C00090F89100C8B1364890F86E00A8B13E48F3
:1058D000006890F8310A00903B48006890F8303A30
:1058E0003948006890F82F2A3748006890F82E1A37
:1058F00025A043F02BFB43F08EFB00BF00BF2848E0
:1059000090F8900000F00400B8B12F480068B0F89B
:10591000321A24A022F0CFFB214890F8910060B108
:105920001F4890F86E0040B127480068B0F8321A5E
:105930001CA043F00BFB43F06EFB00BF00BF1848F8
:1059400090F8900000F00400B8B11F480068B0F86B
:105950002C1A18A022F0AFFB114890F8910060B10A
:105960000F4890F86E0040B117480068B0F82C1A44
:1059700010A043F0EBFA43F04EFB00BF002004B050
:1059800010BD0000C00000206C6F63616C5F495067
:105990003A2025642E25642E25642E25640A0000F5
:1059A000CC0400206C6F63616C5F706F72743A207E
:1059B00025640A006C697374656E5F706F72743A67
:1059C0002025640A00000000C40000200A20554978
:1059D0005444206574682058465A44206973206EE8
:1059E0006F742075736564200A00000094580508E0
:1059F0003C58050804460D4616A022F05CFB2146E3
:105A00001EA022F058FB294621A022F054FB00BF23
:105A1000FEE710B50BF03FFE22F080FB20F0A6F968
:105A200024F0B1FE25F090FE1E491F4822F018FD1B
:105A300025F092F8FCF7D5FB25F092FE20F0E0FB74
:105A400025F0A6F810BD10B526F0B2F9FFF7E1FF7A
:105A5000002010BD0A0D2057726F6E6720706172B2
:105A6000616D657465722076616C7565206465741E
:105A70006563746564206F6E0D0A0000202020208D
:105A800020202066696C65202025730D0A00000027
:105A9000202020202020206C696E65202025640DA8
:105AA0000A00000000000220187900202DE9F041D2
:105AB00005460E46174600242946FEA022F0FBFAB2
:105AC00000BF04E0315DFCA022F0F5FA641CBC428A
:105AD000F8D3FBA022F0EFFABDE8F08170B50446E0
